{
	"contracts/PizzaSmartContract.sol": {
		"PizzaSmartContract": {
			"abi": [
				{
					"inputs": [
						{
							"internalType": "string",
							"name": "name",
							"type": "string"
						},
						{
							"internalType": "string",
							"name": "description",
							"type": "string"
						},
						{
							"internalType": "string[]",
							"name": "ingredients",
							"type": "string[]"
						},
						{
							"internalType": "int256",
							"name": "price",
							"type": "int256"
						},
						{
							"internalType": "int256",
							"name": "rating",
							"type": "int256"
						}
					],
					"name": "AddPizzaToProducts",
					"outputs": [],
					"stateMutability": "nonpayable",
					"type": "function"
				},
				{
					"inputs": [
						{
							"internalType": "uint256[]",
							"name": "pizzaIndices",
							"type": "uint256[]"
						}
					],
					"name": "BuyPizzas",
					"outputs": [],
					"stateMutability": "nonpayable",
					"type": "function"
				},
				{
					"inputs": [
						{
							"internalType": "uint256",
							"name": "",
							"type": "uint256"
						}
					],
					"name": "pizzas",
					"outputs": [
						{
							"internalType": "string",
							"name": "Name",
							"type": "string"
						},
						{
							"internalType": "string",
							"name": "Description",
							"type": "string"
						},
						{
							"internalType": "int256",
							"name": "Price",
							"type": "int256"
						},
						{
							"internalType": "int256",
							"name": "Rating",
							"type": "int256"
						}
					],
					"stateMutability": "view",
					"type": "function"
				},
				{
					"inputs": [
						{
							"internalType": "uint256",
							"name": "",
							"type": "uint256"
						}
					],
					"name": "receipts",
					"outputs": [
						{
							"internalType": "address",
							"name": "buyer",
							"type": "address"
						}
					],
					"stateMutability": "view",
					"type": "function"
				},
				{
					"inputs": [
						{
							"internalType": "address",
							"name": "",
							"type": "address"
						}
					],
					"name": "roles",
					"outputs": [
						{
							"internalType": "enum PizzaSmartContract.Roles",
							"name": "",
							"type": "uint8"
						}
					],
					"stateMutability": "view",
					"type": "function"
				}
			],
			"devdoc": {
				"kind": "dev",
				"methods": {},
				"version": 1
			},
			"evm": {
				"assembly": "    /* \"contracts/PizzaSmartContract.sol\":61:1905  contract PizzaSmartContract... */\n  mstore(0x40, 0x80)\n  callvalue\n  dup1\n  iszero\n  tag_1\n  jumpi\n  0x00\n  dup1\n  revert\ntag_1:\n  pop\n  dataSize(sub_0)\n  dup1\n  dataOffset(sub_0)\n  0x00\n  codecopy\n  0x00\n  return\nstop\n\nsub_0: assembly {\n        /* \"contracts/PizzaSmartContract.sol\":61:1905  contract PizzaSmartContract... */\n      mstore(0x40, 0x80)\n      callvalue\n      dup1\n      iszero\n      tag_1\n      jumpi\n      0x00\n      dup1\n      revert\n    tag_1:\n      pop\n      jumpi(tag_2, lt(calldatasize, 0x04))\n      shr(0xe0, calldataload(0x00))\n      dup1\n      0x0f7ee1ec\n      eq\n      tag_3\n      jumpi\n      dup1\n      0x168597b3\n      eq\n      tag_4\n      jumpi\n      dup1\n      0x6b67a1b2\n      eq\n      tag_5\n      jumpi\n      dup1\n      0x99374642\n      eq\n      tag_6\n      jumpi\n      dup1\n      0xf27e9b5f\n      eq\n      tag_7\n      jumpi\n    tag_2:\n      0x00\n      dup1\n      revert\n        /* \"contracts/PizzaSmartContract.sol\":843:868  Receipt[] public receipts */\n    tag_3:\n      tag_8\n      0x04\n      dup1\n      calldatasize\n      sub\n      dup2\n      add\n      swap1\n      tag_9\n      swap2\n      swap1\n      tag_10\n      jump\t// in\n    tag_9:\n      tag_11\n      jump\t// in\n    tag_8:\n      mload(0x40)\n      tag_12\n      swap2\n      swap1\n      tag_13\n      jump\t// in\n    tag_12:\n      mload(0x40)\n      dup1\n      swap2\n      sub\n      swap1\n      return\n        /* \"contracts/PizzaSmartContract.sol\":927:1342  function AddPizzaToProducts(string memory name, string memory description, string[] memory ingredients, int price, int rating) public OnlyManager... */\n    tag_4:\n      tag_14\n      0x04\n      dup1\n      calldatasize\n      sub\n      dup2\n      add\n      swap1\n      tag_15\n      swap2\n      swap1\n      tag_16\n      jump\t// in\n    tag_15:\n      tag_17\n      jump\t// in\n    tag_14:\n      stop\n        /* \"contracts/PizzaSmartContract.sol\":714:735  Pizza[] public pizzas */\n    tag_5:\n      tag_18\n      0x04\n      dup1\n      calldatasize\n      sub\n      dup2\n      add\n      swap1\n      tag_19\n      swap2\n      swap1\n      tag_10\n      jump\t// in\n    tag_19:\n      tag_20\n      jump\t// in\n    tag_18:\n      mload(0x40)\n      tag_21\n      swap5\n      swap4\n      swap3\n      swap2\n      swap1\n      tag_22\n      jump\t// in\n    tag_21:\n      mload(0x40)\n      dup1\n      swap2\n      sub\n      swap1\n      return\n        /* \"contracts/PizzaSmartContract.sol\":879:918  mapping (address => Roles) public roles */\n    tag_6:\n      tag_23\n      0x04\n      dup1\n      calldatasize\n      sub\n      dup2\n      add\n      swap1\n      tag_24\n      swap2\n      swap1\n      tag_25\n      jump\t// in\n    tag_24:\n      tag_26\n      jump\t// in\n    tag_23:\n      mload(0x40)\n      tag_27\n      swap2\n      swap1\n      tag_28\n      jump\t// in\n    tag_27:\n      mload(0x40)\n      dup1\n      swap2\n      sub\n      swap1\n      return\n        /* \"contracts/PizzaSmartContract.sol\":1350:1902  function BuyPizzas(uint256[] memory pizzaIndices) public OnlyUser... */\n    tag_7:\n      tag_29\n      0x04\n      dup1\n      calldatasize\n      sub\n      dup2\n      add\n      swap1\n      tag_30\n      swap2\n      swap1\n      tag_31\n      jump\t// in\n    tag_30:\n      tag_32\n      jump\t// in\n    tag_29:\n      stop\n        /* \"contracts/PizzaSmartContract.sol\":843:868  Receipt[] public receipts */\n    tag_11:\n      0x01\n      dup2\n      dup2\n      sload\n      dup2\n      lt\n      tag_33\n      jumpi\n      0x00\n      dup1\n      revert\n    tag_33:\n      swap1\n      0x00\n      mstore\n      keccak256(0x00, 0x20)\n      swap1\n      0x02\n      mul\n      add\n      0x00\n      swap2\n      pop\n      swap1\n      pop\n      dup1\n      0x00\n      add\n      0x00\n      swap1\n      sload\n      swap1\n      0x0100\n      exp\n      swap1\n      div\n      0xffffffffffffffffffffffffffffffffffffffff\n      and\n      swap1\n      pop\n      dup2\n      jump\t// out\n        /* \"contracts/PizzaSmartContract.sol\":927:1342  function AddPizzaToProducts(string memory name, string memory description, string[] memory ingredients, int price, int rating) public OnlyManager... */\n    tag_17:\n        /* \"contracts/PizzaSmartContract.sol\":245:258  Roles.Manager */\n      0x02\n        /* \"contracts/PizzaSmartContract.sol\":224:258  roles[msg.sender] == Roles.Manager */\n      dup1\n      dup2\n      gt\n      iszero\n      tag_36\n      jumpi\n      tag_37\n      tag_38\n      jump\t// in\n    tag_37:\n    tag_36:\n        /* \"contracts/PizzaSmartContract.sol\":224:229  roles */\n      0x02\n        /* \"contracts/PizzaSmartContract.sol\":224:241  roles[msg.sender] */\n      0x00\n        /* \"contracts/PizzaSmartContract.sol\":230:240  msg.sender */\n      caller\n        /* \"contracts/PizzaSmartContract.sol\":224:241  roles[msg.sender] */\n      0xffffffffffffffffffffffffffffffffffffffff\n      and\n      0xffffffffffffffffffffffffffffffffffffffff\n      and\n      dup2\n      mstore\n      0x20\n      add\n      swap1\n      dup2\n      mstore\n      0x20\n      add\n      0x00\n      keccak256\n      0x00\n      swap1\n      sload\n      swap1\n      0x0100\n      exp\n      swap1\n      div\n      0xff\n      and\n        /* \"contracts/PizzaSmartContract.sol\":224:258  roles[msg.sender] == Roles.Manager */\n      0x02\n      dup2\n      gt\n      iszero\n      tag_39\n      jumpi\n      tag_40\n      tag_38\n      jump\t// in\n    tag_40:\n    tag_39:\n      eq\n        /* \"contracts/PizzaSmartContract.sol\":216:259  require(roles[msg.sender] == Roles.Manager) */\n      tag_41\n      jumpi\n      0x00\n      dup1\n      revert\n    tag_41:\n        /* \"contracts/PizzaSmartContract.sol\":1089:1110  Pizza memory newPizza */\n      0x00\n        /* \"contracts/PizzaSmartContract.sol\":1113:1300  Pizza(... */\n      mload(0x40)\n      dup1\n      0xa0\n      add\n      0x40\n      mstore\n      dup1\n        /* \"contracts/PizzaSmartContract.sol\":1150:1154  name */\n      dup8\n        /* \"contracts/PizzaSmartContract.sol\":1113:1300  Pizza(... */\n      dup2\n      mstore\n      0x20\n      add\n        /* \"contracts/PizzaSmartContract.sol\":1182:1193  description */\n      dup7\n        /* \"contracts/PizzaSmartContract.sol\":1113:1300  Pizza(... */\n      dup2\n      mstore\n      0x20\n      add\n        /* \"contracts/PizzaSmartContract.sol\":1221:1232  ingredients */\n      dup6\n        /* \"contracts/PizzaSmartContract.sol\":1113:1300  Pizza(... */\n      dup2\n      mstore\n      0x20\n      add\n        /* \"contracts/PizzaSmartContract.sol\":1254:1259  price */\n      dup5\n        /* \"contracts/PizzaSmartContract.sol\":1113:1300  Pizza(... */\n      dup2\n      mstore\n      0x20\n      add\n        /* \"contracts/PizzaSmartContract.sol\":1282:1288  rating */\n      dup4\n        /* \"contracts/PizzaSmartContract.sol\":1113:1300  Pizza(... */\n      dup2\n      mstore\n      pop\n        /* \"contracts/PizzaSmartContract.sol\":1089:1300  Pizza memory newPizza = Pizza(... */\n      swap1\n      pop\n        /* \"contracts/PizzaSmartContract.sol\":1313:1319  pizzas */\n      0x00\n        /* \"contracts/PizzaSmartContract.sol\":1325:1333  newPizza */\n      dup2\n        /* \"contracts/PizzaSmartContract.sol\":1313:1334  pizzas.push(newPizza) */\n      swap1\n      dup1\n      0x01\n      dup2\n      sload\n      add\n      dup1\n      dup3\n      sstore\n      dup1\n      swap2\n      pop\n      pop\n      0x01\n      swap1\n      sub\n      swap1\n      0x00\n      mstore\n      keccak256(0x00, 0x20)\n      swap1\n      0x05\n      mul\n      add\n      0x00\n      swap1\n      swap2\n      swap1\n      swap2\n      swap1\n      swap2\n      pop\n      0x00\n      dup3\n      add\n      mload\n      dup2\n      0x00\n      add\n      swap1\n      dup2\n      tag_44\n      swap2\n      swap1\n      tag_45\n      jump\t// in\n    tag_44:\n      pop\n      0x20\n      dup3\n      add\n      mload\n      dup2\n      0x01\n      add\n      swap1\n      dup2\n      tag_46\n      swap2\n      swap1\n      tag_45\n      jump\t// in\n    tag_46:\n      pop\n      0x40\n      dup3\n      add\n      mload\n      dup2\n      0x02\n      add\n      swap1\n      dup1\n      mload\n      swap1\n      0x20\n      add\n      swap1\n      tag_47\n      swap3\n      swap2\n      swap1\n      tag_48\n      jump\t// in\n    tag_47:\n      pop\n      0x60\n      dup3\n      add\n      mload\n      dup2\n      0x03\n      add\n      sstore\n      0x80\n      dup3\n      add\n      mload\n      dup2\n      0x04\n      add\n      sstore\n      pop\n      pop\n        /* \"contracts/PizzaSmartContract.sol\":1078:1342  {... */\n      pop\n        /* \"contracts/PizzaSmartContract.sol\":927:1342  function AddPizzaToProducts(string memory name, string memory description, string[] memory ingredients, int price, int rating) public OnlyManager... */\n      pop\n      pop\n      pop\n      pop\n      pop\n      jump\t// out\n        /* \"contracts/PizzaSmartContract.sol\":714:735  Pizza[] public pizzas */\n    tag_20:\n      0x00\n      dup2\n      dup2\n      sload\n      dup2\n      lt\n      tag_49\n      jumpi\n      0x00\n      dup1\n      revert\n    tag_49:\n      swap1\n      0x00\n      mstore\n      keccak256(0x00, 0x20)\n      swap1\n      0x05\n      mul\n      add\n      0x00\n      swap2\n      pop\n      swap1\n      pop\n      dup1\n      0x00\n      add\n      dup1\n      sload\n      tag_51\n      swap1\n      tag_52\n      jump\t// in\n    tag_51:\n      dup1\n      0x1f\n      add\n      0x20\n      dup1\n      swap2\n      div\n      mul\n      0x20\n      add\n      mload(0x40)\n      swap1\n      dup2\n      add\n      0x40\n      mstore\n      dup1\n      swap3\n      swap2\n      swap1\n      dup2\n      dup2\n      mstore\n      0x20\n      add\n      dup3\n      dup1\n      sload\n      tag_53\n      swap1\n      tag_52\n      jump\t// in\n    tag_53:\n      dup1\n      iszero\n      tag_54\n      jumpi\n      dup1\n      0x1f\n      lt\n      tag_55\n      jumpi\n      0x0100\n      dup1\n      dup4\n      sload\n      div\n      mul\n      dup4\n      mstore\n      swap2\n      0x20\n      add\n      swap2\n      jump(tag_54)\n    tag_55:\n      dup3\n      add\n      swap2\n      swap1\n      0x00\n      mstore\n      keccak256(0x00, 0x20)\n      swap1\n    tag_56:\n      dup2\n      sload\n      dup2\n      mstore\n      swap1\n      0x01\n      add\n      swap1\n      0x20\n      add\n      dup1\n      dup4\n      gt\n      tag_56\n      jumpi\n      dup3\n      swap1\n      sub\n      0x1f\n      and\n      dup3\n      add\n      swap2\n    tag_54:\n      pop\n      pop\n      pop\n      pop\n      pop\n      swap1\n      dup1\n      0x01\n      add\n      dup1\n      sload\n      tag_57\n      swap1\n      tag_52\n      jump\t// in\n    tag_57:\n      dup1\n      0x1f\n      add\n      0x20\n      dup1\n      swap2\n      div\n      mul\n      0x20\n      add\n      mload(0x40)\n      swap1\n      dup2\n      add\n      0x40\n      mstore\n      dup1\n      swap3\n      swap2\n      swap1\n      dup2\n      dup2\n      mstore\n      0x20\n      add\n      dup3\n      dup1\n      sload\n      tag_58\n      swap1\n      tag_52\n      jump\t// in\n    tag_58:\n      dup1\n      iszero\n      tag_59\n      jumpi\n      dup1\n      0x1f\n      lt\n      tag_60\n      jumpi\n      0x0100\n      dup1\n      dup4\n      sload\n      div\n      mul\n      dup4\n      mstore\n      swap2\n      0x20\n      add\n      swap2\n      jump(tag_59)\n    tag_60:\n      dup3\n      add\n      swap2\n      swap1\n      0x00\n      mstore\n      keccak256(0x00, 0x20)\n      swap1\n    tag_61:\n      dup2\n      sload\n      dup2\n      mstore\n      swap1\n      0x01\n      add\n      swap1\n      0x20\n      add\n      dup1\n      dup4\n      gt\n      tag_61\n      jumpi\n      dup3\n      swap1\n      sub\n      0x1f\n      and\n      dup3\n      add\n      swap2\n    tag_59:\n      pop\n      pop\n      pop\n      pop\n      pop\n      swap1\n      dup1\n      0x03\n      add\n      sload\n      swap1\n      dup1\n      0x04\n      add\n      sload\n      swap1\n      pop\n      dup5\n      jump\t// out\n        /* \"contracts/PizzaSmartContract.sol\":879:918  mapping (address => Roles) public roles */\n    tag_26:\n      mstore(0x20, 0x02)\n      dup1\n      0x00\n      mstore\n      keccak256(0x00, 0x40)\n      0x00\n      swap2\n      pop\n      sload\n      swap1\n      0x0100\n      exp\n      swap1\n      div\n      0xff\n      and\n      dup2\n      jump\t// out\n        /* \"contracts/PizzaSmartContract.sol\":1350:1902  function BuyPizzas(uint256[] memory pizzaIndices) public OnlyUser... */\n    tag_32:\n        /* \"contracts/PizzaSmartContract.sol\":352:362  Roles.User */\n      0x01\n        /* \"contracts/PizzaSmartContract.sol\":331:362  roles[msg.sender] == Roles.User */\n      0x02\n      dup2\n      gt\n      iszero\n      tag_63\n      jumpi\n      tag_64\n      tag_38\n      jump\t// in\n    tag_64:\n    tag_63:\n        /* \"contracts/PizzaSmartContract.sol\":331:336  roles */\n      0x02\n        /* \"contracts/PizzaSmartContract.sol\":331:348  roles[msg.sender] */\n      0x00\n        /* \"contracts/PizzaSmartContract.sol\":337:347  msg.sender */\n      caller\n        /* \"contracts/PizzaSmartContract.sol\":331:348  roles[msg.sender] */\n      0xffffffffffffffffffffffffffffffffffffffff\n      and\n      0xffffffffffffffffffffffffffffffffffffffff\n      and\n      dup2\n      mstore\n      0x20\n      add\n      swap1\n      dup2\n      mstore\n      0x20\n      add\n      0x00\n      keccak256\n      0x00\n      swap1\n      sload\n      swap1\n      0x0100\n      exp\n      swap1\n      div\n      0xff\n      and\n        /* \"contracts/PizzaSmartContract.sol\":331:362  roles[msg.sender] == Roles.User */\n      0x02\n      dup2\n      gt\n      iszero\n      tag_65\n      jumpi\n      tag_66\n      tag_38\n      jump\t// in\n    tag_66:\n    tag_65:\n      eq\n        /* \"contracts/PizzaSmartContract.sol\":323:363  require(roles[msg.sender] == Roles.User) */\n      tag_67\n      jumpi\n      0x00\n      dup1\n      revert\n    tag_67:\n        /* \"contracts/PizzaSmartContract.sol\":1432:1462  Pizza[] memory purchasedPizzas */\n      0x00\n        /* \"contracts/PizzaSmartContract.sol\":1477:1489  pizzaIndices */\n      dup2\n        /* \"contracts/PizzaSmartContract.sol\":1477:1496  pizzaIndices.length */\n      mload\n        /* \"contracts/PizzaSmartContract.sol\":1465:1497  new Pizza[](pizzaIndices.length) */\n      0xffffffffffffffff\n      dup2\n      gt\n      iszero\n      tag_69\n      jumpi\n      tag_70\n      tag_71\n      jump\t// in\n    tag_70:\n    tag_69:\n      mload(0x40)\n      swap1\n      dup1\n      dup3\n      mstore\n      dup1\n      0x20\n      mul\n      0x20\n      add\n      dup3\n      add\n      0x40\n      mstore\n      dup1\n      iszero\n      tag_72\n      jumpi\n      dup2\n      0x20\n      add\n    tag_73:\n      tag_74\n      tag_75\n      jump\t// in\n    tag_74:\n      dup2\n      mstore\n      0x20\n      add\n      swap1\n      0x01\n      swap1\n      sub\n      swap1\n      dup2\n      tag_73\n      jumpi\n      swap1\n      pop\n    tag_72:\n      pop\n        /* \"contracts/PizzaSmartContract.sol\":1432:1497  Pizza[] memory purchasedPizzas = new Pizza[](pizzaIndices.length) */\n      swap1\n      pop\n        /* \"contracts/PizzaSmartContract.sol\":1514:1523  uint256 i */\n      0x00\n        /* \"contracts/PizzaSmartContract.sol\":1510:1681  for(uint256 i = 0; i < pizzaIndices.length; i++)... */\n    tag_76:\n        /* \"contracts/PizzaSmartContract.sol\":1533:1545  pizzaIndices */\n      dup3\n        /* \"contracts/PizzaSmartContract.sol\":1533:1552  pizzaIndices.length */\n      mload\n        /* \"contracts/PizzaSmartContract.sol\":1529:1530  i */\n      dup2\n        /* \"contracts/PizzaSmartContract.sol\":1529:1552  i < pizzaIndices.length */\n      lt\n        /* \"contracts/PizzaSmartContract.sol\":1510:1681  for(uint256 i = 0; i < pizzaIndices.length; i++)... */\n      iszero\n      tag_77\n      jumpi\n        /* \"contracts/PizzaSmartContract.sol\":1583:1602  Pizza storage pizza */\n      0x00\n        /* \"contracts/PizzaSmartContract.sol\":1605:1611  pizzas */\n      dup1\n        /* \"contracts/PizzaSmartContract.sol\":1612:1624  pizzaIndices */\n      dup5\n        /* \"contracts/PizzaSmartContract.sol\":1625:1626  i */\n      dup4\n        /* \"contracts/PizzaSmartContract.sol\":1612:1627  pizzaIndices[i] */\n      dup2\n      mload\n      dup2\n      lt\n      tag_79\n      jumpi\n      tag_80\n      tag_81\n      jump\t// in\n    tag_80:\n    tag_79:\n      0x20\n      mul\n      0x20\n      add\n      add\n      mload\n        /* \"contracts/PizzaSmartContract.sol\":1605:1628  pizzas[pizzaIndices[i]] */\n      dup2\n      sload\n      dup2\n      lt\n      tag_82\n      jumpi\n      tag_83\n      tag_81\n      jump\t// in\n    tag_83:\n    tag_82:\n      swap1\n      0x00\n      mstore\n      keccak256(0x00, 0x20)\n      swap1\n      0x05\n      mul\n      add\n        /* \"contracts/PizzaSmartContract.sol\":1583:1628  Pizza storage pizza = pizzas[pizzaIndices[i]] */\n      swap1\n      pop\n        /* \"contracts/PizzaSmartContract.sol\":1664:1669  pizza */\n      dup1\n        /* \"contracts/PizzaSmartContract.sol\":1643:1669  purchasedPizzas[i] = pizza */\n      mload(0x40)\n      dup1\n      0xa0\n      add\n      0x40\n      mstore\n      swap1\n      dup2\n      0x00\n      dup3\n      add\n      dup1\n      sload\n      tag_85\n      swap1\n      tag_52\n      jump\t// in\n    tag_85:\n      dup1\n      0x1f\n      add\n      0x20\n      dup1\n      swap2\n      div\n      mul\n      0x20\n      add\n      mload(0x40)\n      swap1\n      dup2\n      add\n      0x40\n      mstore\n      dup1\n      swap3\n      swap2\n      swap1\n      dup2\n      dup2\n      mstore\n      0x20\n      add\n      dup3\n      dup1\n      sload\n      tag_86\n      swap1\n      tag_52\n      jump\t// in\n    tag_86:\n      dup1\n      iszero\n      tag_87\n      jumpi\n      dup1\n      0x1f\n      lt\n      tag_88\n      jumpi\n      0x0100\n      dup1\n      dup4\n      sload\n      div\n      mul\n      dup4\n      mstore\n      swap2\n      0x20\n      add\n      swap2\n      jump(tag_87)\n    tag_88:\n      dup3\n      add\n      swap2\n      swap1\n      0x00\n      mstore\n      keccak256(0x00, 0x20)\n      swap1\n    tag_89:\n      dup2\n      sload\n      dup2\n      mstore\n      swap1\n      0x01\n      add\n      swap1\n      0x20\n      add\n      dup1\n      dup4\n      gt\n      tag_89\n      jumpi\n      dup3\n      swap1\n      sub\n      0x1f\n      and\n      dup3\n      add\n      swap2\n    tag_87:\n      pop\n      pop\n      pop\n      pop\n      pop\n      dup2\n      mstore\n      0x20\n      add\n      0x01\n      dup3\n      add\n      dup1\n      sload\n      tag_90\n      swap1\n      tag_52\n      jump\t// in\n    tag_90:\n      dup1\n      0x1f\n      add\n      0x20\n      dup1\n      swap2\n      div\n      mul\n      0x20\n      add\n      mload(0x40)\n      swap1\n      dup2\n      add\n      0x40\n      mstore\n      dup1\n      swap3\n      swap2\n      swap1\n      dup2\n      dup2\n      mstore\n      0x20\n      add\n      dup3\n      dup1\n      sload\n      tag_91\n      swap1\n      tag_52\n      jump\t// in\n    tag_91:\n      dup1\n      iszero\n      tag_92\n      jumpi\n      dup1\n      0x1f\n      lt\n      tag_93\n      jumpi\n      0x0100\n      dup1\n      dup4\n      sload\n      div\n      mul\n      dup4\n      mstore\n      swap2\n      0x20\n      add\n      swap2\n      jump(tag_92)\n    tag_93:\n      dup3\n      add\n      swap2\n      swap1\n      0x00\n      mstore\n      keccak256(0x00, 0x20)\n      swap1\n    tag_94:\n      dup2\n      sload\n      dup2\n      mstore\n      swap1\n      0x01\n      add\n      swap1\n      0x20\n      add\n      dup1\n      dup4\n      gt\n      tag_94\n      jumpi\n      dup3\n      swap1\n      sub\n      0x1f\n      and\n      dup3\n      add\n      swap2\n    tag_92:\n      pop\n      pop\n      pop\n      pop\n      pop\n      dup2\n      mstore\n      0x20\n      add\n      0x02\n      dup3\n      add\n      dup1\n      sload\n      dup1\n      0x20\n      mul\n      0x20\n      add\n      mload(0x40)\n      swap1\n      dup2\n      add\n      0x40\n      mstore\n      dup1\n      swap3\n      swap2\n      swap1\n      dup2\n      dup2\n      mstore\n      0x20\n      add\n      0x00\n      swap1\n    tag_95:\n      dup3\n      dup3\n      lt\n      iszero\n      tag_96\n      jumpi\n      dup4\n      dup3\n      swap1\n      0x00\n      mstore\n      keccak256(0x00, 0x20)\n      add\n      dup1\n      sload\n      tag_98\n      swap1\n      tag_52\n      jump\t// in\n    tag_98:\n      dup1\n      0x1f\n      add\n      0x20\n      dup1\n      swap2\n      div\n      mul\n      0x20\n      add\n      mload(0x40)\n      swap1\n      dup2\n      add\n      0x40\n      mstore\n      dup1\n      swap3\n      swap2\n      swap1\n      dup2\n      dup2\n      mstore\n      0x20\n      add\n      dup3\n      dup1\n      sload\n      tag_99\n      swap1\n      tag_52\n      jump\t// in\n    tag_99:\n      dup1\n      iszero\n      tag_100\n      jumpi\n      dup1\n      0x1f\n      lt\n      tag_101\n      jumpi\n      0x0100\n      dup1\n      dup4\n      sload\n      div\n      mul\n      dup4\n      mstore\n      swap2\n      0x20\n      add\n      swap2\n      jump(tag_100)\n    tag_101:\n      dup3\n      add\n      swap2\n      swap1\n      0x00\n      mstore\n      keccak256(0x00, 0x20)\n      swap1\n    tag_102:\n      dup2\n      sload\n      dup2\n      mstore\n      swap1\n      0x01\n      add\n      swap1\n      0x20\n      add\n      dup1\n      dup4\n      gt\n      tag_102\n      jumpi\n      dup3\n      swap1\n      sub\n      0x1f\n      and\n      dup3\n      add\n      swap2\n    tag_100:\n      pop\n      pop\n      pop\n      pop\n      pop\n      dup2\n      mstore\n      0x20\n      add\n      swap1\n      0x01\n      add\n      swap1\n      jump(tag_95)\n    tag_96:\n      pop\n      pop\n      pop\n      pop\n      dup2\n      mstore\n      0x20\n      add\n      0x03\n      dup3\n      add\n      sload\n      dup2\n      mstore\n      0x20\n      add\n      0x04\n      dup3\n      add\n      sload\n      dup2\n      mstore\n      pop\n      pop\n        /* \"contracts/PizzaSmartContract.sol\":1643:1658  purchasedPizzas */\n      dup4\n        /* \"contracts/PizzaSmartContract.sol\":1659:1660  i */\n      dup4\n        /* \"contracts/PizzaSmartContract.sol\":1643:1661  purchasedPizzas[i] */\n      dup2\n      mload\n      dup2\n      lt\n      tag_103\n      jumpi\n      tag_104\n      tag_81\n      jump\t// in\n    tag_104:\n    tag_103:\n      0x20\n      mul\n      0x20\n      add\n      add\n        /* \"contracts/PizzaSmartContract.sol\":1643:1669  purchasedPizzas[i] = pizza */\n      dup2\n      swap1\n      mstore\n      pop\n        /* \"contracts/PizzaSmartContract.sol\":1568:1681  {... */\n      pop\n        /* \"contracts/PizzaSmartContract.sol\":1554:1557  i++ */\n      dup1\n      dup1\n      0x01\n      add\n      swap2\n      pop\n      pop\n        /* \"contracts/PizzaSmartContract.sol\":1510:1681  for(uint256 i = 0; i < pizzaIndices.length; i++)... */\n      jump(tag_76)\n    tag_77:\n      pop\n        /* \"contracts/PizzaSmartContract.sol\":1693:1718  Receipt memory newReceipt */\n      0x00\n        /* \"contracts/PizzaSmartContract.sol\":1721:1856  Receipt(... */\n      mload(0x40)\n      dup1\n      0x40\n      add\n      0x40\n      mstore\n      dup1\n        /* \"contracts/PizzaSmartContract.sol\":1769:1779  msg.sender */\n      caller\n        /* \"contracts/PizzaSmartContract.sol\":1721:1856  Receipt(... */\n      0xffffffffffffffffffffffffffffffffffffffff\n      and\n      dup2\n      mstore\n      0x20\n      add\n        /* \"contracts/PizzaSmartContract.sol\":1818:1830  pizzaIndices */\n      dup5\n        /* \"contracts/PizzaSmartContract.sol\":1721:1856  Receipt(... */\n      dup2\n      mstore\n      pop\n        /* \"contracts/PizzaSmartContract.sol\":1693:1856  Receipt memory newReceipt = Receipt(... */\n      swap1\n      pop\n        /* \"contracts/PizzaSmartContract.sol\":1869:1877  receipts */\n      0x01\n        /* \"contracts/PizzaSmartContract.sol\":1883:1893  newReceipt */\n      dup2\n        /* \"contracts/PizzaSmartContract.sol\":1869:1894  receipts.push(newReceipt) */\n      swap1\n      dup1\n      0x01\n      dup2\n      sload\n      add\n      dup1\n      dup3\n      sstore\n      dup1\n      swap2\n      pop\n      pop\n      0x01\n      swap1\n      sub\n      swap1\n      0x00\n      mstore\n      keccak256(0x00, 0x20)\n      swap1\n      0x02\n      mul\n      add\n      0x00\n      swap1\n      swap2\n      swap1\n      swap2\n      swap1\n      swap2\n      pop\n      0x00\n      dup3\n      add\n      mload\n      dup2\n      0x00\n      add\n      exp(0x0100, 0x00)\n      dup2\n      sload\n      dup2\n      0xffffffffffffffffffffffffffffffffffffffff\n      mul\n      not\n      and\n      swap1\n      dup4\n      0xffffffffffffffffffffffffffffffffffffffff\n      and\n      mul\n      or\n      swap1\n      sstore\n      pop\n      0x20\n      dup3\n      add\n      mload\n      dup2\n      0x01\n      add\n      swap1\n      dup1\n      mload\n      swap1\n      0x20\n      add\n      swap1\n      tag_106\n      swap3\n      swap2\n      swap1\n      tag_107\n      jump\t// in\n    tag_106:\n      pop\n      pop\n      pop\n        /* \"contracts/PizzaSmartContract.sol\":1421:1902  {... */\n      pop\n      pop\n        /* \"contracts/PizzaSmartContract.sol\":1350:1902  function BuyPizzas(uint256[] memory pizzaIndices) public OnlyUser... */\n      pop\n      jump\t// out\n    tag_48:\n      dup3\n      dup1\n      sload\n      dup3\n      dup3\n      sstore\n      swap1\n      0x00\n      mstore\n      keccak256(0x00, 0x20)\n      swap1\n      dup2\n      add\n      swap3\n      dup3\n      iszero\n      tag_108\n      jumpi\n      swap2\n      0x20\n      mul\n      dup3\n      add\n    tag_109:\n      dup3\n      dup2\n      gt\n      iszero\n      tag_110\n      jumpi\n      dup3\n      mload\n      dup3\n      swap1\n      dup2\n      tag_111\n      swap2\n      swap1\n      tag_45\n      jump\t// in\n    tag_111:\n      pop\n      swap2\n      0x20\n      add\n      swap2\n      swap1\n      0x01\n      add\n      swap1\n      jump(tag_109)\n    tag_110:\n    tag_108:\n      pop\n      swap1\n      pop\n      tag_112\n      swap2\n      swap1\n      tag_113\n      jump\t// in\n    tag_112:\n      pop\n      swap1\n      jump\t// out\n    tag_75:\n      mload(0x40)\n      dup1\n      0xa0\n      add\n      0x40\n      mstore\n      dup1\n      0x60\n      dup2\n      mstore\n      0x20\n      add\n      0x60\n      dup2\n      mstore\n      0x20\n      add\n      0x60\n      dup2\n      mstore\n      0x20\n      add\n      0x00\n      dup2\n      mstore\n      0x20\n      add\n      0x00\n      dup2\n      mstore\n      pop\n      swap1\n      jump\t// out\n    tag_107:\n      dup3\n      dup1\n      sload\n      dup3\n      dup3\n      sstore\n      swap1\n      0x00\n      mstore\n      keccak256(0x00, 0x20)\n      swap1\n      dup2\n      add\n      swap3\n      dup3\n      iszero\n      tag_114\n      jumpi\n      swap2\n      0x20\n      mul\n      dup3\n      add\n    tag_115:\n      dup3\n      dup2\n      gt\n      iszero\n      tag_116\n      jumpi\n      dup3\n      mload\n      dup3\n      sstore\n      swap2\n      0x20\n      add\n      swap2\n      swap1\n      0x01\n      add\n      swap1\n      jump(tag_115)\n    tag_116:\n    tag_114:\n      pop\n      swap1\n      pop\n      tag_117\n      swap2\n      swap1\n      tag_118\n      jump\t// in\n    tag_117:\n      pop\n      swap1\n      jump\t// out\n    tag_113:\n    tag_119:\n      dup1\n      dup3\n      gt\n      iszero\n      tag_120\n      jumpi\n      0x00\n      dup2\n      dup2\n      tag_121\n      swap2\n      swap1\n      tag_122\n      jump\t// in\n    tag_121:\n      pop\n      0x01\n      add\n      jump(tag_119)\n    tag_120:\n      pop\n      swap1\n      jump\t// out\n    tag_118:\n    tag_123:\n      dup1\n      dup3\n      gt\n      iszero\n      tag_124\n      jumpi\n      0x00\n      dup2\n      0x00\n      swap1\n      sstore\n      pop\n      0x01\n      add\n      jump(tag_123)\n    tag_124:\n      pop\n      swap1\n      jump\t// out\n    tag_122:\n      pop\n      dup1\n      sload\n      tag_125\n      swap1\n      tag_52\n      jump\t// in\n    tag_125:\n      0x00\n      dup3\n      sstore\n      dup1\n      0x1f\n      lt\n      tag_127\n      jumpi\n      pop\n      jump(tag_126)\n    tag_127:\n      0x1f\n      add\n      0x20\n      swap1\n      div\n      swap1\n      0x00\n      mstore\n      keccak256(0x00, 0x20)\n      swap1\n      dup2\n      add\n      swap1\n      tag_128\n      swap2\n      swap1\n      tag_118\n      jump\t// in\n    tag_128:\n    tag_126:\n      pop\n      jump\t// out\n        /* \"#utility.yul\":7:82   */\n    tag_129:\n        /* \"#utility.yul\":40:46   */\n      0x00\n        /* \"#utility.yul\":73:75   */\n      0x40\n        /* \"#utility.yul\":67:76   */\n      mload\n        /* \"#utility.yul\":57:76   */\n      swap1\n      pop\n        /* \"#utility.yul\":7:82   */\n      swap1\n      jump\t// out\n        /* \"#utility.yul\":88:205   */\n    tag_130:\n        /* \"#utility.yul\":197:198   */\n      0x00\n        /* \"#utility.yul\":194:195   */\n      dup1\n        /* \"#utility.yul\":187:199   */\n      revert\n        /* \"#utility.yul\":211:328   */\n    tag_131:\n        /* \"#utility.yul\":320:321   */\n      0x00\n        /* \"#utility.yul\":317:318   */\n      dup1\n        /* \"#utility.yul\":310:322   */\n      revert\n        /* \"#utility.yul\":334:411   */\n    tag_132:\n        /* \"#utility.yul\":371:378   */\n      0x00\n        /* \"#utility.yul\":400:405   */\n      dup2\n        /* \"#utility.yul\":389:405   */\n      swap1\n      pop\n        /* \"#utility.yul\":334:411   */\n      swap2\n      swap1\n      pop\n      jump\t// out\n        /* \"#utility.yul\":417:539   */\n    tag_133:\n        /* \"#utility.yul\":490:514   */\n      tag_190\n        /* \"#utility.yul\":508:513   */\n      dup2\n        /* \"#utility.yul\":490:514   */\n      tag_132\n      jump\t// in\n    tag_190:\n        /* \"#utility.yul\":483:488   */\n      dup2\n        /* \"#utility.yul\":480:515   */\n      eq\n        /* \"#utility.yul\":470:533   */\n      tag_191\n      jumpi\n        /* \"#utility.yul\":529:530   */\n      0x00\n        /* \"#utility.yul\":526:527   */\n      dup1\n        /* \"#utility.yul\":519:531   */\n      revert\n        /* \"#utility.yul\":470:533   */\n    tag_191:\n        /* \"#utility.yul\":417:539   */\n      pop\n      jump\t// out\n        /* \"#utility.yul\":545:684   */\n    tag_134:\n        /* \"#utility.yul\":591:596   */\n      0x00\n        /* \"#utility.yul\":629:635   */\n      dup2\n        /* \"#utility.yul\":616:636   */\n      calldataload\n        /* \"#utility.yul\":607:636   */\n      swap1\n      pop\n        /* \"#utility.yul\":645:678   */\n      tag_193\n        /* \"#utility.yul\":672:677   */\n      dup2\n        /* \"#utility.yul\":645:678   */\n      tag_133\n      jump\t// in\n    tag_193:\n        /* \"#utility.yul\":545:684   */\n      swap3\n      swap2\n      pop\n      pop\n      jump\t// out\n        /* \"#utility.yul\":690:1019   */\n    tag_10:\n        /* \"#utility.yul\":749:755   */\n      0x00\n        /* \"#utility.yul\":798:800   */\n      0x20\n        /* \"#utility.yul\":786:795   */\n      dup3\n        /* \"#utility.yul\":777:784   */\n      dup5\n        /* \"#utility.yul\":773:796   */\n      sub\n        /* \"#utility.yul\":769:801   */\n      slt\n        /* \"#utility.yul\":766:885   */\n      iszero\n      tag_195\n      jumpi\n        /* \"#utility.yul\":804:883   */\n      tag_196\n      tag_130\n      jump\t// in\n    tag_196:\n        /* \"#utility.yul\":766:885   */\n    tag_195:\n        /* \"#utility.yul\":924:925   */\n      0x00\n        /* \"#utility.yul\":949:1002   */\n      tag_197\n        /* \"#utility.yul\":994:1001   */\n      dup5\n        /* \"#utility.yul\":985:991   */\n      dup3\n        /* \"#utility.yul\":974:983   */\n      dup6\n        /* \"#utility.yul\":970:992   */\n      add\n        /* \"#utility.yul\":949:1002   */\n      tag_134\n      jump\t// in\n    tag_197:\n        /* \"#utility.yul\":939:1002   */\n      swap2\n      pop\n        /* \"#utility.yul\":895:1012   */\n      pop\n        /* \"#utility.yul\":690:1019   */\n      swap3\n      swap2\n      pop\n      pop\n      jump\t// out\n        /* \"#utility.yul\":1025:1151   */\n    tag_135:\n        /* \"#utility.yul\":1062:1069   */\n      0x00\n        /* \"#utility.yul\":1102:1144   */\n      0xffffffffffffffffffffffffffffffffffffffff\n        /* \"#utility.yul\":1095:1100   */\n      dup3\n        /* \"#utility.yul\":1091:1145   */\n      and\n        /* \"#utility.yul\":1080:1145   */\n      swap1\n      pop\n        /* \"#utility.yul\":1025:1151   */\n      swap2\n      swap1\n      pop\n      jump\t// out\n        /* \"#utility.yul\":1157:1253   */\n    tag_136:\n        /* \"#utility.yul\":1194:1201   */\n      0x00\n        /* \"#utility.yul\":1223:1247   */\n      tag_200\n        /* \"#utility.yul\":1241:1246   */\n      dup3\n        /* \"#utility.yul\":1223:1247   */\n      tag_135\n      jump\t// in\n    tag_200:\n        /* \"#utility.yul\":1212:1247   */\n      swap1\n      pop\n        /* \"#utility.yul\":1157:1253   */\n      swap2\n      swap1\n      pop\n      jump\t// out\n        /* \"#utility.yul\":1259:1377   */\n    tag_137:\n        /* \"#utility.yul\":1346:1370   */\n      tag_202\n        /* \"#utility.yul\":1364:1369   */\n      dup2\n        /* \"#utility.yul\":1346:1370   */\n      tag_136\n      jump\t// in\n    tag_202:\n        /* \"#utility.yul\":1341:1344   */\n      dup3\n        /* \"#utility.yul\":1334:1371   */\n      mstore\n        /* \"#utility.yul\":1259:1377   */\n      pop\n      pop\n      jump\t// out\n        /* \"#utility.yul\":1383:1605   */\n    tag_13:\n        /* \"#utility.yul\":1476:1480   */\n      0x00\n        /* \"#utility.yul\":1514:1516   */\n      0x20\n        /* \"#utility.yul\":1503:1512   */\n      dup3\n        /* \"#utility.yul\":1499:1517   */\n      add\n        /* \"#utility.yul\":1491:1517   */\n      swap1\n      pop\n        /* \"#utility.yul\":1527:1598   */\n      tag_204\n        /* \"#utility.yul\":1595:1596   */\n      0x00\n        /* \"#utility.yul\":1584:1593   */\n      dup4\n        /* \"#utility.yul\":1580:1597   */\n      add\n        /* \"#utility.yul\":1571:1577   */\n      dup5\n        /* \"#utility.yul\":1527:1598   */\n      tag_137\n      jump\t// in\n    tag_204:\n        /* \"#utility.yul\":1383:1605   */\n      swap3\n      swap2\n      pop\n      pop\n      jump\t// out\n        /* \"#utility.yul\":1611:1728   */\n    tag_138:\n        /* \"#utility.yul\":1720:1721   */\n      0x00\n        /* \"#utility.yul\":1717:1718   */\n      dup1\n        /* \"#utility.yul\":1710:1722   */\n      revert\n        /* \"#utility.yul\":1734:1851   */\n    tag_139:\n        /* \"#utility.yul\":1843:1844   */\n      0x00\n        /* \"#utility.yul\":1840:1841   */\n      dup1\n        /* \"#utility.yul\":1833:1845   */\n      revert\n        /* \"#utility.yul\":1857:1959   */\n    tag_140:\n        /* \"#utility.yul\":1898:1904   */\n      0x00\n        /* \"#utility.yul\":1949:1951   */\n      0x1f\n        /* \"#utility.yul\":1945:1952   */\n      not\n        /* \"#utility.yul\":1940:1942   */\n      0x1f\n        /* \"#utility.yul\":1933:1938   */\n      dup4\n        /* \"#utility.yul\":1929:1943   */\n      add\n        /* \"#utility.yul\":1925:1953   */\n      and\n        /* \"#utility.yul\":1915:1953   */\n      swap1\n      pop\n        /* \"#utility.yul\":1857:1959   */\n      swap2\n      swap1\n      pop\n      jump\t// out\n        /* \"#utility.yul\":1965:2145   */\n    tag_71:\n        /* \"#utility.yul\":2013:2090   */\n      0x4e487b7100000000000000000000000000000000000000000000000000000000\n        /* \"#utility.yul\":2010:2011   */\n      0x00\n        /* \"#utility.yul\":2003:2091   */\n      mstore\n        /* \"#utility.yul\":2110:2114   */\n      0x41\n        /* \"#utility.yul\":2107:2108   */\n      0x04\n        /* \"#utility.yul\":2100:2115   */\n      mstore\n        /* \"#utility.yul\":2134:2138   */\n      0x24\n        /* \"#utility.yul\":2131:2132   */\n      0x00\n        /* \"#utility.yul\":2124:2139   */\n      revert\n        /* \"#utility.yul\":2151:2432   */\n    tag_141:\n        /* \"#utility.yul\":2234:2261   */\n      tag_210\n        /* \"#utility.yul\":2256:2260   */\n      dup3\n        /* \"#utility.yul\":2234:2261   */\n      tag_140\n      jump\t// in\n    tag_210:\n        /* \"#utility.yul\":2226:2232   */\n      dup2\n        /* \"#utility.yul\":2222:2262   */\n      add\n        /* \"#utility.yul\":2364:2370   */\n      dup2\n        /* \"#utility.yul\":2352:2362   */\n      dup2\n        /* \"#utility.yul\":2349:2371   */\n      lt\n        /* \"#utility.yul\":2328:2346   */\n      0xffffffffffffffff\n        /* \"#utility.yul\":2316:2326   */\n      dup3\n        /* \"#utility.yul\":2313:2347   */\n      gt\n        /* \"#utility.yul\":2310:2372   */\n      or\n        /* \"#utility.yul\":2307:2395   */\n      iszero\n      tag_211\n      jumpi\n        /* \"#utility.yul\":2375:2393   */\n      tag_212\n      tag_71\n      jump\t// in\n    tag_212:\n        /* \"#utility.yul\":2307:2395   */\n    tag_211:\n        /* \"#utility.yul\":2415:2425   */\n      dup1\n        /* \"#utility.yul\":2411:2413   */\n      0x40\n        /* \"#utility.yul\":2404:2426   */\n      mstore\n        /* \"#utility.yul\":2194:2432   */\n      pop\n        /* \"#utility.yul\":2151:2432   */\n      pop\n      pop\n      jump\t// out\n        /* \"#utility.yul\":2438:2567   */\n    tag_142:\n        /* \"#utility.yul\":2472:2478   */\n      0x00\n        /* \"#utility.yul\":2499:2519   */\n      tag_214\n      tag_129\n      jump\t// in\n    tag_214:\n        /* \"#utility.yul\":2489:2519   */\n      swap1\n      pop\n        /* \"#utility.yul\":2528:2561   */\n      tag_215\n        /* \"#utility.yul\":2556:2560   */\n      dup3\n        /* \"#utility.yul\":2548:2554   */\n      dup3\n        /* \"#utility.yul\":2528:2561   */\n      tag_141\n      jump\t// in\n    tag_215:\n        /* \"#utility.yul\":2438:2567   */\n      swap2\n      swap1\n      pop\n      jump\t// out\n        /* \"#utility.yul\":2573:2881   */\n    tag_143:\n        /* \"#utility.yul\":2635:2639   */\n      0x00\n        /* \"#utility.yul\":2725:2743   */\n      0xffffffffffffffff\n        /* \"#utility.yul\":2717:2723   */\n      dup3\n        /* \"#utility.yul\":2714:2744   */\n      gt\n        /* \"#utility.yul\":2711:2767   */\n      iszero\n      tag_217\n      jumpi\n        /* \"#utility.yul\":2747:2765   */\n      tag_218\n      tag_71\n      jump\t// in\n    tag_218:\n        /* \"#utility.yul\":2711:2767   */\n    tag_217:\n        /* \"#utility.yul\":2785:2814   */\n      tag_219\n        /* \"#utility.yul\":2807:2813   */\n      dup3\n        /* \"#utility.yul\":2785:2814   */\n      tag_140\n      jump\t// in\n    tag_219:\n        /* \"#utility.yul\":2777:2814   */\n      swap1\n      pop\n        /* \"#utility.yul\":2869:2873   */\n      0x20\n        /* \"#utility.yul\":2863:2867   */\n      dup2\n        /* \"#utility.yul\":2859:2874   */\n      add\n        /* \"#utility.yul\":2851:2874   */\n      swap1\n      pop\n        /* \"#utility.yul\":2573:2881   */\n      swap2\n      swap1\n      pop\n      jump\t// out\n        /* \"#utility.yul\":2887:3035   */\n    tag_144:\n        /* \"#utility.yul\":2985:2991   */\n      dup3\n        /* \"#utility.yul\":2980:2983   */\n      dup2\n        /* \"#utility.yul\":2975:2978   */\n      dup4\n        /* \"#utility.yul\":2962:2992   */\n      calldatacopy\n        /* \"#utility.yul\":3026:3027   */\n      0x00\n        /* \"#utility.yul\":3017:3023   */\n      dup4\n        /* \"#utility.yul\":3012:3015   */\n      dup4\n        /* \"#utility.yul\":3008:3024   */\n      add\n        /* \"#utility.yul\":3001:3028   */\n      mstore\n        /* \"#utility.yul\":2887:3035   */\n      pop\n      pop\n      pop\n      jump\t// out\n        /* \"#utility.yul\":3041:3466   */\n    tag_145:\n        /* \"#utility.yul\":3119:3124   */\n      0x00\n        /* \"#utility.yul\":3144:3210   */\n      tag_222\n        /* \"#utility.yul\":3160:3209   */\n      tag_223\n        /* \"#utility.yul\":3202:3208   */\n      dup5\n        /* \"#utility.yul\":3160:3209   */\n      tag_143\n      jump\t// in\n    tag_223:\n        /* \"#utility.yul\":3144:3210   */\n      tag_142\n      jump\t// in\n    tag_222:\n        /* \"#utility.yul\":3135:3210   */\n      swap1\n      pop\n        /* \"#utility.yul\":3233:3239   */\n      dup3\n        /* \"#utility.yul\":3226:3231   */\n      dup2\n        /* \"#utility.yul\":3219:3240   */\n      mstore\n        /* \"#utility.yul\":3271:3275   */\n      0x20\n        /* \"#utility.yul\":3264:3269   */\n      dup2\n        /* \"#utility.yul\":3260:3276   */\n      add\n        /* \"#utility.yul\":3309:3312   */\n      dup5\n        /* \"#utility.yul\":3300:3306   */\n      dup5\n        /* \"#utility.yul\":3295:3298   */\n      dup5\n        /* \"#utility.yul\":3291:3307   */\n      add\n        /* \"#utility.yul\":3288:3313   */\n      gt\n        /* \"#utility.yul\":3285:3397   */\n      iszero\n      tag_224\n      jumpi\n        /* \"#utility.yul\":3316:3395   */\n      tag_225\n      tag_139\n      jump\t// in\n    tag_225:\n        /* \"#utility.yul\":3285:3397   */\n    tag_224:\n        /* \"#utility.yul\":3406:3460   */\n      tag_226\n        /* \"#utility.yul\":3453:3459   */\n      dup5\n        /* \"#utility.yul\":3448:3451   */\n      dup3\n        /* \"#utility.yul\":3443:3446   */\n      dup6\n        /* \"#utility.yul\":3406:3460   */\n      tag_144\n      jump\t// in\n    tag_226:\n        /* \"#utility.yul\":3125:3466   */\n      pop\n        /* \"#utility.yul\":3041:3466   */\n      swap4\n      swap3\n      pop\n      pop\n      pop\n      jump\t// out\n        /* \"#utility.yul\":3486:3826   */\n    tag_146:\n        /* \"#utility.yul\":3542:3547   */\n      0x00\n        /* \"#utility.yul\":3591:3594   */\n      dup3\n        /* \"#utility.yul\":3584:3588   */\n      0x1f\n        /* \"#utility.yul\":3576:3582   */\n      dup4\n        /* \"#utility.yul\":3572:3589   */\n      add\n        /* \"#utility.yul\":3568:3595   */\n      slt\n        /* \"#utility.yul\":3558:3680   */\n      tag_228\n      jumpi\n        /* \"#utility.yul\":3599:3678   */\n      tag_229\n      tag_138\n      jump\t// in\n    tag_229:\n        /* \"#utility.yul\":3558:3680   */\n    tag_228:\n        /* \"#utility.yul\":3716:3722   */\n      dup2\n        /* \"#utility.yul\":3703:3723   */\n      calldataload\n        /* \"#utility.yul\":3741:3820   */\n      tag_230\n        /* \"#utility.yul\":3816:3819   */\n      dup5\n        /* \"#utility.yul\":3808:3814   */\n      dup3\n        /* \"#utility.yul\":3801:3805   */\n      0x20\n        /* \"#utility.yul\":3793:3799   */\n      dup7\n        /* \"#utility.yul\":3789:3806   */\n      add\n        /* \"#utility.yul\":3741:3820   */\n      tag_145\n      jump\t// in\n    tag_230:\n        /* \"#utility.yul\":3732:3820   */\n      swap2\n      pop\n        /* \"#utility.yul\":3548:3826   */\n      pop\n        /* \"#utility.yul\":3486:3826   */\n      swap3\n      swap2\n      pop\n      pop\n      jump\t// out\n        /* \"#utility.yul\":3832:4153   */\n    tag_147:\n        /* \"#utility.yul\":3919:3923   */\n      0x00\n        /* \"#utility.yul\":4009:4027   */\n      0xffffffffffffffff\n        /* \"#utility.yul\":4001:4007   */\n      dup3\n        /* \"#utility.yul\":3998:4028   */\n      gt\n        /* \"#utility.yul\":3995:4051   */\n      iszero\n      tag_232\n      jumpi\n        /* \"#utility.yul\":4031:4049   */\n      tag_233\n      tag_71\n      jump\t// in\n    tag_233:\n        /* \"#utility.yul\":3995:4051   */\n    tag_232:\n        /* \"#utility.yul\":4081:4085   */\n      0x20\n        /* \"#utility.yul\":4073:4079   */\n      dup3\n        /* \"#utility.yul\":4069:4086   */\n      mul\n        /* \"#utility.yul\":4061:4086   */\n      swap1\n      pop\n        /* \"#utility.yul\":4141:4145   */\n      0x20\n        /* \"#utility.yul\":4135:4139   */\n      dup2\n        /* \"#utility.yul\":4131:4146   */\n      add\n        /* \"#utility.yul\":4123:4146   */\n      swap1\n      pop\n        /* \"#utility.yul\":3832:4153   */\n      swap2\n      swap1\n      pop\n      jump\t// out\n        /* \"#utility.yul\":4159:4276   */\n    tag_148:\n        /* \"#utility.yul\":4268:4269   */\n      0x00\n        /* \"#utility.yul\":4265:4266   */\n      dup1\n        /* \"#utility.yul\":4258:4270   */\n      revert\n        /* \"#utility.yul\":4298:5243   */\n    tag_149:\n        /* \"#utility.yul\":4404:4409   */\n      0x00\n        /* \"#utility.yul\":4429:4520   */\n      tag_236\n        /* \"#utility.yul\":4445:4519   */\n      tag_237\n        /* \"#utility.yul\":4512:4518   */\n      dup5\n        /* \"#utility.yul\":4445:4519   */\n      tag_147\n      jump\t// in\n    tag_237:\n        /* \"#utility.yul\":4429:4520   */\n      tag_142\n      jump\t// in\n    tag_236:\n        /* \"#utility.yul\":4420:4520   */\n      swap1\n      pop\n        /* \"#utility.yul\":4540:4545   */\n      dup1\n        /* \"#utility.yul\":4569:4575   */\n      dup4\n        /* \"#utility.yul\":4562:4567   */\n      dup3\n        /* \"#utility.yul\":4555:4576   */\n      mstore\n        /* \"#utility.yul\":4603:4607   */\n      0x20\n        /* \"#utility.yul\":4596:4601   */\n      dup3\n        /* \"#utility.yul\":4592:4608   */\n      add\n        /* \"#utility.yul\":4585:4608   */\n      swap1\n      pop\n        /* \"#utility.yul\":4656:4660   */\n      0x20\n        /* \"#utility.yul\":4648:4654   */\n      dup5\n        /* \"#utility.yul\":4644:4661   */\n      mul\n        /* \"#utility.yul\":4636:4642   */\n      dup4\n        /* \"#utility.yul\":4632:4662   */\n      add\n        /* \"#utility.yul\":4685:4688   */\n      dup6\n        /* \"#utility.yul\":4677:4683   */\n      dup2\n        /* \"#utility.yul\":4674:4689   */\n      gt\n        /* \"#utility.yul\":4671:4793   */\n      iszero\n      tag_238\n      jumpi\n        /* \"#utility.yul\":4704:4783   */\n      tag_239\n      tag_148\n      jump\t// in\n    tag_239:\n        /* \"#utility.yul\":4671:4793   */\n    tag_238:\n        /* \"#utility.yul\":4819:4825   */\n      dup4\n        /* \"#utility.yul\":4802:5237   */\n    tag_240:\n        /* \"#utility.yul\":4836:4842   */\n      dup2\n        /* \"#utility.yul\":4831:4834   */\n      dup2\n        /* \"#utility.yul\":4828:4843   */\n      lt\n        /* \"#utility.yul\":4802:5237   */\n      iszero\n      tag_242\n      jumpi\n        /* \"#utility.yul\":4925:4928   */\n      dup1\n        /* \"#utility.yul\":4912:4929   */\n      calldataload\n        /* \"#utility.yul\":4961:4979   */\n      0xffffffffffffffff\n        /* \"#utility.yul\":4948:4959   */\n      dup2\n        /* \"#utility.yul\":4945:4980   */\n      gt\n        /* \"#utility.yul\":4942:5064   */\n      iszero\n      tag_243\n      jumpi\n        /* \"#utility.yul\":4983:5062   */\n      tag_244\n      tag_138\n      jump\t// in\n    tag_244:\n        /* \"#utility.yul\":4942:5064   */\n    tag_243:\n        /* \"#utility.yul\":5107:5118   */\n      dup1\n        /* \"#utility.yul\":5099:5105   */\n      dup7\n        /* \"#utility.yul\":5095:5119   */\n      add\n        /* \"#utility.yul\":5145:5192   */\n      tag_245\n        /* \"#utility.yul\":5188:5191   */\n      dup10\n        /* \"#utility.yul\":5176:5186   */\n      dup3\n        /* \"#utility.yul\":5145:5192   */\n      tag_146\n      jump\t// in\n    tag_245:\n        /* \"#utility.yul\":5140:5143   */\n      dup6\n        /* \"#utility.yul\":5133:5193   */\n      mstore\n        /* \"#utility.yul\":5222:5226   */\n      0x20\n        /* \"#utility.yul\":5217:5220   */\n      dup6\n        /* \"#utility.yul\":5213:5227   */\n      add\n        /* \"#utility.yul\":5206:5227   */\n      swap5\n      pop\n        /* \"#utility.yul\":4878:5237   */\n      pop\n      pop\n        /* \"#utility.yul\":4862:4866   */\n      0x20\n        /* \"#utility.yul\":4857:4860   */\n      dup2\n        /* \"#utility.yul\":4853:4867   */\n      add\n        /* \"#utility.yul\":4846:4867   */\n      swap1\n      pop\n        /* \"#utility.yul\":4802:5237   */\n      jump(tag_240)\n    tag_242:\n        /* \"#utility.yul\":4806:4827   */\n      pop\n        /* \"#utility.yul\":4410:5243   */\n      pop\n      pop\n        /* \"#utility.yul\":4298:5243   */\n      swap4\n      swap3\n      pop\n      pop\n      pop\n      jump\t// out\n        /* \"#utility.yul\":5265:5655   */\n    tag_150:\n        /* \"#utility.yul\":5346:5351   */\n      0x00\n        /* \"#utility.yul\":5395:5398   */\n      dup3\n        /* \"#utility.yul\":5388:5392   */\n      0x1f\n        /* \"#utility.yul\":5380:5386   */\n      dup4\n        /* \"#utility.yul\":5376:5393   */\n      add\n        /* \"#utility.yul\":5372:5399   */\n      slt\n        /* \"#utility.yul\":5362:5484   */\n      tag_247\n      jumpi\n        /* \"#utility.yul\":5403:5482   */\n      tag_248\n      tag_138\n      jump\t// in\n    tag_248:\n        /* \"#utility.yul\":5362:5484   */\n    tag_247:\n        /* \"#utility.yul\":5520:5526   */\n      dup2\n        /* \"#utility.yul\":5507:5527   */\n      calldataload\n        /* \"#utility.yul\":5545:5649   */\n      tag_249\n        /* \"#utility.yul\":5645:5648   */\n      dup5\n        /* \"#utility.yul\":5637:5643   */\n      dup3\n        /* \"#utility.yul\":5630:5634   */\n      0x20\n        /* \"#utility.yul\":5622:5628   */\n      dup7\n        /* \"#utility.yul\":5618:5635   */\n      add\n        /* \"#utility.yul\":5545:5649   */\n      tag_149\n      jump\t// in\n    tag_249:\n        /* \"#utility.yul\":5536:5649   */\n      swap2\n      pop\n        /* \"#utility.yul\":5352:5655   */\n      pop\n        /* \"#utility.yul\":5265:5655   */\n      swap3\n      swap2\n      pop\n      pop\n      jump\t// out\n        /* \"#utility.yul\":5661:5737   */\n    tag_151:\n        /* \"#utility.yul\":5697:5704   */\n      0x00\n        /* \"#utility.yul\":5726:5731   */\n      dup2\n        /* \"#utility.yul\":5715:5731   */\n      swap1\n      pop\n        /* \"#utility.yul\":5661:5737   */\n      swap2\n      swap1\n      pop\n      jump\t// out\n        /* \"#utility.yul\":5743:5863   */\n    tag_152:\n        /* \"#utility.yul\":5815:5838   */\n      tag_252\n        /* \"#utility.yul\":5832:5837   */\n      dup2\n        /* \"#utility.yul\":5815:5838   */\n      tag_151\n      jump\t// in\n    tag_252:\n        /* \"#utility.yul\":5808:5813   */\n      dup2\n        /* \"#utility.yul\":5805:5839   */\n      eq\n        /* \"#utility.yul\":5795:5857   */\n      tag_253\n      jumpi\n        /* \"#utility.yul\":5853:5854   */\n      0x00\n        /* \"#utility.yul\":5850:5851   */\n      dup1\n        /* \"#utility.yul\":5843:5855   */\n      revert\n        /* \"#utility.yul\":5795:5857   */\n    tag_253:\n        /* \"#utility.yul\":5743:5863   */\n      pop\n      jump\t// out\n        /* \"#utility.yul\":5869:6006   */\n    tag_153:\n        /* \"#utility.yul\":5914:5919   */\n      0x00\n        /* \"#utility.yul\":5952:5958   */\n      dup2\n        /* \"#utility.yul\":5939:5959   */\n      calldataload\n        /* \"#utility.yul\":5930:5959   */\n      swap1\n      pop\n        /* \"#utility.yul\":5968:6000   */\n      tag_255\n        /* \"#utility.yul\":5994:5999   */\n      dup2\n        /* \"#utility.yul\":5968:6000   */\n      tag_152\n      jump\t// in\n    tag_255:\n        /* \"#utility.yul\":5869:6006   */\n      swap3\n      swap2\n      pop\n      pop\n      jump\t// out\n        /* \"#utility.yul\":6012:7509   */\n    tag_16:\n        /* \"#utility.yul\":6160:6166   */\n      0x00\n        /* \"#utility.yul\":6168:6174   */\n      dup1\n        /* \"#utility.yul\":6176:6182   */\n      0x00\n        /* \"#utility.yul\":6184:6190   */\n      dup1\n        /* \"#utility.yul\":6192:6198   */\n      0x00\n        /* \"#utility.yul\":6241:6244   */\n      0xa0\n        /* \"#utility.yul\":6229:6238   */\n      dup7\n        /* \"#utility.yul\":6220:6227   */\n      dup9\n        /* \"#utility.yul\":6216:6239   */\n      sub\n        /* \"#utility.yul\":6212:6245   */\n      slt\n        /* \"#utility.yul\":6209:6329   */\n      iszero\n      tag_257\n      jumpi\n        /* \"#utility.yul\":6248:6327   */\n      tag_258\n      tag_130\n      jump\t// in\n    tag_258:\n        /* \"#utility.yul\":6209:6329   */\n    tag_257:\n        /* \"#utility.yul\":6396:6397   */\n      0x00\n        /* \"#utility.yul\":6385:6394   */\n      dup7\n        /* \"#utility.yul\":6381:6398   */\n      add\n        /* \"#utility.yul\":6368:6399   */\n      calldataload\n        /* \"#utility.yul\":6426:6444   */\n      0xffffffffffffffff\n        /* \"#utility.yul\":6418:6424   */\n      dup2\n        /* \"#utility.yul\":6415:6445   */\n      gt\n        /* \"#utility.yul\":6412:6529   */\n      iszero\n      tag_259\n      jumpi\n        /* \"#utility.yul\":6448:6527   */\n      tag_260\n      tag_131\n      jump\t// in\n    tag_260:\n        /* \"#utility.yul\":6412:6529   */\n    tag_259:\n        /* \"#utility.yul\":6553:6616   */\n      tag_261\n        /* \"#utility.yul\":6608:6615   */\n      dup9\n        /* \"#utility.yul\":6599:6605   */\n      dup3\n        /* \"#utility.yul\":6588:6597   */\n      dup10\n        /* \"#utility.yul\":6584:6606   */\n      add\n        /* \"#utility.yul\":6553:6616   */\n      tag_146\n      jump\t// in\n    tag_261:\n        /* \"#utility.yul\":6543:6616   */\n      swap6\n      pop\n        /* \"#utility.yul\":6339:6626   */\n      pop\n        /* \"#utility.yul\":6693:6695   */\n      0x20\n        /* \"#utility.yul\":6682:6691   */\n      dup7\n        /* \"#utility.yul\":6678:6696   */\n      add\n        /* \"#utility.yul\":6665:6697   */\n      calldataload\n        /* \"#utility.yul\":6724:6742   */\n      0xffffffffffffffff\n        /* \"#utility.yul\":6716:6722   */\n      dup2\n        /* \"#utility.yul\":6713:6743   */\n      gt\n        /* \"#utility.yul\":6710:6827   */\n      iszero\n      tag_262\n      jumpi\n        /* \"#utility.yul\":6746:6825   */\n      tag_263\n      tag_131\n      jump\t// in\n    tag_263:\n        /* \"#utility.yul\":6710:6827   */\n    tag_262:\n        /* \"#utility.yul\":6851:6914   */\n      tag_264\n        /* \"#utility.yul\":6906:6913   */\n      dup9\n        /* \"#utility.yul\":6897:6903   */\n      dup3\n        /* \"#utility.yul\":6886:6895   */\n      dup10\n        /* \"#utility.yul\":6882:6904   */\n      add\n        /* \"#utility.yul\":6851:6914   */\n      tag_146\n      jump\t// in\n    tag_264:\n        /* \"#utility.yul\":6841:6914   */\n      swap5\n      pop\n        /* \"#utility.yul\":6636:6924   */\n      pop\n        /* \"#utility.yul\":6991:6993   */\n      0x40\n        /* \"#utility.yul\":6980:6989   */\n      dup7\n        /* \"#utility.yul\":6976:6994   */\n      add\n        /* \"#utility.yul\":6963:6995   */\n      calldataload\n        /* \"#utility.yul\":7022:7040   */\n      0xffffffffffffffff\n        /* \"#utility.yul\":7014:7020   */\n      dup2\n        /* \"#utility.yul\":7011:7041   */\n      gt\n        /* \"#utility.yul\":7008:7125   */\n      iszero\n      tag_265\n      jumpi\n        /* \"#utility.yul\":7044:7123   */\n      tag_266\n      tag_131\n      jump\t// in\n    tag_266:\n        /* \"#utility.yul\":7008:7125   */\n    tag_265:\n        /* \"#utility.yul\":7149:7237   */\n      tag_267\n        /* \"#utility.yul\":7229:7236   */\n      dup9\n        /* \"#utility.yul\":7220:7226   */\n      dup3\n        /* \"#utility.yul\":7209:7218   */\n      dup10\n        /* \"#utility.yul\":7205:7227   */\n      add\n        /* \"#utility.yul\":7149:7237   */\n      tag_150\n      jump\t// in\n    tag_267:\n        /* \"#utility.yul\":7139:7237   */\n      swap4\n      pop\n        /* \"#utility.yul\":6934:7247   */\n      pop\n        /* \"#utility.yul\":7286:7288   */\n      0x60\n        /* \"#utility.yul\":7312:7364   */\n      tag_268\n        /* \"#utility.yul\":7356:7363   */\n      dup9\n        /* \"#utility.yul\":7347:7353   */\n      dup3\n        /* \"#utility.yul\":7336:7345   */\n      dup10\n        /* \"#utility.yul\":7332:7354   */\n      add\n        /* \"#utility.yul\":7312:7364   */\n      tag_153\n      jump\t// in\n    tag_268:\n        /* \"#utility.yul\":7302:7364   */\n      swap3\n      pop\n        /* \"#utility.yul\":7257:7374   */\n      pop\n        /* \"#utility.yul\":7413:7416   */\n      0x80\n        /* \"#utility.yul\":7440:7492   */\n      tag_269\n        /* \"#utility.yul\":7484:7491   */\n      dup9\n        /* \"#utility.yul\":7475:7481   */\n      dup3\n        /* \"#utility.yul\":7464:7473   */\n      dup10\n        /* \"#utility.yul\":7460:7482   */\n      add\n        /* \"#utility.yul\":7440:7492   */\n      tag_153\n      jump\t// in\n    tag_269:\n        /* \"#utility.yul\":7430:7492   */\n      swap2\n      pop\n        /* \"#utility.yul\":7384:7502   */\n      pop\n        /* \"#utility.yul\":6012:7509   */\n      swap3\n      swap6\n      pop\n      swap3\n      swap6\n      swap1\n      swap4\n      pop\n      jump\t// out\n        /* \"#utility.yul\":7515:7614   */\n    tag_154:\n        /* \"#utility.yul\":7567:7573   */\n      0x00\n        /* \"#utility.yul\":7601:7606   */\n      dup2\n        /* \"#utility.yul\":7595:7607   */\n      mload\n        /* \"#utility.yul\":7585:7607   */\n      swap1\n      pop\n        /* \"#utility.yul\":7515:7614   */\n      swap2\n      swap1\n      pop\n      jump\t// out\n        /* \"#utility.yul\":7620:7789   */\n    tag_155:\n        /* \"#utility.yul\":7704:7715   */\n      0x00\n        /* \"#utility.yul\":7738:7744   */\n      dup3\n        /* \"#utility.yul\":7733:7736   */\n      dup3\n        /* \"#utility.yul\":7726:7745   */\n      mstore\n        /* \"#utility.yul\":7778:7782   */\n      0x20\n        /* \"#utility.yul\":7773:7776   */\n      dup3\n        /* \"#utility.yul\":7769:7783   */\n      add\n        /* \"#utility.yul\":7754:7783   */\n      swap1\n      pop\n        /* \"#utility.yul\":7620:7789   */\n      swap3\n      swap2\n      pop\n      pop\n      jump\t// out\n        /* \"#utility.yul\":7795:7934   */\n    tag_156:\n        /* \"#utility.yul\":7884:7890   */\n      dup3\n        /* \"#utility.yul\":7879:7882   */\n      dup2\n        /* \"#utility.yul\":7874:7877   */\n      dup4\n        /* \"#utility.yul\":7868:7891   */\n      mcopy\n        /* \"#utility.yul\":7925:7926   */\n      0x00\n        /* \"#utility.yul\":7916:7922   */\n      dup4\n        /* \"#utility.yul\":7911:7914   */\n      dup4\n        /* \"#utility.yul\":7907:7923   */\n      add\n        /* \"#utility.yul\":7900:7927   */\n      mstore\n        /* \"#utility.yul\":7795:7934   */\n      pop\n      pop\n      pop\n      jump\t// out\n        /* \"#utility.yul\":7940:8317   */\n    tag_157:\n        /* \"#utility.yul\":8028:8031   */\n      0x00\n        /* \"#utility.yul\":8056:8095   */\n      tag_274\n        /* \"#utility.yul\":8089:8094   */\n      dup3\n        /* \"#utility.yul\":8056:8095   */\n      tag_154\n      jump\t// in\n    tag_274:\n        /* \"#utility.yul\":8111:8182   */\n      tag_275\n        /* \"#utility.yul\":8175:8181   */\n      dup2\n        /* \"#utility.yul\":8170:8173   */\n      dup6\n        /* \"#utility.yul\":8111:8182   */\n      tag_155\n      jump\t// in\n    tag_275:\n        /* \"#utility.yul\":8104:8182   */\n      swap4\n      pop\n        /* \"#utility.yul\":8191:8256   */\n      tag_276\n        /* \"#utility.yul\":8249:8255   */\n      dup2\n        /* \"#utility.yul\":8244:8247   */\n      dup6\n        /* \"#utility.yul\":8237:8241   */\n      0x20\n        /* \"#utility.yul\":8230:8235   */\n      dup7\n        /* \"#utility.yul\":8226:8242   */\n      add\n        /* \"#utility.yul\":8191:8256   */\n      tag_156\n      jump\t// in\n    tag_276:\n        /* \"#utility.yul\":8281:8310   */\n      tag_277\n        /* \"#utility.yul\":8303:8309   */\n      dup2\n        /* \"#utility.yul\":8281:8310   */\n      tag_140\n      jump\t// in\n    tag_277:\n        /* \"#utility.yul\":8276:8279   */\n      dup5\n        /* \"#utility.yul\":8272:8311   */\n      add\n        /* \"#utility.yul\":8265:8311   */\n      swap2\n      pop\n        /* \"#utility.yul\":8032:8317   */\n      pop\n        /* \"#utility.yul\":7940:8317   */\n      swap3\n      swap2\n      pop\n      pop\n      jump\t// out\n        /* \"#utility.yul\":8323:8438   */\n    tag_158:\n        /* \"#utility.yul\":8408:8431   */\n      tag_279\n        /* \"#utility.yul\":8425:8430   */\n      dup2\n        /* \"#utility.yul\":8408:8431   */\n      tag_151\n      jump\t// in\n    tag_279:\n        /* \"#utility.yul\":8403:8406   */\n      dup3\n        /* \"#utility.yul\":8396:8432   */\n      mstore\n        /* \"#utility.yul\":8323:8438   */\n      pop\n      pop\n      jump\t// out\n        /* \"#utility.yul\":8444:9171   */\n    tag_22:\n        /* \"#utility.yul\":8657:8661   */\n      0x00\n        /* \"#utility.yul\":8695:8698   */\n      0x80\n        /* \"#utility.yul\":8684:8693   */\n      dup3\n        /* \"#utility.yul\":8680:8699   */\n      add\n        /* \"#utility.yul\":8672:8699   */\n      swap1\n      pop\n        /* \"#utility.yul\":8745:8754   */\n      dup2\n        /* \"#utility.yul\":8739:8743   */\n      dup2\n        /* \"#utility.yul\":8735:8755   */\n      sub\n        /* \"#utility.yul\":8731:8732   */\n      0x00\n        /* \"#utility.yul\":8720:8729   */\n      dup4\n        /* \"#utility.yul\":8716:8733   */\n      add\n        /* \"#utility.yul\":8709:8756   */\n      mstore\n        /* \"#utility.yul\":8773:8851   */\n      tag_281\n        /* \"#utility.yul\":8846:8850   */\n      dup2\n        /* \"#utility.yul\":8837:8843   */\n      dup8\n        /* \"#utility.yul\":8773:8851   */\n      tag_157\n      jump\t// in\n    tag_281:\n        /* \"#utility.yul\":8765:8851   */\n      swap1\n      pop\n        /* \"#utility.yul\":8898:8907   */\n      dup2\n        /* \"#utility.yul\":8892:8896   */\n      dup2\n        /* \"#utility.yul\":8888:8908   */\n      sub\n        /* \"#utility.yul\":8883:8885   */\n      0x20\n        /* \"#utility.yul\":8872:8881   */\n      dup4\n        /* \"#utility.yul\":8868:8886   */\n      add\n        /* \"#utility.yul\":8861:8909   */\n      mstore\n        /* \"#utility.yul\":8926:9004   */\n      tag_282\n        /* \"#utility.yul\":8999:9003   */\n      dup2\n        /* \"#utility.yul\":8990:8996   */\n      dup7\n        /* \"#utility.yul\":8926:9004   */\n      tag_157\n      jump\t// in\n    tag_282:\n        /* \"#utility.yul\":8918:9004   */\n      swap1\n      pop\n        /* \"#utility.yul\":9014:9084   */\n      tag_283\n        /* \"#utility.yul\":9080:9082   */\n      0x40\n        /* \"#utility.yul\":9069:9078   */\n      dup4\n        /* \"#utility.yul\":9065:9083   */\n      add\n        /* \"#utility.yul\":9056:9062   */\n      dup6\n        /* \"#utility.yul\":9014:9084   */\n      tag_158\n      jump\t// in\n    tag_283:\n        /* \"#utility.yul\":9094:9164   */\n      tag_284\n        /* \"#utility.yul\":9160:9162   */\n      0x60\n        /* \"#utility.yul\":9149:9158   */\n      dup4\n        /* \"#utility.yul\":9145:9163   */\n      add\n        /* \"#utility.yul\":9136:9142   */\n      dup5\n        /* \"#utility.yul\":9094:9164   */\n      tag_158\n      jump\t// in\n    tag_284:\n        /* \"#utility.yul\":8444:9171   */\n      swap6\n      swap5\n      pop\n      pop\n      pop\n      pop\n      pop\n      jump\t// out\n        /* \"#utility.yul\":9177:9299   */\n    tag_159:\n        /* \"#utility.yul\":9250:9274   */\n      tag_286\n        /* \"#utility.yul\":9268:9273   */\n      dup2\n        /* \"#utility.yul\":9250:9274   */\n      tag_136\n      jump\t// in\n    tag_286:\n        /* \"#utility.yul\":9243:9248   */\n      dup2\n        /* \"#utility.yul\":9240:9275   */\n      eq\n        /* \"#utility.yul\":9230:9293   */\n      tag_287\n      jumpi\n        /* \"#utility.yul\":9289:9290   */\n      0x00\n        /* \"#utility.yul\":9286:9287   */\n      dup1\n        /* \"#utility.yul\":9279:9291   */\n      revert\n        /* \"#utility.yul\":9230:9293   */\n    tag_287:\n        /* \"#utility.yul\":9177:9299   */\n      pop\n      jump\t// out\n        /* \"#utility.yul\":9305:9444   */\n    tag_160:\n        /* \"#utility.yul\":9351:9356   */\n      0x00\n        /* \"#utility.yul\":9389:9395   */\n      dup2\n        /* \"#utility.yul\":9376:9396   */\n      calldataload\n        /* \"#utility.yul\":9367:9396   */\n      swap1\n      pop\n        /* \"#utility.yul\":9405:9438   */\n      tag_289\n        /* \"#utility.yul\":9432:9437   */\n      dup2\n        /* \"#utility.yul\":9405:9438   */\n      tag_159\n      jump\t// in\n    tag_289:\n        /* \"#utility.yul\":9305:9444   */\n      swap3\n      swap2\n      pop\n      pop\n      jump\t// out\n        /* \"#utility.yul\":9450:9779   */\n    tag_25:\n        /* \"#utility.yul\":9509:9515   */\n      0x00\n        /* \"#utility.yul\":9558:9560   */\n      0x20\n        /* \"#utility.yul\":9546:9555   */\n      dup3\n        /* \"#utility.yul\":9537:9544   */\n      dup5\n        /* \"#utility.yul\":9533:9556   */\n      sub\n        /* \"#utility.yul\":9529:9561   */\n      slt\n        /* \"#utility.yul\":9526:9645   */\n      iszero\n      tag_291\n      jumpi\n        /* \"#utility.yul\":9564:9643   */\n      tag_292\n      tag_130\n      jump\t// in\n    tag_292:\n        /* \"#utility.yul\":9526:9645   */\n    tag_291:\n        /* \"#utility.yul\":9684:9685   */\n      0x00\n        /* \"#utility.yul\":9709:9762   */\n      tag_293\n        /* \"#utility.yul\":9754:9761   */\n      dup5\n        /* \"#utility.yul\":9745:9751   */\n      dup3\n        /* \"#utility.yul\":9734:9743   */\n      dup6\n        /* \"#utility.yul\":9730:9752   */\n      add\n        /* \"#utility.yul\":9709:9762   */\n      tag_160\n      jump\t// in\n    tag_293:\n        /* \"#utility.yul\":9699:9762   */\n      swap2\n      pop\n        /* \"#utility.yul\":9655:9772   */\n      pop\n        /* \"#utility.yul\":9450:9779   */\n      swap3\n      swap2\n      pop\n      pop\n      jump\t// out\n        /* \"#utility.yul\":9785:9965   */\n    tag_38:\n        /* \"#utility.yul\":9833:9910   */\n      0x4e487b7100000000000000000000000000000000000000000000000000000000\n        /* \"#utility.yul\":9830:9831   */\n      0x00\n        /* \"#utility.yul\":9823:9911   */\n      mstore\n        /* \"#utility.yul\":9930:9934   */\n      0x21\n        /* \"#utility.yul\":9927:9928   */\n      0x04\n        /* \"#utility.yul\":9920:9935   */\n      mstore\n        /* \"#utility.yul\":9954:9958   */\n      0x24\n        /* \"#utility.yul\":9951:9952   */\n      0x00\n        /* \"#utility.yul\":9944:9959   */\n      revert\n        /* \"#utility.yul\":9971:10083   */\n    tag_161:\n        /* \"#utility.yul\":10051:10052   */\n      0x03\n        /* \"#utility.yul\":10044:10049   */\n      dup2\n        /* \"#utility.yul\":10041:10053   */\n      lt\n        /* \"#utility.yul\":10031:10077   */\n      tag_296\n      jumpi\n        /* \"#utility.yul\":10057:10075   */\n      tag_297\n      tag_38\n      jump\t// in\n    tag_297:\n        /* \"#utility.yul\":10031:10077   */\n    tag_296:\n        /* \"#utility.yul\":9971:10083   */\n      pop\n      jump\t// out\n        /* \"#utility.yul\":10089:10214   */\n    tag_162:\n        /* \"#utility.yul\":10133:10140   */\n      0x00\n        /* \"#utility.yul\":10162:10167   */\n      dup2\n        /* \"#utility.yul\":10151:10167   */\n      swap1\n      pop\n        /* \"#utility.yul\":10168:10208   */\n      tag_299\n        /* \"#utility.yul\":10202:10207   */\n      dup3\n        /* \"#utility.yul\":10168:10208   */\n      tag_161\n      jump\t// in\n    tag_299:\n        /* \"#utility.yul\":10089:10214   */\n      swap2\n      swap1\n      pop\n      jump\t// out\n        /* \"#utility.yul\":10220:10345   */\n    tag_163:\n        /* \"#utility.yul\":10275:10284   */\n      0x00\n        /* \"#utility.yul\":10308:10339   */\n      tag_301\n        /* \"#utility.yul\":10333:10338   */\n      dup3\n        /* \"#utility.yul\":10308:10339   */\n      tag_162\n      jump\t// in\n    tag_301:\n        /* \"#utility.yul\":10295:10339   */\n      swap1\n      pop\n        /* \"#utility.yul\":10220:10345   */\n      swap2\n      swap1\n      pop\n      jump\t// out\n        /* \"#utility.yul\":10351:10492   */\n    tag_164:\n        /* \"#utility.yul\":10443:10485   */\n      tag_303\n        /* \"#utility.yul\":10479:10484   */\n      dup2\n        /* \"#utility.yul\":10443:10485   */\n      tag_163\n      jump\t// in\n    tag_303:\n        /* \"#utility.yul\":10438:10441   */\n      dup3\n        /* \"#utility.yul\":10431:10486   */\n      mstore\n        /* \"#utility.yul\":10351:10492   */\n      pop\n      pop\n      jump\t// out\n        /* \"#utility.yul\":10498:10730   */\n    tag_28:\n        /* \"#utility.yul\":10596:10600   */\n      0x00\n        /* \"#utility.yul\":10634:10636   */\n      0x20\n        /* \"#utility.yul\":10623:10632   */\n      dup3\n        /* \"#utility.yul\":10619:10637   */\n      add\n        /* \"#utility.yul\":10611:10637   */\n      swap1\n      pop\n        /* \"#utility.yul\":10647:10723   */\n      tag_305\n        /* \"#utility.yul\":10720:10721   */\n      0x00\n        /* \"#utility.yul\":10709:10718   */\n      dup4\n        /* \"#utility.yul\":10705:10722   */\n      add\n        /* \"#utility.yul\":10696:10702   */\n      dup5\n        /* \"#utility.yul\":10647:10723   */\n      tag_164\n      jump\t// in\n    tag_305:\n        /* \"#utility.yul\":10498:10730   */\n      swap3\n      swap2\n      pop\n      pop\n      jump\t// out\n        /* \"#utility.yul\":10736:11047   */\n    tag_165:\n        /* \"#utility.yul\":10813:10817   */\n      0x00\n        /* \"#utility.yul\":10903:10921   */\n      0xffffffffffffffff\n        /* \"#utility.yul\":10895:10901   */\n      dup3\n        /* \"#utility.yul\":10892:10922   */\n      gt\n        /* \"#utility.yul\":10889:10945   */\n      iszero\n      tag_307\n      jumpi\n        /* \"#utility.yul\":10925:10943   */\n      tag_308\n      tag_71\n      jump\t// in\n    tag_308:\n        /* \"#utility.yul\":10889:10945   */\n    tag_307:\n        /* \"#utility.yul\":10975:10979   */\n      0x20\n        /* \"#utility.yul\":10967:10973   */\n      dup3\n        /* \"#utility.yul\":10963:10980   */\n      mul\n        /* \"#utility.yul\":10955:10980   */\n      swap1\n      pop\n        /* \"#utility.yul\":11035:11039   */\n      0x20\n        /* \"#utility.yul\":11029:11033   */\n      dup2\n        /* \"#utility.yul\":11025:11040   */\n      add\n        /* \"#utility.yul\":11017:11040   */\n      swap1\n      pop\n        /* \"#utility.yul\":10736:11047   */\n      swap2\n      swap1\n      pop\n      jump\t// out\n        /* \"#utility.yul\":11070:11780   */\n    tag_166:\n        /* \"#utility.yul\":11166:11171   */\n      0x00\n        /* \"#utility.yul\":11191:11272   */\n      tag_310\n        /* \"#utility.yul\":11207:11271   */\n      tag_311\n        /* \"#utility.yul\":11264:11270   */\n      dup5\n        /* \"#utility.yul\":11207:11271   */\n      tag_165\n      jump\t// in\n    tag_311:\n        /* \"#utility.yul\":11191:11272   */\n      tag_142\n      jump\t// in\n    tag_310:\n        /* \"#utility.yul\":11182:11272   */\n      swap1\n      pop\n        /* \"#utility.yul\":11292:11297   */\n      dup1\n        /* \"#utility.yul\":11321:11327   */\n      dup4\n        /* \"#utility.yul\":11314:11319   */\n      dup3\n        /* \"#utility.yul\":11307:11328   */\n      mstore\n        /* \"#utility.yul\":11355:11359   */\n      0x20\n        /* \"#utility.yul\":11348:11353   */\n      dup3\n        /* \"#utility.yul\":11344:11360   */\n      add\n        /* \"#utility.yul\":11337:11360   */\n      swap1\n      pop\n        /* \"#utility.yul\":11408:11412   */\n      0x20\n        /* \"#utility.yul\":11400:11406   */\n      dup5\n        /* \"#utility.yul\":11396:11413   */\n      mul\n        /* \"#utility.yul\":11388:11394   */\n      dup4\n        /* \"#utility.yul\":11384:11414   */\n      add\n        /* \"#utility.yul\":11437:11440   */\n      dup6\n        /* \"#utility.yul\":11429:11435   */\n      dup2\n        /* \"#utility.yul\":11426:11441   */\n      gt\n        /* \"#utility.yul\":11423:11545   */\n      iszero\n      tag_312\n      jumpi\n        /* \"#utility.yul\":11456:11535   */\n      tag_313\n      tag_148\n      jump\t// in\n    tag_313:\n        /* \"#utility.yul\":11423:11545   */\n    tag_312:\n        /* \"#utility.yul\":11571:11577   */\n      dup4\n        /* \"#utility.yul\":11554:11774   */\n    tag_314:\n        /* \"#utility.yul\":11588:11594   */\n      dup2\n        /* \"#utility.yul\":11583:11586   */\n      dup2\n        /* \"#utility.yul\":11580:11595   */\n      lt\n        /* \"#utility.yul\":11554:11774   */\n      iszero\n      tag_316\n      jumpi\n        /* \"#utility.yul\":11663:11666   */\n      dup1\n        /* \"#utility.yul\":11692:11729   */\n      tag_317\n        /* \"#utility.yul\":11725:11728   */\n      dup9\n        /* \"#utility.yul\":11713:11723   */\n      dup3\n        /* \"#utility.yul\":11692:11729   */\n      tag_134\n      jump\t// in\n    tag_317:\n        /* \"#utility.yul\":11687:11690   */\n      dup5\n        /* \"#utility.yul\":11680:11730   */\n      mstore\n        /* \"#utility.yul\":11759:11763   */\n      0x20\n        /* \"#utility.yul\":11754:11757   */\n      dup5\n        /* \"#utility.yul\":11750:11764   */\n      add\n        /* \"#utility.yul\":11743:11764   */\n      swap4\n      pop\n        /* \"#utility.yul\":11630:11774   */\n      pop\n        /* \"#utility.yul\":11614:11618   */\n      0x20\n        /* \"#utility.yul\":11609:11612   */\n      dup2\n        /* \"#utility.yul\":11605:11619   */\n      add\n        /* \"#utility.yul\":11598:11619   */\n      swap1\n      pop\n        /* \"#utility.yul\":11554:11774   */\n      jump(tag_314)\n    tag_316:\n        /* \"#utility.yul\":11558:11579   */\n      pop\n        /* \"#utility.yul\":11172:11780   */\n      pop\n      pop\n        /* \"#utility.yul\":11070:11780   */\n      swap4\n      swap3\n      pop\n      pop\n      pop\n      jump\t// out\n        /* \"#utility.yul\":11803:12173   */\n    tag_167:\n        /* \"#utility.yul\":11874:11879   */\n      0x00\n        /* \"#utility.yul\":11923:11926   */\n      dup3\n        /* \"#utility.yul\":11916:11920   */\n      0x1f\n        /* \"#utility.yul\":11908:11914   */\n      dup4\n        /* \"#utility.yul\":11904:11921   */\n      add\n        /* \"#utility.yul\":11900:11927   */\n      slt\n        /* \"#utility.yul\":11890:12012   */\n      tag_319\n      jumpi\n        /* \"#utility.yul\":11931:12010   */\n      tag_320\n      tag_138\n      jump\t// in\n    tag_320:\n        /* \"#utility.yul\":11890:12012   */\n    tag_319:\n        /* \"#utility.yul\":12048:12054   */\n      dup2\n        /* \"#utility.yul\":12035:12055   */\n      calldataload\n        /* \"#utility.yul\":12073:12167   */\n      tag_321\n        /* \"#utility.yul\":12163:12166   */\n      dup5\n        /* \"#utility.yul\":12155:12161   */\n      dup3\n        /* \"#utility.yul\":12148:12152   */\n      0x20\n        /* \"#utility.yul\":12140:12146   */\n      dup7\n        /* \"#utility.yul\":12136:12153   */\n      add\n        /* \"#utility.yul\":12073:12167   */\n      tag_166\n      jump\t// in\n    tag_321:\n        /* \"#utility.yul\":12064:12167   */\n      swap2\n      pop\n        /* \"#utility.yul\":11880:12173   */\n      pop\n        /* \"#utility.yul\":11803:12173   */\n      swap3\n      swap2\n      pop\n      pop\n      jump\t// out\n        /* \"#utility.yul\":12179:12718   */\n    tag_31:\n        /* \"#utility.yul\":12263:12269   */\n      0x00\n        /* \"#utility.yul\":12312:12314   */\n      0x20\n        /* \"#utility.yul\":12300:12309   */\n      dup3\n        /* \"#utility.yul\":12291:12298   */\n      dup5\n        /* \"#utility.yul\":12287:12310   */\n      sub\n        /* \"#utility.yul\":12283:12315   */\n      slt\n        /* \"#utility.yul\":12280:12399   */\n      iszero\n      tag_323\n      jumpi\n        /* \"#utility.yul\":12318:12397   */\n      tag_324\n      tag_130\n      jump\t// in\n    tag_324:\n        /* \"#utility.yul\":12280:12399   */\n    tag_323:\n        /* \"#utility.yul\":12466:12467   */\n      0x00\n        /* \"#utility.yul\":12455:12464   */\n      dup3\n        /* \"#utility.yul\":12451:12468   */\n      add\n        /* \"#utility.yul\":12438:12469   */\n      calldataload\n        /* \"#utility.yul\":12496:12514   */\n      0xffffffffffffffff\n        /* \"#utility.yul\":12488:12494   */\n      dup2\n        /* \"#utility.yul\":12485:12515   */\n      gt\n        /* \"#utility.yul\":12482:12599   */\n      iszero\n      tag_325\n      jumpi\n        /* \"#utility.yul\":12518:12597   */\n      tag_326\n      tag_131\n      jump\t// in\n    tag_326:\n        /* \"#utility.yul\":12482:12599   */\n    tag_325:\n        /* \"#utility.yul\":12623:12701   */\n      tag_327\n        /* \"#utility.yul\":12693:12700   */\n      dup5\n        /* \"#utility.yul\":12684:12690   */\n      dup3\n        /* \"#utility.yul\":12673:12682   */\n      dup6\n        /* \"#utility.yul\":12669:12691   */\n      add\n        /* \"#utility.yul\":12623:12701   */\n      tag_167\n      jump\t// in\n    tag_327:\n        /* \"#utility.yul\":12613:12701   */\n      swap2\n      pop\n        /* \"#utility.yul\":12409:12711   */\n      pop\n        /* \"#utility.yul\":12179:12718   */\n      swap3\n      swap2\n      pop\n      pop\n      jump\t// out\n        /* \"#utility.yul\":12724:12904   */\n    tag_168:\n        /* \"#utility.yul\":12772:12849   */\n      0x4e487b7100000000000000000000000000000000000000000000000000000000\n        /* \"#utility.yul\":12769:12770   */\n      0x00\n        /* \"#utility.yul\":12762:12850   */\n      mstore\n        /* \"#utility.yul\":12869:12873   */\n      0x22\n        /* \"#utility.yul\":12866:12867   */\n      0x04\n        /* \"#utility.yul\":12859:12874   */\n      mstore\n        /* \"#utility.yul\":12893:12897   */\n      0x24\n        /* \"#utility.yul\":12890:12891   */\n      0x00\n        /* \"#utility.yul\":12883:12898   */\n      revert\n        /* \"#utility.yul\":12910:13230   */\n    tag_52:\n        /* \"#utility.yul\":12954:12960   */\n      0x00\n        /* \"#utility.yul\":12991:12992   */\n      0x02\n        /* \"#utility.yul\":12985:12989   */\n      dup3\n        /* \"#utility.yul\":12981:12993   */\n      div\n        /* \"#utility.yul\":12971:12993   */\n      swap1\n      pop\n        /* \"#utility.yul\":13038:13039   */\n      0x01\n        /* \"#utility.yul\":13032:13036   */\n      dup3\n        /* \"#utility.yul\":13028:13040   */\n      and\n        /* \"#utility.yul\":13059:13077   */\n      dup1\n        /* \"#utility.yul\":13049:13130   */\n      tag_330\n      jumpi\n        /* \"#utility.yul\":13115:13119   */\n      0x7f\n        /* \"#utility.yul\":13107:13113   */\n      dup3\n        /* \"#utility.yul\":13103:13120   */\n      and\n        /* \"#utility.yul\":13093:13120   */\n      swap2\n      pop\n        /* \"#utility.yul\":13049:13130   */\n    tag_330:\n        /* \"#utility.yul\":13177:13179   */\n      0x20\n        /* \"#utility.yul\":13169:13175   */\n      dup3\n        /* \"#utility.yul\":13166:13180   */\n      lt\n        /* \"#utility.yul\":13146:13164   */\n      dup2\n        /* \"#utility.yul\":13143:13181   */\n      sub\n        /* \"#utility.yul\":13140:13224   */\n      tag_331\n      jumpi\n        /* \"#utility.yul\":13196:13214   */\n      tag_332\n      tag_168\n      jump\t// in\n    tag_332:\n        /* \"#utility.yul\":13140:13224   */\n    tag_331:\n        /* \"#utility.yul\":12961:13230   */\n      pop\n        /* \"#utility.yul\":12910:13230   */\n      swap2\n      swap1\n      pop\n      jump\t// out\n        /* \"#utility.yul\":13236:13377   */\n    tag_169:\n        /* \"#utility.yul\":13285:13289   */\n      0x00\n        /* \"#utility.yul\":13308:13311   */\n      dup2\n        /* \"#utility.yul\":13300:13311   */\n      swap1\n      pop\n        /* \"#utility.yul\":13331:13334   */\n      dup2\n        /* \"#utility.yul\":13328:13329   */\n      0x00\n        /* \"#utility.yul\":13321:13335   */\n      mstore\n        /* \"#utility.yul\":13365:13369   */\n      0x20\n        /* \"#utility.yul\":13362:13363   */\n      0x00\n        /* \"#utility.yul\":13352:13370   */\n      keccak256\n        /* \"#utility.yul\":13344:13370   */\n      swap1\n      pop\n        /* \"#utility.yul\":13236:13377   */\n      swap2\n      swap1\n      pop\n      jump\t// out\n        /* \"#utility.yul\":13383:13476   */\n    tag_170:\n        /* \"#utility.yul\":13420:13426   */\n      0x00\n        /* \"#utility.yul\":13467:13469   */\n      0x20\n        /* \"#utility.yul\":13462:13464   */\n      0x1f\n        /* \"#utility.yul\":13455:13460   */\n      dup4\n        /* \"#utility.yul\":13451:13465   */\n      add\n        /* \"#utility.yul\":13447:13470   */\n      div\n        /* \"#utility.yul\":13437:13470   */\n      swap1\n      pop\n        /* \"#utility.yul\":13383:13476   */\n      swap2\n      swap1\n      pop\n      jump\t// out\n        /* \"#utility.yul\":13482:13589   */\n    tag_171:\n        /* \"#utility.yul\":13526:13534   */\n      0x00\n        /* \"#utility.yul\":13576:13581   */\n      dup3\n        /* \"#utility.yul\":13570:13574   */\n      dup3\n        /* \"#utility.yul\":13566:13582   */\n      shl\n        /* \"#utility.yul\":13545:13582   */\n      swap1\n      pop\n        /* \"#utility.yul\":13482:13589   */\n      swap3\n      swap2\n      pop\n      pop\n      jump\t// out\n        /* \"#utility.yul\":13595:13988   */\n    tag_172:\n        /* \"#utility.yul\":13664:13670   */\n      0x00\n        /* \"#utility.yul\":13714:13715   */\n      0x08\n        /* \"#utility.yul\":13702:13712   */\n      dup4\n        /* \"#utility.yul\":13698:13716   */\n      mul\n        /* \"#utility.yul\":13737:13834   */\n      tag_337\n        /* \"#utility.yul\":13767:13833   */\n      0xffffffffffffffffffffffffffffffffffffffffffffffffffffffffffffffff\n        /* \"#utility.yul\":13756:13765   */\n      dup3\n        /* \"#utility.yul\":13737:13834   */\n      tag_171\n      jump\t// in\n    tag_337:\n        /* \"#utility.yul\":13855:13894   */\n      tag_338\n        /* \"#utility.yul\":13885:13893   */\n      dup7\n        /* \"#utility.yul\":13874:13883   */\n      dup4\n        /* \"#utility.yul\":13855:13894   */\n      tag_171\n      jump\t// in\n    tag_338:\n        /* \"#utility.yul\":13843:13894   */\n      swap6\n      pop\n        /* \"#utility.yul\":13927:13931   */\n      dup1\n        /* \"#utility.yul\":13923:13932   */\n      not\n        /* \"#utility.yul\":13916:13921   */\n      dup5\n        /* \"#utility.yul\":13912:13933   */\n      and\n        /* \"#utility.yul\":13903:13933   */\n      swap4\n      pop\n        /* \"#utility.yul\":13976:13980   */\n      dup1\n        /* \"#utility.yul\":13966:13974   */\n      dup7\n        /* \"#utility.yul\":13962:13981   */\n      and\n        /* \"#utility.yul\":13955:13960   */\n      dup5\n        /* \"#utility.yul\":13952:13982   */\n      or\n        /* \"#utility.yul\":13942:13982   */\n      swap3\n      pop\n        /* \"#utility.yul\":13671:13988   */\n      pop\n      pop\n        /* \"#utility.yul\":13595:13988   */\n      swap4\n      swap3\n      pop\n      pop\n      pop\n      jump\t// out\n        /* \"#utility.yul\":13994:14054   */\n    tag_173:\n        /* \"#utility.yul\":14022:14025   */\n      0x00\n        /* \"#utility.yul\":14043:14048   */\n      dup2\n        /* \"#utility.yul\":14036:14048   */\n      swap1\n      pop\n        /* \"#utility.yul\":13994:14054   */\n      swap2\n      swap1\n      pop\n      jump\t// out\n        /* \"#utility.yul\":14060:14202   */\n    tag_174:\n        /* \"#utility.yul\":14110:14119   */\n      0x00\n        /* \"#utility.yul\":14143:14196   */\n      tag_341\n        /* \"#utility.yul\":14161:14195   */\n      tag_342\n        /* \"#utility.yul\":14170:14194   */\n      tag_343\n        /* \"#utility.yul\":14188:14193   */\n      dup5\n        /* \"#utility.yul\":14170:14194   */\n      tag_132\n      jump\t// in\n    tag_343:\n        /* \"#utility.yul\":14161:14195   */\n      tag_173\n      jump\t// in\n    tag_342:\n        /* \"#utility.yul\":14143:14196   */\n      tag_132\n      jump\t// in\n    tag_341:\n        /* \"#utility.yul\":14130:14196   */\n      swap1\n      pop\n        /* \"#utility.yul\":14060:14202   */\n      swap2\n      swap1\n      pop\n      jump\t// out\n        /* \"#utility.yul\":14208:14283   */\n    tag_175:\n        /* \"#utility.yul\":14251:14254   */\n      0x00\n        /* \"#utility.yul\":14272:14277   */\n      dup2\n        /* \"#utility.yul\":14265:14277   */\n      swap1\n      pop\n        /* \"#utility.yul\":14208:14283   */\n      swap2\n      swap1\n      pop\n      jump\t// out\n        /* \"#utility.yul\":14289:14558   */\n    tag_176:\n        /* \"#utility.yul\":14399:14438   */\n      tag_346\n        /* \"#utility.yul\":14430:14437   */\n      dup4\n        /* \"#utility.yul\":14399:14438   */\n      tag_174\n      jump\t// in\n    tag_346:\n        /* \"#utility.yul\":14460:14551   */\n      tag_347\n        /* \"#utility.yul\":14509:14550   */\n      tag_348\n        /* \"#utility.yul\":14533:14549   */\n      dup3\n        /* \"#utility.yul\":14509:14550   */\n      tag_175\n      jump\t// in\n    tag_348:\n        /* \"#utility.yul\":14501:14507   */\n      dup5\n        /* \"#utility.yul\":14494:14498   */\n      dup5\n        /* \"#utility.yul\":14488:14499   */\n      sload\n        /* \"#utility.yul\":14460:14551   */\n      tag_172\n      jump\t// in\n    tag_347:\n        /* \"#utility.yul\":14454:14458   */\n      dup3\n        /* \"#utility.yul\":14447:14552   */\n      sstore\n        /* \"#utility.yul\":14365:14558   */\n      pop\n        /* \"#utility.yul\":14289:14558   */\n      pop\n      pop\n      pop\n      jump\t// out\n        /* \"#utility.yul\":14564:14637   */\n    tag_177:\n        /* \"#utility.yul\":14609:14612   */\n      0x00\n        /* \"#utility.yul\":14564:14637   */\n      swap1\n      jump\t// out\n        /* \"#utility.yul\":14643:14832   */\n    tag_178:\n        /* \"#utility.yul\":14720:14752   */\n      tag_351\n      tag_177\n      jump\t// in\n    tag_351:\n        /* \"#utility.yul\":14761:14826   */\n      tag_352\n        /* \"#utility.yul\":14819:14825   */\n      dup2\n        /* \"#utility.yul\":14811:14817   */\n      dup5\n        /* \"#utility.yul\":14805:14809   */\n      dup5\n        /* \"#utility.yul\":14761:14826   */\n      tag_176\n      jump\t// in\n    tag_352:\n        /* \"#utility.yul\":14696:14832   */\n      pop\n        /* \"#utility.yul\":14643:14832   */\n      pop\n      pop\n      jump\t// out\n        /* \"#utility.yul\":14838:15024   */\n    tag_179:\n        /* \"#utility.yul\":14898:15018   */\n    tag_354:\n        /* \"#utility.yul\":14915:14918   */\n      dup2\n        /* \"#utility.yul\":14908:14913   */\n      dup2\n        /* \"#utility.yul\":14905:14919   */\n      lt\n        /* \"#utility.yul\":14898:15018   */\n      iszero\n      tag_356\n      jumpi\n        /* \"#utility.yul\":14969:15008   */\n      tag_357\n        /* \"#utility.yul\":15006:15007   */\n      0x00\n        /* \"#utility.yul\":14999:15004   */\n      dup3\n        /* \"#utility.yul\":14969:15008   */\n      tag_178\n      jump\t// in\n    tag_357:\n        /* \"#utility.yul\":14942:14943   */\n      0x01\n        /* \"#utility.yul\":14935:14940   */\n      dup2\n        /* \"#utility.yul\":14931:14944   */\n      add\n        /* \"#utility.yul\":14922:14944   */\n      swap1\n      pop\n        /* \"#utility.yul\":14898:15018   */\n      jump(tag_354)\n    tag_356:\n        /* \"#utility.yul\":14838:15024   */\n      pop\n      pop\n      jump\t// out\n        /* \"#utility.yul\":15030:15573   */\n    tag_180:\n        /* \"#utility.yul\":15131:15133   */\n      0x1f\n        /* \"#utility.yul\":15126:15129   */\n      dup3\n        /* \"#utility.yul\":15123:15134   */\n      gt\n        /* \"#utility.yul\":15120:15566   */\n      iszero\n      tag_359\n      jumpi\n        /* \"#utility.yul\":15165:15203   */\n      tag_360\n        /* \"#utility.yul\":15197:15202   */\n      dup2\n        /* \"#utility.yul\":15165:15203   */\n      tag_169\n      jump\t// in\n    tag_360:\n        /* \"#utility.yul\":15249:15278   */\n      tag_361\n        /* \"#utility.yul\":15267:15277   */\n      dup5\n        /* \"#utility.yul\":15249:15278   */\n      tag_170\n      jump\t// in\n    tag_361:\n        /* \"#utility.yul\":15239:15247   */\n      dup2\n        /* \"#utility.yul\":15235:15279   */\n      add\n        /* \"#utility.yul\":15432:15434   */\n      0x20\n        /* \"#utility.yul\":15420:15430   */\n      dup6\n        /* \"#utility.yul\":15417:15435   */\n      lt\n        /* \"#utility.yul\":15414:15463   */\n      iszero\n      tag_362\n      jumpi\n        /* \"#utility.yul\":15453:15461   */\n      dup2\n        /* \"#utility.yul\":15438:15461   */\n      swap1\n      pop\n        /* \"#utility.yul\":15414:15463   */\n    tag_362:\n        /* \"#utility.yul\":15476:15556   */\n      tag_363\n        /* \"#utility.yul\":15532:15554   */\n      tag_364\n        /* \"#utility.yul\":15550:15553   */\n      dup6\n        /* \"#utility.yul\":15532:15554   */\n      tag_170\n      jump\t// in\n    tag_364:\n        /* \"#utility.yul\":15522:15530   */\n      dup4\n        /* \"#utility.yul\":15518:15555   */\n      add\n        /* \"#utility.yul\":15505:15516   */\n      dup3\n        /* \"#utility.yul\":15476:15556   */\n      tag_179\n      jump\t// in\n    tag_363:\n        /* \"#utility.yul\":15135:15566   */\n      pop\n      pop\n        /* \"#utility.yul\":15120:15566   */\n    tag_359:\n        /* \"#utility.yul\":15030:15573   */\n      pop\n      pop\n      pop\n      jump\t// out\n        /* \"#utility.yul\":15579:15696   */\n    tag_181:\n        /* \"#utility.yul\":15633:15641   */\n      0x00\n        /* \"#utility.yul\":15683:15688   */\n      dup3\n        /* \"#utility.yul\":15677:15681   */\n      dup3\n        /* \"#utility.yul\":15673:15689   */\n      shr\n        /* \"#utility.yul\":15652:15689   */\n      swap1\n      pop\n        /* \"#utility.yul\":15579:15696   */\n      swap3\n      swap2\n      pop\n      pop\n      jump\t// out\n        /* \"#utility.yul\":15702:15871   */\n    tag_182:\n        /* \"#utility.yul\":15746:15752   */\n      0x00\n        /* \"#utility.yul\":15779:15830   */\n      tag_367\n        /* \"#utility.yul\":15827:15828   */\n      0x00\n        /* \"#utility.yul\":15823:15829   */\n      not\n        /* \"#utility.yul\":15815:15820   */\n      dup5\n        /* \"#utility.yul\":15812:15813   */\n      0x08\n        /* \"#utility.yul\":15808:15821   */\n      mul\n        /* \"#utility.yul\":15779:15830   */\n      tag_181\n      jump\t// in\n    tag_367:\n        /* \"#utility.yul\":15775:15831   */\n      not\n        /* \"#utility.yul\":15860:15864   */\n      dup1\n        /* \"#utility.yul\":15854:15858   */\n      dup4\n        /* \"#utility.yul\":15850:15865   */\n      and\n        /* \"#utility.yul\":15840:15865   */\n      swap2\n      pop\n        /* \"#utility.yul\":15753:15871   */\n      pop\n        /* \"#utility.yul\":15702:15871   */\n      swap3\n      swap2\n      pop\n      pop\n      jump\t// out\n        /* \"#utility.yul\":15876:16171   */\n    tag_183:\n        /* \"#utility.yul\":15952:15956   */\n      0x00\n        /* \"#utility.yul\":16098:16127   */\n      tag_369\n        /* \"#utility.yul\":16123:16126   */\n      dup4\n        /* \"#utility.yul\":16117:16121   */\n      dup4\n        /* \"#utility.yul\":16098:16127   */\n      tag_182\n      jump\t// in\n    tag_369:\n        /* \"#utility.yul\":16090:16127   */\n      swap2\n      pop\n        /* \"#utility.yul\":16160:16163   */\n      dup3\n        /* \"#utility.yul\":16157:16158   */\n      0x02\n        /* \"#utility.yul\":16153:16164   */\n      mul\n        /* \"#utility.yul\":16147:16151   */\n      dup3\n        /* \"#utility.yul\":16144:16165   */\n      or\n        /* \"#utility.yul\":16136:16165   */\n      swap1\n      pop\n        /* \"#utility.yul\":15876:16171   */\n      swap3\n      swap2\n      pop\n      pop\n      jump\t// out\n        /* \"#utility.yul\":16176:17571   */\n    tag_45:\n        /* \"#utility.yul\":16293:16330   */\n      tag_371\n        /* \"#utility.yul\":16326:16329   */\n      dup3\n        /* \"#utility.yul\":16293:16330   */\n      tag_154\n      jump\t// in\n    tag_371:\n        /* \"#utility.yul\":16395:16413   */\n      0xffffffffffffffff\n        /* \"#utility.yul\":16387:16393   */\n      dup2\n        /* \"#utility.yul\":16384:16414   */\n      gt\n        /* \"#utility.yul\":16381:16437   */\n      iszero\n      tag_372\n      jumpi\n        /* \"#utility.yul\":16417:16435   */\n      tag_373\n      tag_71\n      jump\t// in\n    tag_373:\n        /* \"#utility.yul\":16381:16437   */\n    tag_372:\n        /* \"#utility.yul\":16461:16499   */\n      tag_374\n        /* \"#utility.yul\":16493:16497   */\n      dup3\n        /* \"#utility.yul\":16487:16498   */\n      sload\n        /* \"#utility.yul\":16461:16499   */\n      tag_52\n      jump\t// in\n    tag_374:\n        /* \"#utility.yul\":16546:16613   */\n      tag_375\n        /* \"#utility.yul\":16606:16612   */\n      dup3\n        /* \"#utility.yul\":16598:16604   */\n      dup3\n        /* \"#utility.yul\":16592:16596   */\n      dup6\n        /* \"#utility.yul\":16546:16613   */\n      tag_180\n      jump\t// in\n    tag_375:\n        /* \"#utility.yul\":16640:16641   */\n      0x00\n        /* \"#utility.yul\":16664:16668   */\n      0x20\n        /* \"#utility.yul\":16651:16668   */\n      swap1\n      pop\n        /* \"#utility.yul\":16696:16698   */\n      0x1f\n        /* \"#utility.yul\":16688:16694   */\n      dup4\n        /* \"#utility.yul\":16685:16699   */\n      gt\n        /* \"#utility.yul\":16713:16714   */\n      0x01\n        /* \"#utility.yul\":16708:17326   */\n      dup2\n      eq\n      tag_377\n      jumpi\n        /* \"#utility.yul\":17370:17371   */\n      0x00\n        /* \"#utility.yul\":17387:17393   */\n      dup5\n        /* \"#utility.yul\":17384:17461   */\n      iszero\n      tag_378\n      jumpi\n        /* \"#utility.yul\":17436:17445   */\n      dup3\n        /* \"#utility.yul\":17431:17434   */\n      dup8\n        /* \"#utility.yul\":17427:17446   */\n      add\n        /* \"#utility.yul\":17421:17447   */\n      mload\n        /* \"#utility.yul\":17412:17447   */\n      swap1\n      pop\n        /* \"#utility.yul\":17384:17461   */\n    tag_378:\n        /* \"#utility.yul\":17487:17554   */\n      tag_379\n        /* \"#utility.yul\":17547:17553   */\n      dup6\n        /* \"#utility.yul\":17540:17545   */\n      dup3\n        /* \"#utility.yul\":17487:17554   */\n      tag_183\n      jump\t// in\n    tag_379:\n        /* \"#utility.yul\":17481:17485   */\n      dup7\n        /* \"#utility.yul\":17474:17555   */\n      sstore\n        /* \"#utility.yul\":17343:17565   */\n      pop\n        /* \"#utility.yul\":16678:17565   */\n      jump(tag_376)\n        /* \"#utility.yul\":16708:17326   */\n    tag_377:\n        /* \"#utility.yul\":16760:16764   */\n      0x1f\n        /* \"#utility.yul\":16756:16765   */\n      not\n        /* \"#utility.yul\":16748:16754   */\n      dup5\n        /* \"#utility.yul\":16744:16766   */\n      and\n        /* \"#utility.yul\":16794:16831   */\n      tag_380\n        /* \"#utility.yul\":16826:16830   */\n      dup7\n        /* \"#utility.yul\":16794:16831   */\n      tag_169\n      jump\t// in\n    tag_380:\n        /* \"#utility.yul\":16853:16854   */\n      0x00\n        /* \"#utility.yul\":16867:17075   */\n    tag_381:\n        /* \"#utility.yul\":16881:16888   */\n      dup3\n        /* \"#utility.yul\":16878:16879   */\n      dup2\n        /* \"#utility.yul\":16875:16889   */\n      lt\n        /* \"#utility.yul\":16867:17075   */\n      iszero\n      tag_383\n      jumpi\n        /* \"#utility.yul\":16960:16969   */\n      dup5\n        /* \"#utility.yul\":16955:16958   */\n      dup10\n        /* \"#utility.yul\":16951:16970   */\n      add\n        /* \"#utility.yul\":16945:16971   */\n      mload\n        /* \"#utility.yul\":16937:16943   */\n      dup3\n        /* \"#utility.yul\":16930:16972   */\n      sstore\n        /* \"#utility.yul\":17011:17012   */\n      0x01\n        /* \"#utility.yul\":17003:17009   */\n      dup3\n        /* \"#utility.yul\":16999:17013   */\n      add\n        /* \"#utility.yul\":16989:17013   */\n      swap2\n      pop\n        /* \"#utility.yul\":17058:17060   */\n      0x20\n        /* \"#utility.yul\":17047:17056   */\n      dup6\n        /* \"#utility.yul\":17043:17061   */\n      add\n        /* \"#utility.yul\":17030:17061   */\n      swap5\n      pop\n        /* \"#utility.yul\":16904:16908   */\n      0x20\n        /* \"#utility.yul\":16901:16902   */\n      dup2\n        /* \"#utility.yul\":16897:16909   */\n      add\n        /* \"#utility.yul\":16892:16909   */\n      swap1\n      pop\n        /* \"#utility.yul\":16867:17075   */\n      jump(tag_381)\n    tag_383:\n        /* \"#utility.yul\":17103:17109   */\n      dup7\n        /* \"#utility.yul\":17094:17101   */\n      dup4\n        /* \"#utility.yul\":17091:17110   */\n      lt\n        /* \"#utility.yul\":17088:17267   */\n      iszero\n      tag_384\n      jumpi\n        /* \"#utility.yul\":17161:17170   */\n      dup5\n        /* \"#utility.yul\":17156:17159   */\n      dup10\n        /* \"#utility.yul\":17152:17171   */\n      add\n        /* \"#utility.yul\":17146:17172   */\n      mload\n        /* \"#utility.yul\":17204:17252   */\n      tag_385\n        /* \"#utility.yul\":17246:17250   */\n      0x1f\n        /* \"#utility.yul\":17238:17244   */\n      dup10\n        /* \"#utility.yul\":17234:17251   */\n      and\n        /* \"#utility.yul\":17223:17232   */\n      dup3\n        /* \"#utility.yul\":17204:17252   */\n      tag_182\n      jump\t// in\n    tag_385:\n        /* \"#utility.yul\":17196:17202   */\n      dup4\n        /* \"#utility.yul\":17189:17253   */\n      sstore\n        /* \"#utility.yul\":17111:17267   */\n      pop\n        /* \"#utility.yul\":17088:17267   */\n    tag_384:\n        /* \"#utility.yul\":17313:17314   */\n      0x01\n        /* \"#utility.yul\":17309:17310   */\n      0x02\n        /* \"#utility.yul\":17301:17307   */\n      dup9\n        /* \"#utility.yul\":17297:17311   */\n      mul\n        /* \"#utility.yul\":17293:17315   */\n      add\n        /* \"#utility.yul\":17287:17291   */\n      dup9\n        /* \"#utility.yul\":17280:17316   */\n      sstore\n        /* \"#utility.yul\":16715:17326   */\n      pop\n      pop\n      pop\n        /* \"#utility.yul\":16678:17565   */\n    tag_376:\n      pop\n        /* \"#utility.yul\":16268:17571   */\n      pop\n      pop\n      pop\n        /* \"#utility.yul\":16176:17571   */\n      pop\n      pop\n      jump\t// out\n        /* \"#utility.yul\":17577:17757   */\n    tag_81:\n        /* \"#utility.yul\":17625:17702   */\n      0x4e487b7100000000000000000000000000000000000000000000000000000000\n        /* \"#utility.yul\":17622:17623   */\n      0x00\n        /* \"#utility.yul\":17615:17703   */\n      mstore\n        /* \"#utility.yul\":17722:17726   */\n      0x32\n        /* \"#utility.yul\":17719:17720   */\n      0x04\n        /* \"#utility.yul\":17712:17727   */\n      mstore\n        /* \"#utility.yul\":17746:17750   */\n      0x24\n        /* \"#utility.yul\":17743:17744   */\n      0x00\n        /* \"#utility.yul\":17736:17751   */\n      revert\n\n    auxdata: 0xa2646970667358221220e67e14bed711c7ab17667da90bb80976ee62f6171efd49f9498a09d4ec0da89e64736f6c634300081a0033\n}\n",
				"bytecode": {
					"linkReferences": {},
					"object": "6080604052348015600e575f80fd5b506113168061001c5f395ff3fe608060405234801561000f575f80fd5b5060043610610055575f3560e01c80630f7ee1ec14610059578063168597b3146100895780636b67a1b2146100a557806399374642146100d8578063f27e9b5f14610108575b5f80fd5b610073600480360381019061006e91906109a3565b610124565b6040516100809190610a0d565b60405180910390f35b6100a3600480360381019061009e9190610c77565b61016c565b005b6100bf60048036038101906100ba91906109a3565b61029b565b6040516100cf9493929190610db1565b60405180910390f35b6100f260048036038101906100ed9190610e2c565b6103e1565b6040516100ff9190610eca565b60405180910390f35b610122600480360381019061011d9190610fa3565b6103fe565b005b60018181548110610133575f80fd5b905f5260205f2090600202015f91509050805f015f9054906101000a900473ffffffffffffffffffffffffffffffffffffffff16905081565b60028081111561017f5761017e610e57565b5b60025f3373ffffffffffffffffffffffffffffffffffffffff1673ffffffffffffffffffffffffffffffffffffffff1681526020019081526020015f205f9054906101000a900460ff1660028111156101db576101da610e57565b5b146101e4575f80fd5b5f6040518060a001604052808781526020018681526020018581526020018481526020018381525090505f81908060018154018082558091505060019003905f5260205f2090600502015f909190919091505f820151815f01908161024991906111e4565b50602082015181600101908161025f91906111e4565b50604082015181600201908051906020019061027c929190610815565b5060608201518160030155608082015181600401555050505050505050565b5f81815481106102a9575f80fd5b905f5260205f2090600502015f91509050805f0180546102c890611017565b80601f01602080910402602001604051908101604052809291908181526020018280546102f490611017565b801561033f5780601f106103165761010080835404028352916020019161033f565b820191905f5260205f20905b81548152906001019060200180831161032257829003601f168201915b50505050509080600101805461035490611017565b80601f016020809104026020016040519081016040528092919081815260200182805461038090611017565b80156103cb5780601f106103a2576101008083540402835291602001916103cb565b820191905f5260205f20905b8154815290600101906020018083116103ae57829003601f168201915b5050505050908060030154908060040154905084565b6002602052805f5260405f205f915054906101000a900460ff1681565b6001600281111561041257610411610e57565b5b60025f3373ffffffffffffffffffffffffffffffffffffffff1673ffffffffffffffffffffffffffffffffffffffff1681526020019081526020015f205f9054906101000a900460ff16600281111561046e5761046d610e57565b5b14610477575f80fd5b5f815167ffffffffffffffff81111561049357610492610a3e565b5b6040519080825280602002602001820160405280156104cc57816020015b6104b961086c565b8152602001906001900390816104b15790505b5090505f5b8251811015610755575f808483815181106104ef576104ee6112b3565b5b602002602001015181548110610508576105076112b3565b5b905f5260205f2090600502019050806040518060a00160405290815f8201805461053190611017565b80601f016020809104026020016040519081016040528092919081815260200182805461055d90611017565b80156105a85780601f1061057f576101008083540402835291602001916105a8565b820191905f5260205f20905b81548152906001019060200180831161058b57829003601f168201915b505050505081526020016001820180546105c190611017565b80601f01602080910402602001604051908101604052809291908181526020018280546105ed90611017565b80156106385780601f1061060f57610100808354040283529160200191610638565b820191905f5260205f20905b81548152906001019060200180831161061b57829003601f168201915b5050505050815260200160028201805480602002602001604051908101604052809291908181526020015f905b8282101561070d578382905f5260205f2001805461068290611017565b80601f01602080910402602001604051908101604052809291908181526020018280546106ae90611017565b80156106f95780601f106106d0576101008083540402835291602001916106f9565b820191905f5260205f20905b8154815290600101906020018083116106dc57829003601f168201915b505050505081526020019060010190610665565b5050505081526020016003820154815260200160048201548152505083838151811061073c5761073b6112b3565b5b60200260200101819052505080806001019150506104d1565b505f60405180604001604052803373ffffffffffffffffffffffffffffffffffffffff168152602001848152509050600181908060018154018082558091505060019003905f5260205f2090600202015f909190919091505f820151815f015f6101000a81548173ffffffffffffffffffffffffffffffffffffffff021916908373ffffffffffffffffffffffffffffffffffffffff160217905550602082015181600101908051906020019061080d929190610899565b505050505050565b828054828255905f5260205f2090810192821561085b579160200282015b8281111561085a57825182908161084a91906111e4565b5091602001919060010190610833565b5b50905061086891906108e4565b5090565b6040518060a001604052806060815260200160608152602001606081526020015f81526020015f81525090565b828054828255905f5260205f209081019282156108d3579160200282015b828111156108d25782518255916020019190600101906108b7565b5b5090506108e09190610907565b5090565b5b80821115610903575f81816108fa9190610922565b506001016108e5565b5090565b5b8082111561091e575f815f905550600101610908565b5090565b50805461092e90611017565b5f825580601f1061093f575061095c565b601f0160209004905f5260205f209081019061095b9190610907565b5b50565b5f604051905090565b5f80fd5b5f80fd5b5f819050919050565b61098281610970565b811461098c575f80fd5b50565b5f8135905061099d81610979565b92915050565b5f602082840312156109b8576109b7610968565b5b5f6109c58482850161098f565b91505092915050565b5f73ffffffffffffffffffffffffffffffffffffffff82169050919050565b5f6109f7826109ce565b9050919050565b610a07816109ed565b82525050565b5f602082019050610a205f8301846109fe565b92915050565b5f80fd5b5f80fd5b5f601f19601f8301169050919050565b7f4e487b71000000000000000000000000000000000000000000000000000000005f52604160045260245ffd5b610a7482610a2e565b810181811067ffffffffffffffff82111715610a9357610a92610a3e565b5b80604052505050565b5f610aa561095f565b9050610ab18282610a6b565b919050565b5f67ffffffffffffffff821115610ad057610acf610a3e565b5b610ad982610a2e565b9050602081019050919050565b828183375f83830152505050565b5f610b06610b0184610ab6565b610a9c565b905082815260208101848484011115610b2257610b21610a2a565b5b610b2d848285610ae6565b509392505050565b5f82601f830112610b4957610b48610a26565b5b8135610b59848260208601610af4565b91505092915050565b5f67ffffffffffffffff821115610b7c57610b7b610a3e565b5b602082029050602081019050919050565b5f80fd5b5f610ba3610b9e84610b62565b610a9c565b90508083825260208201905060208402830185811115610bc657610bc5610b8d565b5b835b81811015610c0d57803567ffffffffffffffff811115610beb57610bea610a26565b5b808601610bf88982610b35565b85526020850194505050602081019050610bc8565b5050509392505050565b5f82601f830112610c2b57610c2a610a26565b5b8135610c3b848260208601610b91565b91505092915050565b5f819050919050565b610c5681610c44565b8114610c60575f80fd5b50565b5f81359050610c7181610c4d565b92915050565b5f805f805f60a08688031215610c9057610c8f610968565b5b5f86013567ffffffffffffffff811115610cad57610cac61096c565b5b610cb988828901610b35565b955050602086013567ffffffffffffffff811115610cda57610cd961096c565b5b610ce688828901610b35565b945050604086013567ffffffffffffffff811115610d0757610d0661096c565b5b610d1388828901610c17565b9350506060610d2488828901610c63565b9250506080610d3588828901610c63565b9150509295509295909350565b5f81519050919050565b5f82825260208201905092915050565b8281835e5f83830152505050565b5f610d7482610d42565b610d7e8185610d4c565b9350610d8e818560208601610d5c565b610d9781610a2e565b840191505092915050565b610dab81610c44565b82525050565b5f6080820190508181035f830152610dc98187610d6a565b90508181036020830152610ddd8186610d6a565b9050610dec6040830185610da2565b610df96060830184610da2565b95945050505050565b610e0b816109ed565b8114610e15575f80fd5b50565b5f81359050610e2681610e02565b92915050565b5f60208284031215610e4157610e40610968565b5b5f610e4e84828501610e18565b91505092915050565b7f4e487b71000000000000000000000000000000000000000000000000000000005f52602160045260245ffd5b60038110610e9557610e94610e57565b5b50565b5f819050610ea582610e84565b919050565b5f610eb482610e98565b9050919050565b610ec481610eaa565b82525050565b5f602082019050610edd5f830184610ebb565b92915050565b5f67ffffffffffffffff821115610efd57610efc610a3e565b5b602082029050602081019050919050565b5f610f20610f1b84610ee3565b610a9c565b90508083825260208201905060208402830185811115610f4357610f42610b8d565b5b835b81811015610f6c5780610f58888261098f565b845260208401935050602081019050610f45565b5050509392505050565b5f82601f830112610f8a57610f89610a26565b5b8135610f9a848260208601610f0e565b91505092915050565b5f60208284031215610fb857610fb7610968565b5b5f82013567ffffffffffffffff811115610fd557610fd461096c565b5b610fe184828501610f76565b91505092915050565b7f4e487b71000000000000000000000000000000000000000000000000000000005f52602260045260245ffd5b5f600282049050600182168061102e57607f821691505b60208210810361104157611040610fea565b5b50919050565b5f819050815f5260205f209050919050565b5f6020601f8301049050919050565b5f82821b905092915050565b5f600883026110a37fffffffffffffffffffffffffffffffffffffffffffffffffffffffffffffffff82611068565b6110ad8683611068565b95508019841693508086168417925050509392505050565b5f819050919050565b5f6110e86110e36110de84610970565b6110c5565b610970565b9050919050565b5f819050919050565b611101836110ce565b61111561110d826110ef565b848454611074565b825550505050565b5f90565b61112961111d565b6111348184846110f8565b505050565b5b818110156111575761114c5f82611121565b60018101905061113a565b5050565b601f82111561119c5761116d81611047565b61117684611059565b81016020851015611185578190505b61119961119185611059565b830182611139565b50505b505050565b5f82821c905092915050565b5f6111bc5f19846008026111a1565b1980831691505092915050565b5f6111d483836111ad565b9150826002028217905092915050565b6111ed82610d42565b67ffffffffffffffff81111561120657611205610a3e565b5b6112108254611017565b61121b82828561115b565b5f60209050601f83116001811461124c575f841561123a578287015190505b61124485826111c9565b8655506112ab565b601f19841661125a86611047565b5f5b828110156112815784890151825560018201915060208501945060208101905061125c565b8683101561129e578489015161129a601f8916826111ad565b8355505b6001600288020188555050505b505050505050565b7f4e487b71000000000000000000000000000000000000000000000000000000005f52603260045260245ffdfea2646970667358221220e67e14bed711c7ab17667da90bb80976ee62f6171efd49f9498a09d4ec0da89e64736f6c634300081a0033",
					"opcodes": "PUSH1 0x80 PUSH1 0x40 MSTORE CALLVALUE DUP1 ISZERO PUSH1 0xE JUMPI PUSH0 DUP1 REVERT JUMPDEST POP PUSH2 0x1316 DUP1 PUSH2 0x1C PUSH0 CODECOPY PUSH0 RETURN INVALID PUSH1 0x80 PUSH1 0x40 MSTORE CALLVALUE DUP1 ISZERO PUSH2 0xF JUMPI PUSH0 DUP1 REVERT JUMPDEST POP PUSH1 0x4 CALLDATASIZE LT PUSH2 0x55 JUMPI PUSH0 CALLDATALOAD PUSH1 0xE0 SHR DUP1 PUSH4 0xF7EE1EC EQ PUSH2 0x59 JUMPI DUP1 PUSH4 0x168597B3 EQ PUSH2 0x89 JUMPI DUP1 PUSH4 0x6B67A1B2 EQ PUSH2 0xA5 JUMPI DUP1 PUSH4 0x99374642 EQ PUSH2 0xD8 JUMPI DUP1 PUSH4 0xF27E9B5F EQ PUSH2 0x108 JUMPI JUMPDEST PUSH0 DUP1 REVERT JUMPDEST PUSH2 0x73 PUSH1 0x4 DUP1 CALLDATASIZE SUB DUP2 ADD SWAP1 PUSH2 0x6E SWAP2 SWAP1 PUSH2 0x9A3 JUMP JUMPDEST PUSH2 0x124 JUMP JUMPDEST PUSH1 0x40 MLOAD PUSH2 0x80 SWAP2 SWAP1 PUSH2 0xA0D JUMP JUMPDEST PUSH1 0x40 MLOAD DUP1 SWAP2 SUB SWAP1 RETURN JUMPDEST PUSH2 0xA3 PUSH1 0x4 DUP1 CALLDATASIZE SUB DUP2 ADD SWAP1 PUSH2 0x9E SWAP2 SWAP1 PUSH2 0xC77 JUMP JUMPDEST PUSH2 0x16C JUMP JUMPDEST STOP JUMPDEST PUSH2 0xBF PUSH1 0x4 DUP1 CALLDATASIZE SUB DUP2 ADD SWAP1 PUSH2 0xBA SWAP2 SWAP1 PUSH2 0x9A3 JUMP JUMPDEST PUSH2 0x29B JUMP JUMPDEST PUSH1 0x40 MLOAD PUSH2 0xCF SWAP5 SWAP4 SWAP3 SWAP2 SWAP1 PUSH2 0xDB1 JUMP JUMPDEST PUSH1 0x40 MLOAD DUP1 SWAP2 SUB SWAP1 RETURN JUMPDEST PUSH2 0xF2 PUSH1 0x4 DUP1 CALLDATASIZE SUB DUP2 ADD SWAP1 PUSH2 0xED SWAP2 SWAP1 PUSH2 0xE2C JUMP JUMPDEST PUSH2 0x3E1 JUMP JUMPDEST PUSH1 0x40 MLOAD PUSH2 0xFF SWAP2 SWAP1 PUSH2 0xECA JUMP JUMPDEST PUSH1 0x40 MLOAD DUP1 SWAP2 SUB SWAP1 RETURN JUMPDEST PUSH2 0x122 PUSH1 0x4 DUP1 CALLDATASIZE SUB DUP2 ADD SWAP1 PUSH2 0x11D SWAP2 SWAP1 PUSH2 0xFA3 JUMP JUMPDEST PUSH2 0x3FE JUMP JUMPDEST STOP JUMPDEST PUSH1 0x1 DUP2 DUP2 SLOAD DUP2 LT PUSH2 0x133 JUMPI PUSH0 DUP1 REVERT JUMPDEST SWAP1 PUSH0 MSTORE PUSH1 0x20 PUSH0 KECCAK256 SWAP1 PUSH1 0x2 MUL ADD PUSH0 SWAP2 POP SWAP1 POP DUP1 PUSH0 ADD PUSH0 SWAP1 SLOAD SWAP1 PUSH2 0x100 EXP SWAP1 DIV PUSH20 0xFFFFFFFFFFFFFFFFFFFFFFFFFFFFFFFFFFFFFFFF AND SWAP1 POP DUP2 JUMP JUMPDEST PUSH1 0x2 DUP1 DUP2 GT ISZERO PUSH2 0x17F JUMPI PUSH2 0x17E PUSH2 0xE57 JUMP JUMPDEST JUMPDEST PUSH1 0x2 PUSH0 CALLER PUSH20 0xFFFFFFFFFFFFFFFFFFFFFFFFFFFFFFFFFFFFFFFF AND PUSH20 0xFFFFFFFFFFFFFFFFFFFFFFFFFFFFFFFFFFFFFFFF AND DUP2 MSTORE PUSH1 0x20 ADD SWAP1 DUP2 MSTORE PUSH1 0x20 ADD PUSH0 KECCAK256 PUSH0 SWAP1 SLOAD SWAP1 PUSH2 0x100 EXP SWAP1 DIV PUSH1 0xFF AND PUSH1 0x2 DUP2 GT ISZERO PUSH2 0x1DB JUMPI PUSH2 0x1DA PUSH2 0xE57 JUMP JUMPDEST JUMPDEST EQ PUSH2 0x1E4 JUMPI PUSH0 DUP1 REVERT JUMPDEST PUSH0 PUSH1 0x40 MLOAD DUP1 PUSH1 0xA0 ADD PUSH1 0x40 MSTORE DUP1 DUP8 DUP2 MSTORE PUSH1 0x20 ADD DUP7 DUP2 MSTORE PUSH1 0x20 ADD DUP6 DUP2 MSTORE PUSH1 0x20 ADD DUP5 DUP2 MSTORE PUSH1 0x20 ADD DUP4 DUP2 MSTORE POP SWAP1 POP PUSH0 DUP2 SWAP1 DUP1 PUSH1 0x1 DUP2 SLOAD ADD DUP1 DUP3 SSTORE DUP1 SWAP2 POP POP PUSH1 0x1 SWAP1 SUB SWAP1 PUSH0 MSTORE PUSH1 0x20 PUSH0 KECCAK256 SWAP1 PUSH1 0x5 MUL ADD PUSH0 SWAP1 SWAP2 SWAP1 SWAP2 SWAP1 SWAP2 POP PUSH0 DUP3 ADD MLOAD DUP2 PUSH0 ADD SWAP1 DUP2 PUSH2 0x249 SWAP2 SWAP1 PUSH2 0x11E4 JUMP JUMPDEST POP PUSH1 0x20 DUP3 ADD MLOAD DUP2 PUSH1 0x1 ADD SWAP1 DUP2 PUSH2 0x25F SWAP2 SWAP1 PUSH2 0x11E4 JUMP JUMPDEST POP PUSH1 0x40 DUP3 ADD MLOAD DUP2 PUSH1 0x2 ADD SWAP1 DUP1 MLOAD SWAP1 PUSH1 0x20 ADD SWAP1 PUSH2 0x27C SWAP3 SWAP2 SWAP1 PUSH2 0x815 JUMP JUMPDEST POP PUSH1 0x60 DUP3 ADD MLOAD DUP2 PUSH1 0x3 ADD SSTORE PUSH1 0x80 DUP3 ADD MLOAD DUP2 PUSH1 0x4 ADD SSTORE POP POP POP POP POP POP POP POP JUMP JUMPDEST PUSH0 DUP2 DUP2 SLOAD DUP2 LT PUSH2 0x2A9 JUMPI PUSH0 DUP1 REVERT JUMPDEST SWAP1 PUSH0 MSTORE PUSH1 0x20 PUSH0 KECCAK256 SWAP1 PUSH1 0x5 MUL ADD PUSH0 SWAP2 POP SWAP1 POP DUP1 PUSH0 ADD DUP1 SLOAD PUSH2 0x2C8 SWAP1 PUSH2 0x1017 JUMP JUMPDEST DUP1 PUSH1 0x1F ADD PUSH1 0x20 DUP1 SWAP2 DIV MUL PUSH1 0x20 ADD PUSH1 0x40 MLOAD SWAP1 DUP2 ADD PUSH1 0x40 MSTORE DUP1 SWAP3 SWAP2 SWAP1 DUP2 DUP2 MSTORE PUSH1 0x20 ADD DUP3 DUP1 SLOAD PUSH2 0x2F4 SWAP1 PUSH2 0x1017 JUMP JUMPDEST DUP1 ISZERO PUSH2 0x33F JUMPI DUP1 PUSH1 0x1F LT PUSH2 0x316 JUMPI PUSH2 0x100 DUP1 DUP4 SLOAD DIV MUL DUP4 MSTORE SWAP2 PUSH1 0x20 ADD SWAP2 PUSH2 0x33F JUMP JUMPDEST DUP3 ADD SWAP2 SWAP1 PUSH0 MSTORE PUSH1 0x20 PUSH0 KECCAK256 SWAP1 JUMPDEST DUP2 SLOAD DUP2 MSTORE SWAP1 PUSH1 0x1 ADD SWAP1 PUSH1 0x20 ADD DUP1 DUP4 GT PUSH2 0x322 JUMPI DUP3 SWAP1 SUB PUSH1 0x1F AND DUP3 ADD SWAP2 JUMPDEST POP POP POP POP POP SWAP1 DUP1 PUSH1 0x1 ADD DUP1 SLOAD PUSH2 0x354 SWAP1 PUSH2 0x1017 JUMP JUMPDEST DUP1 PUSH1 0x1F ADD PUSH1 0x20 DUP1 SWAP2 DIV MUL PUSH1 0x20 ADD PUSH1 0x40 MLOAD SWAP1 DUP2 ADD PUSH1 0x40 MSTORE DUP1 SWAP3 SWAP2 SWAP1 DUP2 DUP2 MSTORE PUSH1 0x20 ADD DUP3 DUP1 SLOAD PUSH2 0x380 SWAP1 PUSH2 0x1017 JUMP JUMPDEST DUP1 ISZERO PUSH2 0x3CB JUMPI DUP1 PUSH1 0x1F LT PUSH2 0x3A2 JUMPI PUSH2 0x100 DUP1 DUP4 SLOAD DIV MUL DUP4 MSTORE SWAP2 PUSH1 0x20 ADD SWAP2 PUSH2 0x3CB JUMP JUMPDEST DUP3 ADD SWAP2 SWAP1 PUSH0 MSTORE PUSH1 0x20 PUSH0 KECCAK256 SWAP1 JUMPDEST DUP2 SLOAD DUP2 MSTORE SWAP1 PUSH1 0x1 ADD SWAP1 PUSH1 0x20 ADD DUP1 DUP4 GT PUSH2 0x3AE JUMPI DUP3 SWAP1 SUB PUSH1 0x1F AND DUP3 ADD SWAP2 JUMPDEST POP POP POP POP POP SWAP1 DUP1 PUSH1 0x3 ADD SLOAD SWAP1 DUP1 PUSH1 0x4 ADD SLOAD SWAP1 POP DUP5 JUMP JUMPDEST PUSH1 0x2 PUSH1 0x20 MSTORE DUP1 PUSH0 MSTORE PUSH1 0x40 PUSH0 KECCAK256 PUSH0 SWAP2 POP SLOAD SWAP1 PUSH2 0x100 EXP SWAP1 DIV PUSH1 0xFF AND DUP2 JUMP JUMPDEST PUSH1 0x1 PUSH1 0x2 DUP2 GT ISZERO PUSH2 0x412 JUMPI PUSH2 0x411 PUSH2 0xE57 JUMP JUMPDEST JUMPDEST PUSH1 0x2 PUSH0 CALLER PUSH20 0xFFFFFFFFFFFFFFFFFFFFFFFFFFFFFFFFFFFFFFFF AND PUSH20 0xFFFFFFFFFFFFFFFFFFFFFFFFFFFFFFFFFFFFFFFF AND DUP2 MSTORE PUSH1 0x20 ADD SWAP1 DUP2 MSTORE PUSH1 0x20 ADD PUSH0 KECCAK256 PUSH0 SWAP1 SLOAD SWAP1 PUSH2 0x100 EXP SWAP1 DIV PUSH1 0xFF AND PUSH1 0x2 DUP2 GT ISZERO PUSH2 0x46E JUMPI PUSH2 0x46D PUSH2 0xE57 JUMP JUMPDEST JUMPDEST EQ PUSH2 0x477 JUMPI PUSH0 DUP1 REVERT JUMPDEST PUSH0 DUP2 MLOAD PUSH8 0xFFFFFFFFFFFFFFFF DUP2 GT ISZERO PUSH2 0x493 JUMPI PUSH2 0x492 PUSH2 0xA3E JUMP JUMPDEST JUMPDEST PUSH1 0x40 MLOAD SWAP1 DUP1 DUP3 MSTORE DUP1 PUSH1 0x20 MUL PUSH1 0x20 ADD DUP3 ADD PUSH1 0x40 MSTORE DUP1 ISZERO PUSH2 0x4CC JUMPI DUP2 PUSH1 0x20 ADD JUMPDEST PUSH2 0x4B9 PUSH2 0x86C JUMP JUMPDEST DUP2 MSTORE PUSH1 0x20 ADD SWAP1 PUSH1 0x1 SWAP1 SUB SWAP1 DUP2 PUSH2 0x4B1 JUMPI SWAP1 POP JUMPDEST POP SWAP1 POP PUSH0 JUMPDEST DUP3 MLOAD DUP2 LT ISZERO PUSH2 0x755 JUMPI PUSH0 DUP1 DUP5 DUP4 DUP2 MLOAD DUP2 LT PUSH2 0x4EF JUMPI PUSH2 0x4EE PUSH2 0x12B3 JUMP JUMPDEST JUMPDEST PUSH1 0x20 MUL PUSH1 0x20 ADD ADD MLOAD DUP2 SLOAD DUP2 LT PUSH2 0x508 JUMPI PUSH2 0x507 PUSH2 0x12B3 JUMP JUMPDEST JUMPDEST SWAP1 PUSH0 MSTORE PUSH1 0x20 PUSH0 KECCAK256 SWAP1 PUSH1 0x5 MUL ADD SWAP1 POP DUP1 PUSH1 0x40 MLOAD DUP1 PUSH1 0xA0 ADD PUSH1 0x40 MSTORE SWAP1 DUP2 PUSH0 DUP3 ADD DUP1 SLOAD PUSH2 0x531 SWAP1 PUSH2 0x1017 JUMP JUMPDEST DUP1 PUSH1 0x1F ADD PUSH1 0x20 DUP1 SWAP2 DIV MUL PUSH1 0x20 ADD PUSH1 0x40 MLOAD SWAP1 DUP2 ADD PUSH1 0x40 MSTORE DUP1 SWAP3 SWAP2 SWAP1 DUP2 DUP2 MSTORE PUSH1 0x20 ADD DUP3 DUP1 SLOAD PUSH2 0x55D SWAP1 PUSH2 0x1017 JUMP JUMPDEST DUP1 ISZERO PUSH2 0x5A8 JUMPI DUP1 PUSH1 0x1F LT PUSH2 0x57F JUMPI PUSH2 0x100 DUP1 DUP4 SLOAD DIV MUL DUP4 MSTORE SWAP2 PUSH1 0x20 ADD SWAP2 PUSH2 0x5A8 JUMP JUMPDEST DUP3 ADD SWAP2 SWAP1 PUSH0 MSTORE PUSH1 0x20 PUSH0 KECCAK256 SWAP1 JUMPDEST DUP2 SLOAD DUP2 MSTORE SWAP1 PUSH1 0x1 ADD SWAP1 PUSH1 0x20 ADD DUP1 DUP4 GT PUSH2 0x58B JUMPI DUP3 SWAP1 SUB PUSH1 0x1F AND DUP3 ADD SWAP2 JUMPDEST POP POP POP POP POP DUP2 MSTORE PUSH1 0x20 ADD PUSH1 0x1 DUP3 ADD DUP1 SLOAD PUSH2 0x5C1 SWAP1 PUSH2 0x1017 JUMP JUMPDEST DUP1 PUSH1 0x1F ADD PUSH1 0x20 DUP1 SWAP2 DIV MUL PUSH1 0x20 ADD PUSH1 0x40 MLOAD SWAP1 DUP2 ADD PUSH1 0x40 MSTORE DUP1 SWAP3 SWAP2 SWAP1 DUP2 DUP2 MSTORE PUSH1 0x20 ADD DUP3 DUP1 SLOAD PUSH2 0x5ED SWAP1 PUSH2 0x1017 JUMP JUMPDEST DUP1 ISZERO PUSH2 0x638 JUMPI DUP1 PUSH1 0x1F LT PUSH2 0x60F JUMPI PUSH2 0x100 DUP1 DUP4 SLOAD DIV MUL DUP4 MSTORE SWAP2 PUSH1 0x20 ADD SWAP2 PUSH2 0x638 JUMP JUMPDEST DUP3 ADD SWAP2 SWAP1 PUSH0 MSTORE PUSH1 0x20 PUSH0 KECCAK256 SWAP1 JUMPDEST DUP2 SLOAD DUP2 MSTORE SWAP1 PUSH1 0x1 ADD SWAP1 PUSH1 0x20 ADD DUP1 DUP4 GT PUSH2 0x61B JUMPI DUP3 SWAP1 SUB PUSH1 0x1F AND DUP3 ADD SWAP2 JUMPDEST POP POP POP POP POP DUP2 MSTORE PUSH1 0x20 ADD PUSH1 0x2 DUP3 ADD DUP1 SLOAD DUP1 PUSH1 0x20 MUL PUSH1 0x20 ADD PUSH1 0x40 MLOAD SWAP1 DUP2 ADD PUSH1 0x40 MSTORE DUP1 SWAP3 SWAP2 SWAP1 DUP2 DUP2 MSTORE PUSH1 0x20 ADD PUSH0 SWAP1 JUMPDEST DUP3 DUP3 LT ISZERO PUSH2 0x70D JUMPI DUP4 DUP3 SWAP1 PUSH0 MSTORE PUSH1 0x20 PUSH0 KECCAK256 ADD DUP1 SLOAD PUSH2 0x682 SWAP1 PUSH2 0x1017 JUMP JUMPDEST DUP1 PUSH1 0x1F ADD PUSH1 0x20 DUP1 SWAP2 DIV MUL PUSH1 0x20 ADD PUSH1 0x40 MLOAD SWAP1 DUP2 ADD PUSH1 0x40 MSTORE DUP1 SWAP3 SWAP2 SWAP1 DUP2 DUP2 MSTORE PUSH1 0x20 ADD DUP3 DUP1 SLOAD PUSH2 0x6AE SWAP1 PUSH2 0x1017 JUMP JUMPDEST DUP1 ISZERO PUSH2 0x6F9 JUMPI DUP1 PUSH1 0x1F LT PUSH2 0x6D0 JUMPI PUSH2 0x100 DUP1 DUP4 SLOAD DIV MUL DUP4 MSTORE SWAP2 PUSH1 0x20 ADD SWAP2 PUSH2 0x6F9 JUMP JUMPDEST DUP3 ADD SWAP2 SWAP1 PUSH0 MSTORE PUSH1 0x20 PUSH0 KECCAK256 SWAP1 JUMPDEST DUP2 SLOAD DUP2 MSTORE SWAP1 PUSH1 0x1 ADD SWAP1 PUSH1 0x20 ADD DUP1 DUP4 GT PUSH2 0x6DC JUMPI DUP3 SWAP1 SUB PUSH1 0x1F AND DUP3 ADD SWAP2 JUMPDEST POP POP POP POP POP DUP2 MSTORE PUSH1 0x20 ADD SWAP1 PUSH1 0x1 ADD SWAP1 PUSH2 0x665 JUMP JUMPDEST POP POP POP POP DUP2 MSTORE PUSH1 0x20 ADD PUSH1 0x3 DUP3 ADD SLOAD DUP2 MSTORE PUSH1 0x20 ADD PUSH1 0x4 DUP3 ADD SLOAD DUP2 MSTORE POP POP DUP4 DUP4 DUP2 MLOAD DUP2 LT PUSH2 0x73C JUMPI PUSH2 0x73B PUSH2 0x12B3 JUMP JUMPDEST JUMPDEST PUSH1 0x20 MUL PUSH1 0x20 ADD ADD DUP2 SWAP1 MSTORE POP POP DUP1 DUP1 PUSH1 0x1 ADD SWAP2 POP POP PUSH2 0x4D1 JUMP JUMPDEST POP PUSH0 PUSH1 0x40 MLOAD DUP1 PUSH1 0x40 ADD PUSH1 0x40 MSTORE DUP1 CALLER PUSH20 0xFFFFFFFFFFFFFFFFFFFFFFFFFFFFFFFFFFFFFFFF AND DUP2 MSTORE PUSH1 0x20 ADD DUP5 DUP2 MSTORE POP SWAP1 POP PUSH1 0x1 DUP2 SWAP1 DUP1 PUSH1 0x1 DUP2 SLOAD ADD DUP1 DUP3 SSTORE DUP1 SWAP2 POP POP PUSH1 0x1 SWAP1 SUB SWAP1 PUSH0 MSTORE PUSH1 0x20 PUSH0 KECCAK256 SWAP1 PUSH1 0x2 MUL ADD PUSH0 SWAP1 SWAP2 SWAP1 SWAP2 SWAP1 SWAP2 POP PUSH0 DUP3 ADD MLOAD DUP2 PUSH0 ADD PUSH0 PUSH2 0x100 EXP DUP2 SLOAD DUP2 PUSH20 0xFFFFFFFFFFFFFFFFFFFFFFFFFFFFFFFFFFFFFFFF MUL NOT AND SWAP1 DUP4 PUSH20 0xFFFFFFFFFFFFFFFFFFFFFFFFFFFFFFFFFFFFFFFF AND MUL OR SWAP1 SSTORE POP PUSH1 0x20 DUP3 ADD MLOAD DUP2 PUSH1 0x1 ADD SWAP1 DUP1 MLOAD SWAP1 PUSH1 0x20 ADD SWAP1 PUSH2 0x80D SWAP3 SWAP2 SWAP1 PUSH2 0x899 JUMP JUMPDEST POP POP POP POP POP POP JUMP JUMPDEST DUP3 DUP1 SLOAD DUP3 DUP3 SSTORE SWAP1 PUSH0 MSTORE PUSH1 0x20 PUSH0 KECCAK256 SWAP1 DUP2 ADD SWAP3 DUP3 ISZERO PUSH2 0x85B JUMPI SWAP2 PUSH1 0x20 MUL DUP3 ADD JUMPDEST DUP3 DUP2 GT ISZERO PUSH2 0x85A JUMPI DUP3 MLOAD DUP3 SWAP1 DUP2 PUSH2 0x84A SWAP2 SWAP1 PUSH2 0x11E4 JUMP JUMPDEST POP SWAP2 PUSH1 0x20 ADD SWAP2 SWAP1 PUSH1 0x1 ADD SWAP1 PUSH2 0x833 JUMP JUMPDEST JUMPDEST POP SWAP1 POP PUSH2 0x868 SWAP2 SWAP1 PUSH2 0x8E4 JUMP JUMPDEST POP SWAP1 JUMP JUMPDEST PUSH1 0x40 MLOAD DUP1 PUSH1 0xA0 ADD PUSH1 0x40 MSTORE DUP1 PUSH1 0x60 DUP2 MSTORE PUSH1 0x20 ADD PUSH1 0x60 DUP2 MSTORE PUSH1 0x20 ADD PUSH1 0x60 DUP2 MSTORE PUSH1 0x20 ADD PUSH0 DUP2 MSTORE PUSH1 0x20 ADD PUSH0 DUP2 MSTORE POP SWAP1 JUMP JUMPDEST DUP3 DUP1 SLOAD DUP3 DUP3 SSTORE SWAP1 PUSH0 MSTORE PUSH1 0x20 PUSH0 KECCAK256 SWAP1 DUP2 ADD SWAP3 DUP3 ISZERO PUSH2 0x8D3 JUMPI SWAP2 PUSH1 0x20 MUL DUP3 ADD JUMPDEST DUP3 DUP2 GT ISZERO PUSH2 0x8D2 JUMPI DUP3 MLOAD DUP3 SSTORE SWAP2 PUSH1 0x20 ADD SWAP2 SWAP1 PUSH1 0x1 ADD SWAP1 PUSH2 0x8B7 JUMP JUMPDEST JUMPDEST POP SWAP1 POP PUSH2 0x8E0 SWAP2 SWAP1 PUSH2 0x907 JUMP JUMPDEST POP SWAP1 JUMP JUMPDEST JUMPDEST DUP1 DUP3 GT ISZERO PUSH2 0x903 JUMPI PUSH0 DUP2 DUP2 PUSH2 0x8FA SWAP2 SWAP1 PUSH2 0x922 JUMP JUMPDEST POP PUSH1 0x1 ADD PUSH2 0x8E5 JUMP JUMPDEST POP SWAP1 JUMP JUMPDEST JUMPDEST DUP1 DUP3 GT ISZERO PUSH2 0x91E JUMPI PUSH0 DUP2 PUSH0 SWAP1 SSTORE POP PUSH1 0x1 ADD PUSH2 0x908 JUMP JUMPDEST POP SWAP1 JUMP JUMPDEST POP DUP1 SLOAD PUSH2 0x92E SWAP1 PUSH2 0x1017 JUMP JUMPDEST PUSH0 DUP3 SSTORE DUP1 PUSH1 0x1F LT PUSH2 0x93F JUMPI POP PUSH2 0x95C JUMP JUMPDEST PUSH1 0x1F ADD PUSH1 0x20 SWAP1 DIV SWAP1 PUSH0 MSTORE PUSH1 0x20 PUSH0 KECCAK256 SWAP1 DUP2 ADD SWAP1 PUSH2 0x95B SWAP2 SWAP1 PUSH2 0x907 JUMP JUMPDEST JUMPDEST POP JUMP JUMPDEST PUSH0 PUSH1 0x40 MLOAD SWAP1 POP SWAP1 JUMP JUMPDEST PUSH0 DUP1 REVERT JUMPDEST PUSH0 DUP1 REVERT JUMPDEST PUSH0 DUP2 SWAP1 POP SWAP2 SWAP1 POP JUMP JUMPDEST PUSH2 0x982 DUP2 PUSH2 0x970 JUMP JUMPDEST DUP2 EQ PUSH2 0x98C JUMPI PUSH0 DUP1 REVERT JUMPDEST POP JUMP JUMPDEST PUSH0 DUP2 CALLDATALOAD SWAP1 POP PUSH2 0x99D DUP2 PUSH2 0x979 JUMP JUMPDEST SWAP3 SWAP2 POP POP JUMP JUMPDEST PUSH0 PUSH1 0x20 DUP3 DUP5 SUB SLT ISZERO PUSH2 0x9B8 JUMPI PUSH2 0x9B7 PUSH2 0x968 JUMP JUMPDEST JUMPDEST PUSH0 PUSH2 0x9C5 DUP5 DUP3 DUP6 ADD PUSH2 0x98F JUMP JUMPDEST SWAP2 POP POP SWAP3 SWAP2 POP POP JUMP JUMPDEST PUSH0 PUSH20 0xFFFFFFFFFFFFFFFFFFFFFFFFFFFFFFFFFFFFFFFF DUP3 AND SWAP1 POP SWAP2 SWAP1 POP JUMP JUMPDEST PUSH0 PUSH2 0x9F7 DUP3 PUSH2 0x9CE JUMP JUMPDEST SWAP1 POP SWAP2 SWAP1 POP JUMP JUMPDEST PUSH2 0xA07 DUP2 PUSH2 0x9ED JUMP JUMPDEST DUP3 MSTORE POP POP JUMP JUMPDEST PUSH0 PUSH1 0x20 DUP3 ADD SWAP1 POP PUSH2 0xA20 PUSH0 DUP4 ADD DUP5 PUSH2 0x9FE JUMP JUMPDEST SWAP3 SWAP2 POP POP JUMP JUMPDEST PUSH0 DUP1 REVERT JUMPDEST PUSH0 DUP1 REVERT JUMPDEST PUSH0 PUSH1 0x1F NOT PUSH1 0x1F DUP4 ADD AND SWAP1 POP SWAP2 SWAP1 POP JUMP JUMPDEST PUSH32 0x4E487B7100000000000000000000000000000000000000000000000000000000 PUSH0 MSTORE PUSH1 0x41 PUSH1 0x4 MSTORE PUSH1 0x24 PUSH0 REVERT JUMPDEST PUSH2 0xA74 DUP3 PUSH2 0xA2E JUMP JUMPDEST DUP2 ADD DUP2 DUP2 LT PUSH8 0xFFFFFFFFFFFFFFFF DUP3 GT OR ISZERO PUSH2 0xA93 JUMPI PUSH2 0xA92 PUSH2 0xA3E JUMP JUMPDEST JUMPDEST DUP1 PUSH1 0x40 MSTORE POP POP POP JUMP JUMPDEST PUSH0 PUSH2 0xAA5 PUSH2 0x95F JUMP JUMPDEST SWAP1 POP PUSH2 0xAB1 DUP3 DUP3 PUSH2 0xA6B JUMP JUMPDEST SWAP2 SWAP1 POP JUMP JUMPDEST PUSH0 PUSH8 0xFFFFFFFFFFFFFFFF DUP3 GT ISZERO PUSH2 0xAD0 JUMPI PUSH2 0xACF PUSH2 0xA3E JUMP JUMPDEST JUMPDEST PUSH2 0xAD9 DUP3 PUSH2 0xA2E JUMP JUMPDEST SWAP1 POP PUSH1 0x20 DUP2 ADD SWAP1 POP SWAP2 SWAP1 POP JUMP JUMPDEST DUP3 DUP2 DUP4 CALLDATACOPY PUSH0 DUP4 DUP4 ADD MSTORE POP POP POP JUMP JUMPDEST PUSH0 PUSH2 0xB06 PUSH2 0xB01 DUP5 PUSH2 0xAB6 JUMP JUMPDEST PUSH2 0xA9C JUMP JUMPDEST SWAP1 POP DUP3 DUP2 MSTORE PUSH1 0x20 DUP2 ADD DUP5 DUP5 DUP5 ADD GT ISZERO PUSH2 0xB22 JUMPI PUSH2 0xB21 PUSH2 0xA2A JUMP JUMPDEST JUMPDEST PUSH2 0xB2D DUP5 DUP3 DUP6 PUSH2 0xAE6 JUMP JUMPDEST POP SWAP4 SWAP3 POP POP POP JUMP JUMPDEST PUSH0 DUP3 PUSH1 0x1F DUP4 ADD SLT PUSH2 0xB49 JUMPI PUSH2 0xB48 PUSH2 0xA26 JUMP JUMPDEST JUMPDEST DUP2 CALLDATALOAD PUSH2 0xB59 DUP5 DUP3 PUSH1 0x20 DUP7 ADD PUSH2 0xAF4 JUMP JUMPDEST SWAP2 POP POP SWAP3 SWAP2 POP POP JUMP JUMPDEST PUSH0 PUSH8 0xFFFFFFFFFFFFFFFF DUP3 GT ISZERO PUSH2 0xB7C JUMPI PUSH2 0xB7B PUSH2 0xA3E JUMP JUMPDEST JUMPDEST PUSH1 0x20 DUP3 MUL SWAP1 POP PUSH1 0x20 DUP2 ADD SWAP1 POP SWAP2 SWAP1 POP JUMP JUMPDEST PUSH0 DUP1 REVERT JUMPDEST PUSH0 PUSH2 0xBA3 PUSH2 0xB9E DUP5 PUSH2 0xB62 JUMP JUMPDEST PUSH2 0xA9C JUMP JUMPDEST SWAP1 POP DUP1 DUP4 DUP3 MSTORE PUSH1 0x20 DUP3 ADD SWAP1 POP PUSH1 0x20 DUP5 MUL DUP4 ADD DUP6 DUP2 GT ISZERO PUSH2 0xBC6 JUMPI PUSH2 0xBC5 PUSH2 0xB8D JUMP JUMPDEST JUMPDEST DUP4 JUMPDEST DUP2 DUP2 LT ISZERO PUSH2 0xC0D JUMPI DUP1 CALLDATALOAD PUSH8 0xFFFFFFFFFFFFFFFF DUP2 GT ISZERO PUSH2 0xBEB JUMPI PUSH2 0xBEA PUSH2 0xA26 JUMP JUMPDEST JUMPDEST DUP1 DUP7 ADD PUSH2 0xBF8 DUP10 DUP3 PUSH2 0xB35 JUMP JUMPDEST DUP6 MSTORE PUSH1 0x20 DUP6 ADD SWAP5 POP POP POP PUSH1 0x20 DUP2 ADD SWAP1 POP PUSH2 0xBC8 JUMP JUMPDEST POP POP POP SWAP4 SWAP3 POP POP POP JUMP JUMPDEST PUSH0 DUP3 PUSH1 0x1F DUP4 ADD SLT PUSH2 0xC2B JUMPI PUSH2 0xC2A PUSH2 0xA26 JUMP JUMPDEST JUMPDEST DUP2 CALLDATALOAD PUSH2 0xC3B DUP5 DUP3 PUSH1 0x20 DUP7 ADD PUSH2 0xB91 JUMP JUMPDEST SWAP2 POP POP SWAP3 SWAP2 POP POP JUMP JUMPDEST PUSH0 DUP2 SWAP1 POP SWAP2 SWAP1 POP JUMP JUMPDEST PUSH2 0xC56 DUP2 PUSH2 0xC44 JUMP JUMPDEST DUP2 EQ PUSH2 0xC60 JUMPI PUSH0 DUP1 REVERT JUMPDEST POP JUMP JUMPDEST PUSH0 DUP2 CALLDATALOAD SWAP1 POP PUSH2 0xC71 DUP2 PUSH2 0xC4D JUMP JUMPDEST SWAP3 SWAP2 POP POP JUMP JUMPDEST PUSH0 DUP1 PUSH0 DUP1 PUSH0 PUSH1 0xA0 DUP7 DUP9 SUB SLT ISZERO PUSH2 0xC90 JUMPI PUSH2 0xC8F PUSH2 0x968 JUMP JUMPDEST JUMPDEST PUSH0 DUP7 ADD CALLDATALOAD PUSH8 0xFFFFFFFFFFFFFFFF DUP2 GT ISZERO PUSH2 0xCAD JUMPI PUSH2 0xCAC PUSH2 0x96C JUMP JUMPDEST JUMPDEST PUSH2 0xCB9 DUP9 DUP3 DUP10 ADD PUSH2 0xB35 JUMP JUMPDEST SWAP6 POP POP PUSH1 0x20 DUP7 ADD CALLDATALOAD PUSH8 0xFFFFFFFFFFFFFFFF DUP2 GT ISZERO PUSH2 0xCDA JUMPI PUSH2 0xCD9 PUSH2 0x96C JUMP JUMPDEST JUMPDEST PUSH2 0xCE6 DUP9 DUP3 DUP10 ADD PUSH2 0xB35 JUMP JUMPDEST SWAP5 POP POP PUSH1 0x40 DUP7 ADD CALLDATALOAD PUSH8 0xFFFFFFFFFFFFFFFF DUP2 GT ISZERO PUSH2 0xD07 JUMPI PUSH2 0xD06 PUSH2 0x96C JUMP JUMPDEST JUMPDEST PUSH2 0xD13 DUP9 DUP3 DUP10 ADD PUSH2 0xC17 JUMP JUMPDEST SWAP4 POP POP PUSH1 0x60 PUSH2 0xD24 DUP9 DUP3 DUP10 ADD PUSH2 0xC63 JUMP JUMPDEST SWAP3 POP POP PUSH1 0x80 PUSH2 0xD35 DUP9 DUP3 DUP10 ADD PUSH2 0xC63 JUMP JUMPDEST SWAP2 POP POP SWAP3 SWAP6 POP SWAP3 SWAP6 SWAP1 SWAP4 POP JUMP JUMPDEST PUSH0 DUP2 MLOAD SWAP1 POP SWAP2 SWAP1 POP JUMP JUMPDEST PUSH0 DUP3 DUP3 MSTORE PUSH1 0x20 DUP3 ADD SWAP1 POP SWAP3 SWAP2 POP POP JUMP JUMPDEST DUP3 DUP2 DUP4 MCOPY PUSH0 DUP4 DUP4 ADD MSTORE POP POP POP JUMP JUMPDEST PUSH0 PUSH2 0xD74 DUP3 PUSH2 0xD42 JUMP JUMPDEST PUSH2 0xD7E DUP2 DUP6 PUSH2 0xD4C JUMP JUMPDEST SWAP4 POP PUSH2 0xD8E DUP2 DUP6 PUSH1 0x20 DUP7 ADD PUSH2 0xD5C JUMP JUMPDEST PUSH2 0xD97 DUP2 PUSH2 0xA2E JUMP JUMPDEST DUP5 ADD SWAP2 POP POP SWAP3 SWAP2 POP POP JUMP JUMPDEST PUSH2 0xDAB DUP2 PUSH2 0xC44 JUMP JUMPDEST DUP3 MSTORE POP POP JUMP JUMPDEST PUSH0 PUSH1 0x80 DUP3 ADD SWAP1 POP DUP2 DUP2 SUB PUSH0 DUP4 ADD MSTORE PUSH2 0xDC9 DUP2 DUP8 PUSH2 0xD6A JUMP JUMPDEST SWAP1 POP DUP2 DUP2 SUB PUSH1 0x20 DUP4 ADD MSTORE PUSH2 0xDDD DUP2 DUP7 PUSH2 0xD6A JUMP JUMPDEST SWAP1 POP PUSH2 0xDEC PUSH1 0x40 DUP4 ADD DUP6 PUSH2 0xDA2 JUMP JUMPDEST PUSH2 0xDF9 PUSH1 0x60 DUP4 ADD DUP5 PUSH2 0xDA2 JUMP JUMPDEST SWAP6 SWAP5 POP POP POP POP POP JUMP JUMPDEST PUSH2 0xE0B DUP2 PUSH2 0x9ED JUMP JUMPDEST DUP2 EQ PUSH2 0xE15 JUMPI PUSH0 DUP1 REVERT JUMPDEST POP JUMP JUMPDEST PUSH0 DUP2 CALLDATALOAD SWAP1 POP PUSH2 0xE26 DUP2 PUSH2 0xE02 JUMP JUMPDEST SWAP3 SWAP2 POP POP JUMP JUMPDEST PUSH0 PUSH1 0x20 DUP3 DUP5 SUB SLT ISZERO PUSH2 0xE41 JUMPI PUSH2 0xE40 PUSH2 0x968 JUMP JUMPDEST JUMPDEST PUSH0 PUSH2 0xE4E DUP5 DUP3 DUP6 ADD PUSH2 0xE18 JUMP JUMPDEST SWAP2 POP POP SWAP3 SWAP2 POP POP JUMP JUMPDEST PUSH32 0x4E487B7100000000000000000000000000000000000000000000000000000000 PUSH0 MSTORE PUSH1 0x21 PUSH1 0x4 MSTORE PUSH1 0x24 PUSH0 REVERT JUMPDEST PUSH1 0x3 DUP2 LT PUSH2 0xE95 JUMPI PUSH2 0xE94 PUSH2 0xE57 JUMP JUMPDEST JUMPDEST POP JUMP JUMPDEST PUSH0 DUP2 SWAP1 POP PUSH2 0xEA5 DUP3 PUSH2 0xE84 JUMP JUMPDEST SWAP2 SWAP1 POP JUMP JUMPDEST PUSH0 PUSH2 0xEB4 DUP3 PUSH2 0xE98 JUMP JUMPDEST SWAP1 POP SWAP2 SWAP1 POP JUMP JUMPDEST PUSH2 0xEC4 DUP2 PUSH2 0xEAA JUMP JUMPDEST DUP3 MSTORE POP POP JUMP JUMPDEST PUSH0 PUSH1 0x20 DUP3 ADD SWAP1 POP PUSH2 0xEDD PUSH0 DUP4 ADD DUP5 PUSH2 0xEBB JUMP JUMPDEST SWAP3 SWAP2 POP POP JUMP JUMPDEST PUSH0 PUSH8 0xFFFFFFFFFFFFFFFF DUP3 GT ISZERO PUSH2 0xEFD JUMPI PUSH2 0xEFC PUSH2 0xA3E JUMP JUMPDEST JUMPDEST PUSH1 0x20 DUP3 MUL SWAP1 POP PUSH1 0x20 DUP2 ADD SWAP1 POP SWAP2 SWAP1 POP JUMP JUMPDEST PUSH0 PUSH2 0xF20 PUSH2 0xF1B DUP5 PUSH2 0xEE3 JUMP JUMPDEST PUSH2 0xA9C JUMP JUMPDEST SWAP1 POP DUP1 DUP4 DUP3 MSTORE PUSH1 0x20 DUP3 ADD SWAP1 POP PUSH1 0x20 DUP5 MUL DUP4 ADD DUP6 DUP2 GT ISZERO PUSH2 0xF43 JUMPI PUSH2 0xF42 PUSH2 0xB8D JUMP JUMPDEST JUMPDEST DUP4 JUMPDEST DUP2 DUP2 LT ISZERO PUSH2 0xF6C JUMPI DUP1 PUSH2 0xF58 DUP9 DUP3 PUSH2 0x98F JUMP JUMPDEST DUP5 MSTORE PUSH1 0x20 DUP5 ADD SWAP4 POP POP PUSH1 0x20 DUP2 ADD SWAP1 POP PUSH2 0xF45 JUMP JUMPDEST POP POP POP SWAP4 SWAP3 POP POP POP JUMP JUMPDEST PUSH0 DUP3 PUSH1 0x1F DUP4 ADD SLT PUSH2 0xF8A JUMPI PUSH2 0xF89 PUSH2 0xA26 JUMP JUMPDEST JUMPDEST DUP2 CALLDATALOAD PUSH2 0xF9A DUP5 DUP3 PUSH1 0x20 DUP7 ADD PUSH2 0xF0E JUMP JUMPDEST SWAP2 POP POP SWAP3 SWAP2 POP POP JUMP JUMPDEST PUSH0 PUSH1 0x20 DUP3 DUP5 SUB SLT ISZERO PUSH2 0xFB8 JUMPI PUSH2 0xFB7 PUSH2 0x968 JUMP JUMPDEST JUMPDEST PUSH0 DUP3 ADD CALLDATALOAD PUSH8 0xFFFFFFFFFFFFFFFF DUP2 GT ISZERO PUSH2 0xFD5 JUMPI PUSH2 0xFD4 PUSH2 0x96C JUMP JUMPDEST JUMPDEST PUSH2 0xFE1 DUP5 DUP3 DUP6 ADD PUSH2 0xF76 JUMP JUMPDEST SWAP2 POP POP SWAP3 SWAP2 POP POP JUMP JUMPDEST PUSH32 0x4E487B7100000000000000000000000000000000000000000000000000000000 PUSH0 MSTORE PUSH1 0x22 PUSH1 0x4 MSTORE PUSH1 0x24 PUSH0 REVERT JUMPDEST PUSH0 PUSH1 0x2 DUP3 DIV SWAP1 POP PUSH1 0x1 DUP3 AND DUP1 PUSH2 0x102E JUMPI PUSH1 0x7F DUP3 AND SWAP2 POP JUMPDEST PUSH1 0x20 DUP3 LT DUP2 SUB PUSH2 0x1041 JUMPI PUSH2 0x1040 PUSH2 0xFEA JUMP JUMPDEST JUMPDEST POP SWAP2 SWAP1 POP JUMP JUMPDEST PUSH0 DUP2 SWAP1 POP DUP2 PUSH0 MSTORE PUSH1 0x20 PUSH0 KECCAK256 SWAP1 POP SWAP2 SWAP1 POP JUMP JUMPDEST PUSH0 PUSH1 0x20 PUSH1 0x1F DUP4 ADD DIV SWAP1 POP SWAP2 SWAP1 POP JUMP JUMPDEST PUSH0 DUP3 DUP3 SHL SWAP1 POP SWAP3 SWAP2 POP POP JUMP JUMPDEST PUSH0 PUSH1 0x8 DUP4 MUL PUSH2 0x10A3 PUSH32 0xFFFFFFFFFFFFFFFFFFFFFFFFFFFFFFFFFFFFFFFFFFFFFFFFFFFFFFFFFFFFFFFF DUP3 PUSH2 0x1068 JUMP JUMPDEST PUSH2 0x10AD DUP7 DUP4 PUSH2 0x1068 JUMP JUMPDEST SWAP6 POP DUP1 NOT DUP5 AND SWAP4 POP DUP1 DUP7 AND DUP5 OR SWAP3 POP POP POP SWAP4 SWAP3 POP POP POP JUMP JUMPDEST PUSH0 DUP2 SWAP1 POP SWAP2 SWAP1 POP JUMP JUMPDEST PUSH0 PUSH2 0x10E8 PUSH2 0x10E3 PUSH2 0x10DE DUP5 PUSH2 0x970 JUMP JUMPDEST PUSH2 0x10C5 JUMP JUMPDEST PUSH2 0x970 JUMP JUMPDEST SWAP1 POP SWAP2 SWAP1 POP JUMP JUMPDEST PUSH0 DUP2 SWAP1 POP SWAP2 SWAP1 POP JUMP JUMPDEST PUSH2 0x1101 DUP4 PUSH2 0x10CE JUMP JUMPDEST PUSH2 0x1115 PUSH2 0x110D DUP3 PUSH2 0x10EF JUMP JUMPDEST DUP5 DUP5 SLOAD PUSH2 0x1074 JUMP JUMPDEST DUP3 SSTORE POP POP POP POP JUMP JUMPDEST PUSH0 SWAP1 JUMP JUMPDEST PUSH2 0x1129 PUSH2 0x111D JUMP JUMPDEST PUSH2 0x1134 DUP2 DUP5 DUP5 PUSH2 0x10F8 JUMP JUMPDEST POP POP POP JUMP JUMPDEST JUMPDEST DUP2 DUP2 LT ISZERO PUSH2 0x1157 JUMPI PUSH2 0x114C PUSH0 DUP3 PUSH2 0x1121 JUMP JUMPDEST PUSH1 0x1 DUP2 ADD SWAP1 POP PUSH2 0x113A JUMP JUMPDEST POP POP JUMP JUMPDEST PUSH1 0x1F DUP3 GT ISZERO PUSH2 0x119C JUMPI PUSH2 0x116D DUP2 PUSH2 0x1047 JUMP JUMPDEST PUSH2 0x1176 DUP5 PUSH2 0x1059 JUMP JUMPDEST DUP2 ADD PUSH1 0x20 DUP6 LT ISZERO PUSH2 0x1185 JUMPI DUP2 SWAP1 POP JUMPDEST PUSH2 0x1199 PUSH2 0x1191 DUP6 PUSH2 0x1059 JUMP JUMPDEST DUP4 ADD DUP3 PUSH2 0x1139 JUMP JUMPDEST POP POP JUMPDEST POP POP POP JUMP JUMPDEST PUSH0 DUP3 DUP3 SHR SWAP1 POP SWAP3 SWAP2 POP POP JUMP JUMPDEST PUSH0 PUSH2 0x11BC PUSH0 NOT DUP5 PUSH1 0x8 MUL PUSH2 0x11A1 JUMP JUMPDEST NOT DUP1 DUP4 AND SWAP2 POP POP SWAP3 SWAP2 POP POP JUMP JUMPDEST PUSH0 PUSH2 0x11D4 DUP4 DUP4 PUSH2 0x11AD JUMP JUMPDEST SWAP2 POP DUP3 PUSH1 0x2 MUL DUP3 OR SWAP1 POP SWAP3 SWAP2 POP POP JUMP JUMPDEST PUSH2 0x11ED DUP3 PUSH2 0xD42 JUMP JUMPDEST PUSH8 0xFFFFFFFFFFFFFFFF DUP2 GT ISZERO PUSH2 0x1206 JUMPI PUSH2 0x1205 PUSH2 0xA3E JUMP JUMPDEST JUMPDEST PUSH2 0x1210 DUP3 SLOAD PUSH2 0x1017 JUMP JUMPDEST PUSH2 0x121B DUP3 DUP3 DUP6 PUSH2 0x115B JUMP JUMPDEST PUSH0 PUSH1 0x20 SWAP1 POP PUSH1 0x1F DUP4 GT PUSH1 0x1 DUP2 EQ PUSH2 0x124C JUMPI PUSH0 DUP5 ISZERO PUSH2 0x123A JUMPI DUP3 DUP8 ADD MLOAD SWAP1 POP JUMPDEST PUSH2 0x1244 DUP6 DUP3 PUSH2 0x11C9 JUMP JUMPDEST DUP7 SSTORE POP PUSH2 0x12AB JUMP JUMPDEST PUSH1 0x1F NOT DUP5 AND PUSH2 0x125A DUP7 PUSH2 0x1047 JUMP JUMPDEST PUSH0 JUMPDEST DUP3 DUP2 LT ISZERO PUSH2 0x1281 JUMPI DUP5 DUP10 ADD MLOAD DUP3 SSTORE PUSH1 0x1 DUP3 ADD SWAP2 POP PUSH1 0x20 DUP6 ADD SWAP5 POP PUSH1 0x20 DUP2 ADD SWAP1 POP PUSH2 0x125C JUMP JUMPDEST DUP7 DUP4 LT ISZERO PUSH2 0x129E JUMPI DUP5 DUP10 ADD MLOAD PUSH2 0x129A PUSH1 0x1F DUP10 AND DUP3 PUSH2 0x11AD JUMP JUMPDEST DUP4 SSTORE POP JUMPDEST PUSH1 0x1 PUSH1 0x2 DUP9 MUL ADD DUP9 SSTORE POP POP POP JUMPDEST POP POP POP POP POP POP JUMP JUMPDEST PUSH32 0x4E487B7100000000000000000000000000000000000000000000000000000000 PUSH0 MSTORE PUSH1 0x32 PUSH1 0x4 MSTORE PUSH1 0x24 PUSH0 REVERT INVALID LOG2 PUSH5 0x6970667358 0x22 SLT KECCAK256 0xE6 PUSH31 0x14BED711C7AB17667DA90BB80976EE62F6171EFD49F9498A09D4EC0DA89E64 PUSH20 0x6F6C634300081A00330000000000000000000000 "
				},
				"gasEstimates": {
					"creation": {
						"codeDepositCost": "977200",
						"executionCost": "1012",
						"totalCost": "978212"
					},
					"external": {
						"AddPizzaToProducts(string,string,string[],int256,int256)": "infinite",
						"BuyPizzas(uint256[])": "infinite",
						"pizzas(uint256)": "infinite",
						"receipts(uint256)": "4956",
						"roles(address)": "2965"
					}
				},
				"methodIdentifiers": {
					"AddPizzaToProducts(string,string,string[],int256,int256)": "168597b3",
					"BuyPizzas(uint256[])": "f27e9b5f",
					"pizzas(uint256)": "6b67a1b2",
					"receipts(uint256)": "0f7ee1ec",
					"roles(address)": "99374642"
				}
			},
			"storageLayout": {
				"storage": [
					{
						"astId": 61,
						"contract": "contracts/PizzaSmartContract.sol:PizzaSmartContract",
						"label": "pizzas",
						"offset": 0,
						"slot": "0",
						"type": "t_array(t_struct(Pizza)57_storage)dyn_storage"
					},
					{
						"astId": 71,
						"contract": "contracts/PizzaSmartContract.sol:PizzaSmartContract",
						"label": "receipts",
						"offset": 0,
						"slot": "1",
						"type": "t_array(t_struct(Receipt)67_storage)dyn_storage"
					},
					{
						"astId": 76,
						"contract": "contracts/PizzaSmartContract.sol:PizzaSmartContract",
						"label": "roles",
						"offset": 0,
						"slot": "2",
						"type": "t_mapping(t_address,t_enum(Roles)5)"
					}
				],
				"types": {
					"t_address": {
						"encoding": "inplace",
						"label": "address",
						"numberOfBytes": "20"
					},
					"t_array(t_string_storage)dyn_storage": {
						"base": "t_string_storage",
						"encoding": "dynamic_array",
						"label": "string[]",
						"numberOfBytes": "32"
					},
					"t_array(t_struct(Pizza)57_storage)dyn_storage": {
						"base": "t_struct(Pizza)57_storage",
						"encoding": "dynamic_array",
						"label": "struct PizzaSmartContract.Pizza[]",
						"numberOfBytes": "32"
					},
					"t_array(t_struct(Receipt)67_storage)dyn_storage": {
						"base": "t_struct(Receipt)67_storage",
						"encoding": "dynamic_array",
						"label": "struct PizzaSmartContract.Receipt[]",
						"numberOfBytes": "32"
					},
					"t_array(t_uint256)dyn_storage": {
						"base": "t_uint256",
						"encoding": "dynamic_array",
						"label": "uint256[]",
						"numberOfBytes": "32"
					},
					"t_enum(Roles)5": {
						"encoding": "inplace",
						"label": "enum PizzaSmartContract.Roles",
						"numberOfBytes": "1"
					},
					"t_int256": {
						"encoding": "inplace",
						"label": "int256",
						"numberOfBytes": "32"
					},
					"t_mapping(t_address,t_enum(Roles)5)": {
						"encoding": "mapping",
						"key": "t_address",
						"label": "mapping(address => enum PizzaSmartContract.Roles)",
						"numberOfBytes": "32",
						"value": "t_enum(Roles)5"
					},
					"t_string_storage": {
						"encoding": "bytes",
						"label": "string",
						"numberOfBytes": "32"
					},
					"t_struct(Pizza)57_storage": {
						"encoding": "inplace",
						"label": "struct PizzaSmartContract.Pizza",
						"members": [
							{
								"astId": 47,
								"contract": "contracts/PizzaSmartContract.sol:PizzaSmartContract",
								"label": "Name",
								"offset": 0,
								"slot": "0",
								"type": "t_string_storage"
							},
							{
								"astId": 49,
								"contract": "contracts/PizzaSmartContract.sol:PizzaSmartContract",
								"label": "Description",
								"offset": 0,
								"slot": "1",
								"type": "t_string_storage"
							},
							{
								"astId": 52,
								"contract": "contracts/PizzaSmartContract.sol:PizzaSmartContract",
								"label": "Ingredients",
								"offset": 0,
								"slot": "2",
								"type": "t_array(t_string_storage)dyn_storage"
							},
							{
								"astId": 54,
								"contract": "contracts/PizzaSmartContract.sol:PizzaSmartContract",
								"label": "Price",
								"offset": 0,
								"slot": "3",
								"type": "t_int256"
							},
							{
								"astId": 56,
								"contract": "contracts/PizzaSmartContract.sol:PizzaSmartContract",
								"label": "Rating",
								"offset": 0,
								"slot": "4",
								"type": "t_int256"
							}
						],
						"numberOfBytes": "160"
					},
					"t_struct(Receipt)67_storage": {
						"encoding": "inplace",
						"label": "struct PizzaSmartContract.Receipt",
						"members": [
							{
								"astId": 63,
								"contract": "contracts/PizzaSmartContract.sol:PizzaSmartContract",
								"label": "buyer",
								"offset": 0,
								"slot": "0",
								"type": "t_address"
							},
							{
								"astId": 66,
								"contract": "contracts/PizzaSmartContract.sol:PizzaSmartContract",
								"label": "buyedPizzasIndexes",
								"offset": 0,
								"slot": "1",
								"type": "t_array(t_uint256)dyn_storage"
							}
						],
						"numberOfBytes": "64"
					},
					"t_uint256": {
						"encoding": "inplace",
						"label": "uint256",
						"numberOfBytes": "32"
					}
				}
			},
			"userdoc": {
				"kind": "user",
				"methods": {},
				"version": 1
			}
		}
	}
}