{
	"contracts/PizzaSmartContract.sol": {
		"PizzaSmartContract": {
			"abi": [
				{
					"inputs": [
						{
							"internalType": "string",
							"name": "name",
							"type": "string"
						},
						{
							"internalType": "string",
							"name": "description",
							"type": "string"
						},
						{
							"internalType": "string[]",
							"name": "ingredients",
							"type": "string[]"
						},
						{
							"internalType": "uint256",
							"name": "price",
							"type": "uint256"
						},
						{
							"internalType": "int256",
							"name": "rating",
							"type": "int256"
						}
					],
					"name": "AddPizzaToProducts",
					"outputs": [],
					"stateMutability": "nonpayable",
					"type": "function"
				},
				{
					"inputs": [
						{
							"internalType": "uint256[]",
							"name": "pizzaIndices",
							"type": "uint256[]"
						}
					],
					"name": "BuyPizzas",
					"outputs": [],
					"stateMutability": "payable",
					"type": "function"
				},
				{
					"inputs": [],
					"name": "GetPizzas",
					"outputs": [
						{
							"components": [
								{
									"internalType": "string",
									"name": "Name",
									"type": "string"
								},
								{
									"internalType": "string",
									"name": "Description",
									"type": "string"
								},
								{
									"internalType": "string[]",
									"name": "Ingredients",
									"type": "string[]"
								},
								{
									"internalType": "uint256",
									"name": "Price",
									"type": "uint256"
								},
								{
									"internalType": "int256",
									"name": "Rating",
									"type": "int256"
								}
							],
							"internalType": "struct PizzaSmartContract.Pizza[]",
							"name": "",
							"type": "tuple[]"
						}
					],
					"stateMutability": "view",
					"type": "function"
				},
				{
					"inputs": [
						{
							"internalType": "uint256",
							"name": "",
							"type": "uint256"
						}
					],
					"name": "pizzas",
					"outputs": [
						{
							"internalType": "string",
							"name": "Name",
							"type": "string"
						},
						{
							"internalType": "string",
							"name": "Description",
							"type": "string"
						},
						{
							"internalType": "uint256",
							"name": "Price",
							"type": "uint256"
						},
						{
							"internalType": "int256",
							"name": "Rating",
							"type": "int256"
						}
					],
					"stateMutability": "view",
					"type": "function"
				},
				{
					"inputs": [
						{
							"internalType": "uint256",
							"name": "",
							"type": "uint256"
						}
					],
					"name": "receipts",
					"outputs": [
						{
							"internalType": "address",
							"name": "buyer",
							"type": "address"
						}
					],
					"stateMutability": "view",
					"type": "function"
				},
				{
					"inputs": [
						{
							"internalType": "address",
							"name": "",
							"type": "address"
						}
					],
					"name": "roles",
					"outputs": [
						{
							"internalType": "enum PizzaSmartContract.Roles",
							"name": "",
							"type": "uint8"
						}
					],
					"stateMutability": "view",
					"type": "function"
				}
			],
			"devdoc": {
				"kind": "dev",
				"methods": {},
				"version": 1
			},
			"evm": {
				"assembly": "    /* \"contracts/PizzaSmartContract.sol\":61:2146  contract PizzaSmartContract... */\n  mstore(0x40, 0x80)\n  callvalue\n  dup1\n  iszero\n  tag_1\n  jumpi\n  0x00\n  dup1\n  revert\ntag_1:\n  pop\n  dataSize(sub_0)\n  dup1\n  dataOffset(sub_0)\n  0x00\n  codecopy\n  0x00\n  return\nstop\n\nsub_0: assembly {\n        /* \"contracts/PizzaSmartContract.sol\":61:2146  contract PizzaSmartContract... */\n      mstore(0x40, 0x80)\n      jumpi(tag_1, lt(calldatasize, 0x04))\n      shr(0xe0, calldataload(0x00))\n      dup1\n      0x0f7ee1ec\n      eq\n      tag_2\n      jumpi\n      dup1\n      0x17c7dbbf\n      eq\n      tag_3\n      jumpi\n      dup1\n      0x6b67a1b2\n      eq\n      tag_4\n      jumpi\n      dup1\n      0x99374642\n      eq\n      tag_5\n      jumpi\n      dup1\n      0xa112939e\n      eq\n      tag_6\n      jumpi\n      dup1\n      0xf27e9b5f\n      eq\n      tag_7\n      jumpi\n    tag_1:\n      0x00\n      dup1\n      revert\n        /* \"contracts/PizzaSmartContract.sol\":847:872  Receipt[] public receipts */\n    tag_2:\n      callvalue\n      dup1\n      iszero\n      tag_8\n      jumpi\n      0x00\n      dup1\n      revert\n    tag_8:\n      pop\n      tag_9\n      0x04\n      dup1\n      calldatasize\n      sub\n      dup2\n      add\n      swap1\n      tag_10\n      swap2\n      swap1\n      tag_11\n      jump\t// in\n    tag_10:\n      tag_12\n      jump\t// in\n    tag_9:\n      mload(0x40)\n      tag_13\n      swap2\n      swap1\n      tag_14\n      jump\t// in\n    tag_13:\n      mload(0x40)\n      dup1\n      swap2\n      sub\n      swap1\n      return\n        /* \"contracts/PizzaSmartContract.sol\":931:1350  function AddPizzaToProducts(string memory name, string memory description, string[] memory ingredients, uint256 price, int rating) public OnlyManager... */\n    tag_3:\n      callvalue\n      dup1\n      iszero\n      tag_15\n      jumpi\n      0x00\n      dup1\n      revert\n    tag_15:\n      pop\n      tag_16\n      0x04\n      dup1\n      calldatasize\n      sub\n      dup2\n      add\n      swap1\n      tag_17\n      swap2\n      swap1\n      tag_18\n      jump\t// in\n    tag_17:\n      tag_19\n      jump\t// in\n    tag_16:\n      stop\n        /* \"contracts/PizzaSmartContract.sol\":718:739  Pizza[] public pizzas */\n    tag_4:\n      callvalue\n      dup1\n      iszero\n      tag_20\n      jumpi\n      0x00\n      dup1\n      revert\n    tag_20:\n      pop\n      tag_21\n      0x04\n      dup1\n      calldatasize\n      sub\n      dup2\n      add\n      swap1\n      tag_22\n      swap2\n      swap1\n      tag_11\n      jump\t// in\n    tag_22:\n      tag_23\n      jump\t// in\n    tag_21:\n      mload(0x40)\n      tag_24\n      swap5\n      swap4\n      swap3\n      swap2\n      swap1\n      tag_25\n      jump\t// in\n    tag_24:\n      mload(0x40)\n      dup1\n      swap2\n      sub\n      swap1\n      return\n        /* \"contracts/PizzaSmartContract.sol\":883:922  mapping (address => Roles) public roles */\n    tag_5:\n      callvalue\n      dup1\n      iszero\n      tag_26\n      jumpi\n      0x00\n      dup1\n      revert\n    tag_26:\n      pop\n      tag_27\n      0x04\n      dup1\n      calldatasize\n      sub\n      dup2\n      add\n      swap1\n      tag_28\n      swap2\n      swap1\n      tag_29\n      jump\t// in\n    tag_28:\n      tag_30\n      jump\t// in\n    tag_27:\n      mload(0x40)\n      tag_31\n      swap2\n      swap1\n      tag_32\n      jump\t// in\n    tag_31:\n      mload(0x40)\n      dup1\n      swap2\n      sub\n      swap1\n      return\n        /* \"contracts/PizzaSmartContract.sol\":2048:2143  function GetPizzas() public view returns (Pizza[] memory)... */\n    tag_6:\n      callvalue\n      dup1\n      iszero\n      tag_33\n      jumpi\n      0x00\n      dup1\n      revert\n    tag_33:\n      pop\n      tag_34\n      tag_35\n      jump\t// in\n    tag_34:\n      mload(0x40)\n      tag_36\n      swap2\n      swap1\n      tag_37\n      jump\t// in\n    tag_36:\n      mload(0x40)\n      dup1\n      swap2\n      sub\n      swap1\n      return\n        /* \"contracts/PizzaSmartContract.sol\":1358:2040  function BuyPizzas(uint256[] memory pizzaIndices) public payable  OnlyUser... */\n    tag_7:\n      tag_38\n      0x04\n      dup1\n      calldatasize\n      sub\n      dup2\n      add\n      swap1\n      tag_39\n      swap2\n      swap1\n      tag_40\n      jump\t// in\n    tag_39:\n      tag_41\n      jump\t// in\n    tag_38:\n      stop\n        /* \"contracts/PizzaSmartContract.sol\":847:872  Receipt[] public receipts */\n    tag_12:\n      0x01\n      dup2\n      dup2\n      sload\n      dup2\n      lt\n      tag_42\n      jumpi\n      0x00\n      dup1\n      revert\n    tag_42:\n      swap1\n      0x00\n      mstore\n      keccak256(0x00, 0x20)\n      swap1\n      0x02\n      mul\n      add\n      0x00\n      swap2\n      pop\n      swap1\n      pop\n      dup1\n      0x00\n      add\n      0x00\n      swap1\n      sload\n      swap1\n      0x0100\n      exp\n      swap1\n      div\n      0xffffffffffffffffffffffffffffffffffffffff\n      and\n      swap1\n      pop\n      dup2\n      jump\t// out\n        /* \"contracts/PizzaSmartContract.sol\":931:1350  function AddPizzaToProducts(string memory name, string memory description, string[] memory ingredients, uint256 price, int rating) public OnlyManager... */\n    tag_19:\n        /* \"contracts/PizzaSmartContract.sol\":245:258  Roles.Manager */\n      0x02\n        /* \"contracts/PizzaSmartContract.sol\":224:258  roles[msg.sender] == Roles.Manager */\n      dup1\n      dup2\n      gt\n      iszero\n      tag_45\n      jumpi\n      tag_46\n      tag_47\n      jump\t// in\n    tag_46:\n    tag_45:\n        /* \"contracts/PizzaSmartContract.sol\":224:229  roles */\n      0x02\n        /* \"contracts/PizzaSmartContract.sol\":224:241  roles[msg.sender] */\n      0x00\n        /* \"contracts/PizzaSmartContract.sol\":230:240  msg.sender */\n      caller\n        /* \"contracts/PizzaSmartContract.sol\":224:241  roles[msg.sender] */\n      0xffffffffffffffffffffffffffffffffffffffff\n      and\n      0xffffffffffffffffffffffffffffffffffffffff\n      and\n      dup2\n      mstore\n      0x20\n      add\n      swap1\n      dup2\n      mstore\n      0x20\n      add\n      0x00\n      keccak256\n      0x00\n      swap1\n      sload\n      swap1\n      0x0100\n      exp\n      swap1\n      div\n      0xff\n      and\n        /* \"contracts/PizzaSmartContract.sol\":224:258  roles[msg.sender] == Roles.Manager */\n      0x02\n      dup2\n      gt\n      iszero\n      tag_48\n      jumpi\n      tag_49\n      tag_47\n      jump\t// in\n    tag_49:\n    tag_48:\n      eq\n        /* \"contracts/PizzaSmartContract.sol\":216:259  require(roles[msg.sender] == Roles.Manager) */\n      tag_50\n      jumpi\n      0x00\n      dup1\n      revert\n    tag_50:\n        /* \"contracts/PizzaSmartContract.sol\":1097:1118  Pizza memory newPizza */\n      0x00\n        /* \"contracts/PizzaSmartContract.sol\":1121:1308  Pizza(... */\n      mload(0x40)\n      dup1\n      0xa0\n      add\n      0x40\n      mstore\n      dup1\n        /* \"contracts/PizzaSmartContract.sol\":1158:1162  name */\n      dup8\n        /* \"contracts/PizzaSmartContract.sol\":1121:1308  Pizza(... */\n      dup2\n      mstore\n      0x20\n      add\n        /* \"contracts/PizzaSmartContract.sol\":1190:1201  description */\n      dup7\n        /* \"contracts/PizzaSmartContract.sol\":1121:1308  Pizza(... */\n      dup2\n      mstore\n      0x20\n      add\n        /* \"contracts/PizzaSmartContract.sol\":1229:1240  ingredients */\n      dup6\n        /* \"contracts/PizzaSmartContract.sol\":1121:1308  Pizza(... */\n      dup2\n      mstore\n      0x20\n      add\n        /* \"contracts/PizzaSmartContract.sol\":1262:1267  price */\n      dup5\n        /* \"contracts/PizzaSmartContract.sol\":1121:1308  Pizza(... */\n      dup2\n      mstore\n      0x20\n      add\n        /* \"contracts/PizzaSmartContract.sol\":1290:1296  rating */\n      dup4\n        /* \"contracts/PizzaSmartContract.sol\":1121:1308  Pizza(... */\n      dup2\n      mstore\n      pop\n        /* \"contracts/PizzaSmartContract.sol\":1097:1308  Pizza memory newPizza = Pizza(... */\n      swap1\n      pop\n        /* \"contracts/PizzaSmartContract.sol\":1321:1327  pizzas */\n      0x00\n        /* \"contracts/PizzaSmartContract.sol\":1333:1341  newPizza */\n      dup2\n        /* \"contracts/PizzaSmartContract.sol\":1321:1342  pizzas.push(newPizza) */\n      swap1\n      dup1\n      0x01\n      dup2\n      sload\n      add\n      dup1\n      dup3\n      sstore\n      dup1\n      swap2\n      pop\n      pop\n      0x01\n      swap1\n      sub\n      swap1\n      0x00\n      mstore\n      keccak256(0x00, 0x20)\n      swap1\n      0x05\n      mul\n      add\n      0x00\n      swap1\n      swap2\n      swap1\n      swap2\n      swap1\n      swap2\n      pop\n      0x00\n      dup3\n      add\n      mload\n      dup2\n      0x00\n      add\n      swap1\n      dup2\n      tag_53\n      swap2\n      swap1\n      tag_54\n      jump\t// in\n    tag_53:\n      pop\n      0x20\n      dup3\n      add\n      mload\n      dup2\n      0x01\n      add\n      swap1\n      dup2\n      tag_55\n      swap2\n      swap1\n      tag_54\n      jump\t// in\n    tag_55:\n      pop\n      0x40\n      dup3\n      add\n      mload\n      dup2\n      0x02\n      add\n      swap1\n      dup1\n      mload\n      swap1\n      0x20\n      add\n      swap1\n      tag_56\n      swap3\n      swap2\n      swap1\n      tag_57\n      jump\t// in\n    tag_56:\n      pop\n      0x60\n      dup3\n      add\n      mload\n      dup2\n      0x03\n      add\n      sstore\n      0x80\n      dup3\n      add\n      mload\n      dup2\n      0x04\n      add\n      sstore\n      pop\n      pop\n        /* \"contracts/PizzaSmartContract.sol\":1086:1350  {... */\n      pop\n        /* \"contracts/PizzaSmartContract.sol\":931:1350  function AddPizzaToProducts(string memory name, string memory description, string[] memory ingredients, uint256 price, int rating) public OnlyManager... */\n      pop\n      pop\n      pop\n      pop\n      pop\n      jump\t// out\n        /* \"contracts/PizzaSmartContract.sol\":718:739  Pizza[] public pizzas */\n    tag_23:\n      0x00\n      dup2\n      dup2\n      sload\n      dup2\n      lt\n      tag_58\n      jumpi\n      0x00\n      dup1\n      revert\n    tag_58:\n      swap1\n      0x00\n      mstore\n      keccak256(0x00, 0x20)\n      swap1\n      0x05\n      mul\n      add\n      0x00\n      swap2\n      pop\n      swap1\n      pop\n      dup1\n      0x00\n      add\n      dup1\n      sload\n      tag_60\n      swap1\n      tag_61\n      jump\t// in\n    tag_60:\n      dup1\n      0x1f\n      add\n      0x20\n      dup1\n      swap2\n      div\n      mul\n      0x20\n      add\n      mload(0x40)\n      swap1\n      dup2\n      add\n      0x40\n      mstore\n      dup1\n      swap3\n      swap2\n      swap1\n      dup2\n      dup2\n      mstore\n      0x20\n      add\n      dup3\n      dup1\n      sload\n      tag_62\n      swap1\n      tag_61\n      jump\t// in\n    tag_62:\n      dup1\n      iszero\n      tag_63\n      jumpi\n      dup1\n      0x1f\n      lt\n      tag_64\n      jumpi\n      0x0100\n      dup1\n      dup4\n      sload\n      div\n      mul\n      dup4\n      mstore\n      swap2\n      0x20\n      add\n      swap2\n      jump(tag_63)\n    tag_64:\n      dup3\n      add\n      swap2\n      swap1\n      0x00\n      mstore\n      keccak256(0x00, 0x20)\n      swap1\n    tag_65:\n      dup2\n      sload\n      dup2\n      mstore\n      swap1\n      0x01\n      add\n      swap1\n      0x20\n      add\n      dup1\n      dup4\n      gt\n      tag_65\n      jumpi\n      dup3\n      swap1\n      sub\n      0x1f\n      and\n      dup3\n      add\n      swap2\n    tag_63:\n      pop\n      pop\n      pop\n      pop\n      pop\n      swap1\n      dup1\n      0x01\n      add\n      dup1\n      sload\n      tag_66\n      swap1\n      tag_61\n      jump\t// in\n    tag_66:\n      dup1\n      0x1f\n      add\n      0x20\n      dup1\n      swap2\n      div\n      mul\n      0x20\n      add\n      mload(0x40)\n      swap1\n      dup2\n      add\n      0x40\n      mstore\n      dup1\n      swap3\n      swap2\n      swap1\n      dup2\n      dup2\n      mstore\n      0x20\n      add\n      dup3\n      dup1\n      sload\n      tag_67\n      swap1\n      tag_61\n      jump\t// in\n    tag_67:\n      dup1\n      iszero\n      tag_68\n      jumpi\n      dup1\n      0x1f\n      lt\n      tag_69\n      jumpi\n      0x0100\n      dup1\n      dup4\n      sload\n      div\n      mul\n      dup4\n      mstore\n      swap2\n      0x20\n      add\n      swap2\n      jump(tag_68)\n    tag_69:\n      dup3\n      add\n      swap2\n      swap1\n      0x00\n      mstore\n      keccak256(0x00, 0x20)\n      swap1\n    tag_70:\n      dup2\n      sload\n      dup2\n      mstore\n      swap1\n      0x01\n      add\n      swap1\n      0x20\n      add\n      dup1\n      dup4\n      gt\n      tag_70\n      jumpi\n      dup3\n      swap1\n      sub\n      0x1f\n      and\n      dup3\n      add\n      swap2\n    tag_68:\n      pop\n      pop\n      pop\n      pop\n      pop\n      swap1\n      dup1\n      0x03\n      add\n      sload\n      swap1\n      dup1\n      0x04\n      add\n      sload\n      swap1\n      pop\n      dup5\n      jump\t// out\n        /* \"contracts/PizzaSmartContract.sol\":883:922  mapping (address => Roles) public roles */\n    tag_30:\n      mstore(0x20, 0x02)\n      dup1\n      0x00\n      mstore\n      keccak256(0x00, 0x40)\n      0x00\n      swap2\n      pop\n      sload\n      swap1\n      0x0100\n      exp\n      swap1\n      div\n      0xff\n      and\n      dup2\n      jump\t// out\n        /* \"contracts/PizzaSmartContract.sol\":2048:2143  function GetPizzas() public view returns (Pizza[] memory)... */\n    tag_35:\n        /* \"contracts/PizzaSmartContract.sol\":2090:2104  Pizza[] memory */\n      0x60\n        /* \"contracts/PizzaSmartContract.sol\":2129:2135  pizzas */\n      0x00\n        /* \"contracts/PizzaSmartContract.sol\":2122:2135  return pizzas */\n      dup1\n      sload\n      dup1\n      0x20\n      mul\n      0x20\n      add\n      mload(0x40)\n      swap1\n      dup2\n      add\n      0x40\n      mstore\n      dup1\n      swap3\n      swap2\n      swap1\n      dup2\n      dup2\n      mstore\n      0x20\n      add\n      0x00\n      swap1\n    tag_72:\n      dup3\n      dup3\n      lt\n      iszero\n      tag_73\n      jumpi\n      dup4\n      dup3\n      swap1\n      0x00\n      mstore\n      keccak256(0x00, 0x20)\n      swap1\n      0x05\n      mul\n      add\n      mload(0x40)\n      dup1\n      0xa0\n      add\n      0x40\n      mstore\n      swap1\n      dup2\n      0x00\n      dup3\n      add\n      dup1\n      sload\n      tag_75\n      swap1\n      tag_61\n      jump\t// in\n    tag_75:\n      dup1\n      0x1f\n      add\n      0x20\n      dup1\n      swap2\n      div\n      mul\n      0x20\n      add\n      mload(0x40)\n      swap1\n      dup2\n      add\n      0x40\n      mstore\n      dup1\n      swap3\n      swap2\n      swap1\n      dup2\n      dup2\n      mstore\n      0x20\n      add\n      dup3\n      dup1\n      sload\n      tag_76\n      swap1\n      tag_61\n      jump\t// in\n    tag_76:\n      dup1\n      iszero\n      tag_77\n      jumpi\n      dup1\n      0x1f\n      lt\n      tag_78\n      jumpi\n      0x0100\n      dup1\n      dup4\n      sload\n      div\n      mul\n      dup4\n      mstore\n      swap2\n      0x20\n      add\n      swap2\n      jump(tag_77)\n    tag_78:\n      dup3\n      add\n      swap2\n      swap1\n      0x00\n      mstore\n      keccak256(0x00, 0x20)\n      swap1\n    tag_79:\n      dup2\n      sload\n      dup2\n      mstore\n      swap1\n      0x01\n      add\n      swap1\n      0x20\n      add\n      dup1\n      dup4\n      gt\n      tag_79\n      jumpi\n      dup3\n      swap1\n      sub\n      0x1f\n      and\n      dup3\n      add\n      swap2\n    tag_77:\n      pop\n      pop\n      pop\n      pop\n      pop\n      dup2\n      mstore\n      0x20\n      add\n      0x01\n      dup3\n      add\n      dup1\n      sload\n      tag_80\n      swap1\n      tag_61\n      jump\t// in\n    tag_80:\n      dup1\n      0x1f\n      add\n      0x20\n      dup1\n      swap2\n      div\n      mul\n      0x20\n      add\n      mload(0x40)\n      swap1\n      dup2\n      add\n      0x40\n      mstore\n      dup1\n      swap3\n      swap2\n      swap1\n      dup2\n      dup2\n      mstore\n      0x20\n      add\n      dup3\n      dup1\n      sload\n      tag_81\n      swap1\n      tag_61\n      jump\t// in\n    tag_81:\n      dup1\n      iszero\n      tag_82\n      jumpi\n      dup1\n      0x1f\n      lt\n      tag_83\n      jumpi\n      0x0100\n      dup1\n      dup4\n      sload\n      div\n      mul\n      dup4\n      mstore\n      swap2\n      0x20\n      add\n      swap2\n      jump(tag_82)\n    tag_83:\n      dup3\n      add\n      swap2\n      swap1\n      0x00\n      mstore\n      keccak256(0x00, 0x20)\n      swap1\n    tag_84:\n      dup2\n      sload\n      dup2\n      mstore\n      swap1\n      0x01\n      add\n      swap1\n      0x20\n      add\n      dup1\n      dup4\n      gt\n      tag_84\n      jumpi\n      dup3\n      swap1\n      sub\n      0x1f\n      and\n      dup3\n      add\n      swap2\n    tag_82:\n      pop\n      pop\n      pop\n      pop\n      pop\n      dup2\n      mstore\n      0x20\n      add\n      0x02\n      dup3\n      add\n      dup1\n      sload\n      dup1\n      0x20\n      mul\n      0x20\n      add\n      mload(0x40)\n      swap1\n      dup2\n      add\n      0x40\n      mstore\n      dup1\n      swap3\n      swap2\n      swap1\n      dup2\n      dup2\n      mstore\n      0x20\n      add\n      0x00\n      swap1\n    tag_85:\n      dup3\n      dup3\n      lt\n      iszero\n      tag_86\n      jumpi\n      dup4\n      dup3\n      swap1\n      0x00\n      mstore\n      keccak256(0x00, 0x20)\n      add\n      dup1\n      sload\n      tag_88\n      swap1\n      tag_61\n      jump\t// in\n    tag_88:\n      dup1\n      0x1f\n      add\n      0x20\n      dup1\n      swap2\n      div\n      mul\n      0x20\n      add\n      mload(0x40)\n      swap1\n      dup2\n      add\n      0x40\n      mstore\n      dup1\n      swap3\n      swap2\n      swap1\n      dup2\n      dup2\n      mstore\n      0x20\n      add\n      dup3\n      dup1\n      sload\n      tag_89\n      swap1\n      tag_61\n      jump\t// in\n    tag_89:\n      dup1\n      iszero\n      tag_90\n      jumpi\n      dup1\n      0x1f\n      lt\n      tag_91\n      jumpi\n      0x0100\n      dup1\n      dup4\n      sload\n      div\n      mul\n      dup4\n      mstore\n      swap2\n      0x20\n      add\n      swap2\n      jump(tag_90)\n    tag_91:\n      dup3\n      add\n      swap2\n      swap1\n      0x00\n      mstore\n      keccak256(0x00, 0x20)\n      swap1\n    tag_92:\n      dup2\n      sload\n      dup2\n      mstore\n      swap1\n      0x01\n      add\n      swap1\n      0x20\n      add\n      dup1\n      dup4\n      gt\n      tag_92\n      jumpi\n      dup3\n      swap1\n      sub\n      0x1f\n      and\n      dup3\n      add\n      swap2\n    tag_90:\n      pop\n      pop\n      pop\n      pop\n      pop\n      dup2\n      mstore\n      0x20\n      add\n      swap1\n      0x01\n      add\n      swap1\n      jump(tag_85)\n    tag_86:\n      pop\n      pop\n      pop\n      pop\n      dup2\n      mstore\n      0x20\n      add\n      0x03\n      dup3\n      add\n      sload\n      dup2\n      mstore\n      0x20\n      add\n      0x04\n      dup3\n      add\n      sload\n      dup2\n      mstore\n      pop\n      pop\n      dup2\n      mstore\n      0x20\n      add\n      swap1\n      0x01\n      add\n      swap1\n      jump(tag_72)\n    tag_73:\n      pop\n      pop\n      pop\n      pop\n      swap1\n      pop\n        /* \"contracts/PizzaSmartContract.sol\":2048:2143  function GetPizzas() public view returns (Pizza[] memory)... */\n      swap1\n      jump\t// out\n        /* \"contracts/PizzaSmartContract.sol\":1358:2040  function BuyPizzas(uint256[] memory pizzaIndices) public payable  OnlyUser... */\n    tag_41:\n        /* \"contracts/PizzaSmartContract.sol\":352:362  Roles.User */\n      0x01\n        /* \"contracts/PizzaSmartContract.sol\":331:362  roles[msg.sender] == Roles.User */\n      0x02\n      dup2\n      gt\n      iszero\n      tag_94\n      jumpi\n      tag_95\n      tag_47\n      jump\t// in\n    tag_95:\n    tag_94:\n        /* \"contracts/PizzaSmartContract.sol\":331:336  roles */\n      0x02\n        /* \"contracts/PizzaSmartContract.sol\":331:348  roles[msg.sender] */\n      0x00\n        /* \"contracts/PizzaSmartContract.sol\":337:347  msg.sender */\n      caller\n        /* \"contracts/PizzaSmartContract.sol\":331:348  roles[msg.sender] */\n      0xffffffffffffffffffffffffffffffffffffffff\n      and\n      0xffffffffffffffffffffffffffffffffffffffff\n      and\n      dup2\n      mstore\n      0x20\n      add\n      swap1\n      dup2\n      mstore\n      0x20\n      add\n      0x00\n      keccak256\n      0x00\n      swap1\n      sload\n      swap1\n      0x0100\n      exp\n      swap1\n      div\n      0xff\n      and\n        /* \"contracts/PizzaSmartContract.sol\":331:362  roles[msg.sender] == Roles.User */\n      0x02\n      dup2\n      gt\n      iszero\n      tag_96\n      jumpi\n      tag_97\n      tag_47\n      jump\t// in\n    tag_97:\n    tag_96:\n      eq\n        /* \"contracts/PizzaSmartContract.sol\":323:363  require(roles[msg.sender] == Roles.User) */\n      tag_98\n      jumpi\n      0x00\n      dup1\n      revert\n    tag_98:\n        /* \"contracts/PizzaSmartContract.sol\":1449:1479  Pizza[] memory purchasedPizzas */\n      0x00\n        /* \"contracts/PizzaSmartContract.sol\":1494:1506  pizzaIndices */\n      dup2\n        /* \"contracts/PizzaSmartContract.sol\":1494:1513  pizzaIndices.length */\n      mload\n        /* \"contracts/PizzaSmartContract.sol\":1482:1514  new Pizza[](pizzaIndices.length) */\n      0xffffffffffffffff\n      dup2\n      gt\n      iszero\n      tag_100\n      jumpi\n      tag_101\n      tag_102\n      jump\t// in\n    tag_101:\n    tag_100:\n      mload(0x40)\n      swap1\n      dup1\n      dup3\n      mstore\n      dup1\n      0x20\n      mul\n      0x20\n      add\n      dup3\n      add\n      0x40\n      mstore\n      dup1\n      iszero\n      tag_103\n      jumpi\n      dup2\n      0x20\n      add\n    tag_104:\n      tag_105\n      tag_106\n      jump\t// in\n    tag_105:\n      dup2\n      mstore\n      0x20\n      add\n      swap1\n      0x01\n      swap1\n      sub\n      swap1\n      dup2\n      tag_104\n      jumpi\n      swap1\n      pop\n    tag_103:\n      pop\n        /* \"contracts/PizzaSmartContract.sol\":1449:1514  Pizza[] memory purchasedPizzas = new Pizza[](pizzaIndices.length) */\n      swap1\n      pop\n        /* \"contracts/PizzaSmartContract.sol\":1525:1538  uint256 price */\n      0x00\n        /* \"contracts/PizzaSmartContract.sol\":1555:1564  uint256 i */\n      dup1\n        /* \"contracts/PizzaSmartContract.sol\":1567:1568  0 */\n      0x00\n        /* \"contracts/PizzaSmartContract.sol\":1555:1568  uint256 i = 0 */\n      swap1\n      pop\n        /* \"contracts/PizzaSmartContract.sol\":1551:1757  for(uint256 i = 0; i < pizzaIndices.length; i++)... */\n    tag_107:\n        /* \"contracts/PizzaSmartContract.sol\":1574:1586  pizzaIndices */\n      dup4\n        /* \"contracts/PizzaSmartContract.sol\":1574:1593  pizzaIndices.length */\n      mload\n        /* \"contracts/PizzaSmartContract.sol\":1570:1571  i */\n      dup2\n        /* \"contracts/PizzaSmartContract.sol\":1570:1593  i < pizzaIndices.length */\n      lt\n        /* \"contracts/PizzaSmartContract.sol\":1551:1757  for(uint256 i = 0; i < pizzaIndices.length; i++)... */\n      iszero\n      tag_108\n      jumpi\n        /* \"contracts/PizzaSmartContract.sol\":1624:1643  Pizza storage pizza */\n      0x00\n        /* \"contracts/PizzaSmartContract.sol\":1646:1652  pizzas */\n      dup1\n        /* \"contracts/PizzaSmartContract.sol\":1653:1665  pizzaIndices */\n      dup6\n        /* \"contracts/PizzaSmartContract.sol\":1666:1667  i */\n      dup4\n        /* \"contracts/PizzaSmartContract.sol\":1653:1668  pizzaIndices[i] */\n      dup2\n      mload\n      dup2\n      lt\n      tag_110\n      jumpi\n      tag_111\n      tag_112\n      jump\t// in\n    tag_111:\n    tag_110:\n      0x20\n      mul\n      0x20\n      add\n      add\n      mload\n        /* \"contracts/PizzaSmartContract.sol\":1646:1669  pizzas[pizzaIndices[i]] */\n      dup2\n      sload\n      dup2\n      lt\n      tag_113\n      jumpi\n      tag_114\n      tag_112\n      jump\t// in\n    tag_114:\n    tag_113:\n      swap1\n      0x00\n      mstore\n      keccak256(0x00, 0x20)\n      swap1\n      0x05\n      mul\n      add\n        /* \"contracts/PizzaSmartContract.sol\":1624:1669  Pizza storage pizza = pizzas[pizzaIndices[i]] */\n      swap1\n      pop\n        /* \"contracts/PizzaSmartContract.sol\":1693:1698  pizza */\n      dup1\n        /* \"contracts/PizzaSmartContract.sol\":1693:1704  pizza.Price */\n      0x03\n      add\n      sload\n        /* \"contracts/PizzaSmartContract.sol\":1684:1704  price += pizza.Price */\n      dup4\n      tag_116\n      swap2\n      swap1\n      tag_117\n      jump\t// in\n    tag_116:\n      swap3\n      pop\n        /* \"contracts/PizzaSmartContract.sol\":1740:1745  pizza */\n      dup1\n        /* \"contracts/PizzaSmartContract.sol\":1719:1745  purchasedPizzas[i] = pizza */\n      mload(0x40)\n      dup1\n      0xa0\n      add\n      0x40\n      mstore\n      swap1\n      dup2\n      0x00\n      dup3\n      add\n      dup1\n      sload\n      tag_118\n      swap1\n      tag_61\n      jump\t// in\n    tag_118:\n      dup1\n      0x1f\n      add\n      0x20\n      dup1\n      swap2\n      div\n      mul\n      0x20\n      add\n      mload(0x40)\n      swap1\n      dup2\n      add\n      0x40\n      mstore\n      dup1\n      swap3\n      swap2\n      swap1\n      dup2\n      dup2\n      mstore\n      0x20\n      add\n      dup3\n      dup1\n      sload\n      tag_119\n      swap1\n      tag_61\n      jump\t// in\n    tag_119:\n      dup1\n      iszero\n      tag_120\n      jumpi\n      dup1\n      0x1f\n      lt\n      tag_121\n      jumpi\n      0x0100\n      dup1\n      dup4\n      sload\n      div\n      mul\n      dup4\n      mstore\n      swap2\n      0x20\n      add\n      swap2\n      jump(tag_120)\n    tag_121:\n      dup3\n      add\n      swap2\n      swap1\n      0x00\n      mstore\n      keccak256(0x00, 0x20)\n      swap1\n    tag_122:\n      dup2\n      sload\n      dup2\n      mstore\n      swap1\n      0x01\n      add\n      swap1\n      0x20\n      add\n      dup1\n      dup4\n      gt\n      tag_122\n      jumpi\n      dup3\n      swap1\n      sub\n      0x1f\n      and\n      dup3\n      add\n      swap2\n    tag_120:\n      pop\n      pop\n      pop\n      pop\n      pop\n      dup2\n      mstore\n      0x20\n      add\n      0x01\n      dup3\n      add\n      dup1\n      sload\n      tag_123\n      swap1\n      tag_61\n      jump\t// in\n    tag_123:\n      dup1\n      0x1f\n      add\n      0x20\n      dup1\n      swap2\n      div\n      mul\n      0x20\n      add\n      mload(0x40)\n      swap1\n      dup2\n      add\n      0x40\n      mstore\n      dup1\n      swap3\n      swap2\n      swap1\n      dup2\n      dup2\n      mstore\n      0x20\n      add\n      dup3\n      dup1\n      sload\n      tag_124\n      swap1\n      tag_61\n      jump\t// in\n    tag_124:\n      dup1\n      iszero\n      tag_125\n      jumpi\n      dup1\n      0x1f\n      lt\n      tag_126\n      jumpi\n      0x0100\n      dup1\n      dup4\n      sload\n      div\n      mul\n      dup4\n      mstore\n      swap2\n      0x20\n      add\n      swap2\n      jump(tag_125)\n    tag_126:\n      dup3\n      add\n      swap2\n      swap1\n      0x00\n      mstore\n      keccak256(0x00, 0x20)\n      swap1\n    tag_127:\n      dup2\n      sload\n      dup2\n      mstore\n      swap1\n      0x01\n      add\n      swap1\n      0x20\n      add\n      dup1\n      dup4\n      gt\n      tag_127\n      jumpi\n      dup3\n      swap1\n      sub\n      0x1f\n      and\n      dup3\n      add\n      swap2\n    tag_125:\n      pop\n      pop\n      pop\n      pop\n      pop\n      dup2\n      mstore\n      0x20\n      add\n      0x02\n      dup3\n      add\n      dup1\n      sload\n      dup1\n      0x20\n      mul\n      0x20\n      add\n      mload(0x40)\n      swap1\n      dup2\n      add\n      0x40\n      mstore\n      dup1\n      swap3\n      swap2\n      swap1\n      dup2\n      dup2\n      mstore\n      0x20\n      add\n      0x00\n      swap1\n    tag_128:\n      dup3\n      dup3\n      lt\n      iszero\n      tag_129\n      jumpi\n      dup4\n      dup3\n      swap1\n      0x00\n      mstore\n      keccak256(0x00, 0x20)\n      add\n      dup1\n      sload\n      tag_131\n      swap1\n      tag_61\n      jump\t// in\n    tag_131:\n      dup1\n      0x1f\n      add\n      0x20\n      dup1\n      swap2\n      div\n      mul\n      0x20\n      add\n      mload(0x40)\n      swap1\n      dup2\n      add\n      0x40\n      mstore\n      dup1\n      swap3\n      swap2\n      swap1\n      dup2\n      dup2\n      mstore\n      0x20\n      add\n      dup3\n      dup1\n      sload\n      tag_132\n      swap1\n      tag_61\n      jump\t// in\n    tag_132:\n      dup1\n      iszero\n      tag_133\n      jumpi\n      dup1\n      0x1f\n      lt\n      tag_134\n      jumpi\n      0x0100\n      dup1\n      dup4\n      sload\n      div\n      mul\n      dup4\n      mstore\n      swap2\n      0x20\n      add\n      swap2\n      jump(tag_133)\n    tag_134:\n      dup3\n      add\n      swap2\n      swap1\n      0x00\n      mstore\n      keccak256(0x00, 0x20)\n      swap1\n    tag_135:\n      dup2\n      sload\n      dup2\n      mstore\n      swap1\n      0x01\n      add\n      swap1\n      0x20\n      add\n      dup1\n      dup4\n      gt\n      tag_135\n      jumpi\n      dup3\n      swap1\n      sub\n      0x1f\n      and\n      dup3\n      add\n      swap2\n    tag_133:\n      pop\n      pop\n      pop\n      pop\n      pop\n      dup2\n      mstore\n      0x20\n      add\n      swap1\n      0x01\n      add\n      swap1\n      jump(tag_128)\n    tag_129:\n      pop\n      pop\n      pop\n      pop\n      dup2\n      mstore\n      0x20\n      add\n      0x03\n      dup3\n      add\n      sload\n      dup2\n      mstore\n      0x20\n      add\n      0x04\n      dup3\n      add\n      sload\n      dup2\n      mstore\n      pop\n      pop\n        /* \"contracts/PizzaSmartContract.sol\":1719:1734  purchasedPizzas */\n      dup5\n        /* \"contracts/PizzaSmartContract.sol\":1735:1736  i */\n      dup4\n        /* \"contracts/PizzaSmartContract.sol\":1719:1737  purchasedPizzas[i] */\n      dup2\n      mload\n      dup2\n      lt\n      tag_136\n      jumpi\n      tag_137\n      tag_112\n      jump\t// in\n    tag_137:\n    tag_136:\n      0x20\n      mul\n      0x20\n      add\n      add\n        /* \"contracts/PizzaSmartContract.sol\":1719:1745  purchasedPizzas[i] = pizza */\n      dup2\n      swap1\n      mstore\n      pop\n        /* \"contracts/PizzaSmartContract.sol\":1609:1757  {... */\n      pop\n        /* \"contracts/PizzaSmartContract.sol\":1595:1598  i++ */\n      dup1\n      dup1\n      0x01\n      add\n      swap2\n      pop\n      pop\n        /* \"contracts/PizzaSmartContract.sol\":1551:1757  for(uint256 i = 0; i < pizzaIndices.length; i++)... */\n      jump(tag_107)\n    tag_108:\n      pop\n        /* \"contracts/PizzaSmartContract.sol\":1790:1795  price */\n      dup1\n        /* \"contracts/PizzaSmartContract.sol\":1777:1786  msg.value */\n      callvalue\n        /* \"contracts/PizzaSmartContract.sol\":1777:1795  msg.value >= price */\n      lt\n      iszero\n        /* \"contracts/PizzaSmartContract.sol\":1769:1818  require(msg.value >= price, \"Insufficient funds\") */\n      tag_138\n      jumpi\n      mload(0x40)\n      0x08c379a000000000000000000000000000000000000000000000000000000000\n      dup2\n      mstore\n      0x04\n      add\n      tag_139\n      swap1\n      tag_140\n      jump\t// in\n    tag_139:\n      mload(0x40)\n      dup1\n      swap2\n      sub\n      swap1\n      revert\n    tag_138:\n        /* \"contracts/PizzaSmartContract.sol\":1831:1856  Receipt memory newReceipt */\n      0x00\n        /* \"contracts/PizzaSmartContract.sol\":1859:1994  Receipt(... */\n      mload(0x40)\n      dup1\n      0x40\n      add\n      0x40\n      mstore\n      dup1\n        /* \"contracts/PizzaSmartContract.sol\":1907:1917  msg.sender */\n      caller\n        /* \"contracts/PizzaSmartContract.sol\":1859:1994  Receipt(... */\n      0xffffffffffffffffffffffffffffffffffffffff\n      and\n      dup2\n      mstore\n      0x20\n      add\n        /* \"contracts/PizzaSmartContract.sol\":1956:1968  pizzaIndices */\n      dup6\n        /* \"contracts/PizzaSmartContract.sol\":1859:1994  Receipt(... */\n      dup2\n      mstore\n      pop\n        /* \"contracts/PizzaSmartContract.sol\":1831:1994  Receipt memory newReceipt = Receipt(... */\n      swap1\n      pop\n        /* \"contracts/PizzaSmartContract.sol\":2007:2015  receipts */\n      0x01\n        /* \"contracts/PizzaSmartContract.sol\":2021:2031  newReceipt */\n      dup2\n        /* \"contracts/PizzaSmartContract.sol\":2007:2032  receipts.push(newReceipt) */\n      swap1\n      dup1\n      0x01\n      dup2\n      sload\n      add\n      dup1\n      dup3\n      sstore\n      dup1\n      swap2\n      pop\n      pop\n      0x01\n      swap1\n      sub\n      swap1\n      0x00\n      mstore\n      keccak256(0x00, 0x20)\n      swap1\n      0x02\n      mul\n      add\n      0x00\n      swap1\n      swap2\n      swap1\n      swap2\n      swap1\n      swap2\n      pop\n      0x00\n      dup3\n      add\n      mload\n      dup2\n      0x00\n      add\n      exp(0x0100, 0x00)\n      dup2\n      sload\n      dup2\n      0xffffffffffffffffffffffffffffffffffffffff\n      mul\n      not\n      and\n      swap1\n      dup4\n      0xffffffffffffffffffffffffffffffffffffffff\n      and\n      mul\n      or\n      swap1\n      sstore\n      pop\n      0x20\n      dup3\n      add\n      mload\n      dup2\n      0x01\n      add\n      swap1\n      dup1\n      mload\n      swap1\n      0x20\n      add\n      swap1\n      tag_142\n      swap3\n      swap2\n      swap1\n      tag_143\n      jump\t// in\n    tag_142:\n      pop\n      pop\n      pop\n        /* \"contracts/PizzaSmartContract.sol\":1438:2040  {... */\n      pop\n      pop\n      pop\n        /* \"contracts/PizzaSmartContract.sol\":1358:2040  function BuyPizzas(uint256[] memory pizzaIndices) public payable  OnlyUser... */\n      pop\n      jump\t// out\n    tag_57:\n      dup3\n      dup1\n      sload\n      dup3\n      dup3\n      sstore\n      swap1\n      0x00\n      mstore\n      keccak256(0x00, 0x20)\n      swap1\n      dup2\n      add\n      swap3\n      dup3\n      iszero\n      tag_144\n      jumpi\n      swap2\n      0x20\n      mul\n      dup3\n      add\n    tag_145:\n      dup3\n      dup2\n      gt\n      iszero\n      tag_146\n      jumpi\n      dup3\n      mload\n      dup3\n      swap1\n      dup2\n      tag_147\n      swap2\n      swap1\n      tag_54\n      jump\t// in\n    tag_147:\n      pop\n      swap2\n      0x20\n      add\n      swap2\n      swap1\n      0x01\n      add\n      swap1\n      jump(tag_145)\n    tag_146:\n    tag_144:\n      pop\n      swap1\n      pop\n      tag_148\n      swap2\n      swap1\n      tag_149\n      jump\t// in\n    tag_148:\n      pop\n      swap1\n      jump\t// out\n    tag_106:\n      mload(0x40)\n      dup1\n      0xa0\n      add\n      0x40\n      mstore\n      dup1\n      0x60\n      dup2\n      mstore\n      0x20\n      add\n      0x60\n      dup2\n      mstore\n      0x20\n      add\n      0x60\n      dup2\n      mstore\n      0x20\n      add\n      0x00\n      dup2\n      mstore\n      0x20\n      add\n      0x00\n      dup2\n      mstore\n      pop\n      swap1\n      jump\t// out\n    tag_143:\n      dup3\n      dup1\n      sload\n      dup3\n      dup3\n      sstore\n      swap1\n      0x00\n      mstore\n      keccak256(0x00, 0x20)\n      swap1\n      dup2\n      add\n      swap3\n      dup3\n      iszero\n      tag_150\n      jumpi\n      swap2\n      0x20\n      mul\n      dup3\n      add\n    tag_151:\n      dup3\n      dup2\n      gt\n      iszero\n      tag_152\n      jumpi\n      dup3\n      mload\n      dup3\n      sstore\n      swap2\n      0x20\n      add\n      swap2\n      swap1\n      0x01\n      add\n      swap1\n      jump(tag_151)\n    tag_152:\n    tag_150:\n      pop\n      swap1\n      pop\n      tag_153\n      swap2\n      swap1\n      tag_154\n      jump\t// in\n    tag_153:\n      pop\n      swap1\n      jump\t// out\n    tag_149:\n    tag_155:\n      dup1\n      dup3\n      gt\n      iszero\n      tag_156\n      jumpi\n      0x00\n      dup2\n      dup2\n      tag_157\n      swap2\n      swap1\n      tag_158\n      jump\t// in\n    tag_157:\n      pop\n      0x01\n      add\n      jump(tag_155)\n    tag_156:\n      pop\n      swap1\n      jump\t// out\n    tag_154:\n    tag_159:\n      dup1\n      dup3\n      gt\n      iszero\n      tag_160\n      jumpi\n      0x00\n      dup2\n      0x00\n      swap1\n      sstore\n      pop\n      0x01\n      add\n      jump(tag_159)\n    tag_160:\n      pop\n      swap1\n      jump\t// out\n    tag_158:\n      pop\n      dup1\n      sload\n      tag_161\n      swap1\n      tag_61\n      jump\t// in\n    tag_161:\n      0x00\n      dup3\n      sstore\n      dup1\n      0x1f\n      lt\n      tag_163\n      jumpi\n      pop\n      jump(tag_162)\n    tag_163:\n      0x1f\n      add\n      0x20\n      swap1\n      div\n      swap1\n      0x00\n      mstore\n      keccak256(0x00, 0x20)\n      swap1\n      dup2\n      add\n      swap1\n      tag_164\n      swap2\n      swap1\n      tag_154\n      jump\t// in\n    tag_164:\n    tag_162:\n      pop\n      jump\t// out\n        /* \"#utility.yul\":7:82   */\n    tag_165:\n        /* \"#utility.yul\":40:46   */\n      0x00\n        /* \"#utility.yul\":73:75   */\n      0x40\n        /* \"#utility.yul\":67:76   */\n      mload\n        /* \"#utility.yul\":57:76   */\n      swap1\n      pop\n        /* \"#utility.yul\":7:82   */\n      swap1\n      jump\t// out\n        /* \"#utility.yul\":88:205   */\n    tag_166:\n        /* \"#utility.yul\":197:198   */\n      0x00\n        /* \"#utility.yul\":194:195   */\n      dup1\n        /* \"#utility.yul\":187:199   */\n      revert\n        /* \"#utility.yul\":211:328   */\n    tag_167:\n        /* \"#utility.yul\":320:321   */\n      0x00\n        /* \"#utility.yul\":317:318   */\n      dup1\n        /* \"#utility.yul\":310:322   */\n      revert\n        /* \"#utility.yul\":334:411   */\n    tag_168:\n        /* \"#utility.yul\":371:378   */\n      0x00\n        /* \"#utility.yul\":400:405   */\n      dup2\n        /* \"#utility.yul\":389:405   */\n      swap1\n      pop\n        /* \"#utility.yul\":334:411   */\n      swap2\n      swap1\n      pop\n      jump\t// out\n        /* \"#utility.yul\":417:539   */\n    tag_169:\n        /* \"#utility.yul\":490:514   */\n      tag_247\n        /* \"#utility.yul\":508:513   */\n      dup2\n        /* \"#utility.yul\":490:514   */\n      tag_168\n      jump\t// in\n    tag_247:\n        /* \"#utility.yul\":483:488   */\n      dup2\n        /* \"#utility.yul\":480:515   */\n      eq\n        /* \"#utility.yul\":470:533   */\n      tag_248\n      jumpi\n        /* \"#utility.yul\":529:530   */\n      0x00\n        /* \"#utility.yul\":526:527   */\n      dup1\n        /* \"#utility.yul\":519:531   */\n      revert\n        /* \"#utility.yul\":470:533   */\n    tag_248:\n        /* \"#utility.yul\":417:539   */\n      pop\n      jump\t// out\n        /* \"#utility.yul\":545:684   */\n    tag_170:\n        /* \"#utility.yul\":591:596   */\n      0x00\n        /* \"#utility.yul\":629:635   */\n      dup2\n        /* \"#utility.yul\":616:636   */\n      calldataload\n        /* \"#utility.yul\":607:636   */\n      swap1\n      pop\n        /* \"#utility.yul\":645:678   */\n      tag_250\n        /* \"#utility.yul\":672:677   */\n      dup2\n        /* \"#utility.yul\":645:678   */\n      tag_169\n      jump\t// in\n    tag_250:\n        /* \"#utility.yul\":545:684   */\n      swap3\n      swap2\n      pop\n      pop\n      jump\t// out\n        /* \"#utility.yul\":690:1019   */\n    tag_11:\n        /* \"#utility.yul\":749:755   */\n      0x00\n        /* \"#utility.yul\":798:800   */\n      0x20\n        /* \"#utility.yul\":786:795   */\n      dup3\n        /* \"#utility.yul\":777:784   */\n      dup5\n        /* \"#utility.yul\":773:796   */\n      sub\n        /* \"#utility.yul\":769:801   */\n      slt\n        /* \"#utility.yul\":766:885   */\n      iszero\n      tag_252\n      jumpi\n        /* \"#utility.yul\":804:883   */\n      tag_253\n      tag_166\n      jump\t// in\n    tag_253:\n        /* \"#utility.yul\":766:885   */\n    tag_252:\n        /* \"#utility.yul\":924:925   */\n      0x00\n        /* \"#utility.yul\":949:1002   */\n      tag_254\n        /* \"#utility.yul\":994:1001   */\n      dup5\n        /* \"#utility.yul\":985:991   */\n      dup3\n        /* \"#utility.yul\":974:983   */\n      dup6\n        /* \"#utility.yul\":970:992   */\n      add\n        /* \"#utility.yul\":949:1002   */\n      tag_170\n      jump\t// in\n    tag_254:\n        /* \"#utility.yul\":939:1002   */\n      swap2\n      pop\n        /* \"#utility.yul\":895:1012   */\n      pop\n        /* \"#utility.yul\":690:1019   */\n      swap3\n      swap2\n      pop\n      pop\n      jump\t// out\n        /* \"#utility.yul\":1025:1151   */\n    tag_171:\n        /* \"#utility.yul\":1062:1069   */\n      0x00\n        /* \"#utility.yul\":1102:1144   */\n      0xffffffffffffffffffffffffffffffffffffffff\n        /* \"#utility.yul\":1095:1100   */\n      dup3\n        /* \"#utility.yul\":1091:1145   */\n      and\n        /* \"#utility.yul\":1080:1145   */\n      swap1\n      pop\n        /* \"#utility.yul\":1025:1151   */\n      swap2\n      swap1\n      pop\n      jump\t// out\n        /* \"#utility.yul\":1157:1253   */\n    tag_172:\n        /* \"#utility.yul\":1194:1201   */\n      0x00\n        /* \"#utility.yul\":1223:1247   */\n      tag_257\n        /* \"#utility.yul\":1241:1246   */\n      dup3\n        /* \"#utility.yul\":1223:1247   */\n      tag_171\n      jump\t// in\n    tag_257:\n        /* \"#utility.yul\":1212:1247   */\n      swap1\n      pop\n        /* \"#utility.yul\":1157:1253   */\n      swap2\n      swap1\n      pop\n      jump\t// out\n        /* \"#utility.yul\":1259:1377   */\n    tag_173:\n        /* \"#utility.yul\":1346:1370   */\n      tag_259\n        /* \"#utility.yul\":1364:1369   */\n      dup2\n        /* \"#utility.yul\":1346:1370   */\n      tag_172\n      jump\t// in\n    tag_259:\n        /* \"#utility.yul\":1341:1344   */\n      dup3\n        /* \"#utility.yul\":1334:1371   */\n      mstore\n        /* \"#utility.yul\":1259:1377   */\n      pop\n      pop\n      jump\t// out\n        /* \"#utility.yul\":1383:1605   */\n    tag_14:\n        /* \"#utility.yul\":1476:1480   */\n      0x00\n        /* \"#utility.yul\":1514:1516   */\n      0x20\n        /* \"#utility.yul\":1503:1512   */\n      dup3\n        /* \"#utility.yul\":1499:1517   */\n      add\n        /* \"#utility.yul\":1491:1517   */\n      swap1\n      pop\n        /* \"#utility.yul\":1527:1598   */\n      tag_261\n        /* \"#utility.yul\":1595:1596   */\n      0x00\n        /* \"#utility.yul\":1584:1593   */\n      dup4\n        /* \"#utility.yul\":1580:1597   */\n      add\n        /* \"#utility.yul\":1571:1577   */\n      dup5\n        /* \"#utility.yul\":1527:1598   */\n      tag_173\n      jump\t// in\n    tag_261:\n        /* \"#utility.yul\":1383:1605   */\n      swap3\n      swap2\n      pop\n      pop\n      jump\t// out\n        /* \"#utility.yul\":1611:1728   */\n    tag_174:\n        /* \"#utility.yul\":1720:1721   */\n      0x00\n        /* \"#utility.yul\":1717:1718   */\n      dup1\n        /* \"#utility.yul\":1710:1722   */\n      revert\n        /* \"#utility.yul\":1734:1851   */\n    tag_175:\n        /* \"#utility.yul\":1843:1844   */\n      0x00\n        /* \"#utility.yul\":1840:1841   */\n      dup1\n        /* \"#utility.yul\":1833:1845   */\n      revert\n        /* \"#utility.yul\":1857:1959   */\n    tag_176:\n        /* \"#utility.yul\":1898:1904   */\n      0x00\n        /* \"#utility.yul\":1949:1951   */\n      0x1f\n        /* \"#utility.yul\":1945:1952   */\n      not\n        /* \"#utility.yul\":1940:1942   */\n      0x1f\n        /* \"#utility.yul\":1933:1938   */\n      dup4\n        /* \"#utility.yul\":1929:1943   */\n      add\n        /* \"#utility.yul\":1925:1953   */\n      and\n        /* \"#utility.yul\":1915:1953   */\n      swap1\n      pop\n        /* \"#utility.yul\":1857:1959   */\n      swap2\n      swap1\n      pop\n      jump\t// out\n        /* \"#utility.yul\":1965:2145   */\n    tag_102:\n        /* \"#utility.yul\":2013:2090   */\n      0x4e487b7100000000000000000000000000000000000000000000000000000000\n        /* \"#utility.yul\":2010:2011   */\n      0x00\n        /* \"#utility.yul\":2003:2091   */\n      mstore\n        /* \"#utility.yul\":2110:2114   */\n      0x41\n        /* \"#utility.yul\":2107:2108   */\n      0x04\n        /* \"#utility.yul\":2100:2115   */\n      mstore\n        /* \"#utility.yul\":2134:2138   */\n      0x24\n        /* \"#utility.yul\":2131:2132   */\n      0x00\n        /* \"#utility.yul\":2124:2139   */\n      revert\n        /* \"#utility.yul\":2151:2432   */\n    tag_177:\n        /* \"#utility.yul\":2234:2261   */\n      tag_267\n        /* \"#utility.yul\":2256:2260   */\n      dup3\n        /* \"#utility.yul\":2234:2261   */\n      tag_176\n      jump\t// in\n    tag_267:\n        /* \"#utility.yul\":2226:2232   */\n      dup2\n        /* \"#utility.yul\":2222:2262   */\n      add\n        /* \"#utility.yul\":2364:2370   */\n      dup2\n        /* \"#utility.yul\":2352:2362   */\n      dup2\n        /* \"#utility.yul\":2349:2371   */\n      lt\n        /* \"#utility.yul\":2328:2346   */\n      0xffffffffffffffff\n        /* \"#utility.yul\":2316:2326   */\n      dup3\n        /* \"#utility.yul\":2313:2347   */\n      gt\n        /* \"#utility.yul\":2310:2372   */\n      or\n        /* \"#utility.yul\":2307:2395   */\n      iszero\n      tag_268\n      jumpi\n        /* \"#utility.yul\":2375:2393   */\n      tag_269\n      tag_102\n      jump\t// in\n    tag_269:\n        /* \"#utility.yul\":2307:2395   */\n    tag_268:\n        /* \"#utility.yul\":2415:2425   */\n      dup1\n        /* \"#utility.yul\":2411:2413   */\n      0x40\n        /* \"#utility.yul\":2404:2426   */\n      mstore\n        /* \"#utility.yul\":2194:2432   */\n      pop\n        /* \"#utility.yul\":2151:2432   */\n      pop\n      pop\n      jump\t// out\n        /* \"#utility.yul\":2438:2567   */\n    tag_178:\n        /* \"#utility.yul\":2472:2478   */\n      0x00\n        /* \"#utility.yul\":2499:2519   */\n      tag_271\n      tag_165\n      jump\t// in\n    tag_271:\n        /* \"#utility.yul\":2489:2519   */\n      swap1\n      pop\n        /* \"#utility.yul\":2528:2561   */\n      tag_272\n        /* \"#utility.yul\":2556:2560   */\n      dup3\n        /* \"#utility.yul\":2548:2554   */\n      dup3\n        /* \"#utility.yul\":2528:2561   */\n      tag_177\n      jump\t// in\n    tag_272:\n        /* \"#utility.yul\":2438:2567   */\n      swap2\n      swap1\n      pop\n      jump\t// out\n        /* \"#utility.yul\":2573:2881   */\n    tag_179:\n        /* \"#utility.yul\":2635:2639   */\n      0x00\n        /* \"#utility.yul\":2725:2743   */\n      0xffffffffffffffff\n        /* \"#utility.yul\":2717:2723   */\n      dup3\n        /* \"#utility.yul\":2714:2744   */\n      gt\n        /* \"#utility.yul\":2711:2767   */\n      iszero\n      tag_274\n      jumpi\n        /* \"#utility.yul\":2747:2765   */\n      tag_275\n      tag_102\n      jump\t// in\n    tag_275:\n        /* \"#utility.yul\":2711:2767   */\n    tag_274:\n        /* \"#utility.yul\":2785:2814   */\n      tag_276\n        /* \"#utility.yul\":2807:2813   */\n      dup3\n        /* \"#utility.yul\":2785:2814   */\n      tag_176\n      jump\t// in\n    tag_276:\n        /* \"#utility.yul\":2777:2814   */\n      swap1\n      pop\n        /* \"#utility.yul\":2869:2873   */\n      0x20\n        /* \"#utility.yul\":2863:2867   */\n      dup2\n        /* \"#utility.yul\":2859:2874   */\n      add\n        /* \"#utility.yul\":2851:2874   */\n      swap1\n      pop\n        /* \"#utility.yul\":2573:2881   */\n      swap2\n      swap1\n      pop\n      jump\t// out\n        /* \"#utility.yul\":2887:3035   */\n    tag_180:\n        /* \"#utility.yul\":2985:2991   */\n      dup3\n        /* \"#utility.yul\":2980:2983   */\n      dup2\n        /* \"#utility.yul\":2975:2978   */\n      dup4\n        /* \"#utility.yul\":2962:2992   */\n      calldatacopy\n        /* \"#utility.yul\":3026:3027   */\n      0x00\n        /* \"#utility.yul\":3017:3023   */\n      dup4\n        /* \"#utility.yul\":3012:3015   */\n      dup4\n        /* \"#utility.yul\":3008:3024   */\n      add\n        /* \"#utility.yul\":3001:3028   */\n      mstore\n        /* \"#utility.yul\":2887:3035   */\n      pop\n      pop\n      pop\n      jump\t// out\n        /* \"#utility.yul\":3041:3466   */\n    tag_181:\n        /* \"#utility.yul\":3119:3124   */\n      0x00\n        /* \"#utility.yul\":3144:3210   */\n      tag_279\n        /* \"#utility.yul\":3160:3209   */\n      tag_280\n        /* \"#utility.yul\":3202:3208   */\n      dup5\n        /* \"#utility.yul\":3160:3209   */\n      tag_179\n      jump\t// in\n    tag_280:\n        /* \"#utility.yul\":3144:3210   */\n      tag_178\n      jump\t// in\n    tag_279:\n        /* \"#utility.yul\":3135:3210   */\n      swap1\n      pop\n        /* \"#utility.yul\":3233:3239   */\n      dup3\n        /* \"#utility.yul\":3226:3231   */\n      dup2\n        /* \"#utility.yul\":3219:3240   */\n      mstore\n        /* \"#utility.yul\":3271:3275   */\n      0x20\n        /* \"#utility.yul\":3264:3269   */\n      dup2\n        /* \"#utility.yul\":3260:3276   */\n      add\n        /* \"#utility.yul\":3309:3312   */\n      dup5\n        /* \"#utility.yul\":3300:3306   */\n      dup5\n        /* \"#utility.yul\":3295:3298   */\n      dup5\n        /* \"#utility.yul\":3291:3307   */\n      add\n        /* \"#utility.yul\":3288:3313   */\n      gt\n        /* \"#utility.yul\":3285:3397   */\n      iszero\n      tag_281\n      jumpi\n        /* \"#utility.yul\":3316:3395   */\n      tag_282\n      tag_175\n      jump\t// in\n    tag_282:\n        /* \"#utility.yul\":3285:3397   */\n    tag_281:\n        /* \"#utility.yul\":3406:3460   */\n      tag_283\n        /* \"#utility.yul\":3453:3459   */\n      dup5\n        /* \"#utility.yul\":3448:3451   */\n      dup3\n        /* \"#utility.yul\":3443:3446   */\n      dup6\n        /* \"#utility.yul\":3406:3460   */\n      tag_180\n      jump\t// in\n    tag_283:\n        /* \"#utility.yul\":3125:3466   */\n      pop\n        /* \"#utility.yul\":3041:3466   */\n      swap4\n      swap3\n      pop\n      pop\n      pop\n      jump\t// out\n        /* \"#utility.yul\":3486:3826   */\n    tag_182:\n        /* \"#utility.yul\":3542:3547   */\n      0x00\n        /* \"#utility.yul\":3591:3594   */\n      dup3\n        /* \"#utility.yul\":3584:3588   */\n      0x1f\n        /* \"#utility.yul\":3576:3582   */\n      dup4\n        /* \"#utility.yul\":3572:3589   */\n      add\n        /* \"#utility.yul\":3568:3595   */\n      slt\n        /* \"#utility.yul\":3558:3680   */\n      tag_285\n      jumpi\n        /* \"#utility.yul\":3599:3678   */\n      tag_286\n      tag_174\n      jump\t// in\n    tag_286:\n        /* \"#utility.yul\":3558:3680   */\n    tag_285:\n        /* \"#utility.yul\":3716:3722   */\n      dup2\n        /* \"#utility.yul\":3703:3723   */\n      calldataload\n        /* \"#utility.yul\":3741:3820   */\n      tag_287\n        /* \"#utility.yul\":3816:3819   */\n      dup5\n        /* \"#utility.yul\":3808:3814   */\n      dup3\n        /* \"#utility.yul\":3801:3805   */\n      0x20\n        /* \"#utility.yul\":3793:3799   */\n      dup7\n        /* \"#utility.yul\":3789:3806   */\n      add\n        /* \"#utility.yul\":3741:3820   */\n      tag_181\n      jump\t// in\n    tag_287:\n        /* \"#utility.yul\":3732:3820   */\n      swap2\n      pop\n        /* \"#utility.yul\":3548:3826   */\n      pop\n        /* \"#utility.yul\":3486:3826   */\n      swap3\n      swap2\n      pop\n      pop\n      jump\t// out\n        /* \"#utility.yul\":3832:4153   */\n    tag_183:\n        /* \"#utility.yul\":3919:3923   */\n      0x00\n        /* \"#utility.yul\":4009:4027   */\n      0xffffffffffffffff\n        /* \"#utility.yul\":4001:4007   */\n      dup3\n        /* \"#utility.yul\":3998:4028   */\n      gt\n        /* \"#utility.yul\":3995:4051   */\n      iszero\n      tag_289\n      jumpi\n        /* \"#utility.yul\":4031:4049   */\n      tag_290\n      tag_102\n      jump\t// in\n    tag_290:\n        /* \"#utility.yul\":3995:4051   */\n    tag_289:\n        /* \"#utility.yul\":4081:4085   */\n      0x20\n        /* \"#utility.yul\":4073:4079   */\n      dup3\n        /* \"#utility.yul\":4069:4086   */\n      mul\n        /* \"#utility.yul\":4061:4086   */\n      swap1\n      pop\n        /* \"#utility.yul\":4141:4145   */\n      0x20\n        /* \"#utility.yul\":4135:4139   */\n      dup2\n        /* \"#utility.yul\":4131:4146   */\n      add\n        /* \"#utility.yul\":4123:4146   */\n      swap1\n      pop\n        /* \"#utility.yul\":3832:4153   */\n      swap2\n      swap1\n      pop\n      jump\t// out\n        /* \"#utility.yul\":4159:4276   */\n    tag_184:\n        /* \"#utility.yul\":4268:4269   */\n      0x00\n        /* \"#utility.yul\":4265:4266   */\n      dup1\n        /* \"#utility.yul\":4258:4270   */\n      revert\n        /* \"#utility.yul\":4298:5243   */\n    tag_185:\n        /* \"#utility.yul\":4404:4409   */\n      0x00\n        /* \"#utility.yul\":4429:4520   */\n      tag_293\n        /* \"#utility.yul\":4445:4519   */\n      tag_294\n        /* \"#utility.yul\":4512:4518   */\n      dup5\n        /* \"#utility.yul\":4445:4519   */\n      tag_183\n      jump\t// in\n    tag_294:\n        /* \"#utility.yul\":4429:4520   */\n      tag_178\n      jump\t// in\n    tag_293:\n        /* \"#utility.yul\":4420:4520   */\n      swap1\n      pop\n        /* \"#utility.yul\":4540:4545   */\n      dup1\n        /* \"#utility.yul\":4569:4575   */\n      dup4\n        /* \"#utility.yul\":4562:4567   */\n      dup3\n        /* \"#utility.yul\":4555:4576   */\n      mstore\n        /* \"#utility.yul\":4603:4607   */\n      0x20\n        /* \"#utility.yul\":4596:4601   */\n      dup3\n        /* \"#utility.yul\":4592:4608   */\n      add\n        /* \"#utility.yul\":4585:4608   */\n      swap1\n      pop\n        /* \"#utility.yul\":4656:4660   */\n      0x20\n        /* \"#utility.yul\":4648:4654   */\n      dup5\n        /* \"#utility.yul\":4644:4661   */\n      mul\n        /* \"#utility.yul\":4636:4642   */\n      dup4\n        /* \"#utility.yul\":4632:4662   */\n      add\n        /* \"#utility.yul\":4685:4688   */\n      dup6\n        /* \"#utility.yul\":4677:4683   */\n      dup2\n        /* \"#utility.yul\":4674:4689   */\n      gt\n        /* \"#utility.yul\":4671:4793   */\n      iszero\n      tag_295\n      jumpi\n        /* \"#utility.yul\":4704:4783   */\n      tag_296\n      tag_184\n      jump\t// in\n    tag_296:\n        /* \"#utility.yul\":4671:4793   */\n    tag_295:\n        /* \"#utility.yul\":4819:4825   */\n      dup4\n        /* \"#utility.yul\":4802:5237   */\n    tag_297:\n        /* \"#utility.yul\":4836:4842   */\n      dup2\n        /* \"#utility.yul\":4831:4834   */\n      dup2\n        /* \"#utility.yul\":4828:4843   */\n      lt\n        /* \"#utility.yul\":4802:5237   */\n      iszero\n      tag_299\n      jumpi\n        /* \"#utility.yul\":4925:4928   */\n      dup1\n        /* \"#utility.yul\":4912:4929   */\n      calldataload\n        /* \"#utility.yul\":4961:4979   */\n      0xffffffffffffffff\n        /* \"#utility.yul\":4948:4959   */\n      dup2\n        /* \"#utility.yul\":4945:4980   */\n      gt\n        /* \"#utility.yul\":4942:5064   */\n      iszero\n      tag_300\n      jumpi\n        /* \"#utility.yul\":4983:5062   */\n      tag_301\n      tag_174\n      jump\t// in\n    tag_301:\n        /* \"#utility.yul\":4942:5064   */\n    tag_300:\n        /* \"#utility.yul\":5107:5118   */\n      dup1\n        /* \"#utility.yul\":5099:5105   */\n      dup7\n        /* \"#utility.yul\":5095:5119   */\n      add\n        /* \"#utility.yul\":5145:5192   */\n      tag_302\n        /* \"#utility.yul\":5188:5191   */\n      dup10\n        /* \"#utility.yul\":5176:5186   */\n      dup3\n        /* \"#utility.yul\":5145:5192   */\n      tag_182\n      jump\t// in\n    tag_302:\n        /* \"#utility.yul\":5140:5143   */\n      dup6\n        /* \"#utility.yul\":5133:5193   */\n      mstore\n        /* \"#utility.yul\":5222:5226   */\n      0x20\n        /* \"#utility.yul\":5217:5220   */\n      dup6\n        /* \"#utility.yul\":5213:5227   */\n      add\n        /* \"#utility.yul\":5206:5227   */\n      swap5\n      pop\n        /* \"#utility.yul\":4878:5237   */\n      pop\n      pop\n        /* \"#utility.yul\":4862:4866   */\n      0x20\n        /* \"#utility.yul\":4857:4860   */\n      dup2\n        /* \"#utility.yul\":4853:4867   */\n      add\n        /* \"#utility.yul\":4846:4867   */\n      swap1\n      pop\n        /* \"#utility.yul\":4802:5237   */\n      jump(tag_297)\n    tag_299:\n        /* \"#utility.yul\":4806:4827   */\n      pop\n        /* \"#utility.yul\":4410:5243   */\n      pop\n      pop\n        /* \"#utility.yul\":4298:5243   */\n      swap4\n      swap3\n      pop\n      pop\n      pop\n      jump\t// out\n        /* \"#utility.yul\":5265:5655   */\n    tag_186:\n        /* \"#utility.yul\":5346:5351   */\n      0x00\n        /* \"#utility.yul\":5395:5398   */\n      dup3\n        /* \"#utility.yul\":5388:5392   */\n      0x1f\n        /* \"#utility.yul\":5380:5386   */\n      dup4\n        /* \"#utility.yul\":5376:5393   */\n      add\n        /* \"#utility.yul\":5372:5399   */\n      slt\n        /* \"#utility.yul\":5362:5484   */\n      tag_304\n      jumpi\n        /* \"#utility.yul\":5403:5482   */\n      tag_305\n      tag_174\n      jump\t// in\n    tag_305:\n        /* \"#utility.yul\":5362:5484   */\n    tag_304:\n        /* \"#utility.yul\":5520:5526   */\n      dup2\n        /* \"#utility.yul\":5507:5527   */\n      calldataload\n        /* \"#utility.yul\":5545:5649   */\n      tag_306\n        /* \"#utility.yul\":5645:5648   */\n      dup5\n        /* \"#utility.yul\":5637:5643   */\n      dup3\n        /* \"#utility.yul\":5630:5634   */\n      0x20\n        /* \"#utility.yul\":5622:5628   */\n      dup7\n        /* \"#utility.yul\":5618:5635   */\n      add\n        /* \"#utility.yul\":5545:5649   */\n      tag_185\n      jump\t// in\n    tag_306:\n        /* \"#utility.yul\":5536:5649   */\n      swap2\n      pop\n        /* \"#utility.yul\":5352:5655   */\n      pop\n        /* \"#utility.yul\":5265:5655   */\n      swap3\n      swap2\n      pop\n      pop\n      jump\t// out\n        /* \"#utility.yul\":5661:5737   */\n    tag_187:\n        /* \"#utility.yul\":5697:5704   */\n      0x00\n        /* \"#utility.yul\":5726:5731   */\n      dup2\n        /* \"#utility.yul\":5715:5731   */\n      swap1\n      pop\n        /* \"#utility.yul\":5661:5737   */\n      swap2\n      swap1\n      pop\n      jump\t// out\n        /* \"#utility.yul\":5743:5863   */\n    tag_188:\n        /* \"#utility.yul\":5815:5838   */\n      tag_309\n        /* \"#utility.yul\":5832:5837   */\n      dup2\n        /* \"#utility.yul\":5815:5838   */\n      tag_187\n      jump\t// in\n    tag_309:\n        /* \"#utility.yul\":5808:5813   */\n      dup2\n        /* \"#utility.yul\":5805:5839   */\n      eq\n        /* \"#utility.yul\":5795:5857   */\n      tag_310\n      jumpi\n        /* \"#utility.yul\":5853:5854   */\n      0x00\n        /* \"#utility.yul\":5850:5851   */\n      dup1\n        /* \"#utility.yul\":5843:5855   */\n      revert\n        /* \"#utility.yul\":5795:5857   */\n    tag_310:\n        /* \"#utility.yul\":5743:5863   */\n      pop\n      jump\t// out\n        /* \"#utility.yul\":5869:6006   */\n    tag_189:\n        /* \"#utility.yul\":5914:5919   */\n      0x00\n        /* \"#utility.yul\":5952:5958   */\n      dup2\n        /* \"#utility.yul\":5939:5959   */\n      calldataload\n        /* \"#utility.yul\":5930:5959   */\n      swap1\n      pop\n        /* \"#utility.yul\":5968:6000   */\n      tag_312\n        /* \"#utility.yul\":5994:5999   */\n      dup2\n        /* \"#utility.yul\":5968:6000   */\n      tag_188\n      jump\t// in\n    tag_312:\n        /* \"#utility.yul\":5869:6006   */\n      swap3\n      swap2\n      pop\n      pop\n      jump\t// out\n        /* \"#utility.yul\":6012:7511   */\n    tag_18:\n        /* \"#utility.yul\":6161:6167   */\n      0x00\n        /* \"#utility.yul\":6169:6175   */\n      dup1\n        /* \"#utility.yul\":6177:6183   */\n      0x00\n        /* \"#utility.yul\":6185:6191   */\n      dup1\n        /* \"#utility.yul\":6193:6199   */\n      0x00\n        /* \"#utility.yul\":6242:6245   */\n      0xa0\n        /* \"#utility.yul\":6230:6239   */\n      dup7\n        /* \"#utility.yul\":6221:6228   */\n      dup9\n        /* \"#utility.yul\":6217:6240   */\n      sub\n        /* \"#utility.yul\":6213:6246   */\n      slt\n        /* \"#utility.yul\":6210:6330   */\n      iszero\n      tag_314\n      jumpi\n        /* \"#utility.yul\":6249:6328   */\n      tag_315\n      tag_166\n      jump\t// in\n    tag_315:\n        /* \"#utility.yul\":6210:6330   */\n    tag_314:\n        /* \"#utility.yul\":6397:6398   */\n      0x00\n        /* \"#utility.yul\":6386:6395   */\n      dup7\n        /* \"#utility.yul\":6382:6399   */\n      add\n        /* \"#utility.yul\":6369:6400   */\n      calldataload\n        /* \"#utility.yul\":6427:6445   */\n      0xffffffffffffffff\n        /* \"#utility.yul\":6419:6425   */\n      dup2\n        /* \"#utility.yul\":6416:6446   */\n      gt\n        /* \"#utility.yul\":6413:6530   */\n      iszero\n      tag_316\n      jumpi\n        /* \"#utility.yul\":6449:6528   */\n      tag_317\n      tag_167\n      jump\t// in\n    tag_317:\n        /* \"#utility.yul\":6413:6530   */\n    tag_316:\n        /* \"#utility.yul\":6554:6617   */\n      tag_318\n        /* \"#utility.yul\":6609:6616   */\n      dup9\n        /* \"#utility.yul\":6600:6606   */\n      dup3\n        /* \"#utility.yul\":6589:6598   */\n      dup10\n        /* \"#utility.yul\":6585:6607   */\n      add\n        /* \"#utility.yul\":6554:6617   */\n      tag_182\n      jump\t// in\n    tag_318:\n        /* \"#utility.yul\":6544:6617   */\n      swap6\n      pop\n        /* \"#utility.yul\":6340:6627   */\n      pop\n        /* \"#utility.yul\":6694:6696   */\n      0x20\n        /* \"#utility.yul\":6683:6692   */\n      dup7\n        /* \"#utility.yul\":6679:6697   */\n      add\n        /* \"#utility.yul\":6666:6698   */\n      calldataload\n        /* \"#utility.yul\":6725:6743   */\n      0xffffffffffffffff\n        /* \"#utility.yul\":6717:6723   */\n      dup2\n        /* \"#utility.yul\":6714:6744   */\n      gt\n        /* \"#utility.yul\":6711:6828   */\n      iszero\n      tag_319\n      jumpi\n        /* \"#utility.yul\":6747:6826   */\n      tag_320\n      tag_167\n      jump\t// in\n    tag_320:\n        /* \"#utility.yul\":6711:6828   */\n    tag_319:\n        /* \"#utility.yul\":6852:6915   */\n      tag_321\n        /* \"#utility.yul\":6907:6914   */\n      dup9\n        /* \"#utility.yul\":6898:6904   */\n      dup3\n        /* \"#utility.yul\":6887:6896   */\n      dup10\n        /* \"#utility.yul\":6883:6905   */\n      add\n        /* \"#utility.yul\":6852:6915   */\n      tag_182\n      jump\t// in\n    tag_321:\n        /* \"#utility.yul\":6842:6915   */\n      swap5\n      pop\n        /* \"#utility.yul\":6637:6925   */\n      pop\n        /* \"#utility.yul\":6992:6994   */\n      0x40\n        /* \"#utility.yul\":6981:6990   */\n      dup7\n        /* \"#utility.yul\":6977:6995   */\n      add\n        /* \"#utility.yul\":6964:6996   */\n      calldataload\n        /* \"#utility.yul\":7023:7041   */\n      0xffffffffffffffff\n        /* \"#utility.yul\":7015:7021   */\n      dup2\n        /* \"#utility.yul\":7012:7042   */\n      gt\n        /* \"#utility.yul\":7009:7126   */\n      iszero\n      tag_322\n      jumpi\n        /* \"#utility.yul\":7045:7124   */\n      tag_323\n      tag_167\n      jump\t// in\n    tag_323:\n        /* \"#utility.yul\":7009:7126   */\n    tag_322:\n        /* \"#utility.yul\":7150:7238   */\n      tag_324\n        /* \"#utility.yul\":7230:7237   */\n      dup9\n        /* \"#utility.yul\":7221:7227   */\n      dup3\n        /* \"#utility.yul\":7210:7219   */\n      dup10\n        /* \"#utility.yul\":7206:7228   */\n      add\n        /* \"#utility.yul\":7150:7238   */\n      tag_186\n      jump\t// in\n    tag_324:\n        /* \"#utility.yul\":7140:7238   */\n      swap4\n      pop\n        /* \"#utility.yul\":6935:7248   */\n      pop\n        /* \"#utility.yul\":7287:7289   */\n      0x60\n        /* \"#utility.yul\":7313:7366   */\n      tag_325\n        /* \"#utility.yul\":7358:7365   */\n      dup9\n        /* \"#utility.yul\":7349:7355   */\n      dup3\n        /* \"#utility.yul\":7338:7347   */\n      dup10\n        /* \"#utility.yul\":7334:7356   */\n      add\n        /* \"#utility.yul\":7313:7366   */\n      tag_170\n      jump\t// in\n    tag_325:\n        /* \"#utility.yul\":7303:7366   */\n      swap3\n      pop\n        /* \"#utility.yul\":7258:7376   */\n      pop\n        /* \"#utility.yul\":7415:7418   */\n      0x80\n        /* \"#utility.yul\":7442:7494   */\n      tag_326\n        /* \"#utility.yul\":7486:7493   */\n      dup9\n        /* \"#utility.yul\":7477:7483   */\n      dup3\n        /* \"#utility.yul\":7466:7475   */\n      dup10\n        /* \"#utility.yul\":7462:7484   */\n      add\n        /* \"#utility.yul\":7442:7494   */\n      tag_189\n      jump\t// in\n    tag_326:\n        /* \"#utility.yul\":7432:7494   */\n      swap2\n      pop\n        /* \"#utility.yul\":7386:7504   */\n      pop\n        /* \"#utility.yul\":6012:7511   */\n      swap3\n      swap6\n      pop\n      swap3\n      swap6\n      swap1\n      swap4\n      pop\n      jump\t// out\n        /* \"#utility.yul\":7517:7616   */\n    tag_190:\n        /* \"#utility.yul\":7569:7575   */\n      0x00\n        /* \"#utility.yul\":7603:7608   */\n      dup2\n        /* \"#utility.yul\":7597:7609   */\n      mload\n        /* \"#utility.yul\":7587:7609   */\n      swap1\n      pop\n        /* \"#utility.yul\":7517:7616   */\n      swap2\n      swap1\n      pop\n      jump\t// out\n        /* \"#utility.yul\":7622:7791   */\n    tag_191:\n        /* \"#utility.yul\":7706:7717   */\n      0x00\n        /* \"#utility.yul\":7740:7746   */\n      dup3\n        /* \"#utility.yul\":7735:7738   */\n      dup3\n        /* \"#utility.yul\":7728:7747   */\n      mstore\n        /* \"#utility.yul\":7780:7784   */\n      0x20\n        /* \"#utility.yul\":7775:7778   */\n      dup3\n        /* \"#utility.yul\":7771:7785   */\n      add\n        /* \"#utility.yul\":7756:7785   */\n      swap1\n      pop\n        /* \"#utility.yul\":7622:7791   */\n      swap3\n      swap2\n      pop\n      pop\n      jump\t// out\n        /* \"#utility.yul\":7797:7936   */\n    tag_192:\n        /* \"#utility.yul\":7886:7892   */\n      dup3\n        /* \"#utility.yul\":7881:7884   */\n      dup2\n        /* \"#utility.yul\":7876:7879   */\n      dup4\n        /* \"#utility.yul\":7870:7893   */\n      mcopy\n        /* \"#utility.yul\":7927:7928   */\n      0x00\n        /* \"#utility.yul\":7918:7924   */\n      dup4\n        /* \"#utility.yul\":7913:7916   */\n      dup4\n        /* \"#utility.yul\":7909:7925   */\n      add\n        /* \"#utility.yul\":7902:7929   */\n      mstore\n        /* \"#utility.yul\":7797:7936   */\n      pop\n      pop\n      pop\n      jump\t// out\n        /* \"#utility.yul\":7942:8319   */\n    tag_193:\n        /* \"#utility.yul\":8030:8033   */\n      0x00\n        /* \"#utility.yul\":8058:8097   */\n      tag_331\n        /* \"#utility.yul\":8091:8096   */\n      dup3\n        /* \"#utility.yul\":8058:8097   */\n      tag_190\n      jump\t// in\n    tag_331:\n        /* \"#utility.yul\":8113:8184   */\n      tag_332\n        /* \"#utility.yul\":8177:8183   */\n      dup2\n        /* \"#utility.yul\":8172:8175   */\n      dup6\n        /* \"#utility.yul\":8113:8184   */\n      tag_191\n      jump\t// in\n    tag_332:\n        /* \"#utility.yul\":8106:8184   */\n      swap4\n      pop\n        /* \"#utility.yul\":8193:8258   */\n      tag_333\n        /* \"#utility.yul\":8251:8257   */\n      dup2\n        /* \"#utility.yul\":8246:8249   */\n      dup6\n        /* \"#utility.yul\":8239:8243   */\n      0x20\n        /* \"#utility.yul\":8232:8237   */\n      dup7\n        /* \"#utility.yul\":8228:8244   */\n      add\n        /* \"#utility.yul\":8193:8258   */\n      tag_192\n      jump\t// in\n    tag_333:\n        /* \"#utility.yul\":8283:8312   */\n      tag_334\n        /* \"#utility.yul\":8305:8311   */\n      dup2\n        /* \"#utility.yul\":8283:8312   */\n      tag_176\n      jump\t// in\n    tag_334:\n        /* \"#utility.yul\":8278:8281   */\n      dup5\n        /* \"#utility.yul\":8274:8313   */\n      add\n        /* \"#utility.yul\":8267:8313   */\n      swap2\n      pop\n        /* \"#utility.yul\":8034:8319   */\n      pop\n        /* \"#utility.yul\":7942:8319   */\n      swap3\n      swap2\n      pop\n      pop\n      jump\t// out\n        /* \"#utility.yul\":8325:8443   */\n    tag_194:\n        /* \"#utility.yul\":8412:8436   */\n      tag_336\n        /* \"#utility.yul\":8430:8435   */\n      dup2\n        /* \"#utility.yul\":8412:8436   */\n      tag_168\n      jump\t// in\n    tag_336:\n        /* \"#utility.yul\":8407:8410   */\n      dup3\n        /* \"#utility.yul\":8400:8437   */\n      mstore\n        /* \"#utility.yul\":8325:8443   */\n      pop\n      pop\n      jump\t// out\n        /* \"#utility.yul\":8449:8564   */\n    tag_195:\n        /* \"#utility.yul\":8534:8557   */\n      tag_338\n        /* \"#utility.yul\":8551:8556   */\n      dup2\n        /* \"#utility.yul\":8534:8557   */\n      tag_187\n      jump\t// in\n    tag_338:\n        /* \"#utility.yul\":8529:8532   */\n      dup3\n        /* \"#utility.yul\":8522:8558   */\n      mstore\n        /* \"#utility.yul\":8449:8564   */\n      pop\n      pop\n      jump\t// out\n        /* \"#utility.yul\":8570:9301   */\n    tag_25:\n        /* \"#utility.yul\":8785:8789   */\n      0x00\n        /* \"#utility.yul\":8823:8826   */\n      0x80\n        /* \"#utility.yul\":8812:8821   */\n      dup3\n        /* \"#utility.yul\":8808:8827   */\n      add\n        /* \"#utility.yul\":8800:8827   */\n      swap1\n      pop\n        /* \"#utility.yul\":8873:8882   */\n      dup2\n        /* \"#utility.yul\":8867:8871   */\n      dup2\n        /* \"#utility.yul\":8863:8883   */\n      sub\n        /* \"#utility.yul\":8859:8860   */\n      0x00\n        /* \"#utility.yul\":8848:8857   */\n      dup4\n        /* \"#utility.yul\":8844:8861   */\n      add\n        /* \"#utility.yul\":8837:8884   */\n      mstore\n        /* \"#utility.yul\":8901:8979   */\n      tag_340\n        /* \"#utility.yul\":8974:8978   */\n      dup2\n        /* \"#utility.yul\":8965:8971   */\n      dup8\n        /* \"#utility.yul\":8901:8979   */\n      tag_193\n      jump\t// in\n    tag_340:\n        /* \"#utility.yul\":8893:8979   */\n      swap1\n      pop\n        /* \"#utility.yul\":9026:9035   */\n      dup2\n        /* \"#utility.yul\":9020:9024   */\n      dup2\n        /* \"#utility.yul\":9016:9036   */\n      sub\n        /* \"#utility.yul\":9011:9013   */\n      0x20\n        /* \"#utility.yul\":9000:9009   */\n      dup4\n        /* \"#utility.yul\":8996:9014   */\n      add\n        /* \"#utility.yul\":8989:9037   */\n      mstore\n        /* \"#utility.yul\":9054:9132   */\n      tag_341\n        /* \"#utility.yul\":9127:9131   */\n      dup2\n        /* \"#utility.yul\":9118:9124   */\n      dup7\n        /* \"#utility.yul\":9054:9132   */\n      tag_193\n      jump\t// in\n    tag_341:\n        /* \"#utility.yul\":9046:9132   */\n      swap1\n      pop\n        /* \"#utility.yul\":9142:9214   */\n      tag_342\n        /* \"#utility.yul\":9210:9212   */\n      0x40\n        /* \"#utility.yul\":9199:9208   */\n      dup4\n        /* \"#utility.yul\":9195:9213   */\n      add\n        /* \"#utility.yul\":9186:9192   */\n      dup6\n        /* \"#utility.yul\":9142:9214   */\n      tag_194\n      jump\t// in\n    tag_342:\n        /* \"#utility.yul\":9224:9294   */\n      tag_343\n        /* \"#utility.yul\":9290:9292   */\n      0x60\n        /* \"#utility.yul\":9279:9288   */\n      dup4\n        /* \"#utility.yul\":9275:9293   */\n      add\n        /* \"#utility.yul\":9266:9272   */\n      dup5\n        /* \"#utility.yul\":9224:9294   */\n      tag_195\n      jump\t// in\n    tag_343:\n        /* \"#utility.yul\":8570:9301   */\n      swap6\n      swap5\n      pop\n      pop\n      pop\n      pop\n      pop\n      jump\t// out\n        /* \"#utility.yul\":9307:9429   */\n    tag_196:\n        /* \"#utility.yul\":9380:9404   */\n      tag_345\n        /* \"#utility.yul\":9398:9403   */\n      dup2\n        /* \"#utility.yul\":9380:9404   */\n      tag_172\n      jump\t// in\n    tag_345:\n        /* \"#utility.yul\":9373:9378   */\n      dup2\n        /* \"#utility.yul\":9370:9405   */\n      eq\n        /* \"#utility.yul\":9360:9423   */\n      tag_346\n      jumpi\n        /* \"#utility.yul\":9419:9420   */\n      0x00\n        /* \"#utility.yul\":9416:9417   */\n      dup1\n        /* \"#utility.yul\":9409:9421   */\n      revert\n        /* \"#utility.yul\":9360:9423   */\n    tag_346:\n        /* \"#utility.yul\":9307:9429   */\n      pop\n      jump\t// out\n        /* \"#utility.yul\":9435:9574   */\n    tag_197:\n        /* \"#utility.yul\":9481:9486   */\n      0x00\n        /* \"#utility.yul\":9519:9525   */\n      dup2\n        /* \"#utility.yul\":9506:9526   */\n      calldataload\n        /* \"#utility.yul\":9497:9526   */\n      swap1\n      pop\n        /* \"#utility.yul\":9535:9568   */\n      tag_348\n        /* \"#utility.yul\":9562:9567   */\n      dup2\n        /* \"#utility.yul\":9535:9568   */\n      tag_196\n      jump\t// in\n    tag_348:\n        /* \"#utility.yul\":9435:9574   */\n      swap3\n      swap2\n      pop\n      pop\n      jump\t// out\n        /* \"#utility.yul\":9580:9909   */\n    tag_29:\n        /* \"#utility.yul\":9639:9645   */\n      0x00\n        /* \"#utility.yul\":9688:9690   */\n      0x20\n        /* \"#utility.yul\":9676:9685   */\n      dup3\n        /* \"#utility.yul\":9667:9674   */\n      dup5\n        /* \"#utility.yul\":9663:9686   */\n      sub\n        /* \"#utility.yul\":9659:9691   */\n      slt\n        /* \"#utility.yul\":9656:9775   */\n      iszero\n      tag_350\n      jumpi\n        /* \"#utility.yul\":9694:9773   */\n      tag_351\n      tag_166\n      jump\t// in\n    tag_351:\n        /* \"#utility.yul\":9656:9775   */\n    tag_350:\n        /* \"#utility.yul\":9814:9815   */\n      0x00\n        /* \"#utility.yul\":9839:9892   */\n      tag_352\n        /* \"#utility.yul\":9884:9891   */\n      dup5\n        /* \"#utility.yul\":9875:9881   */\n      dup3\n        /* \"#utility.yul\":9864:9873   */\n      dup6\n        /* \"#utility.yul\":9860:9882   */\n      add\n        /* \"#utility.yul\":9839:9892   */\n      tag_197\n      jump\t// in\n    tag_352:\n        /* \"#utility.yul\":9829:9892   */\n      swap2\n      pop\n        /* \"#utility.yul\":9785:9902   */\n      pop\n        /* \"#utility.yul\":9580:9909   */\n      swap3\n      swap2\n      pop\n      pop\n      jump\t// out\n        /* \"#utility.yul\":9915:10095   */\n    tag_47:\n        /* \"#utility.yul\":9963:10040   */\n      0x4e487b7100000000000000000000000000000000000000000000000000000000\n        /* \"#utility.yul\":9960:9961   */\n      0x00\n        /* \"#utility.yul\":9953:10041   */\n      mstore\n        /* \"#utility.yul\":10060:10064   */\n      0x21\n        /* \"#utility.yul\":10057:10058   */\n      0x04\n        /* \"#utility.yul\":10050:10065   */\n      mstore\n        /* \"#utility.yul\":10084:10088   */\n      0x24\n        /* \"#utility.yul\":10081:10082   */\n      0x00\n        /* \"#utility.yul\":10074:10089   */\n      revert\n        /* \"#utility.yul\":10101:10213   */\n    tag_198:\n        /* \"#utility.yul\":10181:10182   */\n      0x03\n        /* \"#utility.yul\":10174:10179   */\n      dup2\n        /* \"#utility.yul\":10171:10183   */\n      lt\n        /* \"#utility.yul\":10161:10207   */\n      tag_355\n      jumpi\n        /* \"#utility.yul\":10187:10205   */\n      tag_356\n      tag_47\n      jump\t// in\n    tag_356:\n        /* \"#utility.yul\":10161:10207   */\n    tag_355:\n        /* \"#utility.yul\":10101:10213   */\n      pop\n      jump\t// out\n        /* \"#utility.yul\":10219:10344   */\n    tag_199:\n        /* \"#utility.yul\":10263:10270   */\n      0x00\n        /* \"#utility.yul\":10292:10297   */\n      dup2\n        /* \"#utility.yul\":10281:10297   */\n      swap1\n      pop\n        /* \"#utility.yul\":10298:10338   */\n      tag_358\n        /* \"#utility.yul\":10332:10337   */\n      dup3\n        /* \"#utility.yul\":10298:10338   */\n      tag_198\n      jump\t// in\n    tag_358:\n        /* \"#utility.yul\":10219:10344   */\n      swap2\n      swap1\n      pop\n      jump\t// out\n        /* \"#utility.yul\":10350:10475   */\n    tag_200:\n        /* \"#utility.yul\":10405:10414   */\n      0x00\n        /* \"#utility.yul\":10438:10469   */\n      tag_360\n        /* \"#utility.yul\":10463:10468   */\n      dup3\n        /* \"#utility.yul\":10438:10469   */\n      tag_199\n      jump\t// in\n    tag_360:\n        /* \"#utility.yul\":10425:10469   */\n      swap1\n      pop\n        /* \"#utility.yul\":10350:10475   */\n      swap2\n      swap1\n      pop\n      jump\t// out\n        /* \"#utility.yul\":10481:10622   */\n    tag_201:\n        /* \"#utility.yul\":10573:10615   */\n      tag_362\n        /* \"#utility.yul\":10609:10614   */\n      dup2\n        /* \"#utility.yul\":10573:10615   */\n      tag_200\n      jump\t// in\n    tag_362:\n        /* \"#utility.yul\":10568:10571   */\n      dup3\n        /* \"#utility.yul\":10561:10616   */\n      mstore\n        /* \"#utility.yul\":10481:10622   */\n      pop\n      pop\n      jump\t// out\n        /* \"#utility.yul\":10628:10860   */\n    tag_32:\n        /* \"#utility.yul\":10726:10730   */\n      0x00\n        /* \"#utility.yul\":10764:10766   */\n      0x20\n        /* \"#utility.yul\":10753:10762   */\n      dup3\n        /* \"#utility.yul\":10749:10767   */\n      add\n        /* \"#utility.yul\":10741:10767   */\n      swap1\n      pop\n        /* \"#utility.yul\":10777:10853   */\n      tag_364\n        /* \"#utility.yul\":10850:10851   */\n      0x00\n        /* \"#utility.yul\":10839:10848   */\n      dup4\n        /* \"#utility.yul\":10835:10852   */\n      add\n        /* \"#utility.yul\":10826:10832   */\n      dup5\n        /* \"#utility.yul\":10777:10853   */\n      tag_201\n      jump\t// in\n    tag_364:\n        /* \"#utility.yul\":10628:10860   */\n      swap3\n      swap2\n      pop\n      pop\n      jump\t// out\n        /* \"#utility.yul\":10866:11001   */\n    tag_202:\n        /* \"#utility.yul\":10954:10960   */\n      0x00\n        /* \"#utility.yul\":10988:10993   */\n      dup2\n        /* \"#utility.yul\":10982:10994   */\n      mload\n        /* \"#utility.yul\":10972:10994   */\n      swap1\n      pop\n        /* \"#utility.yul\":10866:11001   */\n      swap2\n      swap1\n      pop\n      jump\t// out\n        /* \"#utility.yul\":11007:11212   */\n    tag_203:\n        /* \"#utility.yul\":11127:11138   */\n      0x00\n        /* \"#utility.yul\":11161:11167   */\n      dup3\n        /* \"#utility.yul\":11156:11159   */\n      dup3\n        /* \"#utility.yul\":11149:11168   */\n      mstore\n        /* \"#utility.yul\":11201:11205   */\n      0x20\n        /* \"#utility.yul\":11196:11199   */\n      dup3\n        /* \"#utility.yul\":11192:11206   */\n      add\n        /* \"#utility.yul\":11177:11206   */\n      swap1\n      pop\n        /* \"#utility.yul\":11007:11212   */\n      swap3\n      swap2\n      pop\n      pop\n      jump\t// out\n        /* \"#utility.yul\":11218:11371   */\n    tag_204:\n        /* \"#utility.yul\":11306:11310   */\n      0x00\n        /* \"#utility.yul\":11329:11332   */\n      dup2\n        /* \"#utility.yul\":11321:11332   */\n      swap1\n      pop\n        /* \"#utility.yul\":11359:11363   */\n      0x20\n        /* \"#utility.yul\":11354:11357   */\n      dup3\n        /* \"#utility.yul\":11350:11364   */\n      add\n        /* \"#utility.yul\":11342:11364   */\n      swap1\n      pop\n        /* \"#utility.yul\":11218:11371   */\n      swap2\n      swap1\n      pop\n      jump\t// out\n        /* \"#utility.yul\":11377:11536   */\n    tag_205:\n        /* \"#utility.yul\":11451:11462   */\n      0x00\n        /* \"#utility.yul\":11485:11491   */\n      dup3\n        /* \"#utility.yul\":11480:11483   */\n      dup3\n        /* \"#utility.yul\":11473:11492   */\n      mstore\n        /* \"#utility.yul\":11525:11529   */\n      0x20\n        /* \"#utility.yul\":11520:11523   */\n      dup3\n        /* \"#utility.yul\":11516:11530   */\n      add\n        /* \"#utility.yul\":11501:11530   */\n      swap1\n      pop\n        /* \"#utility.yul\":11377:11536   */\n      swap3\n      swap2\n      pop\n      pop\n      jump\t// out\n        /* \"#utility.yul\":11542:11899   */\n    tag_206:\n        /* \"#utility.yul\":11620:11623   */\n      0x00\n        /* \"#utility.yul\":11648:11687   */\n      tag_370\n        /* \"#utility.yul\":11681:11686   */\n      dup3\n        /* \"#utility.yul\":11648:11687   */\n      tag_190\n      jump\t// in\n    tag_370:\n        /* \"#utility.yul\":11703:11764   */\n      tag_371\n        /* \"#utility.yul\":11757:11763   */\n      dup2\n        /* \"#utility.yul\":11752:11755   */\n      dup6\n        /* \"#utility.yul\":11703:11764   */\n      tag_205\n      jump\t// in\n    tag_371:\n        /* \"#utility.yul\":11696:11764   */\n      swap4\n      pop\n        /* \"#utility.yul\":11773:11838   */\n      tag_372\n        /* \"#utility.yul\":11831:11837   */\n      dup2\n        /* \"#utility.yul\":11826:11829   */\n      dup6\n        /* \"#utility.yul\":11819:11823   */\n      0x20\n        /* \"#utility.yul\":11812:11817   */\n      dup7\n        /* \"#utility.yul\":11808:11824   */\n      add\n        /* \"#utility.yul\":11773:11838   */\n      tag_192\n      jump\t// in\n    tag_372:\n        /* \"#utility.yul\":11863:11892   */\n      tag_373\n        /* \"#utility.yul\":11885:11891   */\n      dup2\n        /* \"#utility.yul\":11863:11892   */\n      tag_176\n      jump\t// in\n    tag_373:\n        /* \"#utility.yul\":11858:11861   */\n      dup5\n        /* \"#utility.yul\":11854:11893   */\n      add\n        /* \"#utility.yul\":11847:11893   */\n      swap2\n      pop\n        /* \"#utility.yul\":11624:11899   */\n      pop\n        /* \"#utility.yul\":11542:11899   */\n      swap3\n      swap2\n      pop\n      pop\n      jump\t// out\n        /* \"#utility.yul\":11905:12029   */\n    tag_207:\n        /* \"#utility.yul\":11982:11988   */\n      0x00\n        /* \"#utility.yul\":12016:12021   */\n      dup2\n        /* \"#utility.yul\":12010:12022   */\n      mload\n        /* \"#utility.yul\":12000:12022   */\n      swap1\n      pop\n        /* \"#utility.yul\":11905:12029   */\n      swap2\n      swap1\n      pop\n      jump\t// out\n        /* \"#utility.yul\":12035:12219   */\n    tag_208:\n        /* \"#utility.yul\":12134:12145   */\n      0x00\n        /* \"#utility.yul\":12168:12174   */\n      dup3\n        /* \"#utility.yul\":12163:12166   */\n      dup3\n        /* \"#utility.yul\":12156:12175   */\n      mstore\n        /* \"#utility.yul\":12208:12212   */\n      0x20\n        /* \"#utility.yul\":12203:12206   */\n      dup3\n        /* \"#utility.yul\":12199:12213   */\n      add\n        /* \"#utility.yul\":12184:12213   */\n      swap1\n      pop\n        /* \"#utility.yul\":12035:12219   */\n      swap3\n      swap2\n      pop\n      pop\n      jump\t// out\n        /* \"#utility.yul\":12225:12367   */\n    tag_209:\n        /* \"#utility.yul\":12302:12306   */\n      0x00\n        /* \"#utility.yul\":12325:12328   */\n      dup2\n        /* \"#utility.yul\":12317:12328   */\n      swap1\n      pop\n        /* \"#utility.yul\":12355:12359   */\n      0x20\n        /* \"#utility.yul\":12350:12353   */\n      dup3\n        /* \"#utility.yul\":12346:12360   */\n      add\n        /* \"#utility.yul\":12338:12360   */\n      swap1\n      pop\n        /* \"#utility.yul\":12225:12367   */\n      swap2\n      swap1\n      pop\n      jump\t// out\n        /* \"#utility.yul\":12373:12569   */\n    tag_210:\n        /* \"#utility.yul\":12462:12472   */\n      0x00\n        /* \"#utility.yul\":12497:12563   */\n      tag_378\n        /* \"#utility.yul\":12559:12562   */\n      dup4\n        /* \"#utility.yul\":12551:12557   */\n      dup4\n        /* \"#utility.yul\":12497:12563   */\n      tag_206\n      jump\t// in\n    tag_378:\n        /* \"#utility.yul\":12483:12563   */\n      swap1\n      pop\n        /* \"#utility.yul\":12373:12569   */\n      swap3\n      swap2\n      pop\n      pop\n      jump\t// out\n        /* \"#utility.yul\":12575:12698   */\n    tag_211:\n        /* \"#utility.yul\":12655:12659   */\n      0x00\n        /* \"#utility.yul\":12687:12691   */\n      0x20\n        /* \"#utility.yul\":12682:12685   */\n      dup3\n        /* \"#utility.yul\":12678:12692   */\n      add\n        /* \"#utility.yul\":12670:12692   */\n      swap1\n      pop\n        /* \"#utility.yul\":12575:12698   */\n      swap2\n      swap1\n      pop\n      jump\t// out\n        /* \"#utility.yul\":12732:13703   */\n    tag_212:\n        /* \"#utility.yul\":12861:12864   */\n      0x00\n        /* \"#utility.yul\":12890:12954   */\n      tag_381\n        /* \"#utility.yul\":12948:12953   */\n      dup3\n        /* \"#utility.yul\":12890:12954   */\n      tag_207\n      jump\t// in\n    tag_381:\n        /* \"#utility.yul\":12970:13056   */\n      tag_382\n        /* \"#utility.yul\":13049:13055   */\n      dup2\n        /* \"#utility.yul\":13044:13047   */\n      dup6\n        /* \"#utility.yul\":12970:13056   */\n      tag_208\n      jump\t// in\n    tag_382:\n        /* \"#utility.yul\":12963:13056   */\n      swap4\n      pop\n        /* \"#utility.yul\":13082:13085   */\n      dup4\n        /* \"#utility.yul\":13127:13131   */\n      0x20\n        /* \"#utility.yul\":13119:13125   */\n      dup3\n        /* \"#utility.yul\":13115:13132   */\n      mul\n        /* \"#utility.yul\":13110:13113   */\n      dup6\n        /* \"#utility.yul\":13106:13133   */\n      add\n        /* \"#utility.yul\":13157:13223   */\n      tag_383\n        /* \"#utility.yul\":13217:13222   */\n      dup6\n        /* \"#utility.yul\":13157:13223   */\n      tag_209\n      jump\t// in\n    tag_383:\n        /* \"#utility.yul\":13246:13253   */\n      dup1\n        /* \"#utility.yul\":13277:13278   */\n      0x00\n        /* \"#utility.yul\":13262:13658   */\n    tag_384:\n        /* \"#utility.yul\":13287:13293   */\n      dup6\n        /* \"#utility.yul\":13284:13285   */\n      dup2\n        /* \"#utility.yul\":13281:13294   */\n      lt\n        /* \"#utility.yul\":13262:13658   */\n      iszero\n      tag_386\n      jumpi\n        /* \"#utility.yul\":13358:13367   */\n      dup5\n        /* \"#utility.yul\":13352:13356   */\n      dup5\n        /* \"#utility.yul\":13348:13368   */\n      sub\n        /* \"#utility.yul\":13343:13346   */\n      dup10\n        /* \"#utility.yul\":13336:13369   */\n      mstore\n        /* \"#utility.yul\":13409:13415   */\n      dup2\n        /* \"#utility.yul\":13403:13416   */\n      mload\n        /* \"#utility.yul\":13437:13521   */\n      tag_387\n        /* \"#utility.yul\":13516:13520   */\n      dup6\n        /* \"#utility.yul\":13501:13514   */\n      dup3\n        /* \"#utility.yul\":13437:13521   */\n      tag_210\n      jump\t// in\n    tag_387:\n        /* \"#utility.yul\":13429:13521   */\n      swap5\n      pop\n        /* \"#utility.yul\":13544:13614   */\n      tag_388\n        /* \"#utility.yul\":13607:13613   */\n      dup4\n        /* \"#utility.yul\":13544:13614   */\n      tag_211\n      jump\t// in\n    tag_388:\n        /* \"#utility.yul\":13534:13614   */\n      swap3\n      pop\n        /* \"#utility.yul\":13643:13647   */\n      0x20\n        /* \"#utility.yul\":13638:13641   */\n      dup11\n        /* \"#utility.yul\":13634:13648   */\n      add\n        /* \"#utility.yul\":13627:13648   */\n      swap10\n      pop\n        /* \"#utility.yul\":13322:13658   */\n      pop\n        /* \"#utility.yul\":13309:13310   */\n      0x01\n        /* \"#utility.yul\":13306:13307   */\n      dup2\n        /* \"#utility.yul\":13302:13311   */\n      add\n        /* \"#utility.yul\":13297:13311   */\n      swap1\n      pop\n        /* \"#utility.yul\":13262:13658   */\n      jump(tag_384)\n    tag_386:\n        /* \"#utility.yul\":13266:13280   */\n      pop\n        /* \"#utility.yul\":13674:13678   */\n      dup3\n        /* \"#utility.yul\":13667:13678   */\n      swap8\n      pop\n        /* \"#utility.yul\":13694:13697   */\n      dup8\n        /* \"#utility.yul\":13687:13697   */\n      swap6\n      pop\n        /* \"#utility.yul\":12866:13703   */\n      pop\n      pop\n      pop\n      pop\n      pop\n        /* \"#utility.yul\":12732:13703   */\n      swap3\n      swap2\n      pop\n      pop\n      jump\t// out\n        /* \"#utility.yul\":13709:13817   */\n    tag_213:\n        /* \"#utility.yul\":13786:13810   */\n      tag_390\n        /* \"#utility.yul\":13804:13809   */\n      dup2\n        /* \"#utility.yul\":13786:13810   */\n      tag_168\n      jump\t// in\n    tag_390:\n        /* \"#utility.yul\":13781:13784   */\n      dup3\n        /* \"#utility.yul\":13774:13811   */\n      mstore\n        /* \"#utility.yul\":13709:13817   */\n      pop\n      pop\n      jump\t// out\n        /* \"#utility.yul\":13823:13928   */\n    tag_214:\n        /* \"#utility.yul\":13898:13921   */\n      tag_392\n        /* \"#utility.yul\":13915:13920   */\n      dup2\n        /* \"#utility.yul\":13898:13921   */\n      tag_187\n      jump\t// in\n    tag_392:\n        /* \"#utility.yul\":13893:13896   */\n      dup3\n        /* \"#utility.yul\":13886:13922   */\n      mstore\n        /* \"#utility.yul\":13823:13928   */\n      pop\n      pop\n      jump\t// out\n        /* \"#utility.yul\":14008:15325   */\n    tag_215:\n        /* \"#utility.yul\":14109:14112   */\n      0x00\n        /* \"#utility.yul\":14145:14149   */\n      0xa0\n        /* \"#utility.yul\":14140:14143   */\n      dup4\n        /* \"#utility.yul\":14136:14150   */\n      add\n        /* \"#utility.yul\":14232:14236   */\n      0x00\n        /* \"#utility.yul\":14225:14230   */\n      dup4\n        /* \"#utility.yul\":14221:14237   */\n      add\n        /* \"#utility.yul\":14215:14238   */\n      mload\n        /* \"#utility.yul\":14285:14288   */\n      dup5\n        /* \"#utility.yul\":14279:14283   */\n      dup3\n        /* \"#utility.yul\":14275:14289   */\n      sub\n        /* \"#utility.yul\":14268:14272   */\n      0x00\n        /* \"#utility.yul\":14263:14266   */\n      dup7\n        /* \"#utility.yul\":14259:14273   */\n      add\n        /* \"#utility.yul\":14252:14290   */\n      mstore\n        /* \"#utility.yul\":14311:14384   */\n      tag_394\n        /* \"#utility.yul\":14379:14383   */\n      dup3\n        /* \"#utility.yul\":14365:14377   */\n      dup3\n        /* \"#utility.yul\":14311:14384   */\n      tag_206\n      jump\t// in\n    tag_394:\n        /* \"#utility.yul\":14303:14384   */\n      swap2\n      pop\n        /* \"#utility.yul\":14160:14395   */\n      pop\n        /* \"#utility.yul\":14484:14488   */\n      0x20\n        /* \"#utility.yul\":14477:14482   */\n      dup4\n        /* \"#utility.yul\":14473:14489   */\n      add\n        /* \"#utility.yul\":14467:14490   */\n      mload\n        /* \"#utility.yul\":14537:14540   */\n      dup5\n        /* \"#utility.yul\":14531:14535   */\n      dup3\n        /* \"#utility.yul\":14527:14541   */\n      sub\n        /* \"#utility.yul\":14520:14524   */\n      0x20\n        /* \"#utility.yul\":14515:14518   */\n      dup7\n        /* \"#utility.yul\":14511:14525   */\n      add\n        /* \"#utility.yul\":14504:14542   */\n      mstore\n        /* \"#utility.yul\":14563:14636   */\n      tag_395\n        /* \"#utility.yul\":14631:14635   */\n      dup3\n        /* \"#utility.yul\":14617:14629   */\n      dup3\n        /* \"#utility.yul\":14563:14636   */\n      tag_206\n      jump\t// in\n    tag_395:\n        /* \"#utility.yul\":14555:14636   */\n      swap2\n      pop\n        /* \"#utility.yul\":14405:14647   */\n      pop\n        /* \"#utility.yul\":14736:14740   */\n      0x40\n        /* \"#utility.yul\":14729:14734   */\n      dup4\n        /* \"#utility.yul\":14725:14741   */\n      add\n        /* \"#utility.yul\":14719:14742   */\n      mload\n        /* \"#utility.yul\":14789:14792   */\n      dup5\n        /* \"#utility.yul\":14783:14787   */\n      dup3\n        /* \"#utility.yul\":14779:14793   */\n      sub\n        /* \"#utility.yul\":14772:14776   */\n      0x40\n        /* \"#utility.yul\":14767:14770   */\n      dup7\n        /* \"#utility.yul\":14763:14777   */\n      add\n        /* \"#utility.yul\":14756:14794   */\n      mstore\n        /* \"#utility.yul\":14815:14938   */\n      tag_396\n        /* \"#utility.yul\":14933:14937   */\n      dup3\n        /* \"#utility.yul\":14919:14931   */\n      dup3\n        /* \"#utility.yul\":14815:14938   */\n      tag_212\n      jump\t// in\n    tag_396:\n        /* \"#utility.yul\":14807:14938   */\n      swap2\n      pop\n        /* \"#utility.yul\":14657:14949   */\n      pop\n        /* \"#utility.yul\":15032:15036   */\n      0x60\n        /* \"#utility.yul\":15025:15030   */\n      dup4\n        /* \"#utility.yul\":15021:15037   */\n      add\n        /* \"#utility.yul\":15015:15038   */\n      mload\n        /* \"#utility.yul\":15051:15114   */\n      tag_397\n        /* \"#utility.yul\":15108:15112   */\n      0x60\n        /* \"#utility.yul\":15103:15106   */\n      dup7\n        /* \"#utility.yul\":15099:15113   */\n      add\n        /* \"#utility.yul\":15085:15097   */\n      dup3\n        /* \"#utility.yul\":15051:15114   */\n      tag_213\n      jump\t// in\n    tag_397:\n        /* \"#utility.yul\":14959:15124   */\n      pop\n        /* \"#utility.yul\":15208:15212   */\n      0x80\n        /* \"#utility.yul\":15201:15206   */\n      dup4\n        /* \"#utility.yul\":15197:15213   */\n      add\n        /* \"#utility.yul\":15191:15214   */\n      mload\n        /* \"#utility.yul\":15227:15288   */\n      tag_398\n        /* \"#utility.yul\":15282:15286   */\n      0x80\n        /* \"#utility.yul\":15277:15280   */\n      dup7\n        /* \"#utility.yul\":15273:15287   */\n      add\n        /* \"#utility.yul\":15259:15271   */\n      dup3\n        /* \"#utility.yul\":15227:15288   */\n      tag_214\n      jump\t// in\n    tag_398:\n        /* \"#utility.yul\":15134:15298   */\n      pop\n        /* \"#utility.yul\":15315:15319   */\n      dup1\n        /* \"#utility.yul\":15308:15319   */\n      swap2\n      pop\n        /* \"#utility.yul\":14114:15325   */\n      pop\n        /* \"#utility.yul\":14008:15325   */\n      swap3\n      swap2\n      pop\n      pop\n      jump\t// out\n        /* \"#utility.yul\":15331:15571   */\n    tag_216:\n        /* \"#utility.yul\":15442:15452   */\n      0x00\n        /* \"#utility.yul\":15477:15565   */\n      tag_400\n        /* \"#utility.yul\":15561:15564   */\n      dup4\n        /* \"#utility.yul\":15553:15559   */\n      dup4\n        /* \"#utility.yul\":15477:15565   */\n      tag_215\n      jump\t// in\n    tag_400:\n        /* \"#utility.yul\":15463:15565   */\n      swap1\n      pop\n        /* \"#utility.yul\":15331:15571   */\n      swap3\n      swap2\n      pop\n      pop\n      jump\t// out\n        /* \"#utility.yul\":15577:15711   */\n    tag_217:\n        /* \"#utility.yul\":15668:15672   */\n      0x00\n        /* \"#utility.yul\":15700:15704   */\n      0x20\n        /* \"#utility.yul\":15695:15698   */\n      dup3\n        /* \"#utility.yul\":15691:15705   */\n      add\n        /* \"#utility.yul\":15683:15705   */\n      swap1\n      pop\n        /* \"#utility.yul\":15577:15711   */\n      swap2\n      swap1\n      pop\n      jump\t// out\n        /* \"#utility.yul\":15795:16874   */\n    tag_218:\n        /* \"#utility.yul\":15956:15959   */\n      0x00\n        /* \"#utility.yul\":15985:16060   */\n      tag_403\n        /* \"#utility.yul\":16054:16059   */\n      dup3\n        /* \"#utility.yul\":15985:16060   */\n      tag_202\n      jump\t// in\n    tag_403:\n        /* \"#utility.yul\":16076:16183   */\n      tag_404\n        /* \"#utility.yul\":16176:16182   */\n      dup2\n        /* \"#utility.yul\":16171:16174   */\n      dup6\n        /* \"#utility.yul\":16076:16183   */\n      tag_203\n      jump\t// in\n    tag_404:\n        /* \"#utility.yul\":16069:16183   */\n      swap4\n      pop\n        /* \"#utility.yul\":16209:16212   */\n      dup4\n        /* \"#utility.yul\":16254:16258   */\n      0x20\n        /* \"#utility.yul\":16246:16252   */\n      dup3\n        /* \"#utility.yul\":16242:16259   */\n      mul\n        /* \"#utility.yul\":16237:16240   */\n      dup6\n        /* \"#utility.yul\":16233:16260   */\n      add\n        /* \"#utility.yul\":16284:16361   */\n      tag_405\n        /* \"#utility.yul\":16355:16360   */\n      dup6\n        /* \"#utility.yul\":16284:16361   */\n      tag_204\n      jump\t// in\n    tag_405:\n        /* \"#utility.yul\":16384:16391   */\n      dup1\n        /* \"#utility.yul\":16415:16416   */\n      0x00\n        /* \"#utility.yul\":16400:16829   */\n    tag_406:\n        /* \"#utility.yul\":16425:16431   */\n      dup6\n        /* \"#utility.yul\":16422:16423   */\n      dup2\n        /* \"#utility.yul\":16419:16432   */\n      lt\n        /* \"#utility.yul\":16400:16829   */\n      iszero\n      tag_408\n      jumpi\n        /* \"#utility.yul\":16496:16505   */\n      dup5\n        /* \"#utility.yul\":16490:16494   */\n      dup5\n        /* \"#utility.yul\":16486:16506   */\n      sub\n        /* \"#utility.yul\":16481:16484   */\n      dup10\n        /* \"#utility.yul\":16474:16507   */\n      mstore\n        /* \"#utility.yul\":16547:16553   */\n      dup2\n        /* \"#utility.yul\":16541:16554   */\n      mload\n        /* \"#utility.yul\":16575:16681   */\n      tag_409\n        /* \"#utility.yul\":16676:16680   */\n      dup6\n        /* \"#utility.yul\":16661:16674   */\n      dup3\n        /* \"#utility.yul\":16575:16681   */\n      tag_216\n      jump\t// in\n    tag_409:\n        /* \"#utility.yul\":16567:16681   */\n      swap5\n      pop\n        /* \"#utility.yul\":16704:16785   */\n      tag_410\n        /* \"#utility.yul\":16778:16784   */\n      dup4\n        /* \"#utility.yul\":16704:16785   */\n      tag_217\n      jump\t// in\n    tag_410:\n        /* \"#utility.yul\":16694:16785   */\n      swap3\n      pop\n        /* \"#utility.yul\":16814:16818   */\n      0x20\n        /* \"#utility.yul\":16809:16812   */\n      dup11\n        /* \"#utility.yul\":16805:16819   */\n      add\n        /* \"#utility.yul\":16798:16819   */\n      swap10\n      pop\n        /* \"#utility.yul\":16460:16829   */\n      pop\n        /* \"#utility.yul\":16447:16448   */\n      0x01\n        /* \"#utility.yul\":16444:16445   */\n      dup2\n        /* \"#utility.yul\":16440:16449   */\n      add\n        /* \"#utility.yul\":16435:16449   */\n      swap1\n      pop\n        /* \"#utility.yul\":16400:16829   */\n      jump(tag_406)\n    tag_408:\n        /* \"#utility.yul\":16404:16418   */\n      pop\n        /* \"#utility.yul\":16845:16849   */\n      dup3\n        /* \"#utility.yul\":16838:16849   */\n      swap8\n      pop\n        /* \"#utility.yul\":16865:16868   */\n      dup8\n        /* \"#utility.yul\":16858:16868   */\n      swap6\n      pop\n        /* \"#utility.yul\":15961:16874   */\n      pop\n      pop\n      pop\n      pop\n      pop\n        /* \"#utility.yul\":15795:16874   */\n      swap3\n      swap2\n      pop\n      pop\n      jump\t// out\n        /* \"#utility.yul\":16880:17337   */\n    tag_37:\n        /* \"#utility.yul\":17065:17069   */\n      0x00\n        /* \"#utility.yul\":17103:17105   */\n      0x20\n        /* \"#utility.yul\":17092:17101   */\n      dup3\n        /* \"#utility.yul\":17088:17106   */\n      add\n        /* \"#utility.yul\":17080:17106   */\n      swap1\n      pop\n        /* \"#utility.yul\":17152:17161   */\n      dup2\n        /* \"#utility.yul\":17146:17150   */\n      dup2\n        /* \"#utility.yul\":17142:17162   */\n      sub\n        /* \"#utility.yul\":17138:17139   */\n      0x00\n        /* \"#utility.yul\":17127:17136   */\n      dup4\n        /* \"#utility.yul\":17123:17140   */\n      add\n        /* \"#utility.yul\":17116:17163   */\n      mstore\n        /* \"#utility.yul\":17180:17330   */\n      tag_412\n        /* \"#utility.yul\":17325:17329   */\n      dup2\n        /* \"#utility.yul\":17316:17322   */\n      dup5\n        /* \"#utility.yul\":17180:17330   */\n      tag_218\n      jump\t// in\n    tag_412:\n        /* \"#utility.yul\":17172:17330   */\n      swap1\n      pop\n        /* \"#utility.yul\":16880:17337   */\n      swap3\n      swap2\n      pop\n      pop\n      jump\t// out\n        /* \"#utility.yul\":17343:17654   */\n    tag_219:\n        /* \"#utility.yul\":17420:17424   */\n      0x00\n        /* \"#utility.yul\":17510:17528   */\n      0xffffffffffffffff\n        /* \"#utility.yul\":17502:17508   */\n      dup3\n        /* \"#utility.yul\":17499:17529   */\n      gt\n        /* \"#utility.yul\":17496:17552   */\n      iszero\n      tag_414\n      jumpi\n        /* \"#utility.yul\":17532:17550   */\n      tag_415\n      tag_102\n      jump\t// in\n    tag_415:\n        /* \"#utility.yul\":17496:17552   */\n    tag_414:\n        /* \"#utility.yul\":17582:17586   */\n      0x20\n        /* \"#utility.yul\":17574:17580   */\n      dup3\n        /* \"#utility.yul\":17570:17587   */\n      mul\n        /* \"#utility.yul\":17562:17587   */\n      swap1\n      pop\n        /* \"#utility.yul\":17642:17646   */\n      0x20\n        /* \"#utility.yul\":17636:17640   */\n      dup2\n        /* \"#utility.yul\":17632:17647   */\n      add\n        /* \"#utility.yul\":17624:17647   */\n      swap1\n      pop\n        /* \"#utility.yul\":17343:17654   */\n      swap2\n      swap1\n      pop\n      jump\t// out\n        /* \"#utility.yul\":17677:18387   */\n    tag_220:\n        /* \"#utility.yul\":17773:17778   */\n      0x00\n        /* \"#utility.yul\":17798:17879   */\n      tag_417\n        /* \"#utility.yul\":17814:17878   */\n      tag_418\n        /* \"#utility.yul\":17871:17877   */\n      dup5\n        /* \"#utility.yul\":17814:17878   */\n      tag_219\n      jump\t// in\n    tag_418:\n        /* \"#utility.yul\":17798:17879   */\n      tag_178\n      jump\t// in\n    tag_417:\n        /* \"#utility.yul\":17789:17879   */\n      swap1\n      pop\n        /* \"#utility.yul\":17899:17904   */\n      dup1\n        /* \"#utility.yul\":17928:17934   */\n      dup4\n        /* \"#utility.yul\":17921:17926   */\n      dup3\n        /* \"#utility.yul\":17914:17935   */\n      mstore\n        /* \"#utility.yul\":17962:17966   */\n      0x20\n        /* \"#utility.yul\":17955:17960   */\n      dup3\n        /* \"#utility.yul\":17951:17967   */\n      add\n        /* \"#utility.yul\":17944:17967   */\n      swap1\n      pop\n        /* \"#utility.yul\":18015:18019   */\n      0x20\n        /* \"#utility.yul\":18007:18013   */\n      dup5\n        /* \"#utility.yul\":18003:18020   */\n      mul\n        /* \"#utility.yul\":17995:18001   */\n      dup4\n        /* \"#utility.yul\":17991:18021   */\n      add\n        /* \"#utility.yul\":18044:18047   */\n      dup6\n        /* \"#utility.yul\":18036:18042   */\n      dup2\n        /* \"#utility.yul\":18033:18048   */\n      gt\n        /* \"#utility.yul\":18030:18152   */\n      iszero\n      tag_419\n      jumpi\n        /* \"#utility.yul\":18063:18142   */\n      tag_420\n      tag_184\n      jump\t// in\n    tag_420:\n        /* \"#utility.yul\":18030:18152   */\n    tag_419:\n        /* \"#utility.yul\":18178:18184   */\n      dup4\n        /* \"#utility.yul\":18161:18381   */\n    tag_421:\n        /* \"#utility.yul\":18195:18201   */\n      dup2\n        /* \"#utility.yul\":18190:18193   */\n      dup2\n        /* \"#utility.yul\":18187:18202   */\n      lt\n        /* \"#utility.yul\":18161:18381   */\n      iszero\n      tag_423\n      jumpi\n        /* \"#utility.yul\":18270:18273   */\n      dup1\n        /* \"#utility.yul\":18299:18336   */\n      tag_424\n        /* \"#utility.yul\":18332:18335   */\n      dup9\n        /* \"#utility.yul\":18320:18330   */\n      dup3\n        /* \"#utility.yul\":18299:18336   */\n      tag_170\n      jump\t// in\n    tag_424:\n        /* \"#utility.yul\":18294:18297   */\n      dup5\n        /* \"#utility.yul\":18287:18337   */\n      mstore\n        /* \"#utility.yul\":18366:18370   */\n      0x20\n        /* \"#utility.yul\":18361:18364   */\n      dup5\n        /* \"#utility.yul\":18357:18371   */\n      add\n        /* \"#utility.yul\":18350:18371   */\n      swap4\n      pop\n        /* \"#utility.yul\":18237:18381   */\n      pop\n        /* \"#utility.yul\":18221:18225   */\n      0x20\n        /* \"#utility.yul\":18216:18219   */\n      dup2\n        /* \"#utility.yul\":18212:18226   */\n      add\n        /* \"#utility.yul\":18205:18226   */\n      swap1\n      pop\n        /* \"#utility.yul\":18161:18381   */\n      jump(tag_421)\n    tag_423:\n        /* \"#utility.yul\":18165:18186   */\n      pop\n        /* \"#utility.yul\":17779:18387   */\n      pop\n      pop\n        /* \"#utility.yul\":17677:18387   */\n      swap4\n      swap3\n      pop\n      pop\n      pop\n      jump\t// out\n        /* \"#utility.yul\":18410:18780   */\n    tag_221:\n        /* \"#utility.yul\":18481:18486   */\n      0x00\n        /* \"#utility.yul\":18530:18533   */\n      dup3\n        /* \"#utility.yul\":18523:18527   */\n      0x1f\n        /* \"#utility.yul\":18515:18521   */\n      dup4\n        /* \"#utility.yul\":18511:18528   */\n      add\n        /* \"#utility.yul\":18507:18534   */\n      slt\n        /* \"#utility.yul\":18497:18619   */\n      tag_426\n      jumpi\n        /* \"#utility.yul\":18538:18617   */\n      tag_427\n      tag_174\n      jump\t// in\n    tag_427:\n        /* \"#utility.yul\":18497:18619   */\n    tag_426:\n        /* \"#utility.yul\":18655:18661   */\n      dup2\n        /* \"#utility.yul\":18642:18662   */\n      calldataload\n        /* \"#utility.yul\":18680:18774   */\n      tag_428\n        /* \"#utility.yul\":18770:18773   */\n      dup5\n        /* \"#utility.yul\":18762:18768   */\n      dup3\n        /* \"#utility.yul\":18755:18759   */\n      0x20\n        /* \"#utility.yul\":18747:18753   */\n      dup7\n        /* \"#utility.yul\":18743:18760   */\n      add\n        /* \"#utility.yul\":18680:18774   */\n      tag_220\n      jump\t// in\n    tag_428:\n        /* \"#utility.yul\":18671:18774   */\n      swap2\n      pop\n        /* \"#utility.yul\":18487:18780   */\n      pop\n        /* \"#utility.yul\":18410:18780   */\n      swap3\n      swap2\n      pop\n      pop\n      jump\t// out\n        /* \"#utility.yul\":18786:19325   */\n    tag_40:\n        /* \"#utility.yul\":18870:18876   */\n      0x00\n        /* \"#utility.yul\":18919:18921   */\n      0x20\n        /* \"#utility.yul\":18907:18916   */\n      dup3\n        /* \"#utility.yul\":18898:18905   */\n      dup5\n        /* \"#utility.yul\":18894:18917   */\n      sub\n        /* \"#utility.yul\":18890:18922   */\n      slt\n        /* \"#utility.yul\":18887:19006   */\n      iszero\n      tag_430\n      jumpi\n        /* \"#utility.yul\":18925:19004   */\n      tag_431\n      tag_166\n      jump\t// in\n    tag_431:\n        /* \"#utility.yul\":18887:19006   */\n    tag_430:\n        /* \"#utility.yul\":19073:19074   */\n      0x00\n        /* \"#utility.yul\":19062:19071   */\n      dup3\n        /* \"#utility.yul\":19058:19075   */\n      add\n        /* \"#utility.yul\":19045:19076   */\n      calldataload\n        /* \"#utility.yul\":19103:19121   */\n      0xffffffffffffffff\n        /* \"#utility.yul\":19095:19101   */\n      dup2\n        /* \"#utility.yul\":19092:19122   */\n      gt\n        /* \"#utility.yul\":19089:19206   */\n      iszero\n      tag_432\n      jumpi\n        /* \"#utility.yul\":19125:19204   */\n      tag_433\n      tag_167\n      jump\t// in\n    tag_433:\n        /* \"#utility.yul\":19089:19206   */\n    tag_432:\n        /* \"#utility.yul\":19230:19308   */\n      tag_434\n        /* \"#utility.yul\":19300:19307   */\n      dup5\n        /* \"#utility.yul\":19291:19297   */\n      dup3\n        /* \"#utility.yul\":19280:19289   */\n      dup6\n        /* \"#utility.yul\":19276:19298   */\n      add\n        /* \"#utility.yul\":19230:19308   */\n      tag_221\n      jump\t// in\n    tag_434:\n        /* \"#utility.yul\":19220:19308   */\n      swap2\n      pop\n        /* \"#utility.yul\":19016:19318   */\n      pop\n        /* \"#utility.yul\":18786:19325   */\n      swap3\n      swap2\n      pop\n      pop\n      jump\t// out\n        /* \"#utility.yul\":19331:19511   */\n    tag_222:\n        /* \"#utility.yul\":19379:19456   */\n      0x4e487b7100000000000000000000000000000000000000000000000000000000\n        /* \"#utility.yul\":19376:19377   */\n      0x00\n        /* \"#utility.yul\":19369:19457   */\n      mstore\n        /* \"#utility.yul\":19476:19480   */\n      0x22\n        /* \"#utility.yul\":19473:19474   */\n      0x04\n        /* \"#utility.yul\":19466:19481   */\n      mstore\n        /* \"#utility.yul\":19500:19504   */\n      0x24\n        /* \"#utility.yul\":19497:19498   */\n      0x00\n        /* \"#utility.yul\":19490:19505   */\n      revert\n        /* \"#utility.yul\":19517:19837   */\n    tag_61:\n        /* \"#utility.yul\":19561:19567   */\n      0x00\n        /* \"#utility.yul\":19598:19599   */\n      0x02\n        /* \"#utility.yul\":19592:19596   */\n      dup3\n        /* \"#utility.yul\":19588:19600   */\n      div\n        /* \"#utility.yul\":19578:19600   */\n      swap1\n      pop\n        /* \"#utility.yul\":19645:19646   */\n      0x01\n        /* \"#utility.yul\":19639:19643   */\n      dup3\n        /* \"#utility.yul\":19635:19647   */\n      and\n        /* \"#utility.yul\":19666:19684   */\n      dup1\n        /* \"#utility.yul\":19656:19737   */\n      tag_437\n      jumpi\n        /* \"#utility.yul\":19722:19726   */\n      0x7f\n        /* \"#utility.yul\":19714:19720   */\n      dup3\n        /* \"#utility.yul\":19710:19727   */\n      and\n        /* \"#utility.yul\":19700:19727   */\n      swap2\n      pop\n        /* \"#utility.yul\":19656:19737   */\n    tag_437:\n        /* \"#utility.yul\":19784:19786   */\n      0x20\n        /* \"#utility.yul\":19776:19782   */\n      dup3\n        /* \"#utility.yul\":19773:19787   */\n      lt\n        /* \"#utility.yul\":19753:19771   */\n      dup2\n        /* \"#utility.yul\":19750:19788   */\n      sub\n        /* \"#utility.yul\":19747:19831   */\n      tag_438\n      jumpi\n        /* \"#utility.yul\":19803:19821   */\n      tag_439\n      tag_222\n      jump\t// in\n    tag_439:\n        /* \"#utility.yul\":19747:19831   */\n    tag_438:\n        /* \"#utility.yul\":19568:19837   */\n      pop\n        /* \"#utility.yul\":19517:19837   */\n      swap2\n      swap1\n      pop\n      jump\t// out\n        /* \"#utility.yul\":19843:19984   */\n    tag_223:\n        /* \"#utility.yul\":19892:19896   */\n      0x00\n        /* \"#utility.yul\":19915:19918   */\n      dup2\n        /* \"#utility.yul\":19907:19918   */\n      swap1\n      pop\n        /* \"#utility.yul\":19938:19941   */\n      dup2\n        /* \"#utility.yul\":19935:19936   */\n      0x00\n        /* \"#utility.yul\":19928:19942   */\n      mstore\n        /* \"#utility.yul\":19972:19976   */\n      0x20\n        /* \"#utility.yul\":19969:19970   */\n      0x00\n        /* \"#utility.yul\":19959:19977   */\n      keccak256\n        /* \"#utility.yul\":19951:19977   */\n      swap1\n      pop\n        /* \"#utility.yul\":19843:19984   */\n      swap2\n      swap1\n      pop\n      jump\t// out\n        /* \"#utility.yul\":19990:20083   */\n    tag_224:\n        /* \"#utility.yul\":20027:20033   */\n      0x00\n        /* \"#utility.yul\":20074:20076   */\n      0x20\n        /* \"#utility.yul\":20069:20071   */\n      0x1f\n        /* \"#utility.yul\":20062:20067   */\n      dup4\n        /* \"#utility.yul\":20058:20072   */\n      add\n        /* \"#utility.yul\":20054:20077   */\n      div\n        /* \"#utility.yul\":20044:20077   */\n      swap1\n      pop\n        /* \"#utility.yul\":19990:20083   */\n      swap2\n      swap1\n      pop\n      jump\t// out\n        /* \"#utility.yul\":20089:20196   */\n    tag_225:\n        /* \"#utility.yul\":20133:20141   */\n      0x00\n        /* \"#utility.yul\":20183:20188   */\n      dup3\n        /* \"#utility.yul\":20177:20181   */\n      dup3\n        /* \"#utility.yul\":20173:20189   */\n      shl\n        /* \"#utility.yul\":20152:20189   */\n      swap1\n      pop\n        /* \"#utility.yul\":20089:20196   */\n      swap3\n      swap2\n      pop\n      pop\n      jump\t// out\n        /* \"#utility.yul\":20202:20595   */\n    tag_226:\n        /* \"#utility.yul\":20271:20277   */\n      0x00\n        /* \"#utility.yul\":20321:20322   */\n      0x08\n        /* \"#utility.yul\":20309:20319   */\n      dup4\n        /* \"#utility.yul\":20305:20323   */\n      mul\n        /* \"#utility.yul\":20344:20441   */\n      tag_444\n        /* \"#utility.yul\":20374:20440   */\n      0xffffffffffffffffffffffffffffffffffffffffffffffffffffffffffffffff\n        /* \"#utility.yul\":20363:20372   */\n      dup3\n        /* \"#utility.yul\":20344:20441   */\n      tag_225\n      jump\t// in\n    tag_444:\n        /* \"#utility.yul\":20462:20501   */\n      tag_445\n        /* \"#utility.yul\":20492:20500   */\n      dup7\n        /* \"#utility.yul\":20481:20490   */\n      dup4\n        /* \"#utility.yul\":20462:20501   */\n      tag_225\n      jump\t// in\n    tag_445:\n        /* \"#utility.yul\":20450:20501   */\n      swap6\n      pop\n        /* \"#utility.yul\":20534:20538   */\n      dup1\n        /* \"#utility.yul\":20530:20539   */\n      not\n        /* \"#utility.yul\":20523:20528   */\n      dup5\n        /* \"#utility.yul\":20519:20540   */\n      and\n        /* \"#utility.yul\":20510:20540   */\n      swap4\n      pop\n        /* \"#utility.yul\":20583:20587   */\n      dup1\n        /* \"#utility.yul\":20573:20581   */\n      dup7\n        /* \"#utility.yul\":20569:20588   */\n      and\n        /* \"#utility.yul\":20562:20567   */\n      dup5\n        /* \"#utility.yul\":20559:20589   */\n      or\n        /* \"#utility.yul\":20549:20589   */\n      swap3\n      pop\n        /* \"#utility.yul\":20278:20595   */\n      pop\n      pop\n        /* \"#utility.yul\":20202:20595   */\n      swap4\n      swap3\n      pop\n      pop\n      pop\n      jump\t// out\n        /* \"#utility.yul\":20601:20661   */\n    tag_227:\n        /* \"#utility.yul\":20629:20632   */\n      0x00\n        /* \"#utility.yul\":20650:20655   */\n      dup2\n        /* \"#utility.yul\":20643:20655   */\n      swap1\n      pop\n        /* \"#utility.yul\":20601:20661   */\n      swap2\n      swap1\n      pop\n      jump\t// out\n        /* \"#utility.yul\":20667:20809   */\n    tag_228:\n        /* \"#utility.yul\":20717:20726   */\n      0x00\n        /* \"#utility.yul\":20750:20803   */\n      tag_448\n        /* \"#utility.yul\":20768:20802   */\n      tag_449\n        /* \"#utility.yul\":20777:20801   */\n      tag_450\n        /* \"#utility.yul\":20795:20800   */\n      dup5\n        /* \"#utility.yul\":20777:20801   */\n      tag_168\n      jump\t// in\n    tag_450:\n        /* \"#utility.yul\":20768:20802   */\n      tag_227\n      jump\t// in\n    tag_449:\n        /* \"#utility.yul\":20750:20803   */\n      tag_168\n      jump\t// in\n    tag_448:\n        /* \"#utility.yul\":20737:20803   */\n      swap1\n      pop\n        /* \"#utility.yul\":20667:20809   */\n      swap2\n      swap1\n      pop\n      jump\t// out\n        /* \"#utility.yul\":20815:20890   */\n    tag_229:\n        /* \"#utility.yul\":20858:20861   */\n      0x00\n        /* \"#utility.yul\":20879:20884   */\n      dup2\n        /* \"#utility.yul\":20872:20884   */\n      swap1\n      pop\n        /* \"#utility.yul\":20815:20890   */\n      swap2\n      swap1\n      pop\n      jump\t// out\n        /* \"#utility.yul\":20896:21165   */\n    tag_230:\n        /* \"#utility.yul\":21006:21045   */\n      tag_453\n        /* \"#utility.yul\":21037:21044   */\n      dup4\n        /* \"#utility.yul\":21006:21045   */\n      tag_228\n      jump\t// in\n    tag_453:\n        /* \"#utility.yul\":21067:21158   */\n      tag_454\n        /* \"#utility.yul\":21116:21157   */\n      tag_455\n        /* \"#utility.yul\":21140:21156   */\n      dup3\n        /* \"#utility.yul\":21116:21157   */\n      tag_229\n      jump\t// in\n    tag_455:\n        /* \"#utility.yul\":21108:21114   */\n      dup5\n        /* \"#utility.yul\":21101:21105   */\n      dup5\n        /* \"#utility.yul\":21095:21106   */\n      sload\n        /* \"#utility.yul\":21067:21158   */\n      tag_226\n      jump\t// in\n    tag_454:\n        /* \"#utility.yul\":21061:21065   */\n      dup3\n        /* \"#utility.yul\":21054:21159   */\n      sstore\n        /* \"#utility.yul\":20972:21165   */\n      pop\n        /* \"#utility.yul\":20896:21165   */\n      pop\n      pop\n      pop\n      jump\t// out\n        /* \"#utility.yul\":21171:21244   */\n    tag_231:\n        /* \"#utility.yul\":21216:21219   */\n      0x00\n        /* \"#utility.yul\":21171:21244   */\n      swap1\n      jump\t// out\n        /* \"#utility.yul\":21250:21439   */\n    tag_232:\n        /* \"#utility.yul\":21327:21359   */\n      tag_458\n      tag_231\n      jump\t// in\n    tag_458:\n        /* \"#utility.yul\":21368:21433   */\n      tag_459\n        /* \"#utility.yul\":21426:21432   */\n      dup2\n        /* \"#utility.yul\":21418:21424   */\n      dup5\n        /* \"#utility.yul\":21412:21416   */\n      dup5\n        /* \"#utility.yul\":21368:21433   */\n      tag_230\n      jump\t// in\n    tag_459:\n        /* \"#utility.yul\":21303:21439   */\n      pop\n        /* \"#utility.yul\":21250:21439   */\n      pop\n      pop\n      jump\t// out\n        /* \"#utility.yul\":21445:21631   */\n    tag_233:\n        /* \"#utility.yul\":21505:21625   */\n    tag_461:\n        /* \"#utility.yul\":21522:21525   */\n      dup2\n        /* \"#utility.yul\":21515:21520   */\n      dup2\n        /* \"#utility.yul\":21512:21526   */\n      lt\n        /* \"#utility.yul\":21505:21625   */\n      iszero\n      tag_463\n      jumpi\n        /* \"#utility.yul\":21576:21615   */\n      tag_464\n        /* \"#utility.yul\":21613:21614   */\n      0x00\n        /* \"#utility.yul\":21606:21611   */\n      dup3\n        /* \"#utility.yul\":21576:21615   */\n      tag_232\n      jump\t// in\n    tag_464:\n        /* \"#utility.yul\":21549:21550   */\n      0x01\n        /* \"#utility.yul\":21542:21547   */\n      dup2\n        /* \"#utility.yul\":21538:21551   */\n      add\n        /* \"#utility.yul\":21529:21551   */\n      swap1\n      pop\n        /* \"#utility.yul\":21505:21625   */\n      jump(tag_461)\n    tag_463:\n        /* \"#utility.yul\":21445:21631   */\n      pop\n      pop\n      jump\t// out\n        /* \"#utility.yul\":21637:22180   */\n    tag_234:\n        /* \"#utility.yul\":21738:21740   */\n      0x1f\n        /* \"#utility.yul\":21733:21736   */\n      dup3\n        /* \"#utility.yul\":21730:21741   */\n      gt\n        /* \"#utility.yul\":21727:22173   */\n      iszero\n      tag_466\n      jumpi\n        /* \"#utility.yul\":21772:21810   */\n      tag_467\n        /* \"#utility.yul\":21804:21809   */\n      dup2\n        /* \"#utility.yul\":21772:21810   */\n      tag_223\n      jump\t// in\n    tag_467:\n        /* \"#utility.yul\":21856:21885   */\n      tag_468\n        /* \"#utility.yul\":21874:21884   */\n      dup5\n        /* \"#utility.yul\":21856:21885   */\n      tag_224\n      jump\t// in\n    tag_468:\n        /* \"#utility.yul\":21846:21854   */\n      dup2\n        /* \"#utility.yul\":21842:21886   */\n      add\n        /* \"#utility.yul\":22039:22041   */\n      0x20\n        /* \"#utility.yul\":22027:22037   */\n      dup6\n        /* \"#utility.yul\":22024:22042   */\n      lt\n        /* \"#utility.yul\":22021:22070   */\n      iszero\n      tag_469\n      jumpi\n        /* \"#utility.yul\":22060:22068   */\n      dup2\n        /* \"#utility.yul\":22045:22068   */\n      swap1\n      pop\n        /* \"#utility.yul\":22021:22070   */\n    tag_469:\n        /* \"#utility.yul\":22083:22163   */\n      tag_470\n        /* \"#utility.yul\":22139:22161   */\n      tag_471\n        /* \"#utility.yul\":22157:22160   */\n      dup6\n        /* \"#utility.yul\":22139:22161   */\n      tag_224\n      jump\t// in\n    tag_471:\n        /* \"#utility.yul\":22129:22137   */\n      dup4\n        /* \"#utility.yul\":22125:22162   */\n      add\n        /* \"#utility.yul\":22112:22123   */\n      dup3\n        /* \"#utility.yul\":22083:22163   */\n      tag_233\n      jump\t// in\n    tag_470:\n        /* \"#utility.yul\":21742:22173   */\n      pop\n      pop\n        /* \"#utility.yul\":21727:22173   */\n    tag_466:\n        /* \"#utility.yul\":21637:22180   */\n      pop\n      pop\n      pop\n      jump\t// out\n        /* \"#utility.yul\":22186:22303   */\n    tag_235:\n        /* \"#utility.yul\":22240:22248   */\n      0x00\n        /* \"#utility.yul\":22290:22295   */\n      dup3\n        /* \"#utility.yul\":22284:22288   */\n      dup3\n        /* \"#utility.yul\":22280:22296   */\n      shr\n        /* \"#utility.yul\":22259:22296   */\n      swap1\n      pop\n        /* \"#utility.yul\":22186:22303   */\n      swap3\n      swap2\n      pop\n      pop\n      jump\t// out\n        /* \"#utility.yul\":22309:22478   */\n    tag_236:\n        /* \"#utility.yul\":22353:22359   */\n      0x00\n        /* \"#utility.yul\":22386:22437   */\n      tag_474\n        /* \"#utility.yul\":22434:22435   */\n      0x00\n        /* \"#utility.yul\":22430:22436   */\n      not\n        /* \"#utility.yul\":22422:22427   */\n      dup5\n        /* \"#utility.yul\":22419:22420   */\n      0x08\n        /* \"#utility.yul\":22415:22428   */\n      mul\n        /* \"#utility.yul\":22386:22437   */\n      tag_235\n      jump\t// in\n    tag_474:\n        /* \"#utility.yul\":22382:22438   */\n      not\n        /* \"#utility.yul\":22467:22471   */\n      dup1\n        /* \"#utility.yul\":22461:22465   */\n      dup4\n        /* \"#utility.yul\":22457:22472   */\n      and\n        /* \"#utility.yul\":22447:22472   */\n      swap2\n      pop\n        /* \"#utility.yul\":22360:22478   */\n      pop\n        /* \"#utility.yul\":22309:22478   */\n      swap3\n      swap2\n      pop\n      pop\n      jump\t// out\n        /* \"#utility.yul\":22483:22778   */\n    tag_237:\n        /* \"#utility.yul\":22559:22563   */\n      0x00\n        /* \"#utility.yul\":22705:22734   */\n      tag_476\n        /* \"#utility.yul\":22730:22733   */\n      dup4\n        /* \"#utility.yul\":22724:22728   */\n      dup4\n        /* \"#utility.yul\":22705:22734   */\n      tag_236\n      jump\t// in\n    tag_476:\n        /* \"#utility.yul\":22697:22734   */\n      swap2\n      pop\n        /* \"#utility.yul\":22767:22770   */\n      dup3\n        /* \"#utility.yul\":22764:22765   */\n      0x02\n        /* \"#utility.yul\":22760:22771   */\n      mul\n        /* \"#utility.yul\":22754:22758   */\n      dup3\n        /* \"#utility.yul\":22751:22772   */\n      or\n        /* \"#utility.yul\":22743:22772   */\n      swap1\n      pop\n        /* \"#utility.yul\":22483:22778   */\n      swap3\n      swap2\n      pop\n      pop\n      jump\t// out\n        /* \"#utility.yul\":22783:24178   */\n    tag_54:\n        /* \"#utility.yul\":22900:22937   */\n      tag_478\n        /* \"#utility.yul\":22933:22936   */\n      dup3\n        /* \"#utility.yul\":22900:22937   */\n      tag_190\n      jump\t// in\n    tag_478:\n        /* \"#utility.yul\":23002:23020   */\n      0xffffffffffffffff\n        /* \"#utility.yul\":22994:23000   */\n      dup2\n        /* \"#utility.yul\":22991:23021   */\n      gt\n        /* \"#utility.yul\":22988:23044   */\n      iszero\n      tag_479\n      jumpi\n        /* \"#utility.yul\":23024:23042   */\n      tag_480\n      tag_102\n      jump\t// in\n    tag_480:\n        /* \"#utility.yul\":22988:23044   */\n    tag_479:\n        /* \"#utility.yul\":23068:23106   */\n      tag_481\n        /* \"#utility.yul\":23100:23104   */\n      dup3\n        /* \"#utility.yul\":23094:23105   */\n      sload\n        /* \"#utility.yul\":23068:23106   */\n      tag_61\n      jump\t// in\n    tag_481:\n        /* \"#utility.yul\":23153:23220   */\n      tag_482\n        /* \"#utility.yul\":23213:23219   */\n      dup3\n        /* \"#utility.yul\":23205:23211   */\n      dup3\n        /* \"#utility.yul\":23199:23203   */\n      dup6\n        /* \"#utility.yul\":23153:23220   */\n      tag_234\n      jump\t// in\n    tag_482:\n        /* \"#utility.yul\":23247:23248   */\n      0x00\n        /* \"#utility.yul\":23271:23275   */\n      0x20\n        /* \"#utility.yul\":23258:23275   */\n      swap1\n      pop\n        /* \"#utility.yul\":23303:23305   */\n      0x1f\n        /* \"#utility.yul\":23295:23301   */\n      dup4\n        /* \"#utility.yul\":23292:23306   */\n      gt\n        /* \"#utility.yul\":23320:23321   */\n      0x01\n        /* \"#utility.yul\":23315:23933   */\n      dup2\n      eq\n      tag_484\n      jumpi\n        /* \"#utility.yul\":23977:23978   */\n      0x00\n        /* \"#utility.yul\":23994:24000   */\n      dup5\n        /* \"#utility.yul\":23991:24068   */\n      iszero\n      tag_485\n      jumpi\n        /* \"#utility.yul\":24043:24052   */\n      dup3\n        /* \"#utility.yul\":24038:24041   */\n      dup8\n        /* \"#utility.yul\":24034:24053   */\n      add\n        /* \"#utility.yul\":24028:24054   */\n      mload\n        /* \"#utility.yul\":24019:24054   */\n      swap1\n      pop\n        /* \"#utility.yul\":23991:24068   */\n    tag_485:\n        /* \"#utility.yul\":24094:24161   */\n      tag_486\n        /* \"#utility.yul\":24154:24160   */\n      dup6\n        /* \"#utility.yul\":24147:24152   */\n      dup3\n        /* \"#utility.yul\":24094:24161   */\n      tag_237\n      jump\t// in\n    tag_486:\n        /* \"#utility.yul\":24088:24092   */\n      dup7\n        /* \"#utility.yul\":24081:24162   */\n      sstore\n        /* \"#utility.yul\":23950:24172   */\n      pop\n        /* \"#utility.yul\":23285:24172   */\n      jump(tag_483)\n        /* \"#utility.yul\":23315:23933   */\n    tag_484:\n        /* \"#utility.yul\":23367:23371   */\n      0x1f\n        /* \"#utility.yul\":23363:23372   */\n      not\n        /* \"#utility.yul\":23355:23361   */\n      dup5\n        /* \"#utility.yul\":23351:23373   */\n      and\n        /* \"#utility.yul\":23401:23438   */\n      tag_487\n        /* \"#utility.yul\":23433:23437   */\n      dup7\n        /* \"#utility.yul\":23401:23438   */\n      tag_223\n      jump\t// in\n    tag_487:\n        /* \"#utility.yul\":23460:23461   */\n      0x00\n        /* \"#utility.yul\":23474:23682   */\n    tag_488:\n        /* \"#utility.yul\":23488:23495   */\n      dup3\n        /* \"#utility.yul\":23485:23486   */\n      dup2\n        /* \"#utility.yul\":23482:23496   */\n      lt\n        /* \"#utility.yul\":23474:23682   */\n      iszero\n      tag_490\n      jumpi\n        /* \"#utility.yul\":23567:23576   */\n      dup5\n        /* \"#utility.yul\":23562:23565   */\n      dup10\n        /* \"#utility.yul\":23558:23577   */\n      add\n        /* \"#utility.yul\":23552:23578   */\n      mload\n        /* \"#utility.yul\":23544:23550   */\n      dup3\n        /* \"#utility.yul\":23537:23579   */\n      sstore\n        /* \"#utility.yul\":23618:23619   */\n      0x01\n        /* \"#utility.yul\":23610:23616   */\n      dup3\n        /* \"#utility.yul\":23606:23620   */\n      add\n        /* \"#utility.yul\":23596:23620   */\n      swap2\n      pop\n        /* \"#utility.yul\":23665:23667   */\n      0x20\n        /* \"#utility.yul\":23654:23663   */\n      dup6\n        /* \"#utility.yul\":23650:23668   */\n      add\n        /* \"#utility.yul\":23637:23668   */\n      swap5\n      pop\n        /* \"#utility.yul\":23511:23515   */\n      0x20\n        /* \"#utility.yul\":23508:23509   */\n      dup2\n        /* \"#utility.yul\":23504:23516   */\n      add\n        /* \"#utility.yul\":23499:23516   */\n      swap1\n      pop\n        /* \"#utility.yul\":23474:23682   */\n      jump(tag_488)\n    tag_490:\n        /* \"#utility.yul\":23710:23716   */\n      dup7\n        /* \"#utility.yul\":23701:23708   */\n      dup4\n        /* \"#utility.yul\":23698:23717   */\n      lt\n        /* \"#utility.yul\":23695:23874   */\n      iszero\n      tag_491\n      jumpi\n        /* \"#utility.yul\":23768:23777   */\n      dup5\n        /* \"#utility.yul\":23763:23766   */\n      dup10\n        /* \"#utility.yul\":23759:23778   */\n      add\n        /* \"#utility.yul\":23753:23779   */\n      mload\n        /* \"#utility.yul\":23811:23859   */\n      tag_492\n        /* \"#utility.yul\":23853:23857   */\n      0x1f\n        /* \"#utility.yul\":23845:23851   */\n      dup10\n        /* \"#utility.yul\":23841:23858   */\n      and\n        /* \"#utility.yul\":23830:23839   */\n      dup3\n        /* \"#utility.yul\":23811:23859   */\n      tag_236\n      jump\t// in\n    tag_492:\n        /* \"#utility.yul\":23803:23809   */\n      dup4\n        /* \"#utility.yul\":23796:23860   */\n      sstore\n        /* \"#utility.yul\":23718:23874   */\n      pop\n        /* \"#utility.yul\":23695:23874   */\n    tag_491:\n        /* \"#utility.yul\":23920:23921   */\n      0x01\n        /* \"#utility.yul\":23916:23917   */\n      0x02\n        /* \"#utility.yul\":23908:23914   */\n      dup9\n        /* \"#utility.yul\":23904:23918   */\n      mul\n        /* \"#utility.yul\":23900:23922   */\n      add\n        /* \"#utility.yul\":23894:23898   */\n      dup9\n        /* \"#utility.yul\":23887:23923   */\n      sstore\n        /* \"#utility.yul\":23322:23933   */\n      pop\n      pop\n      pop\n        /* \"#utility.yul\":23285:24172   */\n    tag_483:\n      pop\n        /* \"#utility.yul\":22875:24178   */\n      pop\n      pop\n      pop\n        /* \"#utility.yul\":22783:24178   */\n      pop\n      pop\n      jump\t// out\n        /* \"#utility.yul\":24184:24364   */\n    tag_112:\n        /* \"#utility.yul\":24232:24309   */\n      0x4e487b7100000000000000000000000000000000000000000000000000000000\n        /* \"#utility.yul\":24229:24230   */\n      0x00\n        /* \"#utility.yul\":24222:24310   */\n      mstore\n        /* \"#utility.yul\":24329:24333   */\n      0x32\n        /* \"#utility.yul\":24326:24327   */\n      0x04\n        /* \"#utility.yul\":24319:24334   */\n      mstore\n        /* \"#utility.yul\":24353:24357   */\n      0x24\n        /* \"#utility.yul\":24350:24351   */\n      0x00\n        /* \"#utility.yul\":24343:24358   */\n      revert\n        /* \"#utility.yul\":24370:24550   */\n    tag_238:\n        /* \"#utility.yul\":24418:24495   */\n      0x4e487b7100000000000000000000000000000000000000000000000000000000\n        /* \"#utility.yul\":24415:24416   */\n      0x00\n        /* \"#utility.yul\":24408:24496   */\n      mstore\n        /* \"#utility.yul\":24515:24519   */\n      0x11\n        /* \"#utility.yul\":24512:24513   */\n      0x04\n        /* \"#utility.yul\":24505:24520   */\n      mstore\n        /* \"#utility.yul\":24539:24543   */\n      0x24\n        /* \"#utility.yul\":24536:24537   */\n      0x00\n        /* \"#utility.yul\":24529:24544   */\n      revert\n        /* \"#utility.yul\":24556:24747   */\n    tag_117:\n        /* \"#utility.yul\":24596:24599   */\n      0x00\n        /* \"#utility.yul\":24615:24635   */\n      tag_496\n        /* \"#utility.yul\":24633:24634   */\n      dup3\n        /* \"#utility.yul\":24615:24635   */\n      tag_168\n      jump\t// in\n    tag_496:\n        /* \"#utility.yul\":24610:24635   */\n      swap2\n      pop\n        /* \"#utility.yul\":24649:24669   */\n      tag_497\n        /* \"#utility.yul\":24667:24668   */\n      dup4\n        /* \"#utility.yul\":24649:24669   */\n      tag_168\n      jump\t// in\n    tag_497:\n        /* \"#utility.yul\":24644:24669   */\n      swap3\n      pop\n        /* \"#utility.yul\":24692:24693   */\n      dup3\n        /* \"#utility.yul\":24689:24690   */\n      dup3\n        /* \"#utility.yul\":24685:24694   */\n      add\n        /* \"#utility.yul\":24678:24694   */\n      swap1\n      pop\n        /* \"#utility.yul\":24713:24716   */\n      dup1\n        /* \"#utility.yul\":24710:24711   */\n      dup3\n        /* \"#utility.yul\":24707:24717   */\n      gt\n        /* \"#utility.yul\":24704:24740   */\n      iszero\n      tag_498\n      jumpi\n        /* \"#utility.yul\":24720:24738   */\n      tag_499\n      tag_238\n      jump\t// in\n    tag_499:\n        /* \"#utility.yul\":24704:24740   */\n    tag_498:\n        /* \"#utility.yul\":24556:24747   */\n      swap3\n      swap2\n      pop\n      pop\n      jump\t// out\n        /* \"#utility.yul\":24753:24921   */\n    tag_239:\n        /* \"#utility.yul\":24893:24913   */\n      0x496e73756666696369656e742066756e64730000000000000000000000000000\n        /* \"#utility.yul\":24889:24890   */\n      0x00\n        /* \"#utility.yul\":24881:24887   */\n      dup3\n        /* \"#utility.yul\":24877:24891   */\n      add\n        /* \"#utility.yul\":24870:24914   */\n      mstore\n        /* \"#utility.yul\":24753:24921   */\n      pop\n      jump\t// out\n        /* \"#utility.yul\":24927:25293   */\n    tag_240:\n        /* \"#utility.yul\":25069:25072   */\n      0x00\n        /* \"#utility.yul\":25090:25157   */\n      tag_502\n        /* \"#utility.yul\":25154:25156   */\n      0x12\n        /* \"#utility.yul\":25149:25152   */\n      dup4\n        /* \"#utility.yul\":25090:25157   */\n      tag_191\n      jump\t// in\n    tag_502:\n        /* \"#utility.yul\":25083:25157   */\n      swap2\n      pop\n        /* \"#utility.yul\":25166:25259   */\n      tag_503\n        /* \"#utility.yul\":25255:25258   */\n      dup3\n        /* \"#utility.yul\":25166:25259   */\n      tag_239\n      jump\t// in\n    tag_503:\n        /* \"#utility.yul\":25284:25286   */\n      0x20\n        /* \"#utility.yul\":25279:25282   */\n      dup3\n        /* \"#utility.yul\":25275:25287   */\n      add\n        /* \"#utility.yul\":25268:25287   */\n      swap1\n      pop\n        /* \"#utility.yul\":24927:25293   */\n      swap2\n      swap1\n      pop\n      jump\t// out\n        /* \"#utility.yul\":25299:25718   */\n    tag_140:\n        /* \"#utility.yul\":25465:25469   */\n      0x00\n        /* \"#utility.yul\":25503:25505   */\n      0x20\n        /* \"#utility.yul\":25492:25501   */\n      dup3\n        /* \"#utility.yul\":25488:25506   */\n      add\n        /* \"#utility.yul\":25480:25506   */\n      swap1\n      pop\n        /* \"#utility.yul\":25552:25561   */\n      dup2\n        /* \"#utility.yul\":25546:25550   */\n      dup2\n        /* \"#utility.yul\":25542:25562   */\n      sub\n        /* \"#utility.yul\":25538:25539   */\n      0x00\n        /* \"#utility.yul\":25527:25536   */\n      dup4\n        /* \"#utility.yul\":25523:25540   */\n      add\n        /* \"#utility.yul\":25516:25563   */\n      mstore\n        /* \"#utility.yul\":25580:25711   */\n      tag_505\n        /* \"#utility.yul\":25706:25710   */\n      dup2\n        /* \"#utility.yul\":25580:25711   */\n      tag_240\n      jump\t// in\n    tag_505:\n        /* \"#utility.yul\":25572:25711   */\n      swap1\n      pop\n        /* \"#utility.yul\":25299:25718   */\n      swap2\n      swap1\n      pop\n      jump\t// out\n\n    auxdata: 0xa2646970667358221220ce5d5a67abb9d7315b438d5149db9c757b68941891005a2289e57ebb5f8ef14764736f6c634300081a0033\n}\n",
				"bytecode": {
					"linkReferences": {},
					"object": "6080604052348015600e575f80fd5b5061197f8061001c5f395ff3fe608060405260043610610054575f3560e01c80630f7ee1ec1461005857806317c7dbbf146100945780636b67a1b2146100bc57806399374642146100fb578063a112939e14610137578063f27e9b5f14610161575b5f80fd5b348015610063575f80fd5b5061007e60048036038101906100799190610cb8565b61017d565b60405161008b9190610d22565b60405180910390f35b34801561009f575f80fd5b506100ba60048036038101906100b59190610f8c565b6101c5565b005b3480156100c7575f80fd5b506100e260048036038101906100dd9190610cb8565b6102f4565b6040516100f294939291906110d5565b60405180910390f35b348015610106575f80fd5b50610121600480360381019061011c9190611150565b61043a565b60405161012e91906111ee565b60405180910390f35b348015610142575f80fd5b5061014b610457565b6040516101589190611464565b60405180910390f35b61017b60048036038101906101769190611544565b6106b9565b005b6001818154811061018c575f80fd5b905f5260205f2090600202015f91509050805f015f9054906101000a900473ffffffffffffffffffffffffffffffffffffffff16905081565b6002808111156101d8576101d761117b565b5b60025f3373ffffffffffffffffffffffffffffffffffffffff1673ffffffffffffffffffffffffffffffffffffffff1681526020019081526020015f205f9054906101000a900460ff1660028111156102345761023361117b565b5b1461023d575f80fd5b5f6040518060a001604052808781526020018681526020018581526020018481526020018381525090505f81908060018154018082558091505060019003905f5260205f2090600502015f909190919091505f820151815f0190816102a29190611785565b5060208201518160010190816102b89190611785565b5060408201518160020190805190602001906102d5929190610b2a565b5060608201518160030155608082015181600401555050505050505050565b5f8181548110610302575f80fd5b905f5260205f2090600502015f91509050805f018054610321906115b8565b80601f016020809104026020016040519081016040528092919081815260200182805461034d906115b8565b80156103985780601f1061036f57610100808354040283529160200191610398565b820191905f5260205f20905b81548152906001019060200180831161037b57829003601f168201915b5050505050908060010180546103ad906115b8565b80601f01602080910402602001604051908101604052809291908181526020018280546103d9906115b8565b80156104245780601f106103fb57610100808354040283529160200191610424565b820191905f5260205f20905b81548152906001019060200180831161040757829003601f168201915b5050505050908060030154908060040154905084565b6002602052805f5260405f205f915054906101000a900460ff1681565b60605f805480602002602001604051908101604052809291908181526020015f905b828210156106b0578382905f5260205f2090600502016040518060a00160405290815f820180546104a9906115b8565b80601f01602080910402602001604051908101604052809291908181526020018280546104d5906115b8565b80156105205780601f106104f757610100808354040283529160200191610520565b820191905f5260205f20905b81548152906001019060200180831161050357829003601f168201915b50505050508152602001600182018054610539906115b8565b80601f0160208091040260200160405190810160405280929190818152602001828054610565906115b8565b80156105b05780601f10610587576101008083540402835291602001916105b0565b820191905f5260205f20905b81548152906001019060200180831161059357829003601f168201915b5050505050815260200160028201805480602002602001604051908101604052809291908181526020015f905b82821015610685578382905f5260205f200180546105fa906115b8565b80601f0160208091040260200160405190810160405280929190818152602001828054610626906115b8565b80156106715780601f1061064857610100808354040283529160200191610671565b820191905f5260205f20905b81548152906001019060200180831161065457829003601f168201915b5050505050815260200190600101906105dd565b5050505081526020016003820154815260200160048201548152505081526020019060010190610479565b50505050905090565b600160028111156106cd576106cc61117b565b5b60025f3373ffffffffffffffffffffffffffffffffffffffff1673ffffffffffffffffffffffffffffffffffffffff1681526020019081526020015f205f9054906101000a900460ff1660028111156107295761072861117b565b5b14610732575f80fd5b5f815167ffffffffffffffff81111561074e5761074d610d53565b5b60405190808252806020026020018201604052801561078757816020015b610774610b81565b81526020019060019003908161076c5790505b5090505f805f90505b8351811015610a26575f808583815181106107ae576107ad611854565b5b6020026020010151815481106107c7576107c6611854565b5b905f5260205f20906005020190508060030154836107e591906118ae565b9250806040518060a00160405290815f82018054610802906115b8565b80601f016020809104026020016040519081016040528092919081815260200182805461082e906115b8565b80156108795780601f1061085057610100808354040283529160200191610879565b820191905f5260205f20905b81548152906001019060200180831161085c57829003601f168201915b50505050508152602001600182018054610892906115b8565b80601f01602080910402602001604051908101604052809291908181526020018280546108be906115b8565b80156109095780601f106108e057610100808354040283529160200191610909565b820191905f5260205f20905b8154815290600101906020018083116108ec57829003601f168201915b5050505050815260200160028201805480602002602001604051908101604052809291908181526020015f905b828210156109de578382905f5260205f20018054610953906115b8565b80601f016020809104026020016040519081016040528092919081815260200182805461097f906115b8565b80156109ca5780601f106109a1576101008083540402835291602001916109ca565b820191905f5260205f20905b8154815290600101906020018083116109ad57829003601f168201915b505050505081526020019060010190610936565b50505050815260200160038201548152602001600482015481525050848381518110610a0d57610a0c611854565b5b6020026020010181905250508080600101915050610790565b5080341015610a6a576040517f08c379a0000000000000000000000000000000000000000000000000000000008152600401610a619061192b565b60405180910390fd5b5f60405180604001604052803373ffffffffffffffffffffffffffffffffffffffff168152602001858152509050600181908060018154018082558091505060019003905f5260205f2090600202015f909190919091505f820151815f015f6101000a81548173ffffffffffffffffffffffffffffffffffffffff021916908373ffffffffffffffffffffffffffffffffffffffff1602179055506020820151816001019080519060200190610b21929190610bae565b50505050505050565b828054828255905f5260205f20908101928215610b70579160200282015b82811115610b6f578251829081610b5f9190611785565b5091602001919060010190610b48565b5b509050610b7d9190610bf9565b5090565b6040518060a001604052806060815260200160608152602001606081526020015f81526020015f81525090565b828054828255905f5260205f20908101928215610be8579160200282015b82811115610be7578251825591602001919060010190610bcc565b5b509050610bf59190610c1c565b5090565b5b80821115610c18575f8181610c0f9190610c37565b50600101610bfa565b5090565b5b80821115610c33575f815f905550600101610c1d565b5090565b508054610c43906115b8565b5f825580601f10610c545750610c71565b601f0160209004905f5260205f2090810190610c709190610c1c565b5b50565b5f604051905090565b5f80fd5b5f80fd5b5f819050919050565b610c9781610c85565b8114610ca1575f80fd5b50565b5f81359050610cb281610c8e565b92915050565b5f60208284031215610ccd57610ccc610c7d565b5b5f610cda84828501610ca4565b91505092915050565b5f73ffffffffffffffffffffffffffffffffffffffff82169050919050565b5f610d0c82610ce3565b9050919050565b610d1c81610d02565b82525050565b5f602082019050610d355f830184610d13565b92915050565b5f80fd5b5f80fd5b5f601f19601f8301169050919050565b7f4e487b71000000000000000000000000000000000000000000000000000000005f52604160045260245ffd5b610d8982610d43565b810181811067ffffffffffffffff82111715610da857610da7610d53565b5b80604052505050565b5f610dba610c74565b9050610dc68282610d80565b919050565b5f67ffffffffffffffff821115610de557610de4610d53565b5b610dee82610d43565b9050602081019050919050565b828183375f83830152505050565b5f610e1b610e1684610dcb565b610db1565b905082815260208101848484011115610e3757610e36610d3f565b5b610e42848285610dfb565b509392505050565b5f82601f830112610e5e57610e5d610d3b565b5b8135610e6e848260208601610e09565b91505092915050565b5f67ffffffffffffffff821115610e9157610e90610d53565b5b602082029050602081019050919050565b5f80fd5b5f610eb8610eb384610e77565b610db1565b90508083825260208201905060208402830185811115610edb57610eda610ea2565b5b835b81811015610f2257803567ffffffffffffffff811115610f0057610eff610d3b565b5b808601610f0d8982610e4a565b85526020850194505050602081019050610edd565b5050509392505050565b5f82601f830112610f4057610f3f610d3b565b5b8135610f50848260208601610ea6565b91505092915050565b5f819050919050565b610f6b81610f59565b8114610f75575f80fd5b50565b5f81359050610f8681610f62565b92915050565b5f805f805f60a08688031215610fa557610fa4610c7d565b5b5f86013567ffffffffffffffff811115610fc257610fc1610c81565b5b610fce88828901610e4a565b955050602086013567ffffffffffffffff811115610fef57610fee610c81565b5b610ffb88828901610e4a565b945050604086013567ffffffffffffffff81111561101c5761101b610c81565b5b61102888828901610f2c565b935050606061103988828901610ca4565b925050608061104a88828901610f78565b9150509295509295909350565b5f81519050919050565b5f82825260208201905092915050565b8281835e5f83830152505050565b5f61108982611057565b6110938185611061565b93506110a3818560208601611071565b6110ac81610d43565b840191505092915050565b6110c081610c85565b82525050565b6110cf81610f59565b82525050565b5f6080820190508181035f8301526110ed818761107f565b90508181036020830152611101818661107f565b905061111060408301856110b7565b61111d60608301846110c6565b95945050505050565b61112f81610d02565b8114611139575f80fd5b50565b5f8135905061114a81611126565b92915050565b5f6020828403121561116557611164610c7d565b5b5f6111728482850161113c565b91505092915050565b7f4e487b71000000000000000000000000000000000000000000000000000000005f52602160045260245ffd5b600381106111b9576111b861117b565b5b50565b5f8190506111c9826111a8565b919050565b5f6111d8826111bc565b9050919050565b6111e8816111ce565b82525050565b5f6020820190506112015f8301846111df565b92915050565b5f81519050919050565b5f82825260208201905092915050565b5f819050602082019050919050565b5f82825260208201905092915050565b5f61124a82611057565b6112548185611230565b9350611264818560208601611071565b61126d81610d43565b840191505092915050565b5f81519050919050565b5f82825260208201905092915050565b5f819050602082019050919050565b5f6112ac8383611240565b905092915050565b5f602082019050919050565b5f6112ca82611278565b6112d48185611282565b9350836020820285016112e685611292565b805f5b85811015611321578484038952815161130285826112a1565b945061130d836112b4565b925060208a019950506001810190506112e9565b50829750879550505050505092915050565b61133c81610c85565b82525050565b61134b81610f59565b82525050565b5f60a083015f8301518482035f86015261136b8282611240565b915050602083015184820360208601526113858282611240565b9150506040830151848203604086015261139f82826112c0565b91505060608301516113b46060860182611333565b5060808301516113c76080860182611342565b508091505092915050565b5f6113dd8383611351565b905092915050565b5f602082019050919050565b5f6113fb82611207565b6114058185611211565b93508360208202850161141785611221565b805f5b85811015611452578484038952815161143385826113d2565b945061143e836113e5565b925060208a0199505060018101905061141a565b50829750879550505050505092915050565b5f6020820190508181035f83015261147c81846113f1565b905092915050565b5f67ffffffffffffffff82111561149e5761149d610d53565b5b602082029050602081019050919050565b5f6114c16114bc84611484565b610db1565b905080838252602082019050602084028301858111156114e4576114e3610ea2565b5b835b8181101561150d57806114f98882610ca4565b8452602084019350506020810190506114e6565b5050509392505050565b5f82601f83011261152b5761152a610d3b565b5b813561153b8482602086016114af565b91505092915050565b5f6020828403121561155957611558610c7d565b5b5f82013567ffffffffffffffff81111561157657611575610c81565b5b61158284828501611517565b91505092915050565b7f4e487b71000000000000000000000000000000000000000000000000000000005f52602260045260245ffd5b5f60028204905060018216806115cf57607f821691505b6020821081036115e2576115e161158b565b5b50919050565b5f819050815f5260205f209050919050565b5f6020601f8301049050919050565b5f82821b905092915050565b5f600883026116447fffffffffffffffffffffffffffffffffffffffffffffffffffffffffffffffff82611609565b61164e8683611609565b95508019841693508086168417925050509392505050565b5f819050919050565b5f61168961168461167f84610c85565b611666565b610c85565b9050919050565b5f819050919050565b6116a28361166f565b6116b66116ae82611690565b848454611615565b825550505050565b5f90565b6116ca6116be565b6116d5818484611699565b505050565b5b818110156116f8576116ed5f826116c2565b6001810190506116db565b5050565b601f82111561173d5761170e816115e8565b611717846115fa565b81016020851015611726578190505b61173a611732856115fa565b8301826116da565b50505b505050565b5f82821c905092915050565b5f61175d5f1984600802611742565b1980831691505092915050565b5f611775838361174e565b9150826002028217905092915050565b61178e82611057565b67ffffffffffffffff8111156117a7576117a6610d53565b5b6117b182546115b8565b6117bc8282856116fc565b5f60209050601f8311600181146117ed575f84156117db578287015190505b6117e5858261176a565b86555061184c565b601f1984166117fb866115e8565b5f5b82811015611822578489015182556001820191506020850194506020810190506117fd565b8683101561183f578489015161183b601f89168261174e565b8355505b6001600288020188555050505b505050505050565b7f4e487b71000000000000000000000000000000000000000000000000000000005f52603260045260245ffd5b7f4e487b71000000000000000000000000000000000000000000000000000000005f52601160045260245ffd5b5f6118b882610c85565b91506118c383610c85565b92508282019050808211156118db576118da611881565b5b92915050565b7f496e73756666696369656e742066756e647300000000000000000000000000005f82015250565b5f611915601283611061565b9150611920826118e1565b602082019050919050565b5f6020820190508181035f83015261194281611909565b905091905056fea2646970667358221220ce5d5a67abb9d7315b438d5149db9c757b68941891005a2289e57ebb5f8ef14764736f6c634300081a0033",
					"opcodes": "PUSH1 0x80 PUSH1 0x40 MSTORE CALLVALUE DUP1 ISZERO PUSH1 0xE JUMPI PUSH0 DUP1 REVERT JUMPDEST POP PUSH2 0x197F DUP1 PUSH2 0x1C PUSH0 CODECOPY PUSH0 RETURN INVALID PUSH1 0x80 PUSH1 0x40 MSTORE PUSH1 0x4 CALLDATASIZE LT PUSH2 0x54 JUMPI PUSH0 CALLDATALOAD PUSH1 0xE0 SHR DUP1 PUSH4 0xF7EE1EC EQ PUSH2 0x58 JUMPI DUP1 PUSH4 0x17C7DBBF EQ PUSH2 0x94 JUMPI DUP1 PUSH4 0x6B67A1B2 EQ PUSH2 0xBC JUMPI DUP1 PUSH4 0x99374642 EQ PUSH2 0xFB JUMPI DUP1 PUSH4 0xA112939E EQ PUSH2 0x137 JUMPI DUP1 PUSH4 0xF27E9B5F EQ PUSH2 0x161 JUMPI JUMPDEST PUSH0 DUP1 REVERT JUMPDEST CALLVALUE DUP1 ISZERO PUSH2 0x63 JUMPI PUSH0 DUP1 REVERT JUMPDEST POP PUSH2 0x7E PUSH1 0x4 DUP1 CALLDATASIZE SUB DUP2 ADD SWAP1 PUSH2 0x79 SWAP2 SWAP1 PUSH2 0xCB8 JUMP JUMPDEST PUSH2 0x17D JUMP JUMPDEST PUSH1 0x40 MLOAD PUSH2 0x8B SWAP2 SWAP1 PUSH2 0xD22 JUMP JUMPDEST PUSH1 0x40 MLOAD DUP1 SWAP2 SUB SWAP1 RETURN JUMPDEST CALLVALUE DUP1 ISZERO PUSH2 0x9F JUMPI PUSH0 DUP1 REVERT JUMPDEST POP PUSH2 0xBA PUSH1 0x4 DUP1 CALLDATASIZE SUB DUP2 ADD SWAP1 PUSH2 0xB5 SWAP2 SWAP1 PUSH2 0xF8C JUMP JUMPDEST PUSH2 0x1C5 JUMP JUMPDEST STOP JUMPDEST CALLVALUE DUP1 ISZERO PUSH2 0xC7 JUMPI PUSH0 DUP1 REVERT JUMPDEST POP PUSH2 0xE2 PUSH1 0x4 DUP1 CALLDATASIZE SUB DUP2 ADD SWAP1 PUSH2 0xDD SWAP2 SWAP1 PUSH2 0xCB8 JUMP JUMPDEST PUSH2 0x2F4 JUMP JUMPDEST PUSH1 0x40 MLOAD PUSH2 0xF2 SWAP5 SWAP4 SWAP3 SWAP2 SWAP1 PUSH2 0x10D5 JUMP JUMPDEST PUSH1 0x40 MLOAD DUP1 SWAP2 SUB SWAP1 RETURN JUMPDEST CALLVALUE DUP1 ISZERO PUSH2 0x106 JUMPI PUSH0 DUP1 REVERT JUMPDEST POP PUSH2 0x121 PUSH1 0x4 DUP1 CALLDATASIZE SUB DUP2 ADD SWAP1 PUSH2 0x11C SWAP2 SWAP1 PUSH2 0x1150 JUMP JUMPDEST PUSH2 0x43A JUMP JUMPDEST PUSH1 0x40 MLOAD PUSH2 0x12E SWAP2 SWAP1 PUSH2 0x11EE JUMP JUMPDEST PUSH1 0x40 MLOAD DUP1 SWAP2 SUB SWAP1 RETURN JUMPDEST CALLVALUE DUP1 ISZERO PUSH2 0x142 JUMPI PUSH0 DUP1 REVERT JUMPDEST POP PUSH2 0x14B PUSH2 0x457 JUMP JUMPDEST PUSH1 0x40 MLOAD PUSH2 0x158 SWAP2 SWAP1 PUSH2 0x1464 JUMP JUMPDEST PUSH1 0x40 MLOAD DUP1 SWAP2 SUB SWAP1 RETURN JUMPDEST PUSH2 0x17B PUSH1 0x4 DUP1 CALLDATASIZE SUB DUP2 ADD SWAP1 PUSH2 0x176 SWAP2 SWAP1 PUSH2 0x1544 JUMP JUMPDEST PUSH2 0x6B9 JUMP JUMPDEST STOP JUMPDEST PUSH1 0x1 DUP2 DUP2 SLOAD DUP2 LT PUSH2 0x18C JUMPI PUSH0 DUP1 REVERT JUMPDEST SWAP1 PUSH0 MSTORE PUSH1 0x20 PUSH0 KECCAK256 SWAP1 PUSH1 0x2 MUL ADD PUSH0 SWAP2 POP SWAP1 POP DUP1 PUSH0 ADD PUSH0 SWAP1 SLOAD SWAP1 PUSH2 0x100 EXP SWAP1 DIV PUSH20 0xFFFFFFFFFFFFFFFFFFFFFFFFFFFFFFFFFFFFFFFF AND SWAP1 POP DUP2 JUMP JUMPDEST PUSH1 0x2 DUP1 DUP2 GT ISZERO PUSH2 0x1D8 JUMPI PUSH2 0x1D7 PUSH2 0x117B JUMP JUMPDEST JUMPDEST PUSH1 0x2 PUSH0 CALLER PUSH20 0xFFFFFFFFFFFFFFFFFFFFFFFFFFFFFFFFFFFFFFFF AND PUSH20 0xFFFFFFFFFFFFFFFFFFFFFFFFFFFFFFFFFFFFFFFF AND DUP2 MSTORE PUSH1 0x20 ADD SWAP1 DUP2 MSTORE PUSH1 0x20 ADD PUSH0 KECCAK256 PUSH0 SWAP1 SLOAD SWAP1 PUSH2 0x100 EXP SWAP1 DIV PUSH1 0xFF AND PUSH1 0x2 DUP2 GT ISZERO PUSH2 0x234 JUMPI PUSH2 0x233 PUSH2 0x117B JUMP JUMPDEST JUMPDEST EQ PUSH2 0x23D JUMPI PUSH0 DUP1 REVERT JUMPDEST PUSH0 PUSH1 0x40 MLOAD DUP1 PUSH1 0xA0 ADD PUSH1 0x40 MSTORE DUP1 DUP8 DUP2 MSTORE PUSH1 0x20 ADD DUP7 DUP2 MSTORE PUSH1 0x20 ADD DUP6 DUP2 MSTORE PUSH1 0x20 ADD DUP5 DUP2 MSTORE PUSH1 0x20 ADD DUP4 DUP2 MSTORE POP SWAP1 POP PUSH0 DUP2 SWAP1 DUP1 PUSH1 0x1 DUP2 SLOAD ADD DUP1 DUP3 SSTORE DUP1 SWAP2 POP POP PUSH1 0x1 SWAP1 SUB SWAP1 PUSH0 MSTORE PUSH1 0x20 PUSH0 KECCAK256 SWAP1 PUSH1 0x5 MUL ADD PUSH0 SWAP1 SWAP2 SWAP1 SWAP2 SWAP1 SWAP2 POP PUSH0 DUP3 ADD MLOAD DUP2 PUSH0 ADD SWAP1 DUP2 PUSH2 0x2A2 SWAP2 SWAP1 PUSH2 0x1785 JUMP JUMPDEST POP PUSH1 0x20 DUP3 ADD MLOAD DUP2 PUSH1 0x1 ADD SWAP1 DUP2 PUSH2 0x2B8 SWAP2 SWAP1 PUSH2 0x1785 JUMP JUMPDEST POP PUSH1 0x40 DUP3 ADD MLOAD DUP2 PUSH1 0x2 ADD SWAP1 DUP1 MLOAD SWAP1 PUSH1 0x20 ADD SWAP1 PUSH2 0x2D5 SWAP3 SWAP2 SWAP1 PUSH2 0xB2A JUMP JUMPDEST POP PUSH1 0x60 DUP3 ADD MLOAD DUP2 PUSH1 0x3 ADD SSTORE PUSH1 0x80 DUP3 ADD MLOAD DUP2 PUSH1 0x4 ADD SSTORE POP POP POP POP POP POP POP POP JUMP JUMPDEST PUSH0 DUP2 DUP2 SLOAD DUP2 LT PUSH2 0x302 JUMPI PUSH0 DUP1 REVERT JUMPDEST SWAP1 PUSH0 MSTORE PUSH1 0x20 PUSH0 KECCAK256 SWAP1 PUSH1 0x5 MUL ADD PUSH0 SWAP2 POP SWAP1 POP DUP1 PUSH0 ADD DUP1 SLOAD PUSH2 0x321 SWAP1 PUSH2 0x15B8 JUMP JUMPDEST DUP1 PUSH1 0x1F ADD PUSH1 0x20 DUP1 SWAP2 DIV MUL PUSH1 0x20 ADD PUSH1 0x40 MLOAD SWAP1 DUP2 ADD PUSH1 0x40 MSTORE DUP1 SWAP3 SWAP2 SWAP1 DUP2 DUP2 MSTORE PUSH1 0x20 ADD DUP3 DUP1 SLOAD PUSH2 0x34D SWAP1 PUSH2 0x15B8 JUMP JUMPDEST DUP1 ISZERO PUSH2 0x398 JUMPI DUP1 PUSH1 0x1F LT PUSH2 0x36F JUMPI PUSH2 0x100 DUP1 DUP4 SLOAD DIV MUL DUP4 MSTORE SWAP2 PUSH1 0x20 ADD SWAP2 PUSH2 0x398 JUMP JUMPDEST DUP3 ADD SWAP2 SWAP1 PUSH0 MSTORE PUSH1 0x20 PUSH0 KECCAK256 SWAP1 JUMPDEST DUP2 SLOAD DUP2 MSTORE SWAP1 PUSH1 0x1 ADD SWAP1 PUSH1 0x20 ADD DUP1 DUP4 GT PUSH2 0x37B JUMPI DUP3 SWAP1 SUB PUSH1 0x1F AND DUP3 ADD SWAP2 JUMPDEST POP POP POP POP POP SWAP1 DUP1 PUSH1 0x1 ADD DUP1 SLOAD PUSH2 0x3AD SWAP1 PUSH2 0x15B8 JUMP JUMPDEST DUP1 PUSH1 0x1F ADD PUSH1 0x20 DUP1 SWAP2 DIV MUL PUSH1 0x20 ADD PUSH1 0x40 MLOAD SWAP1 DUP2 ADD PUSH1 0x40 MSTORE DUP1 SWAP3 SWAP2 SWAP1 DUP2 DUP2 MSTORE PUSH1 0x20 ADD DUP3 DUP1 SLOAD PUSH2 0x3D9 SWAP1 PUSH2 0x15B8 JUMP JUMPDEST DUP1 ISZERO PUSH2 0x424 JUMPI DUP1 PUSH1 0x1F LT PUSH2 0x3FB JUMPI PUSH2 0x100 DUP1 DUP4 SLOAD DIV MUL DUP4 MSTORE SWAP2 PUSH1 0x20 ADD SWAP2 PUSH2 0x424 JUMP JUMPDEST DUP3 ADD SWAP2 SWAP1 PUSH0 MSTORE PUSH1 0x20 PUSH0 KECCAK256 SWAP1 JUMPDEST DUP2 SLOAD DUP2 MSTORE SWAP1 PUSH1 0x1 ADD SWAP1 PUSH1 0x20 ADD DUP1 DUP4 GT PUSH2 0x407 JUMPI DUP3 SWAP1 SUB PUSH1 0x1F AND DUP3 ADD SWAP2 JUMPDEST POP POP POP POP POP SWAP1 DUP1 PUSH1 0x3 ADD SLOAD SWAP1 DUP1 PUSH1 0x4 ADD SLOAD SWAP1 POP DUP5 JUMP JUMPDEST PUSH1 0x2 PUSH1 0x20 MSTORE DUP1 PUSH0 MSTORE PUSH1 0x40 PUSH0 KECCAK256 PUSH0 SWAP2 POP SLOAD SWAP1 PUSH2 0x100 EXP SWAP1 DIV PUSH1 0xFF AND DUP2 JUMP JUMPDEST PUSH1 0x60 PUSH0 DUP1 SLOAD DUP1 PUSH1 0x20 MUL PUSH1 0x20 ADD PUSH1 0x40 MLOAD SWAP1 DUP2 ADD PUSH1 0x40 MSTORE DUP1 SWAP3 SWAP2 SWAP1 DUP2 DUP2 MSTORE PUSH1 0x20 ADD PUSH0 SWAP1 JUMPDEST DUP3 DUP3 LT ISZERO PUSH2 0x6B0 JUMPI DUP4 DUP3 SWAP1 PUSH0 MSTORE PUSH1 0x20 PUSH0 KECCAK256 SWAP1 PUSH1 0x5 MUL ADD PUSH1 0x40 MLOAD DUP1 PUSH1 0xA0 ADD PUSH1 0x40 MSTORE SWAP1 DUP2 PUSH0 DUP3 ADD DUP1 SLOAD PUSH2 0x4A9 SWAP1 PUSH2 0x15B8 JUMP JUMPDEST DUP1 PUSH1 0x1F ADD PUSH1 0x20 DUP1 SWAP2 DIV MUL PUSH1 0x20 ADD PUSH1 0x40 MLOAD SWAP1 DUP2 ADD PUSH1 0x40 MSTORE DUP1 SWAP3 SWAP2 SWAP1 DUP2 DUP2 MSTORE PUSH1 0x20 ADD DUP3 DUP1 SLOAD PUSH2 0x4D5 SWAP1 PUSH2 0x15B8 JUMP JUMPDEST DUP1 ISZERO PUSH2 0x520 JUMPI DUP1 PUSH1 0x1F LT PUSH2 0x4F7 JUMPI PUSH2 0x100 DUP1 DUP4 SLOAD DIV MUL DUP4 MSTORE SWAP2 PUSH1 0x20 ADD SWAP2 PUSH2 0x520 JUMP JUMPDEST DUP3 ADD SWAP2 SWAP1 PUSH0 MSTORE PUSH1 0x20 PUSH0 KECCAK256 SWAP1 JUMPDEST DUP2 SLOAD DUP2 MSTORE SWAP1 PUSH1 0x1 ADD SWAP1 PUSH1 0x20 ADD DUP1 DUP4 GT PUSH2 0x503 JUMPI DUP3 SWAP1 SUB PUSH1 0x1F AND DUP3 ADD SWAP2 JUMPDEST POP POP POP POP POP DUP2 MSTORE PUSH1 0x20 ADD PUSH1 0x1 DUP3 ADD DUP1 SLOAD PUSH2 0x539 SWAP1 PUSH2 0x15B8 JUMP JUMPDEST DUP1 PUSH1 0x1F ADD PUSH1 0x20 DUP1 SWAP2 DIV MUL PUSH1 0x20 ADD PUSH1 0x40 MLOAD SWAP1 DUP2 ADD PUSH1 0x40 MSTORE DUP1 SWAP3 SWAP2 SWAP1 DUP2 DUP2 MSTORE PUSH1 0x20 ADD DUP3 DUP1 SLOAD PUSH2 0x565 SWAP1 PUSH2 0x15B8 JUMP JUMPDEST DUP1 ISZERO PUSH2 0x5B0 JUMPI DUP1 PUSH1 0x1F LT PUSH2 0x587 JUMPI PUSH2 0x100 DUP1 DUP4 SLOAD DIV MUL DUP4 MSTORE SWAP2 PUSH1 0x20 ADD SWAP2 PUSH2 0x5B0 JUMP JUMPDEST DUP3 ADD SWAP2 SWAP1 PUSH0 MSTORE PUSH1 0x20 PUSH0 KECCAK256 SWAP1 JUMPDEST DUP2 SLOAD DUP2 MSTORE SWAP1 PUSH1 0x1 ADD SWAP1 PUSH1 0x20 ADD DUP1 DUP4 GT PUSH2 0x593 JUMPI DUP3 SWAP1 SUB PUSH1 0x1F AND DUP3 ADD SWAP2 JUMPDEST POP POP POP POP POP DUP2 MSTORE PUSH1 0x20 ADD PUSH1 0x2 DUP3 ADD DUP1 SLOAD DUP1 PUSH1 0x20 MUL PUSH1 0x20 ADD PUSH1 0x40 MLOAD SWAP1 DUP2 ADD PUSH1 0x40 MSTORE DUP1 SWAP3 SWAP2 SWAP1 DUP2 DUP2 MSTORE PUSH1 0x20 ADD PUSH0 SWAP1 JUMPDEST DUP3 DUP3 LT ISZERO PUSH2 0x685 JUMPI DUP4 DUP3 SWAP1 PUSH0 MSTORE PUSH1 0x20 PUSH0 KECCAK256 ADD DUP1 SLOAD PUSH2 0x5FA SWAP1 PUSH2 0x15B8 JUMP JUMPDEST DUP1 PUSH1 0x1F ADD PUSH1 0x20 DUP1 SWAP2 DIV MUL PUSH1 0x20 ADD PUSH1 0x40 MLOAD SWAP1 DUP2 ADD PUSH1 0x40 MSTORE DUP1 SWAP3 SWAP2 SWAP1 DUP2 DUP2 MSTORE PUSH1 0x20 ADD DUP3 DUP1 SLOAD PUSH2 0x626 SWAP1 PUSH2 0x15B8 JUMP JUMPDEST DUP1 ISZERO PUSH2 0x671 JUMPI DUP1 PUSH1 0x1F LT PUSH2 0x648 JUMPI PUSH2 0x100 DUP1 DUP4 SLOAD DIV MUL DUP4 MSTORE SWAP2 PUSH1 0x20 ADD SWAP2 PUSH2 0x671 JUMP JUMPDEST DUP3 ADD SWAP2 SWAP1 PUSH0 MSTORE PUSH1 0x20 PUSH0 KECCAK256 SWAP1 JUMPDEST DUP2 SLOAD DUP2 MSTORE SWAP1 PUSH1 0x1 ADD SWAP1 PUSH1 0x20 ADD DUP1 DUP4 GT PUSH2 0x654 JUMPI DUP3 SWAP1 SUB PUSH1 0x1F AND DUP3 ADD SWAP2 JUMPDEST POP POP POP POP POP DUP2 MSTORE PUSH1 0x20 ADD SWAP1 PUSH1 0x1 ADD SWAP1 PUSH2 0x5DD JUMP JUMPDEST POP POP POP POP DUP2 MSTORE PUSH1 0x20 ADD PUSH1 0x3 DUP3 ADD SLOAD DUP2 MSTORE PUSH1 0x20 ADD PUSH1 0x4 DUP3 ADD SLOAD DUP2 MSTORE POP POP DUP2 MSTORE PUSH1 0x20 ADD SWAP1 PUSH1 0x1 ADD SWAP1 PUSH2 0x479 JUMP JUMPDEST POP POP POP POP SWAP1 POP SWAP1 JUMP JUMPDEST PUSH1 0x1 PUSH1 0x2 DUP2 GT ISZERO PUSH2 0x6CD JUMPI PUSH2 0x6CC PUSH2 0x117B JUMP JUMPDEST JUMPDEST PUSH1 0x2 PUSH0 CALLER PUSH20 0xFFFFFFFFFFFFFFFFFFFFFFFFFFFFFFFFFFFFFFFF AND PUSH20 0xFFFFFFFFFFFFFFFFFFFFFFFFFFFFFFFFFFFFFFFF AND DUP2 MSTORE PUSH1 0x20 ADD SWAP1 DUP2 MSTORE PUSH1 0x20 ADD PUSH0 KECCAK256 PUSH0 SWAP1 SLOAD SWAP1 PUSH2 0x100 EXP SWAP1 DIV PUSH1 0xFF AND PUSH1 0x2 DUP2 GT ISZERO PUSH2 0x729 JUMPI PUSH2 0x728 PUSH2 0x117B JUMP JUMPDEST JUMPDEST EQ PUSH2 0x732 JUMPI PUSH0 DUP1 REVERT JUMPDEST PUSH0 DUP2 MLOAD PUSH8 0xFFFFFFFFFFFFFFFF DUP2 GT ISZERO PUSH2 0x74E JUMPI PUSH2 0x74D PUSH2 0xD53 JUMP JUMPDEST JUMPDEST PUSH1 0x40 MLOAD SWAP1 DUP1 DUP3 MSTORE DUP1 PUSH1 0x20 MUL PUSH1 0x20 ADD DUP3 ADD PUSH1 0x40 MSTORE DUP1 ISZERO PUSH2 0x787 JUMPI DUP2 PUSH1 0x20 ADD JUMPDEST PUSH2 0x774 PUSH2 0xB81 JUMP JUMPDEST DUP2 MSTORE PUSH1 0x20 ADD SWAP1 PUSH1 0x1 SWAP1 SUB SWAP1 DUP2 PUSH2 0x76C JUMPI SWAP1 POP JUMPDEST POP SWAP1 POP PUSH0 DUP1 PUSH0 SWAP1 POP JUMPDEST DUP4 MLOAD DUP2 LT ISZERO PUSH2 0xA26 JUMPI PUSH0 DUP1 DUP6 DUP4 DUP2 MLOAD DUP2 LT PUSH2 0x7AE JUMPI PUSH2 0x7AD PUSH2 0x1854 JUMP JUMPDEST JUMPDEST PUSH1 0x20 MUL PUSH1 0x20 ADD ADD MLOAD DUP2 SLOAD DUP2 LT PUSH2 0x7C7 JUMPI PUSH2 0x7C6 PUSH2 0x1854 JUMP JUMPDEST JUMPDEST SWAP1 PUSH0 MSTORE PUSH1 0x20 PUSH0 KECCAK256 SWAP1 PUSH1 0x5 MUL ADD SWAP1 POP DUP1 PUSH1 0x3 ADD SLOAD DUP4 PUSH2 0x7E5 SWAP2 SWAP1 PUSH2 0x18AE JUMP JUMPDEST SWAP3 POP DUP1 PUSH1 0x40 MLOAD DUP1 PUSH1 0xA0 ADD PUSH1 0x40 MSTORE SWAP1 DUP2 PUSH0 DUP3 ADD DUP1 SLOAD PUSH2 0x802 SWAP1 PUSH2 0x15B8 JUMP JUMPDEST DUP1 PUSH1 0x1F ADD PUSH1 0x20 DUP1 SWAP2 DIV MUL PUSH1 0x20 ADD PUSH1 0x40 MLOAD SWAP1 DUP2 ADD PUSH1 0x40 MSTORE DUP1 SWAP3 SWAP2 SWAP1 DUP2 DUP2 MSTORE PUSH1 0x20 ADD DUP3 DUP1 SLOAD PUSH2 0x82E SWAP1 PUSH2 0x15B8 JUMP JUMPDEST DUP1 ISZERO PUSH2 0x879 JUMPI DUP1 PUSH1 0x1F LT PUSH2 0x850 JUMPI PUSH2 0x100 DUP1 DUP4 SLOAD DIV MUL DUP4 MSTORE SWAP2 PUSH1 0x20 ADD SWAP2 PUSH2 0x879 JUMP JUMPDEST DUP3 ADD SWAP2 SWAP1 PUSH0 MSTORE PUSH1 0x20 PUSH0 KECCAK256 SWAP1 JUMPDEST DUP2 SLOAD DUP2 MSTORE SWAP1 PUSH1 0x1 ADD SWAP1 PUSH1 0x20 ADD DUP1 DUP4 GT PUSH2 0x85C JUMPI DUP3 SWAP1 SUB PUSH1 0x1F AND DUP3 ADD SWAP2 JUMPDEST POP POP POP POP POP DUP2 MSTORE PUSH1 0x20 ADD PUSH1 0x1 DUP3 ADD DUP1 SLOAD PUSH2 0x892 SWAP1 PUSH2 0x15B8 JUMP JUMPDEST DUP1 PUSH1 0x1F ADD PUSH1 0x20 DUP1 SWAP2 DIV MUL PUSH1 0x20 ADD PUSH1 0x40 MLOAD SWAP1 DUP2 ADD PUSH1 0x40 MSTORE DUP1 SWAP3 SWAP2 SWAP1 DUP2 DUP2 MSTORE PUSH1 0x20 ADD DUP3 DUP1 SLOAD PUSH2 0x8BE SWAP1 PUSH2 0x15B8 JUMP JUMPDEST DUP1 ISZERO PUSH2 0x909 JUMPI DUP1 PUSH1 0x1F LT PUSH2 0x8E0 JUMPI PUSH2 0x100 DUP1 DUP4 SLOAD DIV MUL DUP4 MSTORE SWAP2 PUSH1 0x20 ADD SWAP2 PUSH2 0x909 JUMP JUMPDEST DUP3 ADD SWAP2 SWAP1 PUSH0 MSTORE PUSH1 0x20 PUSH0 KECCAK256 SWAP1 JUMPDEST DUP2 SLOAD DUP2 MSTORE SWAP1 PUSH1 0x1 ADD SWAP1 PUSH1 0x20 ADD DUP1 DUP4 GT PUSH2 0x8EC JUMPI DUP3 SWAP1 SUB PUSH1 0x1F AND DUP3 ADD SWAP2 JUMPDEST POP POP POP POP POP DUP2 MSTORE PUSH1 0x20 ADD PUSH1 0x2 DUP3 ADD DUP1 SLOAD DUP1 PUSH1 0x20 MUL PUSH1 0x20 ADD PUSH1 0x40 MLOAD SWAP1 DUP2 ADD PUSH1 0x40 MSTORE DUP1 SWAP3 SWAP2 SWAP1 DUP2 DUP2 MSTORE PUSH1 0x20 ADD PUSH0 SWAP1 JUMPDEST DUP3 DUP3 LT ISZERO PUSH2 0x9DE JUMPI DUP4 DUP3 SWAP1 PUSH0 MSTORE PUSH1 0x20 PUSH0 KECCAK256 ADD DUP1 SLOAD PUSH2 0x953 SWAP1 PUSH2 0x15B8 JUMP JUMPDEST DUP1 PUSH1 0x1F ADD PUSH1 0x20 DUP1 SWAP2 DIV MUL PUSH1 0x20 ADD PUSH1 0x40 MLOAD SWAP1 DUP2 ADD PUSH1 0x40 MSTORE DUP1 SWAP3 SWAP2 SWAP1 DUP2 DUP2 MSTORE PUSH1 0x20 ADD DUP3 DUP1 SLOAD PUSH2 0x97F SWAP1 PUSH2 0x15B8 JUMP JUMPDEST DUP1 ISZERO PUSH2 0x9CA JUMPI DUP1 PUSH1 0x1F LT PUSH2 0x9A1 JUMPI PUSH2 0x100 DUP1 DUP4 SLOAD DIV MUL DUP4 MSTORE SWAP2 PUSH1 0x20 ADD SWAP2 PUSH2 0x9CA JUMP JUMPDEST DUP3 ADD SWAP2 SWAP1 PUSH0 MSTORE PUSH1 0x20 PUSH0 KECCAK256 SWAP1 JUMPDEST DUP2 SLOAD DUP2 MSTORE SWAP1 PUSH1 0x1 ADD SWAP1 PUSH1 0x20 ADD DUP1 DUP4 GT PUSH2 0x9AD JUMPI DUP3 SWAP1 SUB PUSH1 0x1F AND DUP3 ADD SWAP2 JUMPDEST POP POP POP POP POP DUP2 MSTORE PUSH1 0x20 ADD SWAP1 PUSH1 0x1 ADD SWAP1 PUSH2 0x936 JUMP JUMPDEST POP POP POP POP DUP2 MSTORE PUSH1 0x20 ADD PUSH1 0x3 DUP3 ADD SLOAD DUP2 MSTORE PUSH1 0x20 ADD PUSH1 0x4 DUP3 ADD SLOAD DUP2 MSTORE POP POP DUP5 DUP4 DUP2 MLOAD DUP2 LT PUSH2 0xA0D JUMPI PUSH2 0xA0C PUSH2 0x1854 JUMP JUMPDEST JUMPDEST PUSH1 0x20 MUL PUSH1 0x20 ADD ADD DUP2 SWAP1 MSTORE POP POP DUP1 DUP1 PUSH1 0x1 ADD SWAP2 POP POP PUSH2 0x790 JUMP JUMPDEST POP DUP1 CALLVALUE LT ISZERO PUSH2 0xA6A JUMPI PUSH1 0x40 MLOAD PUSH32 0x8C379A000000000000000000000000000000000000000000000000000000000 DUP2 MSTORE PUSH1 0x4 ADD PUSH2 0xA61 SWAP1 PUSH2 0x192B JUMP JUMPDEST PUSH1 0x40 MLOAD DUP1 SWAP2 SUB SWAP1 REVERT JUMPDEST PUSH0 PUSH1 0x40 MLOAD DUP1 PUSH1 0x40 ADD PUSH1 0x40 MSTORE DUP1 CALLER PUSH20 0xFFFFFFFFFFFFFFFFFFFFFFFFFFFFFFFFFFFFFFFF AND DUP2 MSTORE PUSH1 0x20 ADD DUP6 DUP2 MSTORE POP SWAP1 POP PUSH1 0x1 DUP2 SWAP1 DUP1 PUSH1 0x1 DUP2 SLOAD ADD DUP1 DUP3 SSTORE DUP1 SWAP2 POP POP PUSH1 0x1 SWAP1 SUB SWAP1 PUSH0 MSTORE PUSH1 0x20 PUSH0 KECCAK256 SWAP1 PUSH1 0x2 MUL ADD PUSH0 SWAP1 SWAP2 SWAP1 SWAP2 SWAP1 SWAP2 POP PUSH0 DUP3 ADD MLOAD DUP2 PUSH0 ADD PUSH0 PUSH2 0x100 EXP DUP2 SLOAD DUP2 PUSH20 0xFFFFFFFFFFFFFFFFFFFFFFFFFFFFFFFFFFFFFFFF MUL NOT AND SWAP1 DUP4 PUSH20 0xFFFFFFFFFFFFFFFFFFFFFFFFFFFFFFFFFFFFFFFF AND MUL OR SWAP1 SSTORE POP PUSH1 0x20 DUP3 ADD MLOAD DUP2 PUSH1 0x1 ADD SWAP1 DUP1 MLOAD SWAP1 PUSH1 0x20 ADD SWAP1 PUSH2 0xB21 SWAP3 SWAP2 SWAP1 PUSH2 0xBAE JUMP JUMPDEST POP POP POP POP POP POP POP JUMP JUMPDEST DUP3 DUP1 SLOAD DUP3 DUP3 SSTORE SWAP1 PUSH0 MSTORE PUSH1 0x20 PUSH0 KECCAK256 SWAP1 DUP2 ADD SWAP3 DUP3 ISZERO PUSH2 0xB70 JUMPI SWAP2 PUSH1 0x20 MUL DUP3 ADD JUMPDEST DUP3 DUP2 GT ISZERO PUSH2 0xB6F JUMPI DUP3 MLOAD DUP3 SWAP1 DUP2 PUSH2 0xB5F SWAP2 SWAP1 PUSH2 0x1785 JUMP JUMPDEST POP SWAP2 PUSH1 0x20 ADD SWAP2 SWAP1 PUSH1 0x1 ADD SWAP1 PUSH2 0xB48 JUMP JUMPDEST JUMPDEST POP SWAP1 POP PUSH2 0xB7D SWAP2 SWAP1 PUSH2 0xBF9 JUMP JUMPDEST POP SWAP1 JUMP JUMPDEST PUSH1 0x40 MLOAD DUP1 PUSH1 0xA0 ADD PUSH1 0x40 MSTORE DUP1 PUSH1 0x60 DUP2 MSTORE PUSH1 0x20 ADD PUSH1 0x60 DUP2 MSTORE PUSH1 0x20 ADD PUSH1 0x60 DUP2 MSTORE PUSH1 0x20 ADD PUSH0 DUP2 MSTORE PUSH1 0x20 ADD PUSH0 DUP2 MSTORE POP SWAP1 JUMP JUMPDEST DUP3 DUP1 SLOAD DUP3 DUP3 SSTORE SWAP1 PUSH0 MSTORE PUSH1 0x20 PUSH0 KECCAK256 SWAP1 DUP2 ADD SWAP3 DUP3 ISZERO PUSH2 0xBE8 JUMPI SWAP2 PUSH1 0x20 MUL DUP3 ADD JUMPDEST DUP3 DUP2 GT ISZERO PUSH2 0xBE7 JUMPI DUP3 MLOAD DUP3 SSTORE SWAP2 PUSH1 0x20 ADD SWAP2 SWAP1 PUSH1 0x1 ADD SWAP1 PUSH2 0xBCC JUMP JUMPDEST JUMPDEST POP SWAP1 POP PUSH2 0xBF5 SWAP2 SWAP1 PUSH2 0xC1C JUMP JUMPDEST POP SWAP1 JUMP JUMPDEST JUMPDEST DUP1 DUP3 GT ISZERO PUSH2 0xC18 JUMPI PUSH0 DUP2 DUP2 PUSH2 0xC0F SWAP2 SWAP1 PUSH2 0xC37 JUMP JUMPDEST POP PUSH1 0x1 ADD PUSH2 0xBFA JUMP JUMPDEST POP SWAP1 JUMP JUMPDEST JUMPDEST DUP1 DUP3 GT ISZERO PUSH2 0xC33 JUMPI PUSH0 DUP2 PUSH0 SWAP1 SSTORE POP PUSH1 0x1 ADD PUSH2 0xC1D JUMP JUMPDEST POP SWAP1 JUMP JUMPDEST POP DUP1 SLOAD PUSH2 0xC43 SWAP1 PUSH2 0x15B8 JUMP JUMPDEST PUSH0 DUP3 SSTORE DUP1 PUSH1 0x1F LT PUSH2 0xC54 JUMPI POP PUSH2 0xC71 JUMP JUMPDEST PUSH1 0x1F ADD PUSH1 0x20 SWAP1 DIV SWAP1 PUSH0 MSTORE PUSH1 0x20 PUSH0 KECCAK256 SWAP1 DUP2 ADD SWAP1 PUSH2 0xC70 SWAP2 SWAP1 PUSH2 0xC1C JUMP JUMPDEST JUMPDEST POP JUMP JUMPDEST PUSH0 PUSH1 0x40 MLOAD SWAP1 POP SWAP1 JUMP JUMPDEST PUSH0 DUP1 REVERT JUMPDEST PUSH0 DUP1 REVERT JUMPDEST PUSH0 DUP2 SWAP1 POP SWAP2 SWAP1 POP JUMP JUMPDEST PUSH2 0xC97 DUP2 PUSH2 0xC85 JUMP JUMPDEST DUP2 EQ PUSH2 0xCA1 JUMPI PUSH0 DUP1 REVERT JUMPDEST POP JUMP JUMPDEST PUSH0 DUP2 CALLDATALOAD SWAP1 POP PUSH2 0xCB2 DUP2 PUSH2 0xC8E JUMP JUMPDEST SWAP3 SWAP2 POP POP JUMP JUMPDEST PUSH0 PUSH1 0x20 DUP3 DUP5 SUB SLT ISZERO PUSH2 0xCCD JUMPI PUSH2 0xCCC PUSH2 0xC7D JUMP JUMPDEST JUMPDEST PUSH0 PUSH2 0xCDA DUP5 DUP3 DUP6 ADD PUSH2 0xCA4 JUMP JUMPDEST SWAP2 POP POP SWAP3 SWAP2 POP POP JUMP JUMPDEST PUSH0 PUSH20 0xFFFFFFFFFFFFFFFFFFFFFFFFFFFFFFFFFFFFFFFF DUP3 AND SWAP1 POP SWAP2 SWAP1 POP JUMP JUMPDEST PUSH0 PUSH2 0xD0C DUP3 PUSH2 0xCE3 JUMP JUMPDEST SWAP1 POP SWAP2 SWAP1 POP JUMP JUMPDEST PUSH2 0xD1C DUP2 PUSH2 0xD02 JUMP JUMPDEST DUP3 MSTORE POP POP JUMP JUMPDEST PUSH0 PUSH1 0x20 DUP3 ADD SWAP1 POP PUSH2 0xD35 PUSH0 DUP4 ADD DUP5 PUSH2 0xD13 JUMP JUMPDEST SWAP3 SWAP2 POP POP JUMP JUMPDEST PUSH0 DUP1 REVERT JUMPDEST PUSH0 DUP1 REVERT JUMPDEST PUSH0 PUSH1 0x1F NOT PUSH1 0x1F DUP4 ADD AND SWAP1 POP SWAP2 SWAP1 POP JUMP JUMPDEST PUSH32 0x4E487B7100000000000000000000000000000000000000000000000000000000 PUSH0 MSTORE PUSH1 0x41 PUSH1 0x4 MSTORE PUSH1 0x24 PUSH0 REVERT JUMPDEST PUSH2 0xD89 DUP3 PUSH2 0xD43 JUMP JUMPDEST DUP2 ADD DUP2 DUP2 LT PUSH8 0xFFFFFFFFFFFFFFFF DUP3 GT OR ISZERO PUSH2 0xDA8 JUMPI PUSH2 0xDA7 PUSH2 0xD53 JUMP JUMPDEST JUMPDEST DUP1 PUSH1 0x40 MSTORE POP POP POP JUMP JUMPDEST PUSH0 PUSH2 0xDBA PUSH2 0xC74 JUMP JUMPDEST SWAP1 POP PUSH2 0xDC6 DUP3 DUP3 PUSH2 0xD80 JUMP JUMPDEST SWAP2 SWAP1 POP JUMP JUMPDEST PUSH0 PUSH8 0xFFFFFFFFFFFFFFFF DUP3 GT ISZERO PUSH2 0xDE5 JUMPI PUSH2 0xDE4 PUSH2 0xD53 JUMP JUMPDEST JUMPDEST PUSH2 0xDEE DUP3 PUSH2 0xD43 JUMP JUMPDEST SWAP1 POP PUSH1 0x20 DUP2 ADD SWAP1 POP SWAP2 SWAP1 POP JUMP JUMPDEST DUP3 DUP2 DUP4 CALLDATACOPY PUSH0 DUP4 DUP4 ADD MSTORE POP POP POP JUMP JUMPDEST PUSH0 PUSH2 0xE1B PUSH2 0xE16 DUP5 PUSH2 0xDCB JUMP JUMPDEST PUSH2 0xDB1 JUMP JUMPDEST SWAP1 POP DUP3 DUP2 MSTORE PUSH1 0x20 DUP2 ADD DUP5 DUP5 DUP5 ADD GT ISZERO PUSH2 0xE37 JUMPI PUSH2 0xE36 PUSH2 0xD3F JUMP JUMPDEST JUMPDEST PUSH2 0xE42 DUP5 DUP3 DUP6 PUSH2 0xDFB JUMP JUMPDEST POP SWAP4 SWAP3 POP POP POP JUMP JUMPDEST PUSH0 DUP3 PUSH1 0x1F DUP4 ADD SLT PUSH2 0xE5E JUMPI PUSH2 0xE5D PUSH2 0xD3B JUMP JUMPDEST JUMPDEST DUP2 CALLDATALOAD PUSH2 0xE6E DUP5 DUP3 PUSH1 0x20 DUP7 ADD PUSH2 0xE09 JUMP JUMPDEST SWAP2 POP POP SWAP3 SWAP2 POP POP JUMP JUMPDEST PUSH0 PUSH8 0xFFFFFFFFFFFFFFFF DUP3 GT ISZERO PUSH2 0xE91 JUMPI PUSH2 0xE90 PUSH2 0xD53 JUMP JUMPDEST JUMPDEST PUSH1 0x20 DUP3 MUL SWAP1 POP PUSH1 0x20 DUP2 ADD SWAP1 POP SWAP2 SWAP1 POP JUMP JUMPDEST PUSH0 DUP1 REVERT JUMPDEST PUSH0 PUSH2 0xEB8 PUSH2 0xEB3 DUP5 PUSH2 0xE77 JUMP JUMPDEST PUSH2 0xDB1 JUMP JUMPDEST SWAP1 POP DUP1 DUP4 DUP3 MSTORE PUSH1 0x20 DUP3 ADD SWAP1 POP PUSH1 0x20 DUP5 MUL DUP4 ADD DUP6 DUP2 GT ISZERO PUSH2 0xEDB JUMPI PUSH2 0xEDA PUSH2 0xEA2 JUMP JUMPDEST JUMPDEST DUP4 JUMPDEST DUP2 DUP2 LT ISZERO PUSH2 0xF22 JUMPI DUP1 CALLDATALOAD PUSH8 0xFFFFFFFFFFFFFFFF DUP2 GT ISZERO PUSH2 0xF00 JUMPI PUSH2 0xEFF PUSH2 0xD3B JUMP JUMPDEST JUMPDEST DUP1 DUP7 ADD PUSH2 0xF0D DUP10 DUP3 PUSH2 0xE4A JUMP JUMPDEST DUP6 MSTORE PUSH1 0x20 DUP6 ADD SWAP5 POP POP POP PUSH1 0x20 DUP2 ADD SWAP1 POP PUSH2 0xEDD JUMP JUMPDEST POP POP POP SWAP4 SWAP3 POP POP POP JUMP JUMPDEST PUSH0 DUP3 PUSH1 0x1F DUP4 ADD SLT PUSH2 0xF40 JUMPI PUSH2 0xF3F PUSH2 0xD3B JUMP JUMPDEST JUMPDEST DUP2 CALLDATALOAD PUSH2 0xF50 DUP5 DUP3 PUSH1 0x20 DUP7 ADD PUSH2 0xEA6 JUMP JUMPDEST SWAP2 POP POP SWAP3 SWAP2 POP POP JUMP JUMPDEST PUSH0 DUP2 SWAP1 POP SWAP2 SWAP1 POP JUMP JUMPDEST PUSH2 0xF6B DUP2 PUSH2 0xF59 JUMP JUMPDEST DUP2 EQ PUSH2 0xF75 JUMPI PUSH0 DUP1 REVERT JUMPDEST POP JUMP JUMPDEST PUSH0 DUP2 CALLDATALOAD SWAP1 POP PUSH2 0xF86 DUP2 PUSH2 0xF62 JUMP JUMPDEST SWAP3 SWAP2 POP POP JUMP JUMPDEST PUSH0 DUP1 PUSH0 DUP1 PUSH0 PUSH1 0xA0 DUP7 DUP9 SUB SLT ISZERO PUSH2 0xFA5 JUMPI PUSH2 0xFA4 PUSH2 0xC7D JUMP JUMPDEST JUMPDEST PUSH0 DUP7 ADD CALLDATALOAD PUSH8 0xFFFFFFFFFFFFFFFF DUP2 GT ISZERO PUSH2 0xFC2 JUMPI PUSH2 0xFC1 PUSH2 0xC81 JUMP JUMPDEST JUMPDEST PUSH2 0xFCE DUP9 DUP3 DUP10 ADD PUSH2 0xE4A JUMP JUMPDEST SWAP6 POP POP PUSH1 0x20 DUP7 ADD CALLDATALOAD PUSH8 0xFFFFFFFFFFFFFFFF DUP2 GT ISZERO PUSH2 0xFEF JUMPI PUSH2 0xFEE PUSH2 0xC81 JUMP JUMPDEST JUMPDEST PUSH2 0xFFB DUP9 DUP3 DUP10 ADD PUSH2 0xE4A JUMP JUMPDEST SWAP5 POP POP PUSH1 0x40 DUP7 ADD CALLDATALOAD PUSH8 0xFFFFFFFFFFFFFFFF DUP2 GT ISZERO PUSH2 0x101C JUMPI PUSH2 0x101B PUSH2 0xC81 JUMP JUMPDEST JUMPDEST PUSH2 0x1028 DUP9 DUP3 DUP10 ADD PUSH2 0xF2C JUMP JUMPDEST SWAP4 POP POP PUSH1 0x60 PUSH2 0x1039 DUP9 DUP3 DUP10 ADD PUSH2 0xCA4 JUMP JUMPDEST SWAP3 POP POP PUSH1 0x80 PUSH2 0x104A DUP9 DUP3 DUP10 ADD PUSH2 0xF78 JUMP JUMPDEST SWAP2 POP POP SWAP3 SWAP6 POP SWAP3 SWAP6 SWAP1 SWAP4 POP JUMP JUMPDEST PUSH0 DUP2 MLOAD SWAP1 POP SWAP2 SWAP1 POP JUMP JUMPDEST PUSH0 DUP3 DUP3 MSTORE PUSH1 0x20 DUP3 ADD SWAP1 POP SWAP3 SWAP2 POP POP JUMP JUMPDEST DUP3 DUP2 DUP4 MCOPY PUSH0 DUP4 DUP4 ADD MSTORE POP POP POP JUMP JUMPDEST PUSH0 PUSH2 0x1089 DUP3 PUSH2 0x1057 JUMP JUMPDEST PUSH2 0x1093 DUP2 DUP6 PUSH2 0x1061 JUMP JUMPDEST SWAP4 POP PUSH2 0x10A3 DUP2 DUP6 PUSH1 0x20 DUP7 ADD PUSH2 0x1071 JUMP JUMPDEST PUSH2 0x10AC DUP2 PUSH2 0xD43 JUMP JUMPDEST DUP5 ADD SWAP2 POP POP SWAP3 SWAP2 POP POP JUMP JUMPDEST PUSH2 0x10C0 DUP2 PUSH2 0xC85 JUMP JUMPDEST DUP3 MSTORE POP POP JUMP JUMPDEST PUSH2 0x10CF DUP2 PUSH2 0xF59 JUMP JUMPDEST DUP3 MSTORE POP POP JUMP JUMPDEST PUSH0 PUSH1 0x80 DUP3 ADD SWAP1 POP DUP2 DUP2 SUB PUSH0 DUP4 ADD MSTORE PUSH2 0x10ED DUP2 DUP8 PUSH2 0x107F JUMP JUMPDEST SWAP1 POP DUP2 DUP2 SUB PUSH1 0x20 DUP4 ADD MSTORE PUSH2 0x1101 DUP2 DUP7 PUSH2 0x107F JUMP JUMPDEST SWAP1 POP PUSH2 0x1110 PUSH1 0x40 DUP4 ADD DUP6 PUSH2 0x10B7 JUMP JUMPDEST PUSH2 0x111D PUSH1 0x60 DUP4 ADD DUP5 PUSH2 0x10C6 JUMP JUMPDEST SWAP6 SWAP5 POP POP POP POP POP JUMP JUMPDEST PUSH2 0x112F DUP2 PUSH2 0xD02 JUMP JUMPDEST DUP2 EQ PUSH2 0x1139 JUMPI PUSH0 DUP1 REVERT JUMPDEST POP JUMP JUMPDEST PUSH0 DUP2 CALLDATALOAD SWAP1 POP PUSH2 0x114A DUP2 PUSH2 0x1126 JUMP JUMPDEST SWAP3 SWAP2 POP POP JUMP JUMPDEST PUSH0 PUSH1 0x20 DUP3 DUP5 SUB SLT ISZERO PUSH2 0x1165 JUMPI PUSH2 0x1164 PUSH2 0xC7D JUMP JUMPDEST JUMPDEST PUSH0 PUSH2 0x1172 DUP5 DUP3 DUP6 ADD PUSH2 0x113C JUMP JUMPDEST SWAP2 POP POP SWAP3 SWAP2 POP POP JUMP JUMPDEST PUSH32 0x4E487B7100000000000000000000000000000000000000000000000000000000 PUSH0 MSTORE PUSH1 0x21 PUSH1 0x4 MSTORE PUSH1 0x24 PUSH0 REVERT JUMPDEST PUSH1 0x3 DUP2 LT PUSH2 0x11B9 JUMPI PUSH2 0x11B8 PUSH2 0x117B JUMP JUMPDEST JUMPDEST POP JUMP JUMPDEST PUSH0 DUP2 SWAP1 POP PUSH2 0x11C9 DUP3 PUSH2 0x11A8 JUMP JUMPDEST SWAP2 SWAP1 POP JUMP JUMPDEST PUSH0 PUSH2 0x11D8 DUP3 PUSH2 0x11BC JUMP JUMPDEST SWAP1 POP SWAP2 SWAP1 POP JUMP JUMPDEST PUSH2 0x11E8 DUP2 PUSH2 0x11CE JUMP JUMPDEST DUP3 MSTORE POP POP JUMP JUMPDEST PUSH0 PUSH1 0x20 DUP3 ADD SWAP1 POP PUSH2 0x1201 PUSH0 DUP4 ADD DUP5 PUSH2 0x11DF JUMP JUMPDEST SWAP3 SWAP2 POP POP JUMP JUMPDEST PUSH0 DUP2 MLOAD SWAP1 POP SWAP2 SWAP1 POP JUMP JUMPDEST PUSH0 DUP3 DUP3 MSTORE PUSH1 0x20 DUP3 ADD SWAP1 POP SWAP3 SWAP2 POP POP JUMP JUMPDEST PUSH0 DUP2 SWAP1 POP PUSH1 0x20 DUP3 ADD SWAP1 POP SWAP2 SWAP1 POP JUMP JUMPDEST PUSH0 DUP3 DUP3 MSTORE PUSH1 0x20 DUP3 ADD SWAP1 POP SWAP3 SWAP2 POP POP JUMP JUMPDEST PUSH0 PUSH2 0x124A DUP3 PUSH2 0x1057 JUMP JUMPDEST PUSH2 0x1254 DUP2 DUP6 PUSH2 0x1230 JUMP JUMPDEST SWAP4 POP PUSH2 0x1264 DUP2 DUP6 PUSH1 0x20 DUP7 ADD PUSH2 0x1071 JUMP JUMPDEST PUSH2 0x126D DUP2 PUSH2 0xD43 JUMP JUMPDEST DUP5 ADD SWAP2 POP POP SWAP3 SWAP2 POP POP JUMP JUMPDEST PUSH0 DUP2 MLOAD SWAP1 POP SWAP2 SWAP1 POP JUMP JUMPDEST PUSH0 DUP3 DUP3 MSTORE PUSH1 0x20 DUP3 ADD SWAP1 POP SWAP3 SWAP2 POP POP JUMP JUMPDEST PUSH0 DUP2 SWAP1 POP PUSH1 0x20 DUP3 ADD SWAP1 POP SWAP2 SWAP1 POP JUMP JUMPDEST PUSH0 PUSH2 0x12AC DUP4 DUP4 PUSH2 0x1240 JUMP JUMPDEST SWAP1 POP SWAP3 SWAP2 POP POP JUMP JUMPDEST PUSH0 PUSH1 0x20 DUP3 ADD SWAP1 POP SWAP2 SWAP1 POP JUMP JUMPDEST PUSH0 PUSH2 0x12CA DUP3 PUSH2 0x1278 JUMP JUMPDEST PUSH2 0x12D4 DUP2 DUP6 PUSH2 0x1282 JUMP JUMPDEST SWAP4 POP DUP4 PUSH1 0x20 DUP3 MUL DUP6 ADD PUSH2 0x12E6 DUP6 PUSH2 0x1292 JUMP JUMPDEST DUP1 PUSH0 JUMPDEST DUP6 DUP2 LT ISZERO PUSH2 0x1321 JUMPI DUP5 DUP5 SUB DUP10 MSTORE DUP2 MLOAD PUSH2 0x1302 DUP6 DUP3 PUSH2 0x12A1 JUMP JUMPDEST SWAP5 POP PUSH2 0x130D DUP4 PUSH2 0x12B4 JUMP JUMPDEST SWAP3 POP PUSH1 0x20 DUP11 ADD SWAP10 POP POP PUSH1 0x1 DUP2 ADD SWAP1 POP PUSH2 0x12E9 JUMP JUMPDEST POP DUP3 SWAP8 POP DUP8 SWAP6 POP POP POP POP POP POP SWAP3 SWAP2 POP POP JUMP JUMPDEST PUSH2 0x133C DUP2 PUSH2 0xC85 JUMP JUMPDEST DUP3 MSTORE POP POP JUMP JUMPDEST PUSH2 0x134B DUP2 PUSH2 0xF59 JUMP JUMPDEST DUP3 MSTORE POP POP JUMP JUMPDEST PUSH0 PUSH1 0xA0 DUP4 ADD PUSH0 DUP4 ADD MLOAD DUP5 DUP3 SUB PUSH0 DUP7 ADD MSTORE PUSH2 0x136B DUP3 DUP3 PUSH2 0x1240 JUMP JUMPDEST SWAP2 POP POP PUSH1 0x20 DUP4 ADD MLOAD DUP5 DUP3 SUB PUSH1 0x20 DUP7 ADD MSTORE PUSH2 0x1385 DUP3 DUP3 PUSH2 0x1240 JUMP JUMPDEST SWAP2 POP POP PUSH1 0x40 DUP4 ADD MLOAD DUP5 DUP3 SUB PUSH1 0x40 DUP7 ADD MSTORE PUSH2 0x139F DUP3 DUP3 PUSH2 0x12C0 JUMP JUMPDEST SWAP2 POP POP PUSH1 0x60 DUP4 ADD MLOAD PUSH2 0x13B4 PUSH1 0x60 DUP7 ADD DUP3 PUSH2 0x1333 JUMP JUMPDEST POP PUSH1 0x80 DUP4 ADD MLOAD PUSH2 0x13C7 PUSH1 0x80 DUP7 ADD DUP3 PUSH2 0x1342 JUMP JUMPDEST POP DUP1 SWAP2 POP POP SWAP3 SWAP2 POP POP JUMP JUMPDEST PUSH0 PUSH2 0x13DD DUP4 DUP4 PUSH2 0x1351 JUMP JUMPDEST SWAP1 POP SWAP3 SWAP2 POP POP JUMP JUMPDEST PUSH0 PUSH1 0x20 DUP3 ADD SWAP1 POP SWAP2 SWAP1 POP JUMP JUMPDEST PUSH0 PUSH2 0x13FB DUP3 PUSH2 0x1207 JUMP JUMPDEST PUSH2 0x1405 DUP2 DUP6 PUSH2 0x1211 JUMP JUMPDEST SWAP4 POP DUP4 PUSH1 0x20 DUP3 MUL DUP6 ADD PUSH2 0x1417 DUP6 PUSH2 0x1221 JUMP JUMPDEST DUP1 PUSH0 JUMPDEST DUP6 DUP2 LT ISZERO PUSH2 0x1452 JUMPI DUP5 DUP5 SUB DUP10 MSTORE DUP2 MLOAD PUSH2 0x1433 DUP6 DUP3 PUSH2 0x13D2 JUMP JUMPDEST SWAP5 POP PUSH2 0x143E DUP4 PUSH2 0x13E5 JUMP JUMPDEST SWAP3 POP PUSH1 0x20 DUP11 ADD SWAP10 POP POP PUSH1 0x1 DUP2 ADD SWAP1 POP PUSH2 0x141A JUMP JUMPDEST POP DUP3 SWAP8 POP DUP8 SWAP6 POP POP POP POP POP POP SWAP3 SWAP2 POP POP JUMP JUMPDEST PUSH0 PUSH1 0x20 DUP3 ADD SWAP1 POP DUP2 DUP2 SUB PUSH0 DUP4 ADD MSTORE PUSH2 0x147C DUP2 DUP5 PUSH2 0x13F1 JUMP JUMPDEST SWAP1 POP SWAP3 SWAP2 POP POP JUMP JUMPDEST PUSH0 PUSH8 0xFFFFFFFFFFFFFFFF DUP3 GT ISZERO PUSH2 0x149E JUMPI PUSH2 0x149D PUSH2 0xD53 JUMP JUMPDEST JUMPDEST PUSH1 0x20 DUP3 MUL SWAP1 POP PUSH1 0x20 DUP2 ADD SWAP1 POP SWAP2 SWAP1 POP JUMP JUMPDEST PUSH0 PUSH2 0x14C1 PUSH2 0x14BC DUP5 PUSH2 0x1484 JUMP JUMPDEST PUSH2 0xDB1 JUMP JUMPDEST SWAP1 POP DUP1 DUP4 DUP3 MSTORE PUSH1 0x20 DUP3 ADD SWAP1 POP PUSH1 0x20 DUP5 MUL DUP4 ADD DUP6 DUP2 GT ISZERO PUSH2 0x14E4 JUMPI PUSH2 0x14E3 PUSH2 0xEA2 JUMP JUMPDEST JUMPDEST DUP4 JUMPDEST DUP2 DUP2 LT ISZERO PUSH2 0x150D JUMPI DUP1 PUSH2 0x14F9 DUP9 DUP3 PUSH2 0xCA4 JUMP JUMPDEST DUP5 MSTORE PUSH1 0x20 DUP5 ADD SWAP4 POP POP PUSH1 0x20 DUP2 ADD SWAP1 POP PUSH2 0x14E6 JUMP JUMPDEST POP POP POP SWAP4 SWAP3 POP POP POP JUMP JUMPDEST PUSH0 DUP3 PUSH1 0x1F DUP4 ADD SLT PUSH2 0x152B JUMPI PUSH2 0x152A PUSH2 0xD3B JUMP JUMPDEST JUMPDEST DUP2 CALLDATALOAD PUSH2 0x153B DUP5 DUP3 PUSH1 0x20 DUP7 ADD PUSH2 0x14AF JUMP JUMPDEST SWAP2 POP POP SWAP3 SWAP2 POP POP JUMP JUMPDEST PUSH0 PUSH1 0x20 DUP3 DUP5 SUB SLT ISZERO PUSH2 0x1559 JUMPI PUSH2 0x1558 PUSH2 0xC7D JUMP JUMPDEST JUMPDEST PUSH0 DUP3 ADD CALLDATALOAD PUSH8 0xFFFFFFFFFFFFFFFF DUP2 GT ISZERO PUSH2 0x1576 JUMPI PUSH2 0x1575 PUSH2 0xC81 JUMP JUMPDEST JUMPDEST PUSH2 0x1582 DUP5 DUP3 DUP6 ADD PUSH2 0x1517 JUMP JUMPDEST SWAP2 POP POP SWAP3 SWAP2 POP POP JUMP JUMPDEST PUSH32 0x4E487B7100000000000000000000000000000000000000000000000000000000 PUSH0 MSTORE PUSH1 0x22 PUSH1 0x4 MSTORE PUSH1 0x24 PUSH0 REVERT JUMPDEST PUSH0 PUSH1 0x2 DUP3 DIV SWAP1 POP PUSH1 0x1 DUP3 AND DUP1 PUSH2 0x15CF JUMPI PUSH1 0x7F DUP3 AND SWAP2 POP JUMPDEST PUSH1 0x20 DUP3 LT DUP2 SUB PUSH2 0x15E2 JUMPI PUSH2 0x15E1 PUSH2 0x158B JUMP JUMPDEST JUMPDEST POP SWAP2 SWAP1 POP JUMP JUMPDEST PUSH0 DUP2 SWAP1 POP DUP2 PUSH0 MSTORE PUSH1 0x20 PUSH0 KECCAK256 SWAP1 POP SWAP2 SWAP1 POP JUMP JUMPDEST PUSH0 PUSH1 0x20 PUSH1 0x1F DUP4 ADD DIV SWAP1 POP SWAP2 SWAP1 POP JUMP JUMPDEST PUSH0 DUP3 DUP3 SHL SWAP1 POP SWAP3 SWAP2 POP POP JUMP JUMPDEST PUSH0 PUSH1 0x8 DUP4 MUL PUSH2 0x1644 PUSH32 0xFFFFFFFFFFFFFFFFFFFFFFFFFFFFFFFFFFFFFFFFFFFFFFFFFFFFFFFFFFFFFFFF DUP3 PUSH2 0x1609 JUMP JUMPDEST PUSH2 0x164E DUP7 DUP4 PUSH2 0x1609 JUMP JUMPDEST SWAP6 POP DUP1 NOT DUP5 AND SWAP4 POP DUP1 DUP7 AND DUP5 OR SWAP3 POP POP POP SWAP4 SWAP3 POP POP POP JUMP JUMPDEST PUSH0 DUP2 SWAP1 POP SWAP2 SWAP1 POP JUMP JUMPDEST PUSH0 PUSH2 0x1689 PUSH2 0x1684 PUSH2 0x167F DUP5 PUSH2 0xC85 JUMP JUMPDEST PUSH2 0x1666 JUMP JUMPDEST PUSH2 0xC85 JUMP JUMPDEST SWAP1 POP SWAP2 SWAP1 POP JUMP JUMPDEST PUSH0 DUP2 SWAP1 POP SWAP2 SWAP1 POP JUMP JUMPDEST PUSH2 0x16A2 DUP4 PUSH2 0x166F JUMP JUMPDEST PUSH2 0x16B6 PUSH2 0x16AE DUP3 PUSH2 0x1690 JUMP JUMPDEST DUP5 DUP5 SLOAD PUSH2 0x1615 JUMP JUMPDEST DUP3 SSTORE POP POP POP POP JUMP JUMPDEST PUSH0 SWAP1 JUMP JUMPDEST PUSH2 0x16CA PUSH2 0x16BE JUMP JUMPDEST PUSH2 0x16D5 DUP2 DUP5 DUP5 PUSH2 0x1699 JUMP JUMPDEST POP POP POP JUMP JUMPDEST JUMPDEST DUP2 DUP2 LT ISZERO PUSH2 0x16F8 JUMPI PUSH2 0x16ED PUSH0 DUP3 PUSH2 0x16C2 JUMP JUMPDEST PUSH1 0x1 DUP2 ADD SWAP1 POP PUSH2 0x16DB JUMP JUMPDEST POP POP JUMP JUMPDEST PUSH1 0x1F DUP3 GT ISZERO PUSH2 0x173D JUMPI PUSH2 0x170E DUP2 PUSH2 0x15E8 JUMP JUMPDEST PUSH2 0x1717 DUP5 PUSH2 0x15FA JUMP JUMPDEST DUP2 ADD PUSH1 0x20 DUP6 LT ISZERO PUSH2 0x1726 JUMPI DUP2 SWAP1 POP JUMPDEST PUSH2 0x173A PUSH2 0x1732 DUP6 PUSH2 0x15FA JUMP JUMPDEST DUP4 ADD DUP3 PUSH2 0x16DA JUMP JUMPDEST POP POP JUMPDEST POP POP POP JUMP JUMPDEST PUSH0 DUP3 DUP3 SHR SWAP1 POP SWAP3 SWAP2 POP POP JUMP JUMPDEST PUSH0 PUSH2 0x175D PUSH0 NOT DUP5 PUSH1 0x8 MUL PUSH2 0x1742 JUMP JUMPDEST NOT DUP1 DUP4 AND SWAP2 POP POP SWAP3 SWAP2 POP POP JUMP JUMPDEST PUSH0 PUSH2 0x1775 DUP4 DUP4 PUSH2 0x174E JUMP JUMPDEST SWAP2 POP DUP3 PUSH1 0x2 MUL DUP3 OR SWAP1 POP SWAP3 SWAP2 POP POP JUMP JUMPDEST PUSH2 0x178E DUP3 PUSH2 0x1057 JUMP JUMPDEST PUSH8 0xFFFFFFFFFFFFFFFF DUP2 GT ISZERO PUSH2 0x17A7 JUMPI PUSH2 0x17A6 PUSH2 0xD53 JUMP JUMPDEST JUMPDEST PUSH2 0x17B1 DUP3 SLOAD PUSH2 0x15B8 JUMP JUMPDEST PUSH2 0x17BC DUP3 DUP3 DUP6 PUSH2 0x16FC JUMP JUMPDEST PUSH0 PUSH1 0x20 SWAP1 POP PUSH1 0x1F DUP4 GT PUSH1 0x1 DUP2 EQ PUSH2 0x17ED JUMPI PUSH0 DUP5 ISZERO PUSH2 0x17DB JUMPI DUP3 DUP8 ADD MLOAD SWAP1 POP JUMPDEST PUSH2 0x17E5 DUP6 DUP3 PUSH2 0x176A JUMP JUMPDEST DUP7 SSTORE POP PUSH2 0x184C JUMP JUMPDEST PUSH1 0x1F NOT DUP5 AND PUSH2 0x17FB DUP7 PUSH2 0x15E8 JUMP JUMPDEST PUSH0 JUMPDEST DUP3 DUP2 LT ISZERO PUSH2 0x1822 JUMPI DUP5 DUP10 ADD MLOAD DUP3 SSTORE PUSH1 0x1 DUP3 ADD SWAP2 POP PUSH1 0x20 DUP6 ADD SWAP5 POP PUSH1 0x20 DUP2 ADD SWAP1 POP PUSH2 0x17FD JUMP JUMPDEST DUP7 DUP4 LT ISZERO PUSH2 0x183F JUMPI DUP5 DUP10 ADD MLOAD PUSH2 0x183B PUSH1 0x1F DUP10 AND DUP3 PUSH2 0x174E JUMP JUMPDEST DUP4 SSTORE POP JUMPDEST PUSH1 0x1 PUSH1 0x2 DUP9 MUL ADD DUP9 SSTORE POP POP POP JUMPDEST POP POP POP POP POP POP JUMP JUMPDEST PUSH32 0x4E487B7100000000000000000000000000000000000000000000000000000000 PUSH0 MSTORE PUSH1 0x32 PUSH1 0x4 MSTORE PUSH1 0x24 PUSH0 REVERT JUMPDEST PUSH32 0x4E487B7100000000000000000000000000000000000000000000000000000000 PUSH0 MSTORE PUSH1 0x11 PUSH1 0x4 MSTORE PUSH1 0x24 PUSH0 REVERT JUMPDEST PUSH0 PUSH2 0x18B8 DUP3 PUSH2 0xC85 JUMP JUMPDEST SWAP2 POP PUSH2 0x18C3 DUP4 PUSH2 0xC85 JUMP JUMPDEST SWAP3 POP DUP3 DUP3 ADD SWAP1 POP DUP1 DUP3 GT ISZERO PUSH2 0x18DB JUMPI PUSH2 0x18DA PUSH2 0x1881 JUMP JUMPDEST JUMPDEST SWAP3 SWAP2 POP POP JUMP JUMPDEST PUSH32 0x496E73756666696369656E742066756E64730000000000000000000000000000 PUSH0 DUP3 ADD MSTORE POP JUMP JUMPDEST PUSH0 PUSH2 0x1915 PUSH1 0x12 DUP4 PUSH2 0x1061 JUMP JUMPDEST SWAP2 POP PUSH2 0x1920 DUP3 PUSH2 0x18E1 JUMP JUMPDEST PUSH1 0x20 DUP3 ADD SWAP1 POP SWAP2 SWAP1 POP JUMP JUMPDEST PUSH0 PUSH1 0x20 DUP3 ADD SWAP1 POP DUP2 DUP2 SUB PUSH0 DUP4 ADD MSTORE PUSH2 0x1942 DUP2 PUSH2 0x1909 JUMP JUMPDEST SWAP1 POP SWAP2 SWAP1 POP JUMP INVALID LOG2 PUSH5 0x6970667358 0x22 SLT KECCAK256 0xCE TSTORE GAS PUSH8 0xABB9D7315B438D51 BLOBHASH 0xDB SWAP13 PUSH22 0x7B68941891005A2289E57EBB5F8EF14764736F6C6343 STOP ADDMOD BYTE STOP CALLER "
				},
				"gasEstimates": {
					"creation": {
						"codeDepositCost": "1305400",
						"executionCost": "1354",
						"totalCost": "1306754"
					},
					"external": {
						"AddPizzaToProducts(string,string,string[],uint256,int256)": "infinite",
						"BuyPizzas(uint256[])": "infinite",
						"GetPizzas()": "infinite",
						"pizzas(uint256)": "infinite",
						"receipts(uint256)": "4956",
						"roles(address)": "2965"
					}
				},
				"methodIdentifiers": {
					"AddPizzaToProducts(string,string,string[],uint256,int256)": "17c7dbbf",
					"BuyPizzas(uint256[])": "f27e9b5f",
					"GetPizzas()": "a112939e",
					"pizzas(uint256)": "6b67a1b2",
					"receipts(uint256)": "0f7ee1ec",
					"roles(address)": "99374642"
				}
			},
			"storageLayout": {
				"storage": [
					{
						"astId": 61,
						"contract": "contracts/PizzaSmartContract.sol:PizzaSmartContract",
						"label": "pizzas",
						"offset": 0,
						"slot": "0",
						"type": "t_array(t_struct(Pizza)57_storage)dyn_storage"
					},
					{
						"astId": 71,
						"contract": "contracts/PizzaSmartContract.sol:PizzaSmartContract",
						"label": "receipts",
						"offset": 0,
						"slot": "1",
						"type": "t_array(t_struct(Receipt)67_storage)dyn_storage"
					},
					{
						"astId": 76,
						"contract": "contracts/PizzaSmartContract.sol:PizzaSmartContract",
						"label": "roles",
						"offset": 0,
						"slot": "2",
						"type": "t_mapping(t_address,t_enum(Roles)5)"
					}
				],
				"types": {
					"t_address": {
						"encoding": "inplace",
						"label": "address",
						"numberOfBytes": "20"
					},
					"t_array(t_string_storage)dyn_storage": {
						"base": "t_string_storage",
						"encoding": "dynamic_array",
						"label": "string[]",
						"numberOfBytes": "32"
					},
					"t_array(t_struct(Pizza)57_storage)dyn_storage": {
						"base": "t_struct(Pizza)57_storage",
						"encoding": "dynamic_array",
						"label": "struct PizzaSmartContract.Pizza[]",
						"numberOfBytes": "32"
					},
					"t_array(t_struct(Receipt)67_storage)dyn_storage": {
						"base": "t_struct(Receipt)67_storage",
						"encoding": "dynamic_array",
						"label": "struct PizzaSmartContract.Receipt[]",
						"numberOfBytes": "32"
					},
					"t_array(t_uint256)dyn_storage": {
						"base": "t_uint256",
						"encoding": "dynamic_array",
						"label": "uint256[]",
						"numberOfBytes": "32"
					},
					"t_enum(Roles)5": {
						"encoding": "inplace",
						"label": "enum PizzaSmartContract.Roles",
						"numberOfBytes": "1"
					},
					"t_int256": {
						"encoding": "inplace",
						"label": "int256",
						"numberOfBytes": "32"
					},
					"t_mapping(t_address,t_enum(Roles)5)": {
						"encoding": "mapping",
						"key": "t_address",
						"label": "mapping(address => enum PizzaSmartContract.Roles)",
						"numberOfBytes": "32",
						"value": "t_enum(Roles)5"
					},
					"t_string_storage": {
						"encoding": "bytes",
						"label": "string",
						"numberOfBytes": "32"
					},
					"t_struct(Pizza)57_storage": {
						"encoding": "inplace",
						"label": "struct PizzaSmartContract.Pizza",
						"members": [
							{
								"astId": 47,
								"contract": "contracts/PizzaSmartContract.sol:PizzaSmartContract",
								"label": "Name",
								"offset": 0,
								"slot": "0",
								"type": "t_string_storage"
							},
							{
								"astId": 49,
								"contract": "contracts/PizzaSmartContract.sol:PizzaSmartContract",
								"label": "Description",
								"offset": 0,
								"slot": "1",
								"type": "t_string_storage"
							},
							{
								"astId": 52,
								"contract": "contracts/PizzaSmartContract.sol:PizzaSmartContract",
								"label": "Ingredients",
								"offset": 0,
								"slot": "2",
								"type": "t_array(t_string_storage)dyn_storage"
							},
							{
								"astId": 54,
								"contract": "contracts/PizzaSmartContract.sol:PizzaSmartContract",
								"label": "Price",
								"offset": 0,
								"slot": "3",
								"type": "t_uint256"
							},
							{
								"astId": 56,
								"contract": "contracts/PizzaSmartContract.sol:PizzaSmartContract",
								"label": "Rating",
								"offset": 0,
								"slot": "4",
								"type": "t_int256"
							}
						],
						"numberOfBytes": "160"
					},
					"t_struct(Receipt)67_storage": {
						"encoding": "inplace",
						"label": "struct PizzaSmartContract.Receipt",
						"members": [
							{
								"astId": 63,
								"contract": "contracts/PizzaSmartContract.sol:PizzaSmartContract",
								"label": "buyer",
								"offset": 0,
								"slot": "0",
								"type": "t_address"
							},
							{
								"astId": 66,
								"contract": "contracts/PizzaSmartContract.sol:PizzaSmartContract",
								"label": "buyedPizzasIndexes",
								"offset": 0,
								"slot": "1",
								"type": "t_array(t_uint256)dyn_storage"
							}
						],
						"numberOfBytes": "64"
					},
					"t_uint256": {
						"encoding": "inplace",
						"label": "uint256",
						"numberOfBytes": "32"
					}
				}
			},
			"userdoc": {
				"kind": "user",
				"methods": {},
				"version": 1
			}
		}
	}
}