{
	"contracts/PizzaSmartContract.sol": {
		"PizzaSmartContract": {
			"abi": [
				{
					"inputs": [],
					"stateMutability": "nonpayable",
					"type": "constructor"
				},
				{
					"inputs": [
						{
							"internalType": "string",
							"name": "name",
							"type": "string"
						},
						{
							"internalType": "string",
							"name": "description",
							"type": "string"
						},
						{
							"internalType": "string[]",
							"name": "ingredients",
							"type": "string[]"
						},
						{
							"internalType": "uint256",
							"name": "price",
							"type": "uint256"
						},
						{
							"internalType": "int256",
							"name": "rating",
							"type": "int256"
						}
					],
					"name": "AddPizzaToProducts",
					"outputs": [],
					"stateMutability": "nonpayable",
					"type": "function"
				},
				{
					"inputs": [
						{
							"internalType": "uint256",
							"name": "pizzaId",
							"type": "uint256"
						}
					],
					"name": "BuyPizzas",
					"outputs": [],
					"stateMutability": "payable",
					"type": "function"
				},
				{
					"inputs": [],
					"name": "GetPizzas",
					"outputs": [
						{
							"components": [
								{
									"internalType": "string",
									"name": "Name",
									"type": "string"
								},
								{
									"internalType": "string",
									"name": "Description",
									"type": "string"
								},
								{
									"internalType": "string[]",
									"name": "Ingredients",
									"type": "string[]"
								},
								{
									"internalType": "uint256",
									"name": "Price",
									"type": "uint256"
								},
								{
									"internalType": "int256",
									"name": "Rating",
									"type": "int256"
								}
							],
							"internalType": "struct PizzaSmartContract.Pizza[]",
							"name": "",
							"type": "tuple[]"
						}
					],
					"stateMutability": "view",
					"type": "function"
				},
				{
					"inputs": [
						{
							"internalType": "string",
							"name": "name",
							"type": "string"
						},
						{
							"internalType": "string",
							"name": "password",
							"type": "string"
						}
					],
					"name": "Registration",
					"outputs": [],
					"stateMutability": "nonpayable",
					"type": "function"
				},
				{
					"inputs": [],
					"name": "owner",
					"outputs": [
						{
							"internalType": "address payable",
							"name": "",
							"type": "address"
						}
					],
					"stateMutability": "view",
					"type": "function"
				},
				{
					"inputs": [
						{
							"internalType": "uint256",
							"name": "",
							"type": "uint256"
						}
					],
					"name": "pizzas",
					"outputs": [
						{
							"internalType": "string",
							"name": "Name",
							"type": "string"
						},
						{
							"internalType": "string",
							"name": "Description",
							"type": "string"
						},
						{
							"internalType": "uint256",
							"name": "Price",
							"type": "uint256"
						},
						{
							"internalType": "int256",
							"name": "Rating",
							"type": "int256"
						}
					],
					"stateMutability": "view",
					"type": "function"
				},
				{
					"inputs": [
						{
							"internalType": "uint256",
							"name": "",
							"type": "uint256"
						}
					],
					"name": "receipts",
					"outputs": [
						{
							"internalType": "address",
							"name": "buyer",
							"type": "address"
						},
						{
							"internalType": "string",
							"name": "buyedPizzaName",
							"type": "string"
						}
					],
					"stateMutability": "view",
					"type": "function"
				},
				{
					"inputs": [
						{
							"internalType": "address",
							"name": "",
							"type": "address"
						}
					],
					"name": "roles",
					"outputs": [
						{
							"internalType": "enum PizzaSmartContract.Roles",
							"name": "",
							"type": "uint8"
						}
					],
					"stateMutability": "view",
					"type": "function"
				},
				{
					"inputs": [
						{
							"internalType": "address",
							"name": "",
							"type": "address"
						}
					],
					"name": "users",
					"outputs": [
						{
							"internalType": "string",
							"name": "Name",
							"type": "string"
						},
						{
							"internalType": "string",
							"name": "Password",
							"type": "string"
						}
					],
					"stateMutability": "view",
					"type": "function"
				}
			],
			"devdoc": {
				"kind": "dev",
				"methods": {},
				"version": 1
			},
			"evm": {
				"assembly": "    /* \"contracts/PizzaSmartContract.sol\":61:2931  contract PizzaSmartContract... */\n  mstore(0x40, 0x80)\n    /* \"contracts/PizzaSmartContract.sol\":134:238  constructor()... */\n  callvalue\n  dup1\n  iszero\n  tag_1\n  jumpi\n  0x00\n  dup1\n  revert\ntag_1:\n  pop\n    /* \"contracts/PizzaSmartContract.sol\":180:190  msg.sender */\n  caller\n    /* \"contracts/PizzaSmartContract.sol\":164:169  owner */\n  0x00\n  dup1\n    /* \"contracts/PizzaSmartContract.sol\":164:191  owner = payable(msg.sender) */\n  0x0100\n  exp\n  dup2\n  sload\n  dup2\n  0xffffffffffffffffffffffffffffffffffffffff\n  mul\n  not\n  and\n  swap1\n  dup4\n  0xffffffffffffffffffffffffffffffffffffffff\n  and\n  mul\n  or\n  swap1\n  sstore\n  pop\n    /* \"contracts/PizzaSmartContract.sol\":217:230  Roles.Manager */\n  0x02\n    /* \"contracts/PizzaSmartContract.sol\":202:207  roles */\n  0x03\n    /* \"contracts/PizzaSmartContract.sol\":202:214  roles[owner] */\n  0x00\n    /* \"contracts/PizzaSmartContract.sol\":208:213  owner */\n  dup1\n  0x00\n  swap1\n  sload\n  swap1\n  0x0100\n  exp\n  swap1\n  div\n  0xffffffffffffffffffffffffffffffffffffffff\n  and\n    /* \"contracts/PizzaSmartContract.sol\":202:214  roles[owner] */\n  0xffffffffffffffffffffffffffffffffffffffff\n  and\n  0xffffffffffffffffffffffffffffffffffffffff\n  and\n  dup2\n  mstore\n  0x20\n  add\n  swap1\n  dup2\n  mstore\n  0x20\n  add\n  0x00\n  keccak256\n  0x00\n    /* \"contracts/PizzaSmartContract.sol\":202:230  roles[owner] = Roles.Manager */\n  0x0100\n  exp\n  dup2\n  sload\n  dup2\n  0xff\n  mul\n  not\n  and\n  swap1\n  dup4\n  0x02\n  dup2\n  gt\n  iszero\n  tag_4\n  jumpi\n  tag_5\n  tag_6\n  jump\t// in\ntag_5:\ntag_4:\n  mul\n  or\n  swap1\n  sstore\n  pop\n    /* \"contracts/PizzaSmartContract.sol\":61:2931  contract PizzaSmartContract... */\n  jump(tag_7)\n    /* \"#utility.yul\":7:187   */\ntag_6:\n    /* \"#utility.yul\":55:132   */\n  0x4e487b7100000000000000000000000000000000000000000000000000000000\n    /* \"#utility.yul\":52:53   */\n  0x00\n    /* \"#utility.yul\":45:133   */\n  mstore\n    /* \"#utility.yul\":152:156   */\n  0x21\n    /* \"#utility.yul\":149:150   */\n  0x04\n    /* \"#utility.yul\":142:157   */\n  mstore\n    /* \"#utility.yul\":176:180   */\n  0x24\n    /* \"#utility.yul\":173:174   */\n  0x00\n    /* \"#utility.yul\":166:181   */\n  revert\n    /* \"contracts/PizzaSmartContract.sol\":61:2931  contract PizzaSmartContract... */\ntag_7:\n  dataSize(sub_0)\n  dup1\n  dataOffset(sub_0)\n  0x00\n  codecopy\n  0x00\n  return\nstop\n\nsub_0: assembly {\n        /* \"contracts/PizzaSmartContract.sol\":61:2931  contract PizzaSmartContract... */\n      mstore(0x40, 0x80)\n      jumpi(tag_1, lt(calldatasize, 0x04))\n      shr(0xe0, calldataload(0x00))\n      dup1\n      0x8da5cb5b\n      gt\n      tag_11\n      jumpi\n      dup1\n      0x8da5cb5b\n      eq\n      tag_6\n      jumpi\n      dup1\n      0x99374642\n      eq\n      tag_7\n      jumpi\n      dup1\n      0xa112939e\n      eq\n      tag_8\n      jumpi\n      dup1\n      0xa79a241d\n      eq\n      tag_9\n      jumpi\n      dup1\n      0xa87430ba\n      eq\n      tag_10\n      jumpi\n      jump(tag_1)\n    tag_11:\n      dup1\n      0x0f7ee1ec\n      eq\n      tag_2\n      jumpi\n      dup1\n      0x17c7dbbf\n      eq\n      tag_3\n      jumpi\n      dup1\n      0x2e8ce9f2\n      eq\n      tag_4\n      jumpi\n      dup1\n      0x6b67a1b2\n      eq\n      tag_5\n      jumpi\n    tag_1:\n      0x00\n      dup1\n      revert\n        /* \"contracts/PizzaSmartContract.sol\":1070:1095  Receipt[] public receipts */\n    tag_2:\n      callvalue\n      dup1\n      iszero\n      tag_12\n      jumpi\n      0x00\n      dup1\n      revert\n    tag_12:\n      pop\n      tag_13\n      0x04\n      dup1\n      calldatasize\n      sub\n      dup2\n      add\n      swap1\n      tag_14\n      swap2\n      swap1\n      tag_15\n      jump\t// in\n    tag_14:\n      tag_16\n      jump\t// in\n    tag_13:\n      mload(0x40)\n      tag_17\n      swap3\n      swap2\n      swap1\n      tag_18\n      jump\t// in\n    tag_17:\n      mload(0x40)\n      dup1\n      swap2\n      sub\n      swap1\n      return\n        /* \"contracts/PizzaSmartContract.sol\":1199:1618  function AddPizzaToProducts(string memory name, string memory description, string[] memory ingredients, uint256 price, int rating) public OnlyManager... */\n    tag_3:\n      callvalue\n      dup1\n      iszero\n      tag_19\n      jumpi\n      0x00\n      dup1\n      revert\n    tag_19:\n      pop\n      tag_20\n      0x04\n      dup1\n      calldatasize\n      sub\n      dup2\n      add\n      swap1\n      tag_21\n      swap2\n      swap1\n      tag_22\n      jump\t// in\n    tag_21:\n      tag_23\n      jump\t// in\n    tag_20:\n      stop\n        /* \"contracts/PizzaSmartContract.sol\":2675:2928  function Registration(string memory name, string memory password) public... */\n    tag_4:\n      callvalue\n      dup1\n      iszero\n      tag_24\n      jumpi\n      0x00\n      dup1\n      revert\n    tag_24:\n      pop\n      tag_25\n      0x04\n      dup1\n      calldatasize\n      sub\n      dup2\n      add\n      swap1\n      tag_26\n      swap2\n      swap1\n      tag_27\n      jump\t// in\n    tag_26:\n      tag_28\n      jump\t// in\n    tag_25:\n      stop\n        /* \"contracts/PizzaSmartContract.sol\":948:969  Pizza[] public pizzas */\n    tag_5:\n      callvalue\n      dup1\n      iszero\n      tag_29\n      jumpi\n      0x00\n      dup1\n      revert\n    tag_29:\n      pop\n      tag_30\n      0x04\n      dup1\n      calldatasize\n      sub\n      dup2\n      add\n      swap1\n      tag_31\n      swap2\n      swap1\n      tag_15\n      jump\t// in\n    tag_31:\n      tag_32\n      jump\t// in\n    tag_30:\n      mload(0x40)\n      tag_33\n      swap5\n      swap4\n      swap3\n      swap2\n      swap1\n      tag_34\n      jump\t// in\n    tag_33:\n      mload(0x40)\n      dup1\n      swap2\n      sub\n      swap1\n      return\n        /* \"contracts/PizzaSmartContract.sol\":97:125  address payable public owner */\n    tag_6:\n      callvalue\n      dup1\n      iszero\n      tag_35\n      jumpi\n      0x00\n      dup1\n      revert\n    tag_35:\n      pop\n      tag_36\n      tag_37\n      jump\t// in\n    tag_36:\n      mload(0x40)\n      tag_38\n      swap2\n      swap1\n      tag_39\n      jump\t// in\n    tag_38:\n      mload(0x40)\n      dup1\n      swap2\n      sub\n      swap1\n      return\n        /* \"contracts/PizzaSmartContract.sol\":1106:1145  mapping (address => Roles) public roles */\n    tag_7:\n      callvalue\n      dup1\n      iszero\n      tag_40\n      jumpi\n      0x00\n      dup1\n      revert\n    tag_40:\n      pop\n      tag_41\n      0x04\n      dup1\n      calldatasize\n      sub\n      dup2\n      add\n      swap1\n      tag_42\n      swap2\n      swap1\n      tag_43\n      jump\t// in\n    tag_42:\n      tag_44\n      jump\t// in\n    tag_41:\n      mload(0x40)\n      tag_45\n      swap2\n      swap1\n      tag_46\n      jump\t// in\n    tag_45:\n      mload(0x40)\n      dup1\n      swap2\n      sub\n      swap1\n      return\n        /* \"contracts/PizzaSmartContract.sol\":2572:2667  function GetPizzas() public view returns (Pizza[] memory)... */\n    tag_8:\n      callvalue\n      dup1\n      iszero\n      tag_47\n      jumpi\n      0x00\n      dup1\n      revert\n    tag_47:\n      pop\n      tag_48\n      tag_49\n      jump\t// in\n    tag_48:\n      mload(0x40)\n      tag_50\n      swap2\n      swap1\n      tag_51\n      jump\t// in\n    tag_50:\n      mload(0x40)\n      dup1\n      swap2\n      sub\n      swap1\n      return\n        /* \"contracts/PizzaSmartContract.sol\":1626:2564  function BuyPizzas(uint256 pizzaId) public payable  OnlyUser... */\n    tag_9:\n      tag_52\n      0x04\n      dup1\n      calldatasize\n      sub\n      dup2\n      add\n      swap1\n      tag_53\n      swap2\n      swap1\n      tag_15\n      jump\t// in\n    tag_53:\n      tag_54\n      jump\t// in\n    tag_52:\n      stop\n        /* \"contracts/PizzaSmartContract.sol\":1152:1190  mapping (address => User) public users */\n    tag_10:\n      callvalue\n      dup1\n      iszero\n      tag_55\n      jumpi\n      0x00\n      dup1\n      revert\n    tag_55:\n      pop\n      tag_56\n      0x04\n      dup1\n      calldatasize\n      sub\n      dup2\n      add\n      swap1\n      tag_57\n      swap2\n      swap1\n      tag_43\n      jump\t// in\n    tag_57:\n      tag_58\n      jump\t// in\n    tag_56:\n      mload(0x40)\n      tag_59\n      swap3\n      swap2\n      swap1\n      tag_60\n      jump\t// in\n    tag_59:\n      mload(0x40)\n      dup1\n      swap2\n      sub\n      swap1\n      return\n        /* \"contracts/PizzaSmartContract.sol\":1070:1095  Receipt[] public receipts */\n    tag_16:\n      0x02\n      dup2\n      dup2\n      sload\n      dup2\n      lt\n      tag_61\n      jumpi\n      0x00\n      dup1\n      revert\n    tag_61:\n      swap1\n      0x00\n      mstore\n      keccak256(0x00, 0x20)\n      swap1\n      0x02\n      mul\n      add\n      0x00\n      swap2\n      pop\n      swap1\n      pop\n      dup1\n      0x00\n      add\n      0x00\n      swap1\n      sload\n      swap1\n      0x0100\n      exp\n      swap1\n      div\n      0xffffffffffffffffffffffffffffffffffffffff\n      and\n      swap1\n      dup1\n      0x01\n      add\n      dup1\n      sload\n      tag_63\n      swap1\n      tag_64\n      jump\t// in\n    tag_63:\n      dup1\n      0x1f\n      add\n      0x20\n      dup1\n      swap2\n      div\n      mul\n      0x20\n      add\n      mload(0x40)\n      swap1\n      dup2\n      add\n      0x40\n      mstore\n      dup1\n      swap3\n      swap2\n      swap1\n      dup2\n      dup2\n      mstore\n      0x20\n      add\n      dup3\n      dup1\n      sload\n      tag_65\n      swap1\n      tag_64\n      jump\t// in\n    tag_65:\n      dup1\n      iszero\n      tag_66\n      jumpi\n      dup1\n      0x1f\n      lt\n      tag_67\n      jumpi\n      0x0100\n      dup1\n      dup4\n      sload\n      div\n      mul\n      dup4\n      mstore\n      swap2\n      0x20\n      add\n      swap2\n      jump(tag_66)\n    tag_67:\n      dup3\n      add\n      swap2\n      swap1\n      0x00\n      mstore\n      keccak256(0x00, 0x20)\n      swap1\n    tag_68:\n      dup2\n      sload\n      dup2\n      mstore\n      swap1\n      0x01\n      add\n      swap1\n      0x20\n      add\n      dup1\n      dup4\n      gt\n      tag_68\n      jumpi\n      dup3\n      swap1\n      sub\n      0x1f\n      and\n      dup3\n      add\n      swap2\n    tag_66:\n      pop\n      pop\n      pop\n      pop\n      pop\n      swap1\n      pop\n      dup3\n      jump\t// out\n        /* \"contracts/PizzaSmartContract.sol\":1199:1618  function AddPizzaToProducts(string memory name, string memory description, string[] memory ingredients, uint256 price, int rating) public OnlyManager... */\n    tag_23:\n        /* \"contracts/PizzaSmartContract.sol\":475:488  Roles.Manager */\n      0x02\n        /* \"contracts/PizzaSmartContract.sol\":454:488  roles[msg.sender] == Roles.Manager */\n      dup1\n      dup2\n      gt\n      iszero\n      tag_70\n      jumpi\n      tag_71\n      tag_72\n      jump\t// in\n    tag_71:\n    tag_70:\n        /* \"contracts/PizzaSmartContract.sol\":454:459  roles */\n      0x03\n        /* \"contracts/PizzaSmartContract.sol\":454:471  roles[msg.sender] */\n      0x00\n        /* \"contracts/PizzaSmartContract.sol\":460:470  msg.sender */\n      caller\n        /* \"contracts/PizzaSmartContract.sol\":454:471  roles[msg.sender] */\n      0xffffffffffffffffffffffffffffffffffffffff\n      and\n      0xffffffffffffffffffffffffffffffffffffffff\n      and\n      dup2\n      mstore\n      0x20\n      add\n      swap1\n      dup2\n      mstore\n      0x20\n      add\n      0x00\n      keccak256\n      0x00\n      swap1\n      sload\n      swap1\n      0x0100\n      exp\n      swap1\n      div\n      0xff\n      and\n        /* \"contracts/PizzaSmartContract.sol\":454:488  roles[msg.sender] == Roles.Manager */\n      0x02\n      dup2\n      gt\n      iszero\n      tag_73\n      jumpi\n      tag_74\n      tag_72\n      jump\t// in\n    tag_74:\n    tag_73:\n      eq\n        /* \"contracts/PizzaSmartContract.sol\":446:489  require(roles[msg.sender] == Roles.Manager) */\n      tag_75\n      jumpi\n      0x00\n      dup1\n      revert\n    tag_75:\n        /* \"contracts/PizzaSmartContract.sol\":1365:1386  Pizza memory newPizza */\n      0x00\n        /* \"contracts/PizzaSmartContract.sol\":1389:1576  Pizza(... */\n      mload(0x40)\n      dup1\n      0xa0\n      add\n      0x40\n      mstore\n      dup1\n        /* \"contracts/PizzaSmartContract.sol\":1426:1430  name */\n      dup8\n        /* \"contracts/PizzaSmartContract.sol\":1389:1576  Pizza(... */\n      dup2\n      mstore\n      0x20\n      add\n        /* \"contracts/PizzaSmartContract.sol\":1458:1469  description */\n      dup7\n        /* \"contracts/PizzaSmartContract.sol\":1389:1576  Pizza(... */\n      dup2\n      mstore\n      0x20\n      add\n        /* \"contracts/PizzaSmartContract.sol\":1497:1508  ingredients */\n      dup6\n        /* \"contracts/PizzaSmartContract.sol\":1389:1576  Pizza(... */\n      dup2\n      mstore\n      0x20\n      add\n        /* \"contracts/PizzaSmartContract.sol\":1530:1535  price */\n      dup5\n        /* \"contracts/PizzaSmartContract.sol\":1389:1576  Pizza(... */\n      dup2\n      mstore\n      0x20\n      add\n        /* \"contracts/PizzaSmartContract.sol\":1558:1564  rating */\n      dup4\n        /* \"contracts/PizzaSmartContract.sol\":1389:1576  Pizza(... */\n      dup2\n      mstore\n      pop\n        /* \"contracts/PizzaSmartContract.sol\":1365:1576  Pizza memory newPizza = Pizza(... */\n      swap1\n      pop\n        /* \"contracts/PizzaSmartContract.sol\":1589:1595  pizzas */\n      0x01\n        /* \"contracts/PizzaSmartContract.sol\":1601:1609  newPizza */\n      dup2\n        /* \"contracts/PizzaSmartContract.sol\":1589:1610  pizzas.push(newPizza) */\n      swap1\n      dup1\n      0x01\n      dup2\n      sload\n      add\n      dup1\n      dup3\n      sstore\n      dup1\n      swap2\n      pop\n      pop\n      0x01\n      swap1\n      sub\n      swap1\n      0x00\n      mstore\n      keccak256(0x00, 0x20)\n      swap1\n      0x05\n      mul\n      add\n      0x00\n      swap1\n      swap2\n      swap1\n      swap2\n      swap1\n      swap2\n      pop\n      0x00\n      dup3\n      add\n      mload\n      dup2\n      0x00\n      add\n      swap1\n      dup2\n      tag_78\n      swap2\n      swap1\n      tag_79\n      jump\t// in\n    tag_78:\n      pop\n      0x20\n      dup3\n      add\n      mload\n      dup2\n      0x01\n      add\n      swap1\n      dup2\n      tag_80\n      swap2\n      swap1\n      tag_79\n      jump\t// in\n    tag_80:\n      pop\n      0x40\n      dup3\n      add\n      mload\n      dup2\n      0x02\n      add\n      swap1\n      dup1\n      mload\n      swap1\n      0x20\n      add\n      swap1\n      tag_81\n      swap3\n      swap2\n      swap1\n      tag_82\n      jump\t// in\n    tag_81:\n      pop\n      0x60\n      dup3\n      add\n      mload\n      dup2\n      0x03\n      add\n      sstore\n      0x80\n      dup3\n      add\n      mload\n      dup2\n      0x04\n      add\n      sstore\n      pop\n      pop\n        /* \"contracts/PizzaSmartContract.sol\":1354:1618  {... */\n      pop\n        /* \"contracts/PizzaSmartContract.sol\":1199:1618  function AddPizzaToProducts(string memory name, string memory description, string[] memory ingredients, uint256 price, int rating) public OnlyManager... */\n      pop\n      pop\n      pop\n      pop\n      pop\n      jump\t// out\n        /* \"contracts/PizzaSmartContract.sol\":2675:2928  function Registration(string memory name, string memory password) public... */\n    tag_28:\n        /* \"contracts/PizzaSmartContract.sol\":2793:2803  Roles.User */\n      0x01\n        /* \"contracts/PizzaSmartContract.sol\":2772:2803  roles[msg.sender] != Roles.User */\n      0x02\n      dup2\n      gt\n      iszero\n      tag_84\n      jumpi\n      tag_85\n      tag_72\n      jump\t// in\n    tag_85:\n    tag_84:\n        /* \"contracts/PizzaSmartContract.sol\":2772:2777  roles */\n      0x03\n        /* \"contracts/PizzaSmartContract.sol\":2772:2789  roles[msg.sender] */\n      0x00\n        /* \"contracts/PizzaSmartContract.sol\":2778:2788  msg.sender */\n      caller\n        /* \"contracts/PizzaSmartContract.sol\":2772:2789  roles[msg.sender] */\n      0xffffffffffffffffffffffffffffffffffffffff\n      and\n      0xffffffffffffffffffffffffffffffffffffffff\n      and\n      dup2\n      mstore\n      0x20\n      add\n      swap1\n      dup2\n      mstore\n      0x20\n      add\n      0x00\n      keccak256\n      0x00\n      swap1\n      sload\n      swap1\n      0x0100\n      exp\n      swap1\n      div\n      0xff\n      and\n        /* \"contracts/PizzaSmartContract.sol\":2772:2803  roles[msg.sender] != Roles.User */\n      0x02\n      dup2\n      gt\n      iszero\n      tag_86\n      jumpi\n      tag_87\n      tag_72\n      jump\t// in\n    tag_87:\n    tag_86:\n      sub\n        /* \"contracts/PizzaSmartContract.sol\":2764:2828  require(roles[msg.sender] != Roles.User, \"You're user alreeady\") */\n      tag_88\n      jumpi\n      mload(0x40)\n      0x08c379a000000000000000000000000000000000000000000000000000000000\n      dup2\n      mstore\n      0x04\n      add\n      tag_89\n      swap1\n      tag_90\n      jump\t// in\n    tag_89:\n      mload(0x40)\n      dup1\n      swap2\n      sub\n      swap1\n      revert\n    tag_88:\n        /* \"contracts/PizzaSmartContract.sol\":2859:2869  Roles.User */\n      0x01\n        /* \"contracts/PizzaSmartContract.sol\":2839:2844  roles */\n      0x03\n        /* \"contracts/PizzaSmartContract.sol\":2839:2856  roles[msg.sender] */\n      0x00\n        /* \"contracts/PizzaSmartContract.sol\":2845:2855  msg.sender */\n      caller\n        /* \"contracts/PizzaSmartContract.sol\":2839:2856  roles[msg.sender] */\n      0xffffffffffffffffffffffffffffffffffffffff\n      and\n      0xffffffffffffffffffffffffffffffffffffffff\n      and\n      dup2\n      mstore\n      0x20\n      add\n      swap1\n      dup2\n      mstore\n      0x20\n      add\n      0x00\n      keccak256\n      0x00\n        /* \"contracts/PizzaSmartContract.sol\":2839:2869  roles[msg.sender] = Roles.User */\n      0x0100\n      exp\n      dup2\n      sload\n      dup2\n      0xff\n      mul\n      not\n      and\n      swap1\n      dup4\n      0x02\n      dup2\n      gt\n      iszero\n      tag_91\n      jumpi\n      tag_92\n      tag_72\n      jump\t// in\n    tag_92:\n    tag_91:\n      mul\n      or\n      swap1\n      sstore\n      pop\n        /* \"contracts/PizzaSmartContract.sol\":2900:2920  User(name, password) */\n      mload(0x40)\n      dup1\n      0x40\n      add\n      0x40\n      mstore\n      dup1\n        /* \"contracts/PizzaSmartContract.sol\":2905:2909  name */\n      dup4\n        /* \"contracts/PizzaSmartContract.sol\":2900:2920  User(name, password) */\n      dup2\n      mstore\n      0x20\n      add\n        /* \"contracts/PizzaSmartContract.sol\":2911:2919  password */\n      dup3\n        /* \"contracts/PizzaSmartContract.sol\":2900:2920  User(name, password) */\n      dup2\n      mstore\n      pop\n        /* \"contracts/PizzaSmartContract.sol\":2880:2885  users */\n      0x04\n        /* \"contracts/PizzaSmartContract.sol\":2880:2897  users[msg.sender] */\n      0x00\n        /* \"contracts/PizzaSmartContract.sol\":2886:2896  msg.sender */\n      caller\n        /* \"contracts/PizzaSmartContract.sol\":2880:2897  users[msg.sender] */\n      0xffffffffffffffffffffffffffffffffffffffff\n      and\n      0xffffffffffffffffffffffffffffffffffffffff\n      and\n      dup2\n      mstore\n      0x20\n      add\n      swap1\n      dup2\n      mstore\n      0x20\n      add\n      0x00\n      keccak256\n        /* \"contracts/PizzaSmartContract.sol\":2880:2920  users[msg.sender] = User(name, password) */\n      0x00\n      dup3\n      add\n      mload\n      dup2\n      0x00\n      add\n      swap1\n      dup2\n      tag_93\n      swap2\n      swap1\n      tag_79\n      jump\t// in\n    tag_93:\n      pop\n      0x20\n      dup3\n      add\n      mload\n      dup2\n      0x01\n      add\n      swap1\n      dup2\n      tag_94\n      swap2\n      swap1\n      tag_79\n      jump\t// in\n    tag_94:\n      pop\n      swap1\n      pop\n      pop\n        /* \"contracts/PizzaSmartContract.sol\":2675:2928  function Registration(string memory name, string memory password) public... */\n      pop\n      pop\n      jump\t// out\n        /* \"contracts/PizzaSmartContract.sol\":948:969  Pizza[] public pizzas */\n    tag_32:\n      0x01\n      dup2\n      dup2\n      sload\n      dup2\n      lt\n      tag_95\n      jumpi\n      0x00\n      dup1\n      revert\n    tag_95:\n      swap1\n      0x00\n      mstore\n      keccak256(0x00, 0x20)\n      swap1\n      0x05\n      mul\n      add\n      0x00\n      swap2\n      pop\n      swap1\n      pop\n      dup1\n      0x00\n      add\n      dup1\n      sload\n      tag_97\n      swap1\n      tag_64\n      jump\t// in\n    tag_97:\n      dup1\n      0x1f\n      add\n      0x20\n      dup1\n      swap2\n      div\n      mul\n      0x20\n      add\n      mload(0x40)\n      swap1\n      dup2\n      add\n      0x40\n      mstore\n      dup1\n      swap3\n      swap2\n      swap1\n      dup2\n      dup2\n      mstore\n      0x20\n      add\n      dup3\n      dup1\n      sload\n      tag_98\n      swap1\n      tag_64\n      jump\t// in\n    tag_98:\n      dup1\n      iszero\n      tag_99\n      jumpi\n      dup1\n      0x1f\n      lt\n      tag_100\n      jumpi\n      0x0100\n      dup1\n      dup4\n      sload\n      div\n      mul\n      dup4\n      mstore\n      swap2\n      0x20\n      add\n      swap2\n      jump(tag_99)\n    tag_100:\n      dup3\n      add\n      swap2\n      swap1\n      0x00\n      mstore\n      keccak256(0x00, 0x20)\n      swap1\n    tag_101:\n      dup2\n      sload\n      dup2\n      mstore\n      swap1\n      0x01\n      add\n      swap1\n      0x20\n      add\n      dup1\n      dup4\n      gt\n      tag_101\n      jumpi\n      dup3\n      swap1\n      sub\n      0x1f\n      and\n      dup3\n      add\n      swap2\n    tag_99:\n      pop\n      pop\n      pop\n      pop\n      pop\n      swap1\n      dup1\n      0x01\n      add\n      dup1\n      sload\n      tag_102\n      swap1\n      tag_64\n      jump\t// in\n    tag_102:\n      dup1\n      0x1f\n      add\n      0x20\n      dup1\n      swap2\n      div\n      mul\n      0x20\n      add\n      mload(0x40)\n      swap1\n      dup2\n      add\n      0x40\n      mstore\n      dup1\n      swap3\n      swap2\n      swap1\n      dup2\n      dup2\n      mstore\n      0x20\n      add\n      dup3\n      dup1\n      sload\n      tag_103\n      swap1\n      tag_64\n      jump\t// in\n    tag_103:\n      dup1\n      iszero\n      tag_104\n      jumpi\n      dup1\n      0x1f\n      lt\n      tag_105\n      jumpi\n      0x0100\n      dup1\n      dup4\n      sload\n      div\n      mul\n      dup4\n      mstore\n      swap2\n      0x20\n      add\n      swap2\n      jump(tag_104)\n    tag_105:\n      dup3\n      add\n      swap2\n      swap1\n      0x00\n      mstore\n      keccak256(0x00, 0x20)\n      swap1\n    tag_106:\n      dup2\n      sload\n      dup2\n      mstore\n      swap1\n      0x01\n      add\n      swap1\n      0x20\n      add\n      dup1\n      dup4\n      gt\n      tag_106\n      jumpi\n      dup3\n      swap1\n      sub\n      0x1f\n      and\n      dup3\n      add\n      swap2\n    tag_104:\n      pop\n      pop\n      pop\n      pop\n      pop\n      swap1\n      dup1\n      0x03\n      add\n      sload\n      swap1\n      dup1\n      0x04\n      add\n      sload\n      swap1\n      pop\n      dup5\n      jump\t// out\n        /* \"contracts/PizzaSmartContract.sol\":97:125  address payable public owner */\n    tag_37:\n      0x00\n      dup1\n      sload\n      swap1\n      0x0100\n      exp\n      swap1\n      div\n      0xffffffffffffffffffffffffffffffffffffffff\n      and\n      dup2\n      jump\t// out\n        /* \"contracts/PizzaSmartContract.sol\":1106:1145  mapping (address => Roles) public roles */\n    tag_44:\n      mstore(0x20, 0x03)\n      dup1\n      0x00\n      mstore\n      keccak256(0x00, 0x40)\n      0x00\n      swap2\n      pop\n      sload\n      swap1\n      0x0100\n      exp\n      swap1\n      div\n      0xff\n      and\n      dup2\n      jump\t// out\n        /* \"contracts/PizzaSmartContract.sol\":2572:2667  function GetPizzas() public view returns (Pizza[] memory)... */\n    tag_49:\n        /* \"contracts/PizzaSmartContract.sol\":2614:2628  Pizza[] memory */\n      0x60\n        /* \"contracts/PizzaSmartContract.sol\":2653:2659  pizzas */\n      0x01\n        /* \"contracts/PizzaSmartContract.sol\":2646:2659  return pizzas */\n      dup1\n      sload\n      dup1\n      0x20\n      mul\n      0x20\n      add\n      mload(0x40)\n      swap1\n      dup2\n      add\n      0x40\n      mstore\n      dup1\n      swap3\n      swap2\n      swap1\n      dup2\n      dup2\n      mstore\n      0x20\n      add\n      0x00\n      swap1\n    tag_108:\n      dup3\n      dup3\n      lt\n      iszero\n      tag_109\n      jumpi\n      dup4\n      dup3\n      swap1\n      0x00\n      mstore\n      keccak256(0x00, 0x20)\n      swap1\n      0x05\n      mul\n      add\n      mload(0x40)\n      dup1\n      0xa0\n      add\n      0x40\n      mstore\n      swap1\n      dup2\n      0x00\n      dup3\n      add\n      dup1\n      sload\n      tag_111\n      swap1\n      tag_64\n      jump\t// in\n    tag_111:\n      dup1\n      0x1f\n      add\n      0x20\n      dup1\n      swap2\n      div\n      mul\n      0x20\n      add\n      mload(0x40)\n      swap1\n      dup2\n      add\n      0x40\n      mstore\n      dup1\n      swap3\n      swap2\n      swap1\n      dup2\n      dup2\n      mstore\n      0x20\n      add\n      dup3\n      dup1\n      sload\n      tag_112\n      swap1\n      tag_64\n      jump\t// in\n    tag_112:\n      dup1\n      iszero\n      tag_113\n      jumpi\n      dup1\n      0x1f\n      lt\n      tag_114\n      jumpi\n      0x0100\n      dup1\n      dup4\n      sload\n      div\n      mul\n      dup4\n      mstore\n      swap2\n      0x20\n      add\n      swap2\n      jump(tag_113)\n    tag_114:\n      dup3\n      add\n      swap2\n      swap1\n      0x00\n      mstore\n      keccak256(0x00, 0x20)\n      swap1\n    tag_115:\n      dup2\n      sload\n      dup2\n      mstore\n      swap1\n      0x01\n      add\n      swap1\n      0x20\n      add\n      dup1\n      dup4\n      gt\n      tag_115\n      jumpi\n      dup3\n      swap1\n      sub\n      0x1f\n      and\n      dup3\n      add\n      swap2\n    tag_113:\n      pop\n      pop\n      pop\n      pop\n      pop\n      dup2\n      mstore\n      0x20\n      add\n      0x01\n      dup3\n      add\n      dup1\n      sload\n      tag_116\n      swap1\n      tag_64\n      jump\t// in\n    tag_116:\n      dup1\n      0x1f\n      add\n      0x20\n      dup1\n      swap2\n      div\n      mul\n      0x20\n      add\n      mload(0x40)\n      swap1\n      dup2\n      add\n      0x40\n      mstore\n      dup1\n      swap3\n      swap2\n      swap1\n      dup2\n      dup2\n      mstore\n      0x20\n      add\n      dup3\n      dup1\n      sload\n      tag_117\n      swap1\n      tag_64\n      jump\t// in\n    tag_117:\n      dup1\n      iszero\n      tag_118\n      jumpi\n      dup1\n      0x1f\n      lt\n      tag_119\n      jumpi\n      0x0100\n      dup1\n      dup4\n      sload\n      div\n      mul\n      dup4\n      mstore\n      swap2\n      0x20\n      add\n      swap2\n      jump(tag_118)\n    tag_119:\n      dup3\n      add\n      swap2\n      swap1\n      0x00\n      mstore\n      keccak256(0x00, 0x20)\n      swap1\n    tag_120:\n      dup2\n      sload\n      dup2\n      mstore\n      swap1\n      0x01\n      add\n      swap1\n      0x20\n      add\n      dup1\n      dup4\n      gt\n      tag_120\n      jumpi\n      dup3\n      swap1\n      sub\n      0x1f\n      and\n      dup3\n      add\n      swap2\n    tag_118:\n      pop\n      pop\n      pop\n      pop\n      pop\n      dup2\n      mstore\n      0x20\n      add\n      0x02\n      dup3\n      add\n      dup1\n      sload\n      dup1\n      0x20\n      mul\n      0x20\n      add\n      mload(0x40)\n      swap1\n      dup2\n      add\n      0x40\n      mstore\n      dup1\n      swap3\n      swap2\n      swap1\n      dup2\n      dup2\n      mstore\n      0x20\n      add\n      0x00\n      swap1\n    tag_121:\n      dup3\n      dup3\n      lt\n      iszero\n      tag_122\n      jumpi\n      dup4\n      dup3\n      swap1\n      0x00\n      mstore\n      keccak256(0x00, 0x20)\n      add\n      dup1\n      sload\n      tag_124\n      swap1\n      tag_64\n      jump\t// in\n    tag_124:\n      dup1\n      0x1f\n      add\n      0x20\n      dup1\n      swap2\n      div\n      mul\n      0x20\n      add\n      mload(0x40)\n      swap1\n      dup2\n      add\n      0x40\n      mstore\n      dup1\n      swap3\n      swap2\n      swap1\n      dup2\n      dup2\n      mstore\n      0x20\n      add\n      dup3\n      dup1\n      sload\n      tag_125\n      swap1\n      tag_64\n      jump\t// in\n    tag_125:\n      dup1\n      iszero\n      tag_126\n      jumpi\n      dup1\n      0x1f\n      lt\n      tag_127\n      jumpi\n      0x0100\n      dup1\n      dup4\n      sload\n      div\n      mul\n      dup4\n      mstore\n      swap2\n      0x20\n      add\n      swap2\n      jump(tag_126)\n    tag_127:\n      dup3\n      add\n      swap2\n      swap1\n      0x00\n      mstore\n      keccak256(0x00, 0x20)\n      swap1\n    tag_128:\n      dup2\n      sload\n      dup2\n      mstore\n      swap1\n      0x01\n      add\n      swap1\n      0x20\n      add\n      dup1\n      dup4\n      gt\n      tag_128\n      jumpi\n      dup3\n      swap1\n      sub\n      0x1f\n      and\n      dup3\n      add\n      swap2\n    tag_126:\n      pop\n      pop\n      pop\n      pop\n      pop\n      dup2\n      mstore\n      0x20\n      add\n      swap1\n      0x01\n      add\n      swap1\n      jump(tag_121)\n    tag_122:\n      pop\n      pop\n      pop\n      pop\n      dup2\n      mstore\n      0x20\n      add\n      0x03\n      dup3\n      add\n      sload\n      dup2\n      mstore\n      0x20\n      add\n      0x04\n      dup3\n      add\n      sload\n      dup2\n      mstore\n      pop\n      pop\n      dup2\n      mstore\n      0x20\n      add\n      swap1\n      0x01\n      add\n      swap1\n      jump(tag_108)\n    tag_109:\n      pop\n      pop\n      pop\n      pop\n      swap1\n      pop\n        /* \"contracts/PizzaSmartContract.sol\":2572:2667  function GetPizzas() public view returns (Pizza[] memory)... */\n      swap1\n      jump\t// out\n        /* \"contracts/PizzaSmartContract.sol\":1626:2564  function BuyPizzas(uint256 pizzaId) public payable  OnlyUser... */\n    tag_54:\n        /* \"contracts/PizzaSmartContract.sol\":582:592  Roles.User */\n      0x01\n        /* \"contracts/PizzaSmartContract.sol\":561:592  roles[msg.sender] == Roles.User */\n      0x02\n      dup2\n      gt\n      iszero\n      tag_130\n      jumpi\n      tag_131\n      tag_72\n      jump\t// in\n    tag_131:\n    tag_130:\n        /* \"contracts/PizzaSmartContract.sol\":561:566  roles */\n      0x03\n        /* \"contracts/PizzaSmartContract.sol\":561:578  roles[msg.sender] */\n      0x00\n        /* \"contracts/PizzaSmartContract.sol\":567:577  msg.sender */\n      caller\n        /* \"contracts/PizzaSmartContract.sol\":561:578  roles[msg.sender] */\n      0xffffffffffffffffffffffffffffffffffffffff\n      and\n      0xffffffffffffffffffffffffffffffffffffffff\n      and\n      dup2\n      mstore\n      0x20\n      add\n      swap1\n      dup2\n      mstore\n      0x20\n      add\n      0x00\n      keccak256\n      0x00\n      swap1\n      sload\n      swap1\n      0x0100\n      exp\n      swap1\n      div\n      0xff\n      and\n        /* \"contracts/PizzaSmartContract.sol\":561:592  roles[msg.sender] == Roles.User */\n      0x02\n      dup2\n      gt\n      iszero\n      tag_132\n      jumpi\n      tag_133\n      tag_72\n      jump\t// in\n    tag_133:\n    tag_132:\n      eq\n        /* \"contracts/PizzaSmartContract.sol\":553:593  require(roles[msg.sender] == Roles.User) */\n      tag_134\n      jumpi\n      0x00\n      dup1\n      revert\n    tag_134:\n        /* \"contracts/PizzaSmartContract.sol\":1724:1730  pizzas */\n      0x01\n        /* \"contracts/PizzaSmartContract.sol\":1731:1738  pizzaId */\n      dup2\n        /* \"contracts/PizzaSmartContract.sol\":1724:1739  pizzas[pizzaId] */\n      dup2\n      sload\n      dup2\n      lt\n      tag_136\n      jumpi\n      tag_137\n      tag_138\n      jump\t// in\n    tag_137:\n    tag_136:\n      swap1\n      0x00\n      mstore\n      keccak256(0x00, 0x20)\n      swap1\n      0x05\n      mul\n      add\n        /* \"contracts/PizzaSmartContract.sol\":1724:1745  pizzas[pizzaId].Price */\n      0x03\n      add\n      sload\n        /* \"contracts/PizzaSmartContract.sol\":1711:1720  msg.value */\n      callvalue\n        /* \"contracts/PizzaSmartContract.sol\":1711:1745  msg.value == pizzas[pizzaId].Price */\n      eq\n        /* \"contracts/PizzaSmartContract.sol\":1703:1758  require(msg.value == pizzas[pizzaId].Price, \"No money\") */\n      tag_140\n      jumpi\n      mload(0x40)\n      0x08c379a000000000000000000000000000000000000000000000000000000000\n      dup2\n      mstore\n      0x04\n      add\n      tag_141\n      swap1\n      tag_142\n      jump\t// in\n    tag_141:\n      mload(0x40)\n      dup1\n      swap2\n      sub\n      swap1\n      revert\n    tag_140:\n        /* \"contracts/PizzaSmartContract.sol\":1771:1796  Receipt memory newReceipt */\n      0x00\n        /* \"contracts/PizzaSmartContract.sol\":1799:1912  Receipt(... */\n      mload(0x40)\n      dup1\n      0x40\n      add\n      0x40\n      mstore\n      dup1\n        /* \"contracts/PizzaSmartContract.sol\":1839:1849  msg.sender */\n      caller\n        /* \"contracts/PizzaSmartContract.sol\":1799:1912  Receipt(... */\n      0xffffffffffffffffffffffffffffffffffffffff\n      and\n      dup2\n      mstore\n      0x20\n      add\n        /* \"contracts/PizzaSmartContract.sol\":1880:1886  pizzas */\n      0x01\n        /* \"contracts/PizzaSmartContract.sol\":1887:1894  pizzaId */\n      dup5\n        /* \"contracts/PizzaSmartContract.sol\":1880:1895  pizzas[pizzaId] */\n      dup2\n      sload\n      dup2\n      lt\n      tag_143\n      jumpi\n      tag_144\n      tag_138\n      jump\t// in\n    tag_144:\n    tag_143:\n      swap1\n      0x00\n      mstore\n      keccak256(0x00, 0x20)\n      swap1\n      0x05\n      mul\n      add\n        /* \"contracts/PizzaSmartContract.sol\":1880:1900  pizzas[pizzaId].Name */\n      0x00\n      add\n        /* \"contracts/PizzaSmartContract.sol\":1799:1912  Receipt(... */\n      dup1\n      sload\n      tag_146\n      swap1\n      tag_64\n      jump\t// in\n    tag_146:\n      dup1\n      0x1f\n      add\n      0x20\n      dup1\n      swap2\n      div\n      mul\n      0x20\n      add\n      mload(0x40)\n      swap1\n      dup2\n      add\n      0x40\n      mstore\n      dup1\n      swap3\n      swap2\n      swap1\n      dup2\n      dup2\n      mstore\n      0x20\n      add\n      dup3\n      dup1\n      sload\n      tag_147\n      swap1\n      tag_64\n      jump\t// in\n    tag_147:\n      dup1\n      iszero\n      tag_148\n      jumpi\n      dup1\n      0x1f\n      lt\n      tag_149\n      jumpi\n      0x0100\n      dup1\n      dup4\n      sload\n      div\n      mul\n      dup4\n      mstore\n      swap2\n      0x20\n      add\n      swap2\n      jump(tag_148)\n    tag_149:\n      dup3\n      add\n      swap2\n      swap1\n      0x00\n      mstore\n      keccak256(0x00, 0x20)\n      swap1\n    tag_150:\n      dup2\n      sload\n      dup2\n      mstore\n      swap1\n      0x01\n      add\n      swap1\n      0x20\n      add\n      dup1\n      dup4\n      gt\n      tag_150\n      jumpi\n      dup3\n      swap1\n      sub\n      0x1f\n      and\n      dup3\n      add\n      swap2\n    tag_148:\n      pop\n      pop\n      pop\n      pop\n      pop\n      dup2\n      mstore\n      pop\n        /* \"contracts/PizzaSmartContract.sol\":1771:1912  Receipt memory newReceipt = Receipt(... */\n      swap1\n      pop\n        /* \"contracts/PizzaSmartContract.sol\":1692:2564  {... */\n      pop\n        /* \"contracts/PizzaSmartContract.sol\":1626:2564  function BuyPizzas(uint256 pizzaId) public payable  OnlyUser... */\n      pop\n      jump\t// out\n        /* \"contracts/PizzaSmartContract.sol\":1152:1190  mapping (address => User) public users */\n    tag_58:\n      mstore(0x20, 0x04)\n      dup1\n      0x00\n      mstore\n      keccak256(0x00, 0x40)\n      0x00\n      swap2\n      pop\n      swap1\n      pop\n      dup1\n      0x00\n      add\n      dup1\n      sload\n      tag_151\n      swap1\n      tag_64\n      jump\t// in\n    tag_151:\n      dup1\n      0x1f\n      add\n      0x20\n      dup1\n      swap2\n      div\n      mul\n      0x20\n      add\n      mload(0x40)\n      swap1\n      dup2\n      add\n      0x40\n      mstore\n      dup1\n      swap3\n      swap2\n      swap1\n      dup2\n      dup2\n      mstore\n      0x20\n      add\n      dup3\n      dup1\n      sload\n      tag_152\n      swap1\n      tag_64\n      jump\t// in\n    tag_152:\n      dup1\n      iszero\n      tag_153\n      jumpi\n      dup1\n      0x1f\n      lt\n      tag_154\n      jumpi\n      0x0100\n      dup1\n      dup4\n      sload\n      div\n      mul\n      dup4\n      mstore\n      swap2\n      0x20\n      add\n      swap2\n      jump(tag_153)\n    tag_154:\n      dup3\n      add\n      swap2\n      swap1\n      0x00\n      mstore\n      keccak256(0x00, 0x20)\n      swap1\n    tag_155:\n      dup2\n      sload\n      dup2\n      mstore\n      swap1\n      0x01\n      add\n      swap1\n      0x20\n      add\n      dup1\n      dup4\n      gt\n      tag_155\n      jumpi\n      dup3\n      swap1\n      sub\n      0x1f\n      and\n      dup3\n      add\n      swap2\n    tag_153:\n      pop\n      pop\n      pop\n      pop\n      pop\n      swap1\n      dup1\n      0x01\n      add\n      dup1\n      sload\n      tag_156\n      swap1\n      tag_64\n      jump\t// in\n    tag_156:\n      dup1\n      0x1f\n      add\n      0x20\n      dup1\n      swap2\n      div\n      mul\n      0x20\n      add\n      mload(0x40)\n      swap1\n      dup2\n      add\n      0x40\n      mstore\n      dup1\n      swap3\n      swap2\n      swap1\n      dup2\n      dup2\n      mstore\n      0x20\n      add\n      dup3\n      dup1\n      sload\n      tag_157\n      swap1\n      tag_64\n      jump\t// in\n    tag_157:\n      dup1\n      iszero\n      tag_158\n      jumpi\n      dup1\n      0x1f\n      lt\n      tag_159\n      jumpi\n      0x0100\n      dup1\n      dup4\n      sload\n      div\n      mul\n      dup4\n      mstore\n      swap2\n      0x20\n      add\n      swap2\n      jump(tag_158)\n    tag_159:\n      dup3\n      add\n      swap2\n      swap1\n      0x00\n      mstore\n      keccak256(0x00, 0x20)\n      swap1\n    tag_160:\n      dup2\n      sload\n      dup2\n      mstore\n      swap1\n      0x01\n      add\n      swap1\n      0x20\n      add\n      dup1\n      dup4\n      gt\n      tag_160\n      jumpi\n      dup3\n      swap1\n      sub\n      0x1f\n      and\n      dup3\n      add\n      swap2\n    tag_158:\n      pop\n      pop\n      pop\n      pop\n      pop\n      swap1\n      pop\n      dup3\n      jump\t// out\n    tag_82:\n      dup3\n      dup1\n      sload\n      dup3\n      dup3\n      sstore\n      swap1\n      0x00\n      mstore\n      keccak256(0x00, 0x20)\n      swap1\n      dup2\n      add\n      swap3\n      dup3\n      iszero\n      tag_161\n      jumpi\n      swap2\n      0x20\n      mul\n      dup3\n      add\n    tag_162:\n      dup3\n      dup2\n      gt\n      iszero\n      tag_163\n      jumpi\n      dup3\n      mload\n      dup3\n      swap1\n      dup2\n      tag_164\n      swap2\n      swap1\n      tag_79\n      jump\t// in\n    tag_164:\n      pop\n      swap2\n      0x20\n      add\n      swap2\n      swap1\n      0x01\n      add\n      swap1\n      jump(tag_162)\n    tag_163:\n    tag_161:\n      pop\n      swap1\n      pop\n      tag_165\n      swap2\n      swap1\n      tag_166\n      jump\t// in\n    tag_165:\n      pop\n      swap1\n      jump\t// out\n    tag_166:\n    tag_167:\n      dup1\n      dup3\n      gt\n      iszero\n      tag_168\n      jumpi\n      0x00\n      dup2\n      dup2\n      tag_169\n      swap2\n      swap1\n      tag_170\n      jump\t// in\n    tag_169:\n      pop\n      0x01\n      add\n      jump(tag_167)\n    tag_168:\n      pop\n      swap1\n      jump\t// out\n    tag_170:\n      pop\n      dup1\n      sload\n      tag_171\n      swap1\n      tag_64\n      jump\t// in\n    tag_171:\n      0x00\n      dup3\n      sstore\n      dup1\n      0x1f\n      lt\n      tag_173\n      jumpi\n      pop\n      jump(tag_172)\n    tag_173:\n      0x1f\n      add\n      0x20\n      swap1\n      div\n      swap1\n      0x00\n      mstore\n      keccak256(0x00, 0x20)\n      swap1\n      dup2\n      add\n      swap1\n      tag_174\n      swap2\n      swap1\n      tag_175\n      jump\t// in\n    tag_174:\n    tag_172:\n      pop\n      jump\t// out\n    tag_175:\n    tag_176:\n      dup1\n      dup3\n      gt\n      iszero\n      tag_177\n      jumpi\n      0x00\n      dup2\n      0x00\n      swap1\n      sstore\n      pop\n      0x01\n      add\n      jump(tag_176)\n    tag_177:\n      pop\n      swap1\n      jump\t// out\n        /* \"#utility.yul\":7:82   */\n    tag_178:\n        /* \"#utility.yul\":40:46   */\n      0x00\n        /* \"#utility.yul\":73:75   */\n      0x40\n        /* \"#utility.yul\":67:76   */\n      mload\n        /* \"#utility.yul\":57:76   */\n      swap1\n      pop\n        /* \"#utility.yul\":7:82   */\n      swap1\n      jump\t// out\n        /* \"#utility.yul\":88:205   */\n    tag_179:\n        /* \"#utility.yul\":197:198   */\n      0x00\n        /* \"#utility.yul\":194:195   */\n      dup1\n        /* \"#utility.yul\":187:199   */\n      revert\n        /* \"#utility.yul\":211:328   */\n    tag_180:\n        /* \"#utility.yul\":320:321   */\n      0x00\n        /* \"#utility.yul\":317:318   */\n      dup1\n        /* \"#utility.yul\":310:322   */\n      revert\n        /* \"#utility.yul\":334:411   */\n    tag_181:\n        /* \"#utility.yul\":371:378   */\n      0x00\n        /* \"#utility.yul\":400:405   */\n      dup2\n        /* \"#utility.yul\":389:405   */\n      swap1\n      pop\n        /* \"#utility.yul\":334:411   */\n      swap2\n      swap1\n      pop\n      jump\t// out\n        /* \"#utility.yul\":417:539   */\n    tag_182:\n        /* \"#utility.yul\":490:514   */\n      tag_261\n        /* \"#utility.yul\":508:513   */\n      dup2\n        /* \"#utility.yul\":490:514   */\n      tag_181\n      jump\t// in\n    tag_261:\n        /* \"#utility.yul\":483:488   */\n      dup2\n        /* \"#utility.yul\":480:515   */\n      eq\n        /* \"#utility.yul\":470:533   */\n      tag_262\n      jumpi\n        /* \"#utility.yul\":529:530   */\n      0x00\n        /* \"#utility.yul\":526:527   */\n      dup1\n        /* \"#utility.yul\":519:531   */\n      revert\n        /* \"#utility.yul\":470:533   */\n    tag_262:\n        /* \"#utility.yul\":417:539   */\n      pop\n      jump\t// out\n        /* \"#utility.yul\":545:684   */\n    tag_183:\n        /* \"#utility.yul\":591:596   */\n      0x00\n        /* \"#utility.yul\":629:635   */\n      dup2\n        /* \"#utility.yul\":616:636   */\n      calldataload\n        /* \"#utility.yul\":607:636   */\n      swap1\n      pop\n        /* \"#utility.yul\":645:678   */\n      tag_264\n        /* \"#utility.yul\":672:677   */\n      dup2\n        /* \"#utility.yul\":645:678   */\n      tag_182\n      jump\t// in\n    tag_264:\n        /* \"#utility.yul\":545:684   */\n      swap3\n      swap2\n      pop\n      pop\n      jump\t// out\n        /* \"#utility.yul\":690:1019   */\n    tag_15:\n        /* \"#utility.yul\":749:755   */\n      0x00\n        /* \"#utility.yul\":798:800   */\n      0x20\n        /* \"#utility.yul\":786:795   */\n      dup3\n        /* \"#utility.yul\":777:784   */\n      dup5\n        /* \"#utility.yul\":773:796   */\n      sub\n        /* \"#utility.yul\":769:801   */\n      slt\n        /* \"#utility.yul\":766:885   */\n      iszero\n      tag_266\n      jumpi\n        /* \"#utility.yul\":804:883   */\n      tag_267\n      tag_179\n      jump\t// in\n    tag_267:\n        /* \"#utility.yul\":766:885   */\n    tag_266:\n        /* \"#utility.yul\":924:925   */\n      0x00\n        /* \"#utility.yul\":949:1002   */\n      tag_268\n        /* \"#utility.yul\":994:1001   */\n      dup5\n        /* \"#utility.yul\":985:991   */\n      dup3\n        /* \"#utility.yul\":974:983   */\n      dup6\n        /* \"#utility.yul\":970:992   */\n      add\n        /* \"#utility.yul\":949:1002   */\n      tag_183\n      jump\t// in\n    tag_268:\n        /* \"#utility.yul\":939:1002   */\n      swap2\n      pop\n        /* \"#utility.yul\":895:1012   */\n      pop\n        /* \"#utility.yul\":690:1019   */\n      swap3\n      swap2\n      pop\n      pop\n      jump\t// out\n        /* \"#utility.yul\":1025:1151   */\n    tag_184:\n        /* \"#utility.yul\":1062:1069   */\n      0x00\n        /* \"#utility.yul\":1102:1144   */\n      0xffffffffffffffffffffffffffffffffffffffff\n        /* \"#utility.yul\":1095:1100   */\n      dup3\n        /* \"#utility.yul\":1091:1145   */\n      and\n        /* \"#utility.yul\":1080:1145   */\n      swap1\n      pop\n        /* \"#utility.yul\":1025:1151   */\n      swap2\n      swap1\n      pop\n      jump\t// out\n        /* \"#utility.yul\":1157:1253   */\n    tag_185:\n        /* \"#utility.yul\":1194:1201   */\n      0x00\n        /* \"#utility.yul\":1223:1247   */\n      tag_271\n        /* \"#utility.yul\":1241:1246   */\n      dup3\n        /* \"#utility.yul\":1223:1247   */\n      tag_184\n      jump\t// in\n    tag_271:\n        /* \"#utility.yul\":1212:1247   */\n      swap1\n      pop\n        /* \"#utility.yul\":1157:1253   */\n      swap2\n      swap1\n      pop\n      jump\t// out\n        /* \"#utility.yul\":1259:1377   */\n    tag_186:\n        /* \"#utility.yul\":1346:1370   */\n      tag_273\n        /* \"#utility.yul\":1364:1369   */\n      dup2\n        /* \"#utility.yul\":1346:1370   */\n      tag_185\n      jump\t// in\n    tag_273:\n        /* \"#utility.yul\":1341:1344   */\n      dup3\n        /* \"#utility.yul\":1334:1371   */\n      mstore\n        /* \"#utility.yul\":1259:1377   */\n      pop\n      pop\n      jump\t// out\n        /* \"#utility.yul\":1383:1482   */\n    tag_187:\n        /* \"#utility.yul\":1435:1441   */\n      0x00\n        /* \"#utility.yul\":1469:1474   */\n      dup2\n        /* \"#utility.yul\":1463:1475   */\n      mload\n        /* \"#utility.yul\":1453:1475   */\n      swap1\n      pop\n        /* \"#utility.yul\":1383:1482   */\n      swap2\n      swap1\n      pop\n      jump\t// out\n        /* \"#utility.yul\":1488:1657   */\n    tag_188:\n        /* \"#utility.yul\":1572:1583   */\n      0x00\n        /* \"#utility.yul\":1606:1612   */\n      dup3\n        /* \"#utility.yul\":1601:1604   */\n      dup3\n        /* \"#utility.yul\":1594:1613   */\n      mstore\n        /* \"#utility.yul\":1646:1650   */\n      0x20\n        /* \"#utility.yul\":1641:1644   */\n      dup3\n        /* \"#utility.yul\":1637:1651   */\n      add\n        /* \"#utility.yul\":1622:1651   */\n      swap1\n      pop\n        /* \"#utility.yul\":1488:1657   */\n      swap3\n      swap2\n      pop\n      pop\n      jump\t// out\n        /* \"#utility.yul\":1663:1802   */\n    tag_189:\n        /* \"#utility.yul\":1752:1758   */\n      dup3\n        /* \"#utility.yul\":1747:1750   */\n      dup2\n        /* \"#utility.yul\":1742:1745   */\n      dup4\n        /* \"#utility.yul\":1736:1759   */\n      mcopy\n        /* \"#utility.yul\":1793:1794   */\n      0x00\n        /* \"#utility.yul\":1784:1790   */\n      dup4\n        /* \"#utility.yul\":1779:1782   */\n      dup4\n        /* \"#utility.yul\":1775:1791   */\n      add\n        /* \"#utility.yul\":1768:1795   */\n      mstore\n        /* \"#utility.yul\":1663:1802   */\n      pop\n      pop\n      pop\n      jump\t// out\n        /* \"#utility.yul\":1808:1910   */\n    tag_190:\n        /* \"#utility.yul\":1849:1855   */\n      0x00\n        /* \"#utility.yul\":1900:1902   */\n      0x1f\n        /* \"#utility.yul\":1896:1903   */\n      not\n        /* \"#utility.yul\":1891:1893   */\n      0x1f\n        /* \"#utility.yul\":1884:1889   */\n      dup4\n        /* \"#utility.yul\":1880:1894   */\n      add\n        /* \"#utility.yul\":1876:1904   */\n      and\n        /* \"#utility.yul\":1866:1904   */\n      swap1\n      pop\n        /* \"#utility.yul\":1808:1910   */\n      swap2\n      swap1\n      pop\n      jump\t// out\n        /* \"#utility.yul\":1916:2293   */\n    tag_191:\n        /* \"#utility.yul\":2004:2007   */\n      0x00\n        /* \"#utility.yul\":2032:2071   */\n      tag_279\n        /* \"#utility.yul\":2065:2070   */\n      dup3\n        /* \"#utility.yul\":2032:2071   */\n      tag_187\n      jump\t// in\n    tag_279:\n        /* \"#utility.yul\":2087:2158   */\n      tag_280\n        /* \"#utility.yul\":2151:2157   */\n      dup2\n        /* \"#utility.yul\":2146:2149   */\n      dup6\n        /* \"#utility.yul\":2087:2158   */\n      tag_188\n      jump\t// in\n    tag_280:\n        /* \"#utility.yul\":2080:2158   */\n      swap4\n      pop\n        /* \"#utility.yul\":2167:2232   */\n      tag_281\n        /* \"#utility.yul\":2225:2231   */\n      dup2\n        /* \"#utility.yul\":2220:2223   */\n      dup6\n        /* \"#utility.yul\":2213:2217   */\n      0x20\n        /* \"#utility.yul\":2206:2211   */\n      dup7\n        /* \"#utility.yul\":2202:2218   */\n      add\n        /* \"#utility.yul\":2167:2232   */\n      tag_189\n      jump\t// in\n    tag_281:\n        /* \"#utility.yul\":2257:2286   */\n      tag_282\n        /* \"#utility.yul\":2279:2285   */\n      dup2\n        /* \"#utility.yul\":2257:2286   */\n      tag_190\n      jump\t// in\n    tag_282:\n        /* \"#utility.yul\":2252:2255   */\n      dup5\n        /* \"#utility.yul\":2248:2287   */\n      add\n        /* \"#utility.yul\":2241:2287   */\n      swap2\n      pop\n        /* \"#utility.yul\":2008:2293   */\n      pop\n        /* \"#utility.yul\":1916:2293   */\n      swap3\n      swap2\n      pop\n      pop\n      jump\t// out\n        /* \"#utility.yul\":2299:2722   */\n    tag_18:\n        /* \"#utility.yul\":2440:2444   */\n      0x00\n        /* \"#utility.yul\":2478:2480   */\n      0x40\n        /* \"#utility.yul\":2467:2476   */\n      dup3\n        /* \"#utility.yul\":2463:2481   */\n      add\n        /* \"#utility.yul\":2455:2481   */\n      swap1\n      pop\n        /* \"#utility.yul\":2491:2562   */\n      tag_284\n        /* \"#utility.yul\":2559:2560   */\n      0x00\n        /* \"#utility.yul\":2548:2557   */\n      dup4\n        /* \"#utility.yul\":2544:2561   */\n      add\n        /* \"#utility.yul\":2535:2541   */\n      dup6\n        /* \"#utility.yul\":2491:2562   */\n      tag_186\n      jump\t// in\n    tag_284:\n        /* \"#utility.yul\":2609:2618   */\n      dup2\n        /* \"#utility.yul\":2603:2607   */\n      dup2\n        /* \"#utility.yul\":2599:2619   */\n      sub\n        /* \"#utility.yul\":2594:2596   */\n      0x20\n        /* \"#utility.yul\":2583:2592   */\n      dup4\n        /* \"#utility.yul\":2579:2597   */\n      add\n        /* \"#utility.yul\":2572:2620   */\n      mstore\n        /* \"#utility.yul\":2637:2715   */\n      tag_285\n        /* \"#utility.yul\":2710:2714   */\n      dup2\n        /* \"#utility.yul\":2701:2707   */\n      dup5\n        /* \"#utility.yul\":2637:2715   */\n      tag_191\n      jump\t// in\n    tag_285:\n        /* \"#utility.yul\":2629:2715   */\n      swap1\n      pop\n        /* \"#utility.yul\":2299:2722   */\n      swap4\n      swap3\n      pop\n      pop\n      pop\n      jump\t// out\n        /* \"#utility.yul\":2728:2845   */\n    tag_192:\n        /* \"#utility.yul\":2837:2838   */\n      0x00\n        /* \"#utility.yul\":2834:2835   */\n      dup1\n        /* \"#utility.yul\":2827:2839   */\n      revert\n        /* \"#utility.yul\":2851:2968   */\n    tag_193:\n        /* \"#utility.yul\":2960:2961   */\n      0x00\n        /* \"#utility.yul\":2957:2958   */\n      dup1\n        /* \"#utility.yul\":2950:2962   */\n      revert\n        /* \"#utility.yul\":2974:3154   */\n    tag_194:\n        /* \"#utility.yul\":3022:3099   */\n      0x4e487b7100000000000000000000000000000000000000000000000000000000\n        /* \"#utility.yul\":3019:3020   */\n      0x00\n        /* \"#utility.yul\":3012:3100   */\n      mstore\n        /* \"#utility.yul\":3119:3123   */\n      0x41\n        /* \"#utility.yul\":3116:3117   */\n      0x04\n        /* \"#utility.yul\":3109:3124   */\n      mstore\n        /* \"#utility.yul\":3143:3147   */\n      0x24\n        /* \"#utility.yul\":3140:3141   */\n      0x00\n        /* \"#utility.yul\":3133:3148   */\n      revert\n        /* \"#utility.yul\":3160:3441   */\n    tag_195:\n        /* \"#utility.yul\":3243:3270   */\n      tag_290\n        /* \"#utility.yul\":3265:3269   */\n      dup3\n        /* \"#utility.yul\":3243:3270   */\n      tag_190\n      jump\t// in\n    tag_290:\n        /* \"#utility.yul\":3235:3241   */\n      dup2\n        /* \"#utility.yul\":3231:3271   */\n      add\n        /* \"#utility.yul\":3373:3379   */\n      dup2\n        /* \"#utility.yul\":3361:3371   */\n      dup2\n        /* \"#utility.yul\":3358:3380   */\n      lt\n        /* \"#utility.yul\":3337:3355   */\n      0xffffffffffffffff\n        /* \"#utility.yul\":3325:3335   */\n      dup3\n        /* \"#utility.yul\":3322:3356   */\n      gt\n        /* \"#utility.yul\":3319:3381   */\n      or\n        /* \"#utility.yul\":3316:3404   */\n      iszero\n      tag_291\n      jumpi\n        /* \"#utility.yul\":3384:3402   */\n      tag_292\n      tag_194\n      jump\t// in\n    tag_292:\n        /* \"#utility.yul\":3316:3404   */\n    tag_291:\n        /* \"#utility.yul\":3424:3434   */\n      dup1\n        /* \"#utility.yul\":3420:3422   */\n      0x40\n        /* \"#utility.yul\":3413:3435   */\n      mstore\n        /* \"#utility.yul\":3203:3441   */\n      pop\n        /* \"#utility.yul\":3160:3441   */\n      pop\n      pop\n      jump\t// out\n        /* \"#utility.yul\":3447:3576   */\n    tag_196:\n        /* \"#utility.yul\":3481:3487   */\n      0x00\n        /* \"#utility.yul\":3508:3528   */\n      tag_294\n      tag_178\n      jump\t// in\n    tag_294:\n        /* \"#utility.yul\":3498:3528   */\n      swap1\n      pop\n        /* \"#utility.yul\":3537:3570   */\n      tag_295\n        /* \"#utility.yul\":3565:3569   */\n      dup3\n        /* \"#utility.yul\":3557:3563   */\n      dup3\n        /* \"#utility.yul\":3537:3570   */\n      tag_195\n      jump\t// in\n    tag_295:\n        /* \"#utility.yul\":3447:3576   */\n      swap2\n      swap1\n      pop\n      jump\t// out\n        /* \"#utility.yul\":3582:3890   */\n    tag_197:\n        /* \"#utility.yul\":3644:3648   */\n      0x00\n        /* \"#utility.yul\":3734:3752   */\n      0xffffffffffffffff\n        /* \"#utility.yul\":3726:3732   */\n      dup3\n        /* \"#utility.yul\":3723:3753   */\n      gt\n        /* \"#utility.yul\":3720:3776   */\n      iszero\n      tag_297\n      jumpi\n        /* \"#utility.yul\":3756:3774   */\n      tag_298\n      tag_194\n      jump\t// in\n    tag_298:\n        /* \"#utility.yul\":3720:3776   */\n    tag_297:\n        /* \"#utility.yul\":3794:3823   */\n      tag_299\n        /* \"#utility.yul\":3816:3822   */\n      dup3\n        /* \"#utility.yul\":3794:3823   */\n      tag_190\n      jump\t// in\n    tag_299:\n        /* \"#utility.yul\":3786:3823   */\n      swap1\n      pop\n        /* \"#utility.yul\":3878:3882   */\n      0x20\n        /* \"#utility.yul\":3872:3876   */\n      dup2\n        /* \"#utility.yul\":3868:3883   */\n      add\n        /* \"#utility.yul\":3860:3883   */\n      swap1\n      pop\n        /* \"#utility.yul\":3582:3890   */\n      swap2\n      swap1\n      pop\n      jump\t// out\n        /* \"#utility.yul\":3896:4044   */\n    tag_198:\n        /* \"#utility.yul\":3994:4000   */\n      dup3\n        /* \"#utility.yul\":3989:3992   */\n      dup2\n        /* \"#utility.yul\":3984:3987   */\n      dup4\n        /* \"#utility.yul\":3971:4001   */\n      calldatacopy\n        /* \"#utility.yul\":4035:4036   */\n      0x00\n        /* \"#utility.yul\":4026:4032   */\n      dup4\n        /* \"#utility.yul\":4021:4024   */\n      dup4\n        /* \"#utility.yul\":4017:4033   */\n      add\n        /* \"#utility.yul\":4010:4037   */\n      mstore\n        /* \"#utility.yul\":3896:4044   */\n      pop\n      pop\n      pop\n      jump\t// out\n        /* \"#utility.yul\":4050:4475   */\n    tag_199:\n        /* \"#utility.yul\":4128:4133   */\n      0x00\n        /* \"#utility.yul\":4153:4219   */\n      tag_302\n        /* \"#utility.yul\":4169:4218   */\n      tag_303\n        /* \"#utility.yul\":4211:4217   */\n      dup5\n        /* \"#utility.yul\":4169:4218   */\n      tag_197\n      jump\t// in\n    tag_303:\n        /* \"#utility.yul\":4153:4219   */\n      tag_196\n      jump\t// in\n    tag_302:\n        /* \"#utility.yul\":4144:4219   */\n      swap1\n      pop\n        /* \"#utility.yul\":4242:4248   */\n      dup3\n        /* \"#utility.yul\":4235:4240   */\n      dup2\n        /* \"#utility.yul\":4228:4249   */\n      mstore\n        /* \"#utility.yul\":4280:4284   */\n      0x20\n        /* \"#utility.yul\":4273:4278   */\n      dup2\n        /* \"#utility.yul\":4269:4285   */\n      add\n        /* \"#utility.yul\":4318:4321   */\n      dup5\n        /* \"#utility.yul\":4309:4315   */\n      dup5\n        /* \"#utility.yul\":4304:4307   */\n      dup5\n        /* \"#utility.yul\":4300:4316   */\n      add\n        /* \"#utility.yul\":4297:4322   */\n      gt\n        /* \"#utility.yul\":4294:4406   */\n      iszero\n      tag_304\n      jumpi\n        /* \"#utility.yul\":4325:4404   */\n      tag_305\n      tag_193\n      jump\t// in\n    tag_305:\n        /* \"#utility.yul\":4294:4406   */\n    tag_304:\n        /* \"#utility.yul\":4415:4469   */\n      tag_306\n        /* \"#utility.yul\":4462:4468   */\n      dup5\n        /* \"#utility.yul\":4457:4460   */\n      dup3\n        /* \"#utility.yul\":4452:4455   */\n      dup6\n        /* \"#utility.yul\":4415:4469   */\n      tag_198\n      jump\t// in\n    tag_306:\n        /* \"#utility.yul\":4134:4475   */\n      pop\n        /* \"#utility.yul\":4050:4475   */\n      swap4\n      swap3\n      pop\n      pop\n      pop\n      jump\t// out\n        /* \"#utility.yul\":4495:4835   */\n    tag_200:\n        /* \"#utility.yul\":4551:4556   */\n      0x00\n        /* \"#utility.yul\":4600:4603   */\n      dup3\n        /* \"#utility.yul\":4593:4597   */\n      0x1f\n        /* \"#utility.yul\":4585:4591   */\n      dup4\n        /* \"#utility.yul\":4581:4598   */\n      add\n        /* \"#utility.yul\":4577:4604   */\n      slt\n        /* \"#utility.yul\":4567:4689   */\n      tag_308\n      jumpi\n        /* \"#utility.yul\":4608:4687   */\n      tag_309\n      tag_192\n      jump\t// in\n    tag_309:\n        /* \"#utility.yul\":4567:4689   */\n    tag_308:\n        /* \"#utility.yul\":4725:4731   */\n      dup2\n        /* \"#utility.yul\":4712:4732   */\n      calldataload\n        /* \"#utility.yul\":4750:4829   */\n      tag_310\n        /* \"#utility.yul\":4825:4828   */\n      dup5\n        /* \"#utility.yul\":4817:4823   */\n      dup3\n        /* \"#utility.yul\":4810:4814   */\n      0x20\n        /* \"#utility.yul\":4802:4808   */\n      dup7\n        /* \"#utility.yul\":4798:4815   */\n      add\n        /* \"#utility.yul\":4750:4829   */\n      tag_199\n      jump\t// in\n    tag_310:\n        /* \"#utility.yul\":4741:4829   */\n      swap2\n      pop\n        /* \"#utility.yul\":4557:4835   */\n      pop\n        /* \"#utility.yul\":4495:4835   */\n      swap3\n      swap2\n      pop\n      pop\n      jump\t// out\n        /* \"#utility.yul\":4841:5162   */\n    tag_201:\n        /* \"#utility.yul\":4928:4932   */\n      0x00\n        /* \"#utility.yul\":5018:5036   */\n      0xffffffffffffffff\n        /* \"#utility.yul\":5010:5016   */\n      dup3\n        /* \"#utility.yul\":5007:5037   */\n      gt\n        /* \"#utility.yul\":5004:5060   */\n      iszero\n      tag_312\n      jumpi\n        /* \"#utility.yul\":5040:5058   */\n      tag_313\n      tag_194\n      jump\t// in\n    tag_313:\n        /* \"#utility.yul\":5004:5060   */\n    tag_312:\n        /* \"#utility.yul\":5090:5094   */\n      0x20\n        /* \"#utility.yul\":5082:5088   */\n      dup3\n        /* \"#utility.yul\":5078:5095   */\n      mul\n        /* \"#utility.yul\":5070:5095   */\n      swap1\n      pop\n        /* \"#utility.yul\":5150:5154   */\n      0x20\n        /* \"#utility.yul\":5144:5148   */\n      dup2\n        /* \"#utility.yul\":5140:5155   */\n      add\n        /* \"#utility.yul\":5132:5155   */\n      swap1\n      pop\n        /* \"#utility.yul\":4841:5162   */\n      swap2\n      swap1\n      pop\n      jump\t// out\n        /* \"#utility.yul\":5168:5285   */\n    tag_202:\n        /* \"#utility.yul\":5277:5278   */\n      0x00\n        /* \"#utility.yul\":5274:5275   */\n      dup1\n        /* \"#utility.yul\":5267:5279   */\n      revert\n        /* \"#utility.yul\":5307:6252   */\n    tag_203:\n        /* \"#utility.yul\":5413:5418   */\n      0x00\n        /* \"#utility.yul\":5438:5529   */\n      tag_316\n        /* \"#utility.yul\":5454:5528   */\n      tag_317\n        /* \"#utility.yul\":5521:5527   */\n      dup5\n        /* \"#utility.yul\":5454:5528   */\n      tag_201\n      jump\t// in\n    tag_317:\n        /* \"#utility.yul\":5438:5529   */\n      tag_196\n      jump\t// in\n    tag_316:\n        /* \"#utility.yul\":5429:5529   */\n      swap1\n      pop\n        /* \"#utility.yul\":5549:5554   */\n      dup1\n        /* \"#utility.yul\":5578:5584   */\n      dup4\n        /* \"#utility.yul\":5571:5576   */\n      dup3\n        /* \"#utility.yul\":5564:5585   */\n      mstore\n        /* \"#utility.yul\":5612:5616   */\n      0x20\n        /* \"#utility.yul\":5605:5610   */\n      dup3\n        /* \"#utility.yul\":5601:5617   */\n      add\n        /* \"#utility.yul\":5594:5617   */\n      swap1\n      pop\n        /* \"#utility.yul\":5665:5669   */\n      0x20\n        /* \"#utility.yul\":5657:5663   */\n      dup5\n        /* \"#utility.yul\":5653:5670   */\n      mul\n        /* \"#utility.yul\":5645:5651   */\n      dup4\n        /* \"#utility.yul\":5641:5671   */\n      add\n        /* \"#utility.yul\":5694:5697   */\n      dup6\n        /* \"#utility.yul\":5686:5692   */\n      dup2\n        /* \"#utility.yul\":5683:5698   */\n      gt\n        /* \"#utility.yul\":5680:5802   */\n      iszero\n      tag_318\n      jumpi\n        /* \"#utility.yul\":5713:5792   */\n      tag_319\n      tag_202\n      jump\t// in\n    tag_319:\n        /* \"#utility.yul\":5680:5802   */\n    tag_318:\n        /* \"#utility.yul\":5828:5834   */\n      dup4\n        /* \"#utility.yul\":5811:6246   */\n    tag_320:\n        /* \"#utility.yul\":5845:5851   */\n      dup2\n        /* \"#utility.yul\":5840:5843   */\n      dup2\n        /* \"#utility.yul\":5837:5852   */\n      lt\n        /* \"#utility.yul\":5811:6246   */\n      iszero\n      tag_322\n      jumpi\n        /* \"#utility.yul\":5934:5937   */\n      dup1\n        /* \"#utility.yul\":5921:5938   */\n      calldataload\n        /* \"#utility.yul\":5970:5988   */\n      0xffffffffffffffff\n        /* \"#utility.yul\":5957:5968   */\n      dup2\n        /* \"#utility.yul\":5954:5989   */\n      gt\n        /* \"#utility.yul\":5951:6073   */\n      iszero\n      tag_323\n      jumpi\n        /* \"#utility.yul\":5992:6071   */\n      tag_324\n      tag_192\n      jump\t// in\n    tag_324:\n        /* \"#utility.yul\":5951:6073   */\n    tag_323:\n        /* \"#utility.yul\":6116:6127   */\n      dup1\n        /* \"#utility.yul\":6108:6114   */\n      dup7\n        /* \"#utility.yul\":6104:6128   */\n      add\n        /* \"#utility.yul\":6154:6201   */\n      tag_325\n        /* \"#utility.yul\":6197:6200   */\n      dup10\n        /* \"#utility.yul\":6185:6195   */\n      dup3\n        /* \"#utility.yul\":6154:6201   */\n      tag_200\n      jump\t// in\n    tag_325:\n        /* \"#utility.yul\":6149:6152   */\n      dup6\n        /* \"#utility.yul\":6142:6202   */\n      mstore\n        /* \"#utility.yul\":6231:6235   */\n      0x20\n        /* \"#utility.yul\":6226:6229   */\n      dup6\n        /* \"#utility.yul\":6222:6236   */\n      add\n        /* \"#utility.yul\":6215:6236   */\n      swap5\n      pop\n        /* \"#utility.yul\":5887:6246   */\n      pop\n      pop\n        /* \"#utility.yul\":5871:5875   */\n      0x20\n        /* \"#utility.yul\":5866:5869   */\n      dup2\n        /* \"#utility.yul\":5862:5876   */\n      add\n        /* \"#utility.yul\":5855:5876   */\n      swap1\n      pop\n        /* \"#utility.yul\":5811:6246   */\n      jump(tag_320)\n    tag_322:\n        /* \"#utility.yul\":5815:5836   */\n      pop\n        /* \"#utility.yul\":5419:6252   */\n      pop\n      pop\n        /* \"#utility.yul\":5307:6252   */\n      swap4\n      swap3\n      pop\n      pop\n      pop\n      jump\t// out\n        /* \"#utility.yul\":6274:6664   */\n    tag_204:\n        /* \"#utility.yul\":6355:6360   */\n      0x00\n        /* \"#utility.yul\":6404:6407   */\n      dup3\n        /* \"#utility.yul\":6397:6401   */\n      0x1f\n        /* \"#utility.yul\":6389:6395   */\n      dup4\n        /* \"#utility.yul\":6385:6402   */\n      add\n        /* \"#utility.yul\":6381:6408   */\n      slt\n        /* \"#utility.yul\":6371:6493   */\n      tag_327\n      jumpi\n        /* \"#utility.yul\":6412:6491   */\n      tag_328\n      tag_192\n      jump\t// in\n    tag_328:\n        /* \"#utility.yul\":6371:6493   */\n    tag_327:\n        /* \"#utility.yul\":6529:6535   */\n      dup2\n        /* \"#utility.yul\":6516:6536   */\n      calldataload\n        /* \"#utility.yul\":6554:6658   */\n      tag_329\n        /* \"#utility.yul\":6654:6657   */\n      dup5\n        /* \"#utility.yul\":6646:6652   */\n      dup3\n        /* \"#utility.yul\":6639:6643   */\n      0x20\n        /* \"#utility.yul\":6631:6637   */\n      dup7\n        /* \"#utility.yul\":6627:6644   */\n      add\n        /* \"#utility.yul\":6554:6658   */\n      tag_203\n      jump\t// in\n    tag_329:\n        /* \"#utility.yul\":6545:6658   */\n      swap2\n      pop\n        /* \"#utility.yul\":6361:6664   */\n      pop\n        /* \"#utility.yul\":6274:6664   */\n      swap3\n      swap2\n      pop\n      pop\n      jump\t// out\n        /* \"#utility.yul\":6670:6746   */\n    tag_205:\n        /* \"#utility.yul\":6706:6713   */\n      0x00\n        /* \"#utility.yul\":6735:6740   */\n      dup2\n        /* \"#utility.yul\":6724:6740   */\n      swap1\n      pop\n        /* \"#utility.yul\":6670:6746   */\n      swap2\n      swap1\n      pop\n      jump\t// out\n        /* \"#utility.yul\":6752:6872   */\n    tag_206:\n        /* \"#utility.yul\":6824:6847   */\n      tag_332\n        /* \"#utility.yul\":6841:6846   */\n      dup2\n        /* \"#utility.yul\":6824:6847   */\n      tag_205\n      jump\t// in\n    tag_332:\n        /* \"#utility.yul\":6817:6822   */\n      dup2\n        /* \"#utility.yul\":6814:6848   */\n      eq\n        /* \"#utility.yul\":6804:6866   */\n      tag_333\n      jumpi\n        /* \"#utility.yul\":6862:6863   */\n      0x00\n        /* \"#utility.yul\":6859:6860   */\n      dup1\n        /* \"#utility.yul\":6852:6864   */\n      revert\n        /* \"#utility.yul\":6804:6866   */\n    tag_333:\n        /* \"#utility.yul\":6752:6872   */\n      pop\n      jump\t// out\n        /* \"#utility.yul\":6878:7015   */\n    tag_207:\n        /* \"#utility.yul\":6923:6928   */\n      0x00\n        /* \"#utility.yul\":6961:6967   */\n      dup2\n        /* \"#utility.yul\":6948:6968   */\n      calldataload\n        /* \"#utility.yul\":6939:6968   */\n      swap1\n      pop\n        /* \"#utility.yul\":6977:7009   */\n      tag_335\n        /* \"#utility.yul\":7003:7008   */\n      dup2\n        /* \"#utility.yul\":6977:7009   */\n      tag_206\n      jump\t// in\n    tag_335:\n        /* \"#utility.yul\":6878:7015   */\n      swap3\n      swap2\n      pop\n      pop\n      jump\t// out\n        /* \"#utility.yul\":7021:8520   */\n    tag_22:\n        /* \"#utility.yul\":7170:7176   */\n      0x00\n        /* \"#utility.yul\":7178:7184   */\n      dup1\n        /* \"#utility.yul\":7186:7192   */\n      0x00\n        /* \"#utility.yul\":7194:7200   */\n      dup1\n        /* \"#utility.yul\":7202:7208   */\n      0x00\n        /* \"#utility.yul\":7251:7254   */\n      0xa0\n        /* \"#utility.yul\":7239:7248   */\n      dup7\n        /* \"#utility.yul\":7230:7237   */\n      dup9\n        /* \"#utility.yul\":7226:7249   */\n      sub\n        /* \"#utility.yul\":7222:7255   */\n      slt\n        /* \"#utility.yul\":7219:7339   */\n      iszero\n      tag_337\n      jumpi\n        /* \"#utility.yul\":7258:7337   */\n      tag_338\n      tag_179\n      jump\t// in\n    tag_338:\n        /* \"#utility.yul\":7219:7339   */\n    tag_337:\n        /* \"#utility.yul\":7406:7407   */\n      0x00\n        /* \"#utility.yul\":7395:7404   */\n      dup7\n        /* \"#utility.yul\":7391:7408   */\n      add\n        /* \"#utility.yul\":7378:7409   */\n      calldataload\n        /* \"#utility.yul\":7436:7454   */\n      0xffffffffffffffff\n        /* \"#utility.yul\":7428:7434   */\n      dup2\n        /* \"#utility.yul\":7425:7455   */\n      gt\n        /* \"#utility.yul\":7422:7539   */\n      iszero\n      tag_339\n      jumpi\n        /* \"#utility.yul\":7458:7537   */\n      tag_340\n      tag_180\n      jump\t// in\n    tag_340:\n        /* \"#utility.yul\":7422:7539   */\n    tag_339:\n        /* \"#utility.yul\":7563:7626   */\n      tag_341\n        /* \"#utility.yul\":7618:7625   */\n      dup9\n        /* \"#utility.yul\":7609:7615   */\n      dup3\n        /* \"#utility.yul\":7598:7607   */\n      dup10\n        /* \"#utility.yul\":7594:7616   */\n      add\n        /* \"#utility.yul\":7563:7626   */\n      tag_200\n      jump\t// in\n    tag_341:\n        /* \"#utility.yul\":7553:7626   */\n      swap6\n      pop\n        /* \"#utility.yul\":7349:7636   */\n      pop\n        /* \"#utility.yul\":7703:7705   */\n      0x20\n        /* \"#utility.yul\":7692:7701   */\n      dup7\n        /* \"#utility.yul\":7688:7706   */\n      add\n        /* \"#utility.yul\":7675:7707   */\n      calldataload\n        /* \"#utility.yul\":7734:7752   */\n      0xffffffffffffffff\n        /* \"#utility.yul\":7726:7732   */\n      dup2\n        /* \"#utility.yul\":7723:7753   */\n      gt\n        /* \"#utility.yul\":7720:7837   */\n      iszero\n      tag_342\n      jumpi\n        /* \"#utility.yul\":7756:7835   */\n      tag_343\n      tag_180\n      jump\t// in\n    tag_343:\n        /* \"#utility.yul\":7720:7837   */\n    tag_342:\n        /* \"#utility.yul\":7861:7924   */\n      tag_344\n        /* \"#utility.yul\":7916:7923   */\n      dup9\n        /* \"#utility.yul\":7907:7913   */\n      dup3\n        /* \"#utility.yul\":7896:7905   */\n      dup10\n        /* \"#utility.yul\":7892:7914   */\n      add\n        /* \"#utility.yul\":7861:7924   */\n      tag_200\n      jump\t// in\n    tag_344:\n        /* \"#utility.yul\":7851:7924   */\n      swap5\n      pop\n        /* \"#utility.yul\":7646:7934   */\n      pop\n        /* \"#utility.yul\":8001:8003   */\n      0x40\n        /* \"#utility.yul\":7990:7999   */\n      dup7\n        /* \"#utility.yul\":7986:8004   */\n      add\n        /* \"#utility.yul\":7973:8005   */\n      calldataload\n        /* \"#utility.yul\":8032:8050   */\n      0xffffffffffffffff\n        /* \"#utility.yul\":8024:8030   */\n      dup2\n        /* \"#utility.yul\":8021:8051   */\n      gt\n        /* \"#utility.yul\":8018:8135   */\n      iszero\n      tag_345\n      jumpi\n        /* \"#utility.yul\":8054:8133   */\n      tag_346\n      tag_180\n      jump\t// in\n    tag_346:\n        /* \"#utility.yul\":8018:8135   */\n    tag_345:\n        /* \"#utility.yul\":8159:8247   */\n      tag_347\n        /* \"#utility.yul\":8239:8246   */\n      dup9\n        /* \"#utility.yul\":8230:8236   */\n      dup3\n        /* \"#utility.yul\":8219:8228   */\n      dup10\n        /* \"#utility.yul\":8215:8237   */\n      add\n        /* \"#utility.yul\":8159:8247   */\n      tag_204\n      jump\t// in\n    tag_347:\n        /* \"#utility.yul\":8149:8247   */\n      swap4\n      pop\n        /* \"#utility.yul\":7944:8257   */\n      pop\n        /* \"#utility.yul\":8296:8298   */\n      0x60\n        /* \"#utility.yul\":8322:8375   */\n      tag_348\n        /* \"#utility.yul\":8367:8374   */\n      dup9\n        /* \"#utility.yul\":8358:8364   */\n      dup3\n        /* \"#utility.yul\":8347:8356   */\n      dup10\n        /* \"#utility.yul\":8343:8365   */\n      add\n        /* \"#utility.yul\":8322:8375   */\n      tag_183\n      jump\t// in\n    tag_348:\n        /* \"#utility.yul\":8312:8375   */\n      swap3\n      pop\n        /* \"#utility.yul\":8267:8385   */\n      pop\n        /* \"#utility.yul\":8424:8427   */\n      0x80\n        /* \"#utility.yul\":8451:8503   */\n      tag_349\n        /* \"#utility.yul\":8495:8502   */\n      dup9\n        /* \"#utility.yul\":8486:8492   */\n      dup3\n        /* \"#utility.yul\":8475:8484   */\n      dup10\n        /* \"#utility.yul\":8471:8493   */\n      add\n        /* \"#utility.yul\":8451:8503   */\n      tag_207\n      jump\t// in\n    tag_349:\n        /* \"#utility.yul\":8441:8503   */\n      swap2\n      pop\n        /* \"#utility.yul\":8395:8513   */\n      pop\n        /* \"#utility.yul\":7021:8520   */\n      swap3\n      swap6\n      pop\n      swap3\n      swap6\n      swap1\n      swap4\n      pop\n      jump\t// out\n        /* \"#utility.yul\":8526:9360   */\n    tag_27:\n        /* \"#utility.yul\":8614:8620   */\n      0x00\n        /* \"#utility.yul\":8622:8628   */\n      dup1\n        /* \"#utility.yul\":8671:8673   */\n      0x40\n        /* \"#utility.yul\":8659:8668   */\n      dup4\n        /* \"#utility.yul\":8650:8657   */\n      dup6\n        /* \"#utility.yul\":8646:8669   */\n      sub\n        /* \"#utility.yul\":8642:8674   */\n      slt\n        /* \"#utility.yul\":8639:8758   */\n      iszero\n      tag_351\n      jumpi\n        /* \"#utility.yul\":8677:8756   */\n      tag_352\n      tag_179\n      jump\t// in\n    tag_352:\n        /* \"#utility.yul\":8639:8758   */\n    tag_351:\n        /* \"#utility.yul\":8825:8826   */\n      0x00\n        /* \"#utility.yul\":8814:8823   */\n      dup4\n        /* \"#utility.yul\":8810:8827   */\n      add\n        /* \"#utility.yul\":8797:8828   */\n      calldataload\n        /* \"#utility.yul\":8855:8873   */\n      0xffffffffffffffff\n        /* \"#utility.yul\":8847:8853   */\n      dup2\n        /* \"#utility.yul\":8844:8874   */\n      gt\n        /* \"#utility.yul\":8841:8958   */\n      iszero\n      tag_353\n      jumpi\n        /* \"#utility.yul\":8877:8956   */\n      tag_354\n      tag_180\n      jump\t// in\n    tag_354:\n        /* \"#utility.yul\":8841:8958   */\n    tag_353:\n        /* \"#utility.yul\":8982:9045   */\n      tag_355\n        /* \"#utility.yul\":9037:9044   */\n      dup6\n        /* \"#utility.yul\":9028:9034   */\n      dup3\n        /* \"#utility.yul\":9017:9026   */\n      dup7\n        /* \"#utility.yul\":9013:9035   */\n      add\n        /* \"#utility.yul\":8982:9045   */\n      tag_200\n      jump\t// in\n    tag_355:\n        /* \"#utility.yul\":8972:9045   */\n      swap3\n      pop\n        /* \"#utility.yul\":8768:9055   */\n      pop\n        /* \"#utility.yul\":9122:9124   */\n      0x20\n        /* \"#utility.yul\":9111:9120   */\n      dup4\n        /* \"#utility.yul\":9107:9125   */\n      add\n        /* \"#utility.yul\":9094:9126   */\n      calldataload\n        /* \"#utility.yul\":9153:9171   */\n      0xffffffffffffffff\n        /* \"#utility.yul\":9145:9151   */\n      dup2\n        /* \"#utility.yul\":9142:9172   */\n      gt\n        /* \"#utility.yul\":9139:9256   */\n      iszero\n      tag_356\n      jumpi\n        /* \"#utility.yul\":9175:9254   */\n      tag_357\n      tag_180\n      jump\t// in\n    tag_357:\n        /* \"#utility.yul\":9139:9256   */\n    tag_356:\n        /* \"#utility.yul\":9280:9343   */\n      tag_358\n        /* \"#utility.yul\":9335:9342   */\n      dup6\n        /* \"#utility.yul\":9326:9332   */\n      dup3\n        /* \"#utility.yul\":9315:9324   */\n      dup7\n        /* \"#utility.yul\":9311:9333   */\n      add\n        /* \"#utility.yul\":9280:9343   */\n      tag_200\n      jump\t// in\n    tag_358:\n        /* \"#utility.yul\":9270:9343   */\n      swap2\n      pop\n        /* \"#utility.yul\":9065:9353   */\n      pop\n        /* \"#utility.yul\":8526:9360   */\n      swap3\n      pop\n      swap3\n      swap1\n      pop\n      jump\t// out\n        /* \"#utility.yul\":9366:9484   */\n    tag_208:\n        /* \"#utility.yul\":9453:9477   */\n      tag_360\n        /* \"#utility.yul\":9471:9476   */\n      dup2\n        /* \"#utility.yul\":9453:9477   */\n      tag_181\n      jump\t// in\n    tag_360:\n        /* \"#utility.yul\":9448:9451   */\n      dup3\n        /* \"#utility.yul\":9441:9478   */\n      mstore\n        /* \"#utility.yul\":9366:9484   */\n      pop\n      pop\n      jump\t// out\n        /* \"#utility.yul\":9490:9605   */\n    tag_209:\n        /* \"#utility.yul\":9575:9598   */\n      tag_362\n        /* \"#utility.yul\":9592:9597   */\n      dup2\n        /* \"#utility.yul\":9575:9598   */\n      tag_205\n      jump\t// in\n    tag_362:\n        /* \"#utility.yul\":9570:9573   */\n      dup3\n        /* \"#utility.yul\":9563:9599   */\n      mstore\n        /* \"#utility.yul\":9490:9605   */\n      pop\n      pop\n      jump\t// out\n        /* \"#utility.yul\":9611:10342   */\n    tag_34:\n        /* \"#utility.yul\":9826:9830   */\n      0x00\n        /* \"#utility.yul\":9864:9867   */\n      0x80\n        /* \"#utility.yul\":9853:9862   */\n      dup3\n        /* \"#utility.yul\":9849:9868   */\n      add\n        /* \"#utility.yul\":9841:9868   */\n      swap1\n      pop\n        /* \"#utility.yul\":9914:9923   */\n      dup2\n        /* \"#utility.yul\":9908:9912   */\n      dup2\n        /* \"#utility.yul\":9904:9924   */\n      sub\n        /* \"#utility.yul\":9900:9901   */\n      0x00\n        /* \"#utility.yul\":9889:9898   */\n      dup4\n        /* \"#utility.yul\":9885:9902   */\n      add\n        /* \"#utility.yul\":9878:9925   */\n      mstore\n        /* \"#utility.yul\":9942:10020   */\n      tag_364\n        /* \"#utility.yul\":10015:10019   */\n      dup2\n        /* \"#utility.yul\":10006:10012   */\n      dup8\n        /* \"#utility.yul\":9942:10020   */\n      tag_191\n      jump\t// in\n    tag_364:\n        /* \"#utility.yul\":9934:10020   */\n      swap1\n      pop\n        /* \"#utility.yul\":10067:10076   */\n      dup2\n        /* \"#utility.yul\":10061:10065   */\n      dup2\n        /* \"#utility.yul\":10057:10077   */\n      sub\n        /* \"#utility.yul\":10052:10054   */\n      0x20\n        /* \"#utility.yul\":10041:10050   */\n      dup4\n        /* \"#utility.yul\":10037:10055   */\n      add\n        /* \"#utility.yul\":10030:10078   */\n      mstore\n        /* \"#utility.yul\":10095:10173   */\n      tag_365\n        /* \"#utility.yul\":10168:10172   */\n      dup2\n        /* \"#utility.yul\":10159:10165   */\n      dup7\n        /* \"#utility.yul\":10095:10173   */\n      tag_191\n      jump\t// in\n    tag_365:\n        /* \"#utility.yul\":10087:10173   */\n      swap1\n      pop\n        /* \"#utility.yul\":10183:10255   */\n      tag_366\n        /* \"#utility.yul\":10251:10253   */\n      0x40\n        /* \"#utility.yul\":10240:10249   */\n      dup4\n        /* \"#utility.yul\":10236:10254   */\n      add\n        /* \"#utility.yul\":10227:10233   */\n      dup6\n        /* \"#utility.yul\":10183:10255   */\n      tag_208\n      jump\t// in\n    tag_366:\n        /* \"#utility.yul\":10265:10335   */\n      tag_367\n        /* \"#utility.yul\":10331:10333   */\n      0x60\n        /* \"#utility.yul\":10320:10329   */\n      dup4\n        /* \"#utility.yul\":10316:10334   */\n      add\n        /* \"#utility.yul\":10307:10313   */\n      dup5\n        /* \"#utility.yul\":10265:10335   */\n      tag_209\n      jump\t// in\n    tag_367:\n        /* \"#utility.yul\":9611:10342   */\n      swap6\n      swap5\n      pop\n      pop\n      pop\n      pop\n      pop\n      jump\t// out\n        /* \"#utility.yul\":10348:10452   */\n    tag_210:\n        /* \"#utility.yul\":10393:10400   */\n      0x00\n        /* \"#utility.yul\":10422:10446   */\n      tag_369\n        /* \"#utility.yul\":10440:10445   */\n      dup3\n        /* \"#utility.yul\":10422:10446   */\n      tag_184\n      jump\t// in\n    tag_369:\n        /* \"#utility.yul\":10411:10446   */\n      swap1\n      pop\n        /* \"#utility.yul\":10348:10452   */\n      swap2\n      swap1\n      pop\n      jump\t// out\n        /* \"#utility.yul\":10458:10600   */\n    tag_211:\n        /* \"#utility.yul\":10561:10593   */\n      tag_371\n        /* \"#utility.yul\":10587:10592   */\n      dup2\n        /* \"#utility.yul\":10561:10593   */\n      tag_210\n      jump\t// in\n    tag_371:\n        /* \"#utility.yul\":10556:10559   */\n      dup3\n        /* \"#utility.yul\":10549:10594   */\n      mstore\n        /* \"#utility.yul\":10458:10600   */\n      pop\n      pop\n      jump\t// out\n        /* \"#utility.yul\":10606:10860   */\n    tag_39:\n        /* \"#utility.yul\":10715:10719   */\n      0x00\n        /* \"#utility.yul\":10753:10755   */\n      0x20\n        /* \"#utility.yul\":10742:10751   */\n      dup3\n        /* \"#utility.yul\":10738:10756   */\n      add\n        /* \"#utility.yul\":10730:10756   */\n      swap1\n      pop\n        /* \"#utility.yul\":10766:10853   */\n      tag_373\n        /* \"#utility.yul\":10850:10851   */\n      0x00\n        /* \"#utility.yul\":10839:10848   */\n      dup4\n        /* \"#utility.yul\":10835:10852   */\n      add\n        /* \"#utility.yul\":10826:10832   */\n      dup5\n        /* \"#utility.yul\":10766:10853   */\n      tag_211\n      jump\t// in\n    tag_373:\n        /* \"#utility.yul\":10606:10860   */\n      swap3\n      swap2\n      pop\n      pop\n      jump\t// out\n        /* \"#utility.yul\":10866:10988   */\n    tag_212:\n        /* \"#utility.yul\":10939:10963   */\n      tag_375\n        /* \"#utility.yul\":10957:10962   */\n      dup2\n        /* \"#utility.yul\":10939:10963   */\n      tag_185\n      jump\t// in\n    tag_375:\n        /* \"#utility.yul\":10932:10937   */\n      dup2\n        /* \"#utility.yul\":10929:10964   */\n      eq\n        /* \"#utility.yul\":10919:10982   */\n      tag_376\n      jumpi\n        /* \"#utility.yul\":10978:10979   */\n      0x00\n        /* \"#utility.yul\":10975:10976   */\n      dup1\n        /* \"#utility.yul\":10968:10980   */\n      revert\n        /* \"#utility.yul\":10919:10982   */\n    tag_376:\n        /* \"#utility.yul\":10866:10988   */\n      pop\n      jump\t// out\n        /* \"#utility.yul\":10994:11133   */\n    tag_213:\n        /* \"#utility.yul\":11040:11045   */\n      0x00\n        /* \"#utility.yul\":11078:11084   */\n      dup2\n        /* \"#utility.yul\":11065:11085   */\n      calldataload\n        /* \"#utility.yul\":11056:11085   */\n      swap1\n      pop\n        /* \"#utility.yul\":11094:11127   */\n      tag_378\n        /* \"#utility.yul\":11121:11126   */\n      dup2\n        /* \"#utility.yul\":11094:11127   */\n      tag_212\n      jump\t// in\n    tag_378:\n        /* \"#utility.yul\":10994:11133   */\n      swap3\n      swap2\n      pop\n      pop\n      jump\t// out\n        /* \"#utility.yul\":11139:11468   */\n    tag_43:\n        /* \"#utility.yul\":11198:11204   */\n      0x00\n        /* \"#utility.yul\":11247:11249   */\n      0x20\n        /* \"#utility.yul\":11235:11244   */\n      dup3\n        /* \"#utility.yul\":11226:11233   */\n      dup5\n        /* \"#utility.yul\":11222:11245   */\n      sub\n        /* \"#utility.yul\":11218:11250   */\n      slt\n        /* \"#utility.yul\":11215:11334   */\n      iszero\n      tag_380\n      jumpi\n        /* \"#utility.yul\":11253:11332   */\n      tag_381\n      tag_179\n      jump\t// in\n    tag_381:\n        /* \"#utility.yul\":11215:11334   */\n    tag_380:\n        /* \"#utility.yul\":11373:11374   */\n      0x00\n        /* \"#utility.yul\":11398:11451   */\n      tag_382\n        /* \"#utility.yul\":11443:11450   */\n      dup5\n        /* \"#utility.yul\":11434:11440   */\n      dup3\n        /* \"#utility.yul\":11423:11432   */\n      dup6\n        /* \"#utility.yul\":11419:11441   */\n      add\n        /* \"#utility.yul\":11398:11451   */\n      tag_213\n      jump\t// in\n    tag_382:\n        /* \"#utility.yul\":11388:11451   */\n      swap2\n      pop\n        /* \"#utility.yul\":11344:11461   */\n      pop\n        /* \"#utility.yul\":11139:11468   */\n      swap3\n      swap2\n      pop\n      pop\n      jump\t// out\n        /* \"#utility.yul\":11474:11654   */\n    tag_72:\n        /* \"#utility.yul\":11522:11599   */\n      0x4e487b7100000000000000000000000000000000000000000000000000000000\n        /* \"#utility.yul\":11519:11520   */\n      0x00\n        /* \"#utility.yul\":11512:11600   */\n      mstore\n        /* \"#utility.yul\":11619:11623   */\n      0x21\n        /* \"#utility.yul\":11616:11617   */\n      0x04\n        /* \"#utility.yul\":11609:11624   */\n      mstore\n        /* \"#utility.yul\":11643:11647   */\n      0x24\n        /* \"#utility.yul\":11640:11641   */\n      0x00\n        /* \"#utility.yul\":11633:11648   */\n      revert\n        /* \"#utility.yul\":11660:11773   */\n    tag_214:\n        /* \"#utility.yul\":11741:11742   */\n      0x03\n        /* \"#utility.yul\":11734:11739   */\n      dup2\n        /* \"#utility.yul\":11731:11743   */\n      lt\n        /* \"#utility.yul\":11721:11767   */\n      tag_385\n      jumpi\n        /* \"#utility.yul\":11747:11765   */\n      tag_386\n      tag_72\n      jump\t// in\n    tag_386:\n        /* \"#utility.yul\":11721:11767   */\n    tag_385:\n        /* \"#utility.yul\":11660:11773   */\n      pop\n      jump\t// out\n        /* \"#utility.yul\":11779:11906   */\n    tag_215:\n        /* \"#utility.yul\":11824:11831   */\n      0x00\n        /* \"#utility.yul\":11853:11858   */\n      dup2\n        /* \"#utility.yul\":11842:11858   */\n      swap1\n      pop\n        /* \"#utility.yul\":11859:11900   */\n      tag_388\n        /* \"#utility.yul\":11894:11899   */\n      dup3\n        /* \"#utility.yul\":11859:11900   */\n      tag_214\n      jump\t// in\n    tag_388:\n        /* \"#utility.yul\":11779:11906   */\n      swap2\n      swap1\n      pop\n      jump\t// out\n        /* \"#utility.yul\":11912:12039   */\n    tag_216:\n        /* \"#utility.yul\":11968:11977   */\n      0x00\n        /* \"#utility.yul\":12001:12033   */\n      tag_390\n        /* \"#utility.yul\":12027:12032   */\n      dup3\n        /* \"#utility.yul\":12001:12033   */\n      tag_215\n      jump\t// in\n    tag_390:\n        /* \"#utility.yul\":11988:12033   */\n      swap1\n      pop\n        /* \"#utility.yul\":11912:12039   */\n      swap2\n      swap1\n      pop\n      jump\t// out\n        /* \"#utility.yul\":12045:12188   */\n    tag_217:\n        /* \"#utility.yul\":12138:12181   */\n      tag_392\n        /* \"#utility.yul\":12175:12180   */\n      dup2\n        /* \"#utility.yul\":12138:12181   */\n      tag_216\n      jump\t// in\n    tag_392:\n        /* \"#utility.yul\":12133:12136   */\n      dup3\n        /* \"#utility.yul\":12126:12182   */\n      mstore\n        /* \"#utility.yul\":12045:12188   */\n      pop\n      pop\n      jump\t// out\n        /* \"#utility.yul\":12194:12428   */\n    tag_46:\n        /* \"#utility.yul\":12293:12297   */\n      0x00\n        /* \"#utility.yul\":12331:12333   */\n      0x20\n        /* \"#utility.yul\":12320:12329   */\n      dup3\n        /* \"#utility.yul\":12316:12334   */\n      add\n        /* \"#utility.yul\":12308:12334   */\n      swap1\n      pop\n        /* \"#utility.yul\":12344:12421   */\n      tag_394\n        /* \"#utility.yul\":12418:12419   */\n      0x00\n        /* \"#utility.yul\":12407:12416   */\n      dup4\n        /* \"#utility.yul\":12403:12420   */\n      add\n        /* \"#utility.yul\":12394:12400   */\n      dup5\n        /* \"#utility.yul\":12344:12421   */\n      tag_217\n      jump\t// in\n    tag_394:\n        /* \"#utility.yul\":12194:12428   */\n      swap3\n      swap2\n      pop\n      pop\n      jump\t// out\n        /* \"#utility.yul\":12434:12569   */\n    tag_218:\n        /* \"#utility.yul\":12522:12528   */\n      0x00\n        /* \"#utility.yul\":12556:12561   */\n      dup2\n        /* \"#utility.yul\":12550:12562   */\n      mload\n        /* \"#utility.yul\":12540:12562   */\n      swap1\n      pop\n        /* \"#utility.yul\":12434:12569   */\n      swap2\n      swap1\n      pop\n      jump\t// out\n        /* \"#utility.yul\":12575:12780   */\n    tag_219:\n        /* \"#utility.yul\":12695:12706   */\n      0x00\n        /* \"#utility.yul\":12729:12735   */\n      dup3\n        /* \"#utility.yul\":12724:12727   */\n      dup3\n        /* \"#utility.yul\":12717:12736   */\n      mstore\n        /* \"#utility.yul\":12769:12773   */\n      0x20\n        /* \"#utility.yul\":12764:12767   */\n      dup3\n        /* \"#utility.yul\":12760:12774   */\n      add\n        /* \"#utility.yul\":12745:12774   */\n      swap1\n      pop\n        /* \"#utility.yul\":12575:12780   */\n      swap3\n      swap2\n      pop\n      pop\n      jump\t// out\n        /* \"#utility.yul\":12786:12939   */\n    tag_220:\n        /* \"#utility.yul\":12874:12878   */\n      0x00\n        /* \"#utility.yul\":12897:12900   */\n      dup2\n        /* \"#utility.yul\":12889:12900   */\n      swap1\n      pop\n        /* \"#utility.yul\":12927:12931   */\n      0x20\n        /* \"#utility.yul\":12922:12925   */\n      dup3\n        /* \"#utility.yul\":12918:12932   */\n      add\n        /* \"#utility.yul\":12910:12932   */\n      swap1\n      pop\n        /* \"#utility.yul\":12786:12939   */\n      swap2\n      swap1\n      pop\n      jump\t// out\n        /* \"#utility.yul\":12945:13104   */\n    tag_221:\n        /* \"#utility.yul\":13019:13030   */\n      0x00\n        /* \"#utility.yul\":13053:13059   */\n      dup3\n        /* \"#utility.yul\":13048:13051   */\n      dup3\n        /* \"#utility.yul\":13041:13060   */\n      mstore\n        /* \"#utility.yul\":13093:13097   */\n      0x20\n        /* \"#utility.yul\":13088:13091   */\n      dup3\n        /* \"#utility.yul\":13084:13098   */\n      add\n        /* \"#utility.yul\":13069:13098   */\n      swap1\n      pop\n        /* \"#utility.yul\":12945:13104   */\n      swap3\n      swap2\n      pop\n      pop\n      jump\t// out\n        /* \"#utility.yul\":13110:13467   */\n    tag_222:\n        /* \"#utility.yul\":13188:13191   */\n      0x00\n        /* \"#utility.yul\":13216:13255   */\n      tag_400\n        /* \"#utility.yul\":13249:13254   */\n      dup3\n        /* \"#utility.yul\":13216:13255   */\n      tag_187\n      jump\t// in\n    tag_400:\n        /* \"#utility.yul\":13271:13332   */\n      tag_401\n        /* \"#utility.yul\":13325:13331   */\n      dup2\n        /* \"#utility.yul\":13320:13323   */\n      dup6\n        /* \"#utility.yul\":13271:13332   */\n      tag_221\n      jump\t// in\n    tag_401:\n        /* \"#utility.yul\":13264:13332   */\n      swap4\n      pop\n        /* \"#utility.yul\":13341:13406   */\n      tag_402\n        /* \"#utility.yul\":13399:13405   */\n      dup2\n        /* \"#utility.yul\":13394:13397   */\n      dup6\n        /* \"#utility.yul\":13387:13391   */\n      0x20\n        /* \"#utility.yul\":13380:13385   */\n      dup7\n        /* \"#utility.yul\":13376:13392   */\n      add\n        /* \"#utility.yul\":13341:13406   */\n      tag_189\n      jump\t// in\n    tag_402:\n        /* \"#utility.yul\":13431:13460   */\n      tag_403\n        /* \"#utility.yul\":13453:13459   */\n      dup2\n        /* \"#utility.yul\":13431:13460   */\n      tag_190\n      jump\t// in\n    tag_403:\n        /* \"#utility.yul\":13426:13429   */\n      dup5\n        /* \"#utility.yul\":13422:13461   */\n      add\n        /* \"#utility.yul\":13415:13461   */\n      swap2\n      pop\n        /* \"#utility.yul\":13192:13467   */\n      pop\n        /* \"#utility.yul\":13110:13467   */\n      swap3\n      swap2\n      pop\n      pop\n      jump\t// out\n        /* \"#utility.yul\":13473:13597   */\n    tag_223:\n        /* \"#utility.yul\":13550:13556   */\n      0x00\n        /* \"#utility.yul\":13584:13589   */\n      dup2\n        /* \"#utility.yul\":13578:13590   */\n      mload\n        /* \"#utility.yul\":13568:13590   */\n      swap1\n      pop\n        /* \"#utility.yul\":13473:13597   */\n      swap2\n      swap1\n      pop\n      jump\t// out\n        /* \"#utility.yul\":13603:13787   */\n    tag_224:\n        /* \"#utility.yul\":13702:13713   */\n      0x00\n        /* \"#utility.yul\":13736:13742   */\n      dup3\n        /* \"#utility.yul\":13731:13734   */\n      dup3\n        /* \"#utility.yul\":13724:13743   */\n      mstore\n        /* \"#utility.yul\":13776:13780   */\n      0x20\n        /* \"#utility.yul\":13771:13774   */\n      dup3\n        /* \"#utility.yul\":13767:13781   */\n      add\n        /* \"#utility.yul\":13752:13781   */\n      swap1\n      pop\n        /* \"#utility.yul\":13603:13787   */\n      swap3\n      swap2\n      pop\n      pop\n      jump\t// out\n        /* \"#utility.yul\":13793:13935   */\n    tag_225:\n        /* \"#utility.yul\":13870:13874   */\n      0x00\n        /* \"#utility.yul\":13893:13896   */\n      dup2\n        /* \"#utility.yul\":13885:13896   */\n      swap1\n      pop\n        /* \"#utility.yul\":13923:13927   */\n      0x20\n        /* \"#utility.yul\":13918:13921   */\n      dup3\n        /* \"#utility.yul\":13914:13928   */\n      add\n        /* \"#utility.yul\":13906:13928   */\n      swap1\n      pop\n        /* \"#utility.yul\":13793:13935   */\n      swap2\n      swap1\n      pop\n      jump\t// out\n        /* \"#utility.yul\":13941:14137   */\n    tag_226:\n        /* \"#utility.yul\":14030:14040   */\n      0x00\n        /* \"#utility.yul\":14065:14131   */\n      tag_408\n        /* \"#utility.yul\":14127:14130   */\n      dup4\n        /* \"#utility.yul\":14119:14125   */\n      dup4\n        /* \"#utility.yul\":14065:14131   */\n      tag_222\n      jump\t// in\n    tag_408:\n        /* \"#utility.yul\":14051:14131   */\n      swap1\n      pop\n        /* \"#utility.yul\":13941:14137   */\n      swap3\n      swap2\n      pop\n      pop\n      jump\t// out\n        /* \"#utility.yul\":14143:14266   */\n    tag_227:\n        /* \"#utility.yul\":14223:14227   */\n      0x00\n        /* \"#utility.yul\":14255:14259   */\n      0x20\n        /* \"#utility.yul\":14250:14253   */\n      dup3\n        /* \"#utility.yul\":14246:14260   */\n      add\n        /* \"#utility.yul\":14238:14260   */\n      swap1\n      pop\n        /* \"#utility.yul\":14143:14266   */\n      swap2\n      swap1\n      pop\n      jump\t// out\n        /* \"#utility.yul\":14300:15271   */\n    tag_228:\n        /* \"#utility.yul\":14429:14432   */\n      0x00\n        /* \"#utility.yul\":14458:14522   */\n      tag_411\n        /* \"#utility.yul\":14516:14521   */\n      dup3\n        /* \"#utility.yul\":14458:14522   */\n      tag_223\n      jump\t// in\n    tag_411:\n        /* \"#utility.yul\":14538:14624   */\n      tag_412\n        /* \"#utility.yul\":14617:14623   */\n      dup2\n        /* \"#utility.yul\":14612:14615   */\n      dup6\n        /* \"#utility.yul\":14538:14624   */\n      tag_224\n      jump\t// in\n    tag_412:\n        /* \"#utility.yul\":14531:14624   */\n      swap4\n      pop\n        /* \"#utility.yul\":14650:14653   */\n      dup4\n        /* \"#utility.yul\":14695:14699   */\n      0x20\n        /* \"#utility.yul\":14687:14693   */\n      dup3\n        /* \"#utility.yul\":14683:14700   */\n      mul\n        /* \"#utility.yul\":14678:14681   */\n      dup6\n        /* \"#utility.yul\":14674:14701   */\n      add\n        /* \"#utility.yul\":14725:14791   */\n      tag_413\n        /* \"#utility.yul\":14785:14790   */\n      dup6\n        /* \"#utility.yul\":14725:14791   */\n      tag_225\n      jump\t// in\n    tag_413:\n        /* \"#utility.yul\":14814:14821   */\n      dup1\n        /* \"#utility.yul\":14845:14846   */\n      0x00\n        /* \"#utility.yul\":14830:15226   */\n    tag_414:\n        /* \"#utility.yul\":14855:14861   */\n      dup6\n        /* \"#utility.yul\":14852:14853   */\n      dup2\n        /* \"#utility.yul\":14849:14862   */\n      lt\n        /* \"#utility.yul\":14830:15226   */\n      iszero\n      tag_416\n      jumpi\n        /* \"#utility.yul\":14926:14935   */\n      dup5\n        /* \"#utility.yul\":14920:14924   */\n      dup5\n        /* \"#utility.yul\":14916:14936   */\n      sub\n        /* \"#utility.yul\":14911:14914   */\n      dup10\n        /* \"#utility.yul\":14904:14937   */\n      mstore\n        /* \"#utility.yul\":14977:14983   */\n      dup2\n        /* \"#utility.yul\":14971:14984   */\n      mload\n        /* \"#utility.yul\":15005:15089   */\n      tag_417\n        /* \"#utility.yul\":15084:15088   */\n      dup6\n        /* \"#utility.yul\":15069:15082   */\n      dup3\n        /* \"#utility.yul\":15005:15089   */\n      tag_226\n      jump\t// in\n    tag_417:\n        /* \"#utility.yul\":14997:15089   */\n      swap5\n      pop\n        /* \"#utility.yul\":15112:15182   */\n      tag_418\n        /* \"#utility.yul\":15175:15181   */\n      dup4\n        /* \"#utility.yul\":15112:15182   */\n      tag_227\n      jump\t// in\n    tag_418:\n        /* \"#utility.yul\":15102:15182   */\n      swap3\n      pop\n        /* \"#utility.yul\":15211:15215   */\n      0x20\n        /* \"#utility.yul\":15206:15209   */\n      dup11\n        /* \"#utility.yul\":15202:15216   */\n      add\n        /* \"#utility.yul\":15195:15216   */\n      swap10\n      pop\n        /* \"#utility.yul\":14890:15226   */\n      pop\n        /* \"#utility.yul\":14877:14878   */\n      0x01\n        /* \"#utility.yul\":14874:14875   */\n      dup2\n        /* \"#utility.yul\":14870:14879   */\n      add\n        /* \"#utility.yul\":14865:14879   */\n      swap1\n      pop\n        /* \"#utility.yul\":14830:15226   */\n      jump(tag_414)\n    tag_416:\n        /* \"#utility.yul\":14834:14848   */\n      pop\n        /* \"#utility.yul\":15242:15246   */\n      dup3\n        /* \"#utility.yul\":15235:15246   */\n      swap8\n      pop\n        /* \"#utility.yul\":15262:15265   */\n      dup8\n        /* \"#utility.yul\":15255:15265   */\n      swap6\n      pop\n        /* \"#utility.yul\":14434:15271   */\n      pop\n      pop\n      pop\n      pop\n      pop\n        /* \"#utility.yul\":14300:15271   */\n      swap3\n      swap2\n      pop\n      pop\n      jump\t// out\n        /* \"#utility.yul\":15277:15385   */\n    tag_229:\n        /* \"#utility.yul\":15354:15378   */\n      tag_420\n        /* \"#utility.yul\":15372:15377   */\n      dup2\n        /* \"#utility.yul\":15354:15378   */\n      tag_181\n      jump\t// in\n    tag_420:\n        /* \"#utility.yul\":15349:15352   */\n      dup3\n        /* \"#utility.yul\":15342:15379   */\n      mstore\n        /* \"#utility.yul\":15277:15385   */\n      pop\n      pop\n      jump\t// out\n        /* \"#utility.yul\":15391:15496   */\n    tag_230:\n        /* \"#utility.yul\":15466:15489   */\n      tag_422\n        /* \"#utility.yul\":15483:15488   */\n      dup2\n        /* \"#utility.yul\":15466:15489   */\n      tag_205\n      jump\t// in\n    tag_422:\n        /* \"#utility.yul\":15461:15464   */\n      dup3\n        /* \"#utility.yul\":15454:15490   */\n      mstore\n        /* \"#utility.yul\":15391:15496   */\n      pop\n      pop\n      jump\t// out\n        /* \"#utility.yul\":15576:16893   */\n    tag_231:\n        /* \"#utility.yul\":15677:15680   */\n      0x00\n        /* \"#utility.yul\":15713:15717   */\n      0xa0\n        /* \"#utility.yul\":15708:15711   */\n      dup4\n        /* \"#utility.yul\":15704:15718   */\n      add\n        /* \"#utility.yul\":15800:15804   */\n      0x00\n        /* \"#utility.yul\":15793:15798   */\n      dup4\n        /* \"#utility.yul\":15789:15805   */\n      add\n        /* \"#utility.yul\":15783:15806   */\n      mload\n        /* \"#utility.yul\":15853:15856   */\n      dup5\n        /* \"#utility.yul\":15847:15851   */\n      dup3\n        /* \"#utility.yul\":15843:15857   */\n      sub\n        /* \"#utility.yul\":15836:15840   */\n      0x00\n        /* \"#utility.yul\":15831:15834   */\n      dup7\n        /* \"#utility.yul\":15827:15841   */\n      add\n        /* \"#utility.yul\":15820:15858   */\n      mstore\n        /* \"#utility.yul\":15879:15952   */\n      tag_424\n        /* \"#utility.yul\":15947:15951   */\n      dup3\n        /* \"#utility.yul\":15933:15945   */\n      dup3\n        /* \"#utility.yul\":15879:15952   */\n      tag_222\n      jump\t// in\n    tag_424:\n        /* \"#utility.yul\":15871:15952   */\n      swap2\n      pop\n        /* \"#utility.yul\":15728:15963   */\n      pop\n        /* \"#utility.yul\":16052:16056   */\n      0x20\n        /* \"#utility.yul\":16045:16050   */\n      dup4\n        /* \"#utility.yul\":16041:16057   */\n      add\n        /* \"#utility.yul\":16035:16058   */\n      mload\n        /* \"#utility.yul\":16105:16108   */\n      dup5\n        /* \"#utility.yul\":16099:16103   */\n      dup3\n        /* \"#utility.yul\":16095:16109   */\n      sub\n        /* \"#utility.yul\":16088:16092   */\n      0x20\n        /* \"#utility.yul\":16083:16086   */\n      dup7\n        /* \"#utility.yul\":16079:16093   */\n      add\n        /* \"#utility.yul\":16072:16110   */\n      mstore\n        /* \"#utility.yul\":16131:16204   */\n      tag_425\n        /* \"#utility.yul\":16199:16203   */\n      dup3\n        /* \"#utility.yul\":16185:16197   */\n      dup3\n        /* \"#utility.yul\":16131:16204   */\n      tag_222\n      jump\t// in\n    tag_425:\n        /* \"#utility.yul\":16123:16204   */\n      swap2\n      pop\n        /* \"#utility.yul\":15973:16215   */\n      pop\n        /* \"#utility.yul\":16304:16308   */\n      0x40\n        /* \"#utility.yul\":16297:16302   */\n      dup4\n        /* \"#utility.yul\":16293:16309   */\n      add\n        /* \"#utility.yul\":16287:16310   */\n      mload\n        /* \"#utility.yul\":16357:16360   */\n      dup5\n        /* \"#utility.yul\":16351:16355   */\n      dup3\n        /* \"#utility.yul\":16347:16361   */\n      sub\n        /* \"#utility.yul\":16340:16344   */\n      0x40\n        /* \"#utility.yul\":16335:16338   */\n      dup7\n        /* \"#utility.yul\":16331:16345   */\n      add\n        /* \"#utility.yul\":16324:16362   */\n      mstore\n        /* \"#utility.yul\":16383:16506   */\n      tag_426\n        /* \"#utility.yul\":16501:16505   */\n      dup3\n        /* \"#utility.yul\":16487:16499   */\n      dup3\n        /* \"#utility.yul\":16383:16506   */\n      tag_228\n      jump\t// in\n    tag_426:\n        /* \"#utility.yul\":16375:16506   */\n      swap2\n      pop\n        /* \"#utility.yul\":16225:16517   */\n      pop\n        /* \"#utility.yul\":16600:16604   */\n      0x60\n        /* \"#utility.yul\":16593:16598   */\n      dup4\n        /* \"#utility.yul\":16589:16605   */\n      add\n        /* \"#utility.yul\":16583:16606   */\n      mload\n        /* \"#utility.yul\":16619:16682   */\n      tag_427\n        /* \"#utility.yul\":16676:16680   */\n      0x60\n        /* \"#utility.yul\":16671:16674   */\n      dup7\n        /* \"#utility.yul\":16667:16681   */\n      add\n        /* \"#utility.yul\":16653:16665   */\n      dup3\n        /* \"#utility.yul\":16619:16682   */\n      tag_229\n      jump\t// in\n    tag_427:\n        /* \"#utility.yul\":16527:16692   */\n      pop\n        /* \"#utility.yul\":16776:16780   */\n      0x80\n        /* \"#utility.yul\":16769:16774   */\n      dup4\n        /* \"#utility.yul\":16765:16781   */\n      add\n        /* \"#utility.yul\":16759:16782   */\n      mload\n        /* \"#utility.yul\":16795:16856   */\n      tag_428\n        /* \"#utility.yul\":16850:16854   */\n      0x80\n        /* \"#utility.yul\":16845:16848   */\n      dup7\n        /* \"#utility.yul\":16841:16855   */\n      add\n        /* \"#utility.yul\":16827:16839   */\n      dup3\n        /* \"#utility.yul\":16795:16856   */\n      tag_230\n      jump\t// in\n    tag_428:\n        /* \"#utility.yul\":16702:16866   */\n      pop\n        /* \"#utility.yul\":16883:16887   */\n      dup1\n        /* \"#utility.yul\":16876:16887   */\n      swap2\n      pop\n        /* \"#utility.yul\":15682:16893   */\n      pop\n        /* \"#utility.yul\":15576:16893   */\n      swap3\n      swap2\n      pop\n      pop\n      jump\t// out\n        /* \"#utility.yul\":16899:17139   */\n    tag_232:\n        /* \"#utility.yul\":17010:17020   */\n      0x00\n        /* \"#utility.yul\":17045:17133   */\n      tag_430\n        /* \"#utility.yul\":17129:17132   */\n      dup4\n        /* \"#utility.yul\":17121:17127   */\n      dup4\n        /* \"#utility.yul\":17045:17133   */\n      tag_231\n      jump\t// in\n    tag_430:\n        /* \"#utility.yul\":17031:17133   */\n      swap1\n      pop\n        /* \"#utility.yul\":16899:17139   */\n      swap3\n      swap2\n      pop\n      pop\n      jump\t// out\n        /* \"#utility.yul\":17145:17279   */\n    tag_233:\n        /* \"#utility.yul\":17236:17240   */\n      0x00\n        /* \"#utility.yul\":17268:17272   */\n      0x20\n        /* \"#utility.yul\":17263:17266   */\n      dup3\n        /* \"#utility.yul\":17259:17273   */\n      add\n        /* \"#utility.yul\":17251:17273   */\n      swap1\n      pop\n        /* \"#utility.yul\":17145:17279   */\n      swap2\n      swap1\n      pop\n      jump\t// out\n        /* \"#utility.yul\":17363:18442   */\n    tag_234:\n        /* \"#utility.yul\":17524:17527   */\n      0x00\n        /* \"#utility.yul\":17553:17628   */\n      tag_433\n        /* \"#utility.yul\":17622:17627   */\n      dup3\n        /* \"#utility.yul\":17553:17628   */\n      tag_218\n      jump\t// in\n    tag_433:\n        /* \"#utility.yul\":17644:17751   */\n      tag_434\n        /* \"#utility.yul\":17744:17750   */\n      dup2\n        /* \"#utility.yul\":17739:17742   */\n      dup6\n        /* \"#utility.yul\":17644:17751   */\n      tag_219\n      jump\t// in\n    tag_434:\n        /* \"#utility.yul\":17637:17751   */\n      swap4\n      pop\n        /* \"#utility.yul\":17777:17780   */\n      dup4\n        /* \"#utility.yul\":17822:17826   */\n      0x20\n        /* \"#utility.yul\":17814:17820   */\n      dup3\n        /* \"#utility.yul\":17810:17827   */\n      mul\n        /* \"#utility.yul\":17805:17808   */\n      dup6\n        /* \"#utility.yul\":17801:17828   */\n      add\n        /* \"#utility.yul\":17852:17929   */\n      tag_435\n        /* \"#utility.yul\":17923:17928   */\n      dup6\n        /* \"#utility.yul\":17852:17929   */\n      tag_220\n      jump\t// in\n    tag_435:\n        /* \"#utility.yul\":17952:17959   */\n      dup1\n        /* \"#utility.yul\":17983:17984   */\n      0x00\n        /* \"#utility.yul\":17968:18397   */\n    tag_436:\n        /* \"#utility.yul\":17993:17999   */\n      dup6\n        /* \"#utility.yul\":17990:17991   */\n      dup2\n        /* \"#utility.yul\":17987:18000   */\n      lt\n        /* \"#utility.yul\":17968:18397   */\n      iszero\n      tag_438\n      jumpi\n        /* \"#utility.yul\":18064:18073   */\n      dup5\n        /* \"#utility.yul\":18058:18062   */\n      dup5\n        /* \"#utility.yul\":18054:18074   */\n      sub\n        /* \"#utility.yul\":18049:18052   */\n      dup10\n        /* \"#utility.yul\":18042:18075   */\n      mstore\n        /* \"#utility.yul\":18115:18121   */\n      dup2\n        /* \"#utility.yul\":18109:18122   */\n      mload\n        /* \"#utility.yul\":18143:18249   */\n      tag_439\n        /* \"#utility.yul\":18244:18248   */\n      dup6\n        /* \"#utility.yul\":18229:18242   */\n      dup3\n        /* \"#utility.yul\":18143:18249   */\n      tag_232\n      jump\t// in\n    tag_439:\n        /* \"#utility.yul\":18135:18249   */\n      swap5\n      pop\n        /* \"#utility.yul\":18272:18353   */\n      tag_440\n        /* \"#utility.yul\":18346:18352   */\n      dup4\n        /* \"#utility.yul\":18272:18353   */\n      tag_233\n      jump\t// in\n    tag_440:\n        /* \"#utility.yul\":18262:18353   */\n      swap3\n      pop\n        /* \"#utility.yul\":18382:18386   */\n      0x20\n        /* \"#utility.yul\":18377:18380   */\n      dup11\n        /* \"#utility.yul\":18373:18387   */\n      add\n        /* \"#utility.yul\":18366:18387   */\n      swap10\n      pop\n        /* \"#utility.yul\":18028:18397   */\n      pop\n        /* \"#utility.yul\":18015:18016   */\n      0x01\n        /* \"#utility.yul\":18012:18013   */\n      dup2\n        /* \"#utility.yul\":18008:18017   */\n      add\n        /* \"#utility.yul\":18003:18017   */\n      swap1\n      pop\n        /* \"#utility.yul\":17968:18397   */\n      jump(tag_436)\n    tag_438:\n        /* \"#utility.yul\":17972:17986   */\n      pop\n        /* \"#utility.yul\":18413:18417   */\n      dup3\n        /* \"#utility.yul\":18406:18417   */\n      swap8\n      pop\n        /* \"#utility.yul\":18433:18436   */\n      dup8\n        /* \"#utility.yul\":18426:18436   */\n      swap6\n      pop\n        /* \"#utility.yul\":17529:18442   */\n      pop\n      pop\n      pop\n      pop\n      pop\n        /* \"#utility.yul\":17363:18442   */\n      swap3\n      swap2\n      pop\n      pop\n      jump\t// out\n        /* \"#utility.yul\":18448:18905   */\n    tag_51:\n        /* \"#utility.yul\":18633:18637   */\n      0x00\n        /* \"#utility.yul\":18671:18673   */\n      0x20\n        /* \"#utility.yul\":18660:18669   */\n      dup3\n        /* \"#utility.yul\":18656:18674   */\n      add\n        /* \"#utility.yul\":18648:18674   */\n      swap1\n      pop\n        /* \"#utility.yul\":18720:18729   */\n      dup2\n        /* \"#utility.yul\":18714:18718   */\n      dup2\n        /* \"#utility.yul\":18710:18730   */\n      sub\n        /* \"#utility.yul\":18706:18707   */\n      0x00\n        /* \"#utility.yul\":18695:18704   */\n      dup4\n        /* \"#utility.yul\":18691:18708   */\n      add\n        /* \"#utility.yul\":18684:18731   */\n      mstore\n        /* \"#utility.yul\":18748:18898   */\n      tag_442\n        /* \"#utility.yul\":18893:18897   */\n      dup2\n        /* \"#utility.yul\":18884:18890   */\n      dup5\n        /* \"#utility.yul\":18748:18898   */\n      tag_234\n      jump\t// in\n    tag_442:\n        /* \"#utility.yul\":18740:18898   */\n      swap1\n      pop\n        /* \"#utility.yul\":18448:18905   */\n      swap3\n      swap2\n      pop\n      pop\n      jump\t// out\n        /* \"#utility.yul\":18911:19425   */\n    tag_60:\n        /* \"#utility.yul\":19072:19076   */\n      0x00\n        /* \"#utility.yul\":19110:19112   */\n      0x40\n        /* \"#utility.yul\":19099:19108   */\n      dup3\n        /* \"#utility.yul\":19095:19113   */\n      add\n        /* \"#utility.yul\":19087:19113   */\n      swap1\n      pop\n        /* \"#utility.yul\":19159:19168   */\n      dup2\n        /* \"#utility.yul\":19153:19157   */\n      dup2\n        /* \"#utility.yul\":19149:19169   */\n      sub\n        /* \"#utility.yul\":19145:19146   */\n      0x00\n        /* \"#utility.yul\":19134:19143   */\n      dup4\n        /* \"#utility.yul\":19130:19147   */\n      add\n        /* \"#utility.yul\":19123:19170   */\n      mstore\n        /* \"#utility.yul\":19187:19265   */\n      tag_444\n        /* \"#utility.yul\":19260:19264   */\n      dup2\n        /* \"#utility.yul\":19251:19257   */\n      dup6\n        /* \"#utility.yul\":19187:19265   */\n      tag_191\n      jump\t// in\n    tag_444:\n        /* \"#utility.yul\":19179:19265   */\n      swap1\n      pop\n        /* \"#utility.yul\":19312:19321   */\n      dup2\n        /* \"#utility.yul\":19306:19310   */\n      dup2\n        /* \"#utility.yul\":19302:19322   */\n      sub\n        /* \"#utility.yul\":19297:19299   */\n      0x20\n        /* \"#utility.yul\":19286:19295   */\n      dup4\n        /* \"#utility.yul\":19282:19300   */\n      add\n        /* \"#utility.yul\":19275:19323   */\n      mstore\n        /* \"#utility.yul\":19340:19418   */\n      tag_445\n        /* \"#utility.yul\":19413:19417   */\n      dup2\n        /* \"#utility.yul\":19404:19410   */\n      dup5\n        /* \"#utility.yul\":19340:19418   */\n      tag_191\n      jump\t// in\n    tag_445:\n        /* \"#utility.yul\":19332:19418   */\n      swap1\n      pop\n        /* \"#utility.yul\":18911:19425   */\n      swap4\n      swap3\n      pop\n      pop\n      pop\n      jump\t// out\n        /* \"#utility.yul\":19431:19611   */\n    tag_235:\n        /* \"#utility.yul\":19479:19556   */\n      0x4e487b7100000000000000000000000000000000000000000000000000000000\n        /* \"#utility.yul\":19476:19477   */\n      0x00\n        /* \"#utility.yul\":19469:19557   */\n      mstore\n        /* \"#utility.yul\":19576:19580   */\n      0x22\n        /* \"#utility.yul\":19573:19574   */\n      0x04\n        /* \"#utility.yul\":19566:19581   */\n      mstore\n        /* \"#utility.yul\":19600:19604   */\n      0x24\n        /* \"#utility.yul\":19597:19598   */\n      0x00\n        /* \"#utility.yul\":19590:19605   */\n      revert\n        /* \"#utility.yul\":19617:19937   */\n    tag_64:\n        /* \"#utility.yul\":19661:19667   */\n      0x00\n        /* \"#utility.yul\":19698:19699   */\n      0x02\n        /* \"#utility.yul\":19692:19696   */\n      dup3\n        /* \"#utility.yul\":19688:19700   */\n      div\n        /* \"#utility.yul\":19678:19700   */\n      swap1\n      pop\n        /* \"#utility.yul\":19745:19746   */\n      0x01\n        /* \"#utility.yul\":19739:19743   */\n      dup3\n        /* \"#utility.yul\":19735:19747   */\n      and\n        /* \"#utility.yul\":19766:19784   */\n      dup1\n        /* \"#utility.yul\":19756:19837   */\n      tag_448\n      jumpi\n        /* \"#utility.yul\":19822:19826   */\n      0x7f\n        /* \"#utility.yul\":19814:19820   */\n      dup3\n        /* \"#utility.yul\":19810:19827   */\n      and\n        /* \"#utility.yul\":19800:19827   */\n      swap2\n      pop\n        /* \"#utility.yul\":19756:19837   */\n    tag_448:\n        /* \"#utility.yul\":19884:19886   */\n      0x20\n        /* \"#utility.yul\":19876:19882   */\n      dup3\n        /* \"#utility.yul\":19873:19887   */\n      lt\n        /* \"#utility.yul\":19853:19871   */\n      dup2\n        /* \"#utility.yul\":19850:19888   */\n      sub\n        /* \"#utility.yul\":19847:19931   */\n      tag_449\n      jumpi\n        /* \"#utility.yul\":19903:19921   */\n      tag_450\n      tag_235\n      jump\t// in\n    tag_450:\n        /* \"#utility.yul\":19847:19931   */\n    tag_449:\n        /* \"#utility.yul\":19668:19937   */\n      pop\n        /* \"#utility.yul\":19617:19937   */\n      swap2\n      swap1\n      pop\n      jump\t// out\n        /* \"#utility.yul\":19943:20084   */\n    tag_236:\n        /* \"#utility.yul\":19992:19996   */\n      0x00\n        /* \"#utility.yul\":20015:20018   */\n      dup2\n        /* \"#utility.yul\":20007:20018   */\n      swap1\n      pop\n        /* \"#utility.yul\":20038:20041   */\n      dup2\n        /* \"#utility.yul\":20035:20036   */\n      0x00\n        /* \"#utility.yul\":20028:20042   */\n      mstore\n        /* \"#utility.yul\":20072:20076   */\n      0x20\n        /* \"#utility.yul\":20069:20070   */\n      0x00\n        /* \"#utility.yul\":20059:20077   */\n      keccak256\n        /* \"#utility.yul\":20051:20077   */\n      swap1\n      pop\n        /* \"#utility.yul\":19943:20084   */\n      swap2\n      swap1\n      pop\n      jump\t// out\n        /* \"#utility.yul\":20090:20183   */\n    tag_237:\n        /* \"#utility.yul\":20127:20133   */\n      0x00\n        /* \"#utility.yul\":20174:20176   */\n      0x20\n        /* \"#utility.yul\":20169:20171   */\n      0x1f\n        /* \"#utility.yul\":20162:20167   */\n      dup4\n        /* \"#utility.yul\":20158:20172   */\n      add\n        /* \"#utility.yul\":20154:20177   */\n      div\n        /* \"#utility.yul\":20144:20177   */\n      swap1\n      pop\n        /* \"#utility.yul\":20090:20183   */\n      swap2\n      swap1\n      pop\n      jump\t// out\n        /* \"#utility.yul\":20189:20296   */\n    tag_238:\n        /* \"#utility.yul\":20233:20241   */\n      0x00\n        /* \"#utility.yul\":20283:20288   */\n      dup3\n        /* \"#utility.yul\":20277:20281   */\n      dup3\n        /* \"#utility.yul\":20273:20289   */\n      shl\n        /* \"#utility.yul\":20252:20289   */\n      swap1\n      pop\n        /* \"#utility.yul\":20189:20296   */\n      swap3\n      swap2\n      pop\n      pop\n      jump\t// out\n        /* \"#utility.yul\":20302:20695   */\n    tag_239:\n        /* \"#utility.yul\":20371:20377   */\n      0x00\n        /* \"#utility.yul\":20421:20422   */\n      0x08\n        /* \"#utility.yul\":20409:20419   */\n      dup4\n        /* \"#utility.yul\":20405:20423   */\n      mul\n        /* \"#utility.yul\":20444:20541   */\n      tag_455\n        /* \"#utility.yul\":20474:20540   */\n      0xffffffffffffffffffffffffffffffffffffffffffffffffffffffffffffffff\n        /* \"#utility.yul\":20463:20472   */\n      dup3\n        /* \"#utility.yul\":20444:20541   */\n      tag_238\n      jump\t// in\n    tag_455:\n        /* \"#utility.yul\":20562:20601   */\n      tag_456\n        /* \"#utility.yul\":20592:20600   */\n      dup7\n        /* \"#utility.yul\":20581:20590   */\n      dup4\n        /* \"#utility.yul\":20562:20601   */\n      tag_238\n      jump\t// in\n    tag_456:\n        /* \"#utility.yul\":20550:20601   */\n      swap6\n      pop\n        /* \"#utility.yul\":20634:20638   */\n      dup1\n        /* \"#utility.yul\":20630:20639   */\n      not\n        /* \"#utility.yul\":20623:20628   */\n      dup5\n        /* \"#utility.yul\":20619:20640   */\n      and\n        /* \"#utility.yul\":20610:20640   */\n      swap4\n      pop\n        /* \"#utility.yul\":20683:20687   */\n      dup1\n        /* \"#utility.yul\":20673:20681   */\n      dup7\n        /* \"#utility.yul\":20669:20688   */\n      and\n        /* \"#utility.yul\":20662:20667   */\n      dup5\n        /* \"#utility.yul\":20659:20689   */\n      or\n        /* \"#utility.yul\":20649:20689   */\n      swap3\n      pop\n        /* \"#utility.yul\":20378:20695   */\n      pop\n      pop\n        /* \"#utility.yul\":20302:20695   */\n      swap4\n      swap3\n      pop\n      pop\n      pop\n      jump\t// out\n        /* \"#utility.yul\":20701:20761   */\n    tag_240:\n        /* \"#utility.yul\":20729:20732   */\n      0x00\n        /* \"#utility.yul\":20750:20755   */\n      dup2\n        /* \"#utility.yul\":20743:20755   */\n      swap1\n      pop\n        /* \"#utility.yul\":20701:20761   */\n      swap2\n      swap1\n      pop\n      jump\t// out\n        /* \"#utility.yul\":20767:20909   */\n    tag_241:\n        /* \"#utility.yul\":20817:20826   */\n      0x00\n        /* \"#utility.yul\":20850:20903   */\n      tag_459\n        /* \"#utility.yul\":20868:20902   */\n      tag_460\n        /* \"#utility.yul\":20877:20901   */\n      tag_461\n        /* \"#utility.yul\":20895:20900   */\n      dup5\n        /* \"#utility.yul\":20877:20901   */\n      tag_181\n      jump\t// in\n    tag_461:\n        /* \"#utility.yul\":20868:20902   */\n      tag_240\n      jump\t// in\n    tag_460:\n        /* \"#utility.yul\":20850:20903   */\n      tag_181\n      jump\t// in\n    tag_459:\n        /* \"#utility.yul\":20837:20903   */\n      swap1\n      pop\n        /* \"#utility.yul\":20767:20909   */\n      swap2\n      swap1\n      pop\n      jump\t// out\n        /* \"#utility.yul\":20915:20990   */\n    tag_242:\n        /* \"#utility.yul\":20958:20961   */\n      0x00\n        /* \"#utility.yul\":20979:20984   */\n      dup2\n        /* \"#utility.yul\":20972:20984   */\n      swap1\n      pop\n        /* \"#utility.yul\":20915:20990   */\n      swap2\n      swap1\n      pop\n      jump\t// out\n        /* \"#utility.yul\":20996:21265   */\n    tag_243:\n        /* \"#utility.yul\":21106:21145   */\n      tag_464\n        /* \"#utility.yul\":21137:21144   */\n      dup4\n        /* \"#utility.yul\":21106:21145   */\n      tag_241\n      jump\t// in\n    tag_464:\n        /* \"#utility.yul\":21167:21258   */\n      tag_465\n        /* \"#utility.yul\":21216:21257   */\n      tag_466\n        /* \"#utility.yul\":21240:21256   */\n      dup3\n        /* \"#utility.yul\":21216:21257   */\n      tag_242\n      jump\t// in\n    tag_466:\n        /* \"#utility.yul\":21208:21214   */\n      dup5\n        /* \"#utility.yul\":21201:21205   */\n      dup5\n        /* \"#utility.yul\":21195:21206   */\n      sload\n        /* \"#utility.yul\":21167:21258   */\n      tag_239\n      jump\t// in\n    tag_465:\n        /* \"#utility.yul\":21161:21165   */\n      dup3\n        /* \"#utility.yul\":21154:21259   */\n      sstore\n        /* \"#utility.yul\":21072:21265   */\n      pop\n        /* \"#utility.yul\":20996:21265   */\n      pop\n      pop\n      pop\n      jump\t// out\n        /* \"#utility.yul\":21271:21344   */\n    tag_244:\n        /* \"#utility.yul\":21316:21319   */\n      0x00\n        /* \"#utility.yul\":21271:21344   */\n      swap1\n      jump\t// out\n        /* \"#utility.yul\":21350:21539   */\n    tag_245:\n        /* \"#utility.yul\":21427:21459   */\n      tag_469\n      tag_244\n      jump\t// in\n    tag_469:\n        /* \"#utility.yul\":21468:21533   */\n      tag_470\n        /* \"#utility.yul\":21526:21532   */\n      dup2\n        /* \"#utility.yul\":21518:21524   */\n      dup5\n        /* \"#utility.yul\":21512:21516   */\n      dup5\n        /* \"#utility.yul\":21468:21533   */\n      tag_243\n      jump\t// in\n    tag_470:\n        /* \"#utility.yul\":21403:21539   */\n      pop\n        /* \"#utility.yul\":21350:21539   */\n      pop\n      pop\n      jump\t// out\n        /* \"#utility.yul\":21545:21731   */\n    tag_246:\n        /* \"#utility.yul\":21605:21725   */\n    tag_472:\n        /* \"#utility.yul\":21622:21625   */\n      dup2\n        /* \"#utility.yul\":21615:21620   */\n      dup2\n        /* \"#utility.yul\":21612:21626   */\n      lt\n        /* \"#utility.yul\":21605:21725   */\n      iszero\n      tag_474\n      jumpi\n        /* \"#utility.yul\":21676:21715   */\n      tag_475\n        /* \"#utility.yul\":21713:21714   */\n      0x00\n        /* \"#utility.yul\":21706:21711   */\n      dup3\n        /* \"#utility.yul\":21676:21715   */\n      tag_245\n      jump\t// in\n    tag_475:\n        /* \"#utility.yul\":21649:21650   */\n      0x01\n        /* \"#utility.yul\":21642:21647   */\n      dup2\n        /* \"#utility.yul\":21638:21651   */\n      add\n        /* \"#utility.yul\":21629:21651   */\n      swap1\n      pop\n        /* \"#utility.yul\":21605:21725   */\n      jump(tag_472)\n    tag_474:\n        /* \"#utility.yul\":21545:21731   */\n      pop\n      pop\n      jump\t// out\n        /* \"#utility.yul\":21737:22280   */\n    tag_247:\n        /* \"#utility.yul\":21838:21840   */\n      0x1f\n        /* \"#utility.yul\":21833:21836   */\n      dup3\n        /* \"#utility.yul\":21830:21841   */\n      gt\n        /* \"#utility.yul\":21827:22273   */\n      iszero\n      tag_477\n      jumpi\n        /* \"#utility.yul\":21872:21910   */\n      tag_478\n        /* \"#utility.yul\":21904:21909   */\n      dup2\n        /* \"#utility.yul\":21872:21910   */\n      tag_236\n      jump\t// in\n    tag_478:\n        /* \"#utility.yul\":21956:21985   */\n      tag_479\n        /* \"#utility.yul\":21974:21984   */\n      dup5\n        /* \"#utility.yul\":21956:21985   */\n      tag_237\n      jump\t// in\n    tag_479:\n        /* \"#utility.yul\":21946:21954   */\n      dup2\n        /* \"#utility.yul\":21942:21986   */\n      add\n        /* \"#utility.yul\":22139:22141   */\n      0x20\n        /* \"#utility.yul\":22127:22137   */\n      dup6\n        /* \"#utility.yul\":22124:22142   */\n      lt\n        /* \"#utility.yul\":22121:22170   */\n      iszero\n      tag_480\n      jumpi\n        /* \"#utility.yul\":22160:22168   */\n      dup2\n        /* \"#utility.yul\":22145:22168   */\n      swap1\n      pop\n        /* \"#utility.yul\":22121:22170   */\n    tag_480:\n        /* \"#utility.yul\":22183:22263   */\n      tag_481\n        /* \"#utility.yul\":22239:22261   */\n      tag_482\n        /* \"#utility.yul\":22257:22260   */\n      dup6\n        /* \"#utility.yul\":22239:22261   */\n      tag_237\n      jump\t// in\n    tag_482:\n        /* \"#utility.yul\":22229:22237   */\n      dup4\n        /* \"#utility.yul\":22225:22262   */\n      add\n        /* \"#utility.yul\":22212:22223   */\n      dup3\n        /* \"#utility.yul\":22183:22263   */\n      tag_246\n      jump\t// in\n    tag_481:\n        /* \"#utility.yul\":21842:22273   */\n      pop\n      pop\n        /* \"#utility.yul\":21827:22273   */\n    tag_477:\n        /* \"#utility.yul\":21737:22280   */\n      pop\n      pop\n      pop\n      jump\t// out\n        /* \"#utility.yul\":22286:22403   */\n    tag_248:\n        /* \"#utility.yul\":22340:22348   */\n      0x00\n        /* \"#utility.yul\":22390:22395   */\n      dup3\n        /* \"#utility.yul\":22384:22388   */\n      dup3\n        /* \"#utility.yul\":22380:22396   */\n      shr\n        /* \"#utility.yul\":22359:22396   */\n      swap1\n      pop\n        /* \"#utility.yul\":22286:22403   */\n      swap3\n      swap2\n      pop\n      pop\n      jump\t// out\n        /* \"#utility.yul\":22409:22578   */\n    tag_249:\n        /* \"#utility.yul\":22453:22459   */\n      0x00\n        /* \"#utility.yul\":22486:22537   */\n      tag_485\n        /* \"#utility.yul\":22534:22535   */\n      0x00\n        /* \"#utility.yul\":22530:22536   */\n      not\n        /* \"#utility.yul\":22522:22527   */\n      dup5\n        /* \"#utility.yul\":22519:22520   */\n      0x08\n        /* \"#utility.yul\":22515:22528   */\n      mul\n        /* \"#utility.yul\":22486:22537   */\n      tag_248\n      jump\t// in\n    tag_485:\n        /* \"#utility.yul\":22482:22538   */\n      not\n        /* \"#utility.yul\":22567:22571   */\n      dup1\n        /* \"#utility.yul\":22561:22565   */\n      dup4\n        /* \"#utility.yul\":22557:22572   */\n      and\n        /* \"#utility.yul\":22547:22572   */\n      swap2\n      pop\n        /* \"#utility.yul\":22460:22578   */\n      pop\n        /* \"#utility.yul\":22409:22578   */\n      swap3\n      swap2\n      pop\n      pop\n      jump\t// out\n        /* \"#utility.yul\":22583:22878   */\n    tag_250:\n        /* \"#utility.yul\":22659:22663   */\n      0x00\n        /* \"#utility.yul\":22805:22834   */\n      tag_487\n        /* \"#utility.yul\":22830:22833   */\n      dup4\n        /* \"#utility.yul\":22824:22828   */\n      dup4\n        /* \"#utility.yul\":22805:22834   */\n      tag_249\n      jump\t// in\n    tag_487:\n        /* \"#utility.yul\":22797:22834   */\n      swap2\n      pop\n        /* \"#utility.yul\":22867:22870   */\n      dup3\n        /* \"#utility.yul\":22864:22865   */\n      0x02\n        /* \"#utility.yul\":22860:22871   */\n      mul\n        /* \"#utility.yul\":22854:22858   */\n      dup3\n        /* \"#utility.yul\":22851:22872   */\n      or\n        /* \"#utility.yul\":22843:22872   */\n      swap1\n      pop\n        /* \"#utility.yul\":22583:22878   */\n      swap3\n      swap2\n      pop\n      pop\n      jump\t// out\n        /* \"#utility.yul\":22883:24278   */\n    tag_79:\n        /* \"#utility.yul\":23000:23037   */\n      tag_489\n        /* \"#utility.yul\":23033:23036   */\n      dup3\n        /* \"#utility.yul\":23000:23037   */\n      tag_187\n      jump\t// in\n    tag_489:\n        /* \"#utility.yul\":23102:23120   */\n      0xffffffffffffffff\n        /* \"#utility.yul\":23094:23100   */\n      dup2\n        /* \"#utility.yul\":23091:23121   */\n      gt\n        /* \"#utility.yul\":23088:23144   */\n      iszero\n      tag_490\n      jumpi\n        /* \"#utility.yul\":23124:23142   */\n      tag_491\n      tag_194\n      jump\t// in\n    tag_491:\n        /* \"#utility.yul\":23088:23144   */\n    tag_490:\n        /* \"#utility.yul\":23168:23206   */\n      tag_492\n        /* \"#utility.yul\":23200:23204   */\n      dup3\n        /* \"#utility.yul\":23194:23205   */\n      sload\n        /* \"#utility.yul\":23168:23206   */\n      tag_64\n      jump\t// in\n    tag_492:\n        /* \"#utility.yul\":23253:23320   */\n      tag_493\n        /* \"#utility.yul\":23313:23319   */\n      dup3\n        /* \"#utility.yul\":23305:23311   */\n      dup3\n        /* \"#utility.yul\":23299:23303   */\n      dup6\n        /* \"#utility.yul\":23253:23320   */\n      tag_247\n      jump\t// in\n    tag_493:\n        /* \"#utility.yul\":23347:23348   */\n      0x00\n        /* \"#utility.yul\":23371:23375   */\n      0x20\n        /* \"#utility.yul\":23358:23375   */\n      swap1\n      pop\n        /* \"#utility.yul\":23403:23405   */\n      0x1f\n        /* \"#utility.yul\":23395:23401   */\n      dup4\n        /* \"#utility.yul\":23392:23406   */\n      gt\n        /* \"#utility.yul\":23420:23421   */\n      0x01\n        /* \"#utility.yul\":23415:24033   */\n      dup2\n      eq\n      tag_495\n      jumpi\n        /* \"#utility.yul\":24077:24078   */\n      0x00\n        /* \"#utility.yul\":24094:24100   */\n      dup5\n        /* \"#utility.yul\":24091:24168   */\n      iszero\n      tag_496\n      jumpi\n        /* \"#utility.yul\":24143:24152   */\n      dup3\n        /* \"#utility.yul\":24138:24141   */\n      dup8\n        /* \"#utility.yul\":24134:24153   */\n      add\n        /* \"#utility.yul\":24128:24154   */\n      mload\n        /* \"#utility.yul\":24119:24154   */\n      swap1\n      pop\n        /* \"#utility.yul\":24091:24168   */\n    tag_496:\n        /* \"#utility.yul\":24194:24261   */\n      tag_497\n        /* \"#utility.yul\":24254:24260   */\n      dup6\n        /* \"#utility.yul\":24247:24252   */\n      dup3\n        /* \"#utility.yul\":24194:24261   */\n      tag_250\n      jump\t// in\n    tag_497:\n        /* \"#utility.yul\":24188:24192   */\n      dup7\n        /* \"#utility.yul\":24181:24262   */\n      sstore\n        /* \"#utility.yul\":24050:24272   */\n      pop\n        /* \"#utility.yul\":23385:24272   */\n      jump(tag_494)\n        /* \"#utility.yul\":23415:24033   */\n    tag_495:\n        /* \"#utility.yul\":23467:23471   */\n      0x1f\n        /* \"#utility.yul\":23463:23472   */\n      not\n        /* \"#utility.yul\":23455:23461   */\n      dup5\n        /* \"#utility.yul\":23451:23473   */\n      and\n        /* \"#utility.yul\":23501:23538   */\n      tag_498\n        /* \"#utility.yul\":23533:23537   */\n      dup7\n        /* \"#utility.yul\":23501:23538   */\n      tag_236\n      jump\t// in\n    tag_498:\n        /* \"#utility.yul\":23560:23561   */\n      0x00\n        /* \"#utility.yul\":23574:23782   */\n    tag_499:\n        /* \"#utility.yul\":23588:23595   */\n      dup3\n        /* \"#utility.yul\":23585:23586   */\n      dup2\n        /* \"#utility.yul\":23582:23596   */\n      lt\n        /* \"#utility.yul\":23574:23782   */\n      iszero\n      tag_501\n      jumpi\n        /* \"#utility.yul\":23667:23676   */\n      dup5\n        /* \"#utility.yul\":23662:23665   */\n      dup10\n        /* \"#utility.yul\":23658:23677   */\n      add\n        /* \"#utility.yul\":23652:23678   */\n      mload\n        /* \"#utility.yul\":23644:23650   */\n      dup3\n        /* \"#utility.yul\":23637:23679   */\n      sstore\n        /* \"#utility.yul\":23718:23719   */\n      0x01\n        /* \"#utility.yul\":23710:23716   */\n      dup3\n        /* \"#utility.yul\":23706:23720   */\n      add\n        /* \"#utility.yul\":23696:23720   */\n      swap2\n      pop\n        /* \"#utility.yul\":23765:23767   */\n      0x20\n        /* \"#utility.yul\":23754:23763   */\n      dup6\n        /* \"#utility.yul\":23750:23768   */\n      add\n        /* \"#utility.yul\":23737:23768   */\n      swap5\n      pop\n        /* \"#utility.yul\":23611:23615   */\n      0x20\n        /* \"#utility.yul\":23608:23609   */\n      dup2\n        /* \"#utility.yul\":23604:23616   */\n      add\n        /* \"#utility.yul\":23599:23616   */\n      swap1\n      pop\n        /* \"#utility.yul\":23574:23782   */\n      jump(tag_499)\n    tag_501:\n        /* \"#utility.yul\":23810:23816   */\n      dup7\n        /* \"#utility.yul\":23801:23808   */\n      dup4\n        /* \"#utility.yul\":23798:23817   */\n      lt\n        /* \"#utility.yul\":23795:23974   */\n      iszero\n      tag_502\n      jumpi\n        /* \"#utility.yul\":23868:23877   */\n      dup5\n        /* \"#utility.yul\":23863:23866   */\n      dup10\n        /* \"#utility.yul\":23859:23878   */\n      add\n        /* \"#utility.yul\":23853:23879   */\n      mload\n        /* \"#utility.yul\":23911:23959   */\n      tag_503\n        /* \"#utility.yul\":23953:23957   */\n      0x1f\n        /* \"#utility.yul\":23945:23951   */\n      dup10\n        /* \"#utility.yul\":23941:23958   */\n      and\n        /* \"#utility.yul\":23930:23939   */\n      dup3\n        /* \"#utility.yul\":23911:23959   */\n      tag_249\n      jump\t// in\n    tag_503:\n        /* \"#utility.yul\":23903:23909   */\n      dup4\n        /* \"#utility.yul\":23896:23960   */\n      sstore\n        /* \"#utility.yul\":23818:23974   */\n      pop\n        /* \"#utility.yul\":23795:23974   */\n    tag_502:\n        /* \"#utility.yul\":24020:24021   */\n      0x01\n        /* \"#utility.yul\":24016:24017   */\n      0x02\n        /* \"#utility.yul\":24008:24014   */\n      dup9\n        /* \"#utility.yul\":24004:24018   */\n      mul\n        /* \"#utility.yul\":24000:24022   */\n      add\n        /* \"#utility.yul\":23994:23998   */\n      dup9\n        /* \"#utility.yul\":23987:24023   */\n      sstore\n        /* \"#utility.yul\":23422:24033   */\n      pop\n      pop\n      pop\n        /* \"#utility.yul\":23385:24272   */\n    tag_494:\n      pop\n        /* \"#utility.yul\":22975:24278   */\n      pop\n      pop\n      pop\n        /* \"#utility.yul\":22883:24278   */\n      pop\n      pop\n      jump\t// out\n        /* \"#utility.yul\":24284:24454   */\n    tag_251:\n        /* \"#utility.yul\":24424:24446   */\n      0x596f75277265207573657220616c726565616479000000000000000000000000\n        /* \"#utility.yul\":24420:24421   */\n      0x00\n        /* \"#utility.yul\":24412:24418   */\n      dup3\n        /* \"#utility.yul\":24408:24422   */\n      add\n        /* \"#utility.yul\":24401:24447   */\n      mstore\n        /* \"#utility.yul\":24284:24454   */\n      pop\n      jump\t// out\n        /* \"#utility.yul\":24460:24826   */\n    tag_252:\n        /* \"#utility.yul\":24602:24605   */\n      0x00\n        /* \"#utility.yul\":24623:24690   */\n      tag_506\n        /* \"#utility.yul\":24687:24689   */\n      0x14\n        /* \"#utility.yul\":24682:24685   */\n      dup4\n        /* \"#utility.yul\":24623:24690   */\n      tag_188\n      jump\t// in\n    tag_506:\n        /* \"#utility.yul\":24616:24690   */\n      swap2\n      pop\n        /* \"#utility.yul\":24699:24792   */\n      tag_507\n        /* \"#utility.yul\":24788:24791   */\n      dup3\n        /* \"#utility.yul\":24699:24792   */\n      tag_251\n      jump\t// in\n    tag_507:\n        /* \"#utility.yul\":24817:24819   */\n      0x20\n        /* \"#utility.yul\":24812:24815   */\n      dup3\n        /* \"#utility.yul\":24808:24820   */\n      add\n        /* \"#utility.yul\":24801:24820   */\n      swap1\n      pop\n        /* \"#utility.yul\":24460:24826   */\n      swap2\n      swap1\n      pop\n      jump\t// out\n        /* \"#utility.yul\":24832:25251   */\n    tag_90:\n        /* \"#utility.yul\":24998:25002   */\n      0x00\n        /* \"#utility.yul\":25036:25038   */\n      0x20\n        /* \"#utility.yul\":25025:25034   */\n      dup3\n        /* \"#utility.yul\":25021:25039   */\n      add\n        /* \"#utility.yul\":25013:25039   */\n      swap1\n      pop\n        /* \"#utility.yul\":25085:25094   */\n      dup2\n        /* \"#utility.yul\":25079:25083   */\n      dup2\n        /* \"#utility.yul\":25075:25095   */\n      sub\n        /* \"#utility.yul\":25071:25072   */\n      0x00\n        /* \"#utility.yul\":25060:25069   */\n      dup4\n        /* \"#utility.yul\":25056:25073   */\n      add\n        /* \"#utility.yul\":25049:25096   */\n      mstore\n        /* \"#utility.yul\":25113:25244   */\n      tag_509\n        /* \"#utility.yul\":25239:25243   */\n      dup2\n        /* \"#utility.yul\":25113:25244   */\n      tag_252\n      jump\t// in\n    tag_509:\n        /* \"#utility.yul\":25105:25244   */\n      swap1\n      pop\n        /* \"#utility.yul\":24832:25251   */\n      swap2\n      swap1\n      pop\n      jump\t// out\n        /* \"#utility.yul\":25257:25437   */\n    tag_138:\n        /* \"#utility.yul\":25305:25382   */\n      0x4e487b7100000000000000000000000000000000000000000000000000000000\n        /* \"#utility.yul\":25302:25303   */\n      0x00\n        /* \"#utility.yul\":25295:25383   */\n      mstore\n        /* \"#utility.yul\":25402:25406   */\n      0x32\n        /* \"#utility.yul\":25399:25400   */\n      0x04\n        /* \"#utility.yul\":25392:25407   */\n      mstore\n        /* \"#utility.yul\":25426:25430   */\n      0x24\n        /* \"#utility.yul\":25423:25424   */\n      0x00\n        /* \"#utility.yul\":25416:25431   */\n      revert\n        /* \"#utility.yul\":25443:25601   */\n    tag_253:\n        /* \"#utility.yul\":25583:25593   */\n      0x4e6f206d6f6e6579000000000000000000000000000000000000000000000000\n        /* \"#utility.yul\":25579:25580   */\n      0x00\n        /* \"#utility.yul\":25571:25577   */\n      dup3\n        /* \"#utility.yul\":25567:25581   */\n      add\n        /* \"#utility.yul\":25560:25594   */\n      mstore\n        /* \"#utility.yul\":25443:25601   */\n      pop\n      jump\t// out\n        /* \"#utility.yul\":25607:25972   */\n    tag_254:\n        /* \"#utility.yul\":25749:25752   */\n      0x00\n        /* \"#utility.yul\":25770:25836   */\n      tag_513\n        /* \"#utility.yul\":25834:25835   */\n      0x08\n        /* \"#utility.yul\":25829:25832   */\n      dup4\n        /* \"#utility.yul\":25770:25836   */\n      tag_188\n      jump\t// in\n    tag_513:\n        /* \"#utility.yul\":25763:25836   */\n      swap2\n      pop\n        /* \"#utility.yul\":25845:25938   */\n      tag_514\n        /* \"#utility.yul\":25934:25937   */\n      dup3\n        /* \"#utility.yul\":25845:25938   */\n      tag_253\n      jump\t// in\n    tag_514:\n        /* \"#utility.yul\":25963:25965   */\n      0x20\n        /* \"#utility.yul\":25958:25961   */\n      dup3\n        /* \"#utility.yul\":25954:25966   */\n      add\n        /* \"#utility.yul\":25947:25966   */\n      swap1\n      pop\n        /* \"#utility.yul\":25607:25972   */\n      swap2\n      swap1\n      pop\n      jump\t// out\n        /* \"#utility.yul\":25978:26397   */\n    tag_142:\n        /* \"#utility.yul\":26144:26148   */\n      0x00\n        /* \"#utility.yul\":26182:26184   */\n      0x20\n        /* \"#utility.yul\":26171:26180   */\n      dup3\n        /* \"#utility.yul\":26167:26185   */\n      add\n        /* \"#utility.yul\":26159:26185   */\n      swap1\n      pop\n        /* \"#utility.yul\":26231:26240   */\n      dup2\n        /* \"#utility.yul\":26225:26229   */\n      dup2\n        /* \"#utility.yul\":26221:26241   */\n      sub\n        /* \"#utility.yul\":26217:26218   */\n      0x00\n        /* \"#utility.yul\":26206:26215   */\n      dup4\n        /* \"#utility.yul\":26202:26219   */\n      add\n        /* \"#utility.yul\":26195:26242   */\n      mstore\n        /* \"#utility.yul\":26259:26390   */\n      tag_516\n        /* \"#utility.yul\":26385:26389   */\n      dup2\n        /* \"#utility.yul\":26259:26390   */\n      tag_254\n      jump\t// in\n    tag_516:\n        /* \"#utility.yul\":26251:26390   */\n      swap1\n      pop\n        /* \"#utility.yul\":25978:26397   */\n      swap2\n      swap1\n      pop\n      jump\t// out\n\n    auxdata: 0xa2646970667358221220e19e310bfb0e9c7352cdb3b3d55ed61126a7d10c23fb754a522c0ea3d4a7675364736f6c634300081a0033\n}\n",
				"bytecode": {
					"linkReferences": {},
					"object": "608060405234801561000f575f80fd5b50335f806101000a81548173ffffffffffffffffffffffffffffffffffffffff021916908373ffffffffffffffffffffffffffffffffffffffff160217905550600260035f805f9054906101000a900473ffffffffffffffffffffffffffffffffffffffff1673ffffffffffffffffffffffffffffffffffffffff1673ffffffffffffffffffffffffffffffffffffffff1681526020019081526020015f205f6101000a81548160ff021916908360028111156100cf576100ce6100d9565b5b0217905550610106565b7f4e487b71000000000000000000000000000000000000000000000000000000005f52602160045260245ffd5b611a7f806101135f395ff3fe608060405260043610610085575f3560e01c80638da5cb5b116100585780638da5cb5b14610155578063993746421461017f578063a112939e146101bb578063a79a241d146101e5578063a87430ba1461020157610085565b80630f7ee1ec1461008957806317c7dbbf146100c65780632e8ce9f2146100ee5780636b67a1b214610116575b5f80fd5b348015610094575f80fd5b506100af60048036038101906100aa9190610dbe565b61023e565b6040516100bd929190610e98565b60405180910390f35b3480156100d1575f80fd5b506100ec60048036038101906100e79190611107565b610312565b005b3480156100f9575f80fd5b50610114600480360381019061010f91906111d2565b610442565b005b348015610121575f80fd5b5061013c60048036038101906101379190610dbe565b6105da565b60405161014c9493929190611266565b60405180910390f35b348015610160575f80fd5b50610169610721565b60405161017691906112d7565b60405180910390f35b34801561018a575f80fd5b506101a560048036038101906101a0919061131a565b610744565b6040516101b291906113b8565b60405180910390f35b3480156101c6575f80fd5b506101cf610761565b6040516101dc919061162e565b60405180910390f35b6101ff60048036038101906101fa9190610dbe565b6109c4565b005b34801561020c575f80fd5b506102276004803603810190610222919061131a565b610b7c565b60405161023592919061164e565b60405180910390f35b6002818154811061024d575f80fd5b905f5260205f2090600202015f91509050805f015f9054906101000a900473ffffffffffffffffffffffffffffffffffffffff1690806001018054610291906116b0565b80601f01602080910402602001604051908101604052809291908181526020018280546102bd906116b0565b80156103085780601f106102df57610100808354040283529160200191610308565b820191905f5260205f20905b8154815290600101906020018083116102eb57829003601f168201915b5050505050905082565b60028081111561032557610324611345565b5b60035f3373ffffffffffffffffffffffffffffffffffffffff1673ffffffffffffffffffffffffffffffffffffffff1681526020019081526020015f205f9054906101000a900460ff16600281111561038157610380611345565b5b1461038a575f80fd5b5f6040518060a00160405280878152602001868152602001858152602001848152602001838152509050600181908060018154018082558091505060019003905f5260205f2090600502015f909190919091505f820151815f0190816103f0919061187d565b506020820151816001019081610406919061187d565b506040820151816002019080519060200190610423929190610ca8565b5060608201518160030155608082015181600401555050505050505050565b6001600281111561045657610455611345565b5b60035f3373ffffffffffffffffffffffffffffffffffffffff1673ffffffffffffffffffffffffffffffffffffffff1681526020019081526020015f205f9054906101000a900460ff1660028111156104b2576104b1611345565b5b036104f2576040517f08c379a00000000000000000000000000000000000000000000000000000000081526004016104e990611996565b60405180910390fd5b600160035f3373ffffffffffffffffffffffffffffffffffffffff1673ffffffffffffffffffffffffffffffffffffffff1681526020019081526020015f205f6101000a81548160ff0219169083600281111561055257610551611345565b5b021790555060405180604001604052808381526020018281525060045f3373ffffffffffffffffffffffffffffffffffffffff1673ffffffffffffffffffffffffffffffffffffffff1681526020019081526020015f205f820151815f0190816105bc919061187d565b5060208201518160010190816105d2919061187d565b509050505050565b600181815481106105e9575f80fd5b905f5260205f2090600502015f91509050805f018054610608906116b0565b80601f0160208091040260200160405190810160405280929190818152602001828054610634906116b0565b801561067f5780601f106106565761010080835404028352916020019161067f565b820191905f5260205f20905b81548152906001019060200180831161066257829003601f168201915b505050505090806001018054610694906116b0565b80601f01602080910402602001604051908101604052809291908181526020018280546106c0906116b0565b801561070b5780601f106106e25761010080835404028352916020019161070b565b820191905f5260205f20905b8154815290600101906020018083116106ee57829003601f168201915b5050505050908060030154908060040154905084565b5f8054906101000a900473ffffffffffffffffffffffffffffffffffffffff1681565b6003602052805f5260405f205f915054906101000a900460ff1681565b60606001805480602002602001604051908101604052809291908181526020015f905b828210156109bb578382905f5260205f2090600502016040518060a00160405290815f820180546107b4906116b0565b80601f01602080910402602001604051908101604052809291908181526020018280546107e0906116b0565b801561082b5780601f106108025761010080835404028352916020019161082b565b820191905f5260205f20905b81548152906001019060200180831161080e57829003601f168201915b50505050508152602001600182018054610844906116b0565b80601f0160208091040260200160405190810160405280929190818152602001828054610870906116b0565b80156108bb5780601f10610892576101008083540402835291602001916108bb565b820191905f5260205f20905b81548152906001019060200180831161089e57829003601f168201915b5050505050815260200160028201805480602002602001604051908101604052809291908181526020015f905b82821015610990578382905f5260205f20018054610905906116b0565b80601f0160208091040260200160405190810160405280929190818152602001828054610931906116b0565b801561097c5780601f106109535761010080835404028352916020019161097c565b820191905f5260205f20905b81548152906001019060200180831161095f57829003601f168201915b5050505050815260200190600101906108e8565b5050505081526020016003820154815260200160048201548152505081526020019060010190610784565b50505050905090565b600160028111156109d8576109d7611345565b5b60035f3373ffffffffffffffffffffffffffffffffffffffff1673ffffffffffffffffffffffffffffffffffffffff1681526020019081526020015f205f9054906101000a900460ff166002811115610a3457610a33611345565b5b14610a3d575f80fd5b60018181548110610a5157610a506119b4565b5b905f5260205f209060050201600301543414610aa2576040517f08c379a0000000000000000000000000000000000000000000000000000000008152600401610a9990611a2b565b60405180910390fd5b5f60405180604001604052803373ffffffffffffffffffffffffffffffffffffffff16815260200160018481548110610ade57610add6119b4565b5b905f5260205f2090600502015f018054610af7906116b0565b80601f0160208091040260200160405190810160405280929190818152602001828054610b23906116b0565b8015610b6e5780601f10610b4557610100808354040283529160200191610b6e565b820191905f5260205f20905b815481529060010190602001808311610b5157829003601f168201915b505050505081525090505050565b6004602052805f5260405f205f91509050805f018054610b9b906116b0565b80601f0160208091040260200160405190810160405280929190818152602001828054610bc7906116b0565b8015610c125780601f10610be957610100808354040283529160200191610c12565b820191905f5260205f20905b815481529060010190602001808311610bf557829003601f168201915b505050505090806001018054610c27906116b0565b80601f0160208091040260200160405190810160405280929190818152602001828054610c53906116b0565b8015610c9e5780601f10610c7557610100808354040283529160200191610c9e565b820191905f5260205f20905b815481529060010190602001808311610c8157829003601f168201915b5050505050905082565b828054828255905f5260205f20908101928215610cee579160200282015b82811115610ced578251829081610cdd919061187d565b5091602001919060010190610cc6565b5b509050610cfb9190610cff565b5090565b5b80821115610d1e575f8181610d159190610d22565b50600101610d00565b5090565b508054610d2e906116b0565b5f825580601f10610d3f5750610d5c565b601f0160209004905f5260205f2090810190610d5b9190610d5f565b5b50565b5b80821115610d76575f815f905550600101610d60565b5090565b5f604051905090565b5f80fd5b5f80fd5b5f819050919050565b610d9d81610d8b565b8114610da7575f80fd5b50565b5f81359050610db881610d94565b92915050565b5f60208284031215610dd357610dd2610d83565b5b5f610de084828501610daa565b91505092915050565b5f73ffffffffffffffffffffffffffffffffffffffff82169050919050565b5f610e1282610de9565b9050919050565b610e2281610e08565b82525050565b5f81519050919050565b5f82825260208201905092915050565b8281835e5f83830152505050565b5f601f19601f8301169050919050565b5f610e6a82610e28565b610e748185610e32565b9350610e84818560208601610e42565b610e8d81610e50565b840191505092915050565b5f604082019050610eab5f830185610e19565b8181036020830152610ebd8184610e60565b90509392505050565b5f80fd5b5f80fd5b7f4e487b71000000000000000000000000000000000000000000000000000000005f52604160045260245ffd5b610f0482610e50565b810181811067ffffffffffffffff82111715610f2357610f22610ece565b5b80604052505050565b5f610f35610d7a565b9050610f418282610efb565b919050565b5f67ffffffffffffffff821115610f6057610f5f610ece565b5b610f6982610e50565b9050602081019050919050565b828183375f83830152505050565b5f610f96610f9184610f46565b610f2c565b905082815260208101848484011115610fb257610fb1610eca565b5b610fbd848285610f76565b509392505050565b5f82601f830112610fd957610fd8610ec6565b5b8135610fe9848260208601610f84565b91505092915050565b5f67ffffffffffffffff82111561100c5761100b610ece565b5b602082029050602081019050919050565b5f80fd5b5f61103361102e84610ff2565b610f2c565b905080838252602082019050602084028301858111156110565761105561101d565b5b835b8181101561109d57803567ffffffffffffffff81111561107b5761107a610ec6565b5b8086016110888982610fc5565b85526020850194505050602081019050611058565b5050509392505050565b5f82601f8301126110bb576110ba610ec6565b5b81356110cb848260208601611021565b91505092915050565b5f819050919050565b6110e6816110d4565b81146110f0575f80fd5b50565b5f81359050611101816110dd565b92915050565b5f805f805f60a086880312156111205761111f610d83565b5b5f86013567ffffffffffffffff81111561113d5761113c610d87565b5b61114988828901610fc5565b955050602086013567ffffffffffffffff81111561116a57611169610d87565b5b61117688828901610fc5565b945050604086013567ffffffffffffffff81111561119757611196610d87565b5b6111a3888289016110a7565b93505060606111b488828901610daa565b92505060806111c5888289016110f3565b9150509295509295909350565b5f80604083850312156111e8576111e7610d83565b5b5f83013567ffffffffffffffff81111561120557611204610d87565b5b61121185828601610fc5565b925050602083013567ffffffffffffffff81111561123257611231610d87565b5b61123e85828601610fc5565b9150509250929050565b61125181610d8b565b82525050565b611260816110d4565b82525050565b5f6080820190508181035f83015261127e8187610e60565b905081810360208301526112928186610e60565b90506112a16040830185611248565b6112ae6060830184611257565b95945050505050565b5f6112c182610de9565b9050919050565b6112d1816112b7565b82525050565b5f6020820190506112ea5f8301846112c8565b92915050565b6112f981610e08565b8114611303575f80fd5b50565b5f81359050611314816112f0565b92915050565b5f6020828403121561132f5761132e610d83565b5b5f61133c84828501611306565b91505092915050565b7f4e487b71000000000000000000000000000000000000000000000000000000005f52602160045260245ffd5b6003811061138357611382611345565b5b50565b5f81905061139382611372565b919050565b5f6113a282611386565b9050919050565b6113b281611398565b82525050565b5f6020820190506113cb5f8301846113a9565b92915050565b5f81519050919050565b5f82825260208201905092915050565b5f819050602082019050919050565b5f82825260208201905092915050565b5f61141482610e28565b61141e81856113fa565b935061142e818560208601610e42565b61143781610e50565b840191505092915050565b5f81519050919050565b5f82825260208201905092915050565b5f819050602082019050919050565b5f611476838361140a565b905092915050565b5f602082019050919050565b5f61149482611442565b61149e818561144c565b9350836020820285016114b08561145c565b805f5b858110156114eb57848403895281516114cc858261146b565b94506114d78361147e565b925060208a019950506001810190506114b3565b50829750879550505050505092915050565b61150681610d8b565b82525050565b611515816110d4565b82525050565b5f60a083015f8301518482035f860152611535828261140a565b9150506020830151848203602086015261154f828261140a565b91505060408301518482036040860152611569828261148a565b915050606083015161157e60608601826114fd565b506080830151611591608086018261150c565b508091505092915050565b5f6115a7838361151b565b905092915050565b5f602082019050919050565b5f6115c5826113d1565b6115cf81856113db565b9350836020820285016115e1856113eb565b805f5b8581101561161c57848403895281516115fd858261159c565b9450611608836115af565b925060208a019950506001810190506115e4565b50829750879550505050505092915050565b5f6020820190508181035f83015261164681846115bb565b905092915050565b5f6040820190508181035f8301526116668185610e60565b9050818103602083015261167a8184610e60565b90509392505050565b7f4e487b71000000000000000000000000000000000000000000000000000000005f52602260045260245ffd5b5f60028204905060018216806116c757607f821691505b6020821081036116da576116d9611683565b5b50919050565b5f819050815f5260205f209050919050565b5f6020601f8301049050919050565b5f82821b905092915050565b5f6008830261173c7fffffffffffffffffffffffffffffffffffffffffffffffffffffffffffffffff82611701565b6117468683611701565b95508019841693508086168417925050509392505050565b5f819050919050565b5f61178161177c61177784610d8b565b61175e565b610d8b565b9050919050565b5f819050919050565b61179a83611767565b6117ae6117a682611788565b84845461170d565b825550505050565b5f90565b6117c26117b6565b6117cd818484611791565b505050565b5b818110156117f0576117e55f826117ba565b6001810190506117d3565b5050565b601f82111561183557611806816116e0565b61180f846116f2565b8101602085101561181e578190505b61183261182a856116f2565b8301826117d2565b50505b505050565b5f82821c905092915050565b5f6118555f198460080261183a565b1980831691505092915050565b5f61186d8383611846565b9150826002028217905092915050565b61188682610e28565b67ffffffffffffffff81111561189f5761189e610ece565b5b6118a982546116b0565b6118b48282856117f4565b5f60209050601f8311600181146118e5575f84156118d3578287015190505b6118dd8582611862565b865550611944565b601f1984166118f3866116e0565b5f5b8281101561191a578489015182556001820191506020850194506020810190506118f5565b868310156119375784890151611933601f891682611846565b8355505b6001600288020188555050505b505050505050565b7f596f75277265207573657220616c7265656164790000000000000000000000005f82015250565b5f611980601483610e32565b915061198b8261194c565b602082019050919050565b5f6020820190508181035f8301526119ad81611974565b9050919050565b7f4e487b71000000000000000000000000000000000000000000000000000000005f52603260045260245ffd5b7f4e6f206d6f6e65790000000000000000000000000000000000000000000000005f82015250565b5f611a15600883610e32565b9150611a20826119e1565b602082019050919050565b5f6020820190508181035f830152611a4281611a09565b905091905056fea2646970667358221220e19e310bfb0e9c7352cdb3b3d55ed61126a7d10c23fb754a522c0ea3d4a7675364736f6c634300081a0033",
					"opcodes": "PUSH1 0x80 PUSH1 0x40 MSTORE CALLVALUE DUP1 ISZERO PUSH2 0xF JUMPI PUSH0 DUP1 REVERT JUMPDEST POP CALLER PUSH0 DUP1 PUSH2 0x100 EXP DUP2 SLOAD DUP2 PUSH20 0xFFFFFFFFFFFFFFFFFFFFFFFFFFFFFFFFFFFFFFFF MUL NOT AND SWAP1 DUP4 PUSH20 0xFFFFFFFFFFFFFFFFFFFFFFFFFFFFFFFFFFFFFFFF AND MUL OR SWAP1 SSTORE POP PUSH1 0x2 PUSH1 0x3 PUSH0 DUP1 PUSH0 SWAP1 SLOAD SWAP1 PUSH2 0x100 EXP SWAP1 DIV PUSH20 0xFFFFFFFFFFFFFFFFFFFFFFFFFFFFFFFFFFFFFFFF AND PUSH20 0xFFFFFFFFFFFFFFFFFFFFFFFFFFFFFFFFFFFFFFFF AND PUSH20 0xFFFFFFFFFFFFFFFFFFFFFFFFFFFFFFFFFFFFFFFF AND DUP2 MSTORE PUSH1 0x20 ADD SWAP1 DUP2 MSTORE PUSH1 0x20 ADD PUSH0 KECCAK256 PUSH0 PUSH2 0x100 EXP DUP2 SLOAD DUP2 PUSH1 0xFF MUL NOT AND SWAP1 DUP4 PUSH1 0x2 DUP2 GT ISZERO PUSH2 0xCF JUMPI PUSH2 0xCE PUSH2 0xD9 JUMP JUMPDEST JUMPDEST MUL OR SWAP1 SSTORE POP PUSH2 0x106 JUMP JUMPDEST PUSH32 0x4E487B7100000000000000000000000000000000000000000000000000000000 PUSH0 MSTORE PUSH1 0x21 PUSH1 0x4 MSTORE PUSH1 0x24 PUSH0 REVERT JUMPDEST PUSH2 0x1A7F DUP1 PUSH2 0x113 PUSH0 CODECOPY PUSH0 RETURN INVALID PUSH1 0x80 PUSH1 0x40 MSTORE PUSH1 0x4 CALLDATASIZE LT PUSH2 0x85 JUMPI PUSH0 CALLDATALOAD PUSH1 0xE0 SHR DUP1 PUSH4 0x8DA5CB5B GT PUSH2 0x58 JUMPI DUP1 PUSH4 0x8DA5CB5B EQ PUSH2 0x155 JUMPI DUP1 PUSH4 0x99374642 EQ PUSH2 0x17F JUMPI DUP1 PUSH4 0xA112939E EQ PUSH2 0x1BB JUMPI DUP1 PUSH4 0xA79A241D EQ PUSH2 0x1E5 JUMPI DUP1 PUSH4 0xA87430BA EQ PUSH2 0x201 JUMPI PUSH2 0x85 JUMP JUMPDEST DUP1 PUSH4 0xF7EE1EC EQ PUSH2 0x89 JUMPI DUP1 PUSH4 0x17C7DBBF EQ PUSH2 0xC6 JUMPI DUP1 PUSH4 0x2E8CE9F2 EQ PUSH2 0xEE JUMPI DUP1 PUSH4 0x6B67A1B2 EQ PUSH2 0x116 JUMPI JUMPDEST PUSH0 DUP1 REVERT JUMPDEST CALLVALUE DUP1 ISZERO PUSH2 0x94 JUMPI PUSH0 DUP1 REVERT JUMPDEST POP PUSH2 0xAF PUSH1 0x4 DUP1 CALLDATASIZE SUB DUP2 ADD SWAP1 PUSH2 0xAA SWAP2 SWAP1 PUSH2 0xDBE JUMP JUMPDEST PUSH2 0x23E JUMP JUMPDEST PUSH1 0x40 MLOAD PUSH2 0xBD SWAP3 SWAP2 SWAP1 PUSH2 0xE98 JUMP JUMPDEST PUSH1 0x40 MLOAD DUP1 SWAP2 SUB SWAP1 RETURN JUMPDEST CALLVALUE DUP1 ISZERO PUSH2 0xD1 JUMPI PUSH0 DUP1 REVERT JUMPDEST POP PUSH2 0xEC PUSH1 0x4 DUP1 CALLDATASIZE SUB DUP2 ADD SWAP1 PUSH2 0xE7 SWAP2 SWAP1 PUSH2 0x1107 JUMP JUMPDEST PUSH2 0x312 JUMP JUMPDEST STOP JUMPDEST CALLVALUE DUP1 ISZERO PUSH2 0xF9 JUMPI PUSH0 DUP1 REVERT JUMPDEST POP PUSH2 0x114 PUSH1 0x4 DUP1 CALLDATASIZE SUB DUP2 ADD SWAP1 PUSH2 0x10F SWAP2 SWAP1 PUSH2 0x11D2 JUMP JUMPDEST PUSH2 0x442 JUMP JUMPDEST STOP JUMPDEST CALLVALUE DUP1 ISZERO PUSH2 0x121 JUMPI PUSH0 DUP1 REVERT JUMPDEST POP PUSH2 0x13C PUSH1 0x4 DUP1 CALLDATASIZE SUB DUP2 ADD SWAP1 PUSH2 0x137 SWAP2 SWAP1 PUSH2 0xDBE JUMP JUMPDEST PUSH2 0x5DA JUMP JUMPDEST PUSH1 0x40 MLOAD PUSH2 0x14C SWAP5 SWAP4 SWAP3 SWAP2 SWAP1 PUSH2 0x1266 JUMP JUMPDEST PUSH1 0x40 MLOAD DUP1 SWAP2 SUB SWAP1 RETURN JUMPDEST CALLVALUE DUP1 ISZERO PUSH2 0x160 JUMPI PUSH0 DUP1 REVERT JUMPDEST POP PUSH2 0x169 PUSH2 0x721 JUMP JUMPDEST PUSH1 0x40 MLOAD PUSH2 0x176 SWAP2 SWAP1 PUSH2 0x12D7 JUMP JUMPDEST PUSH1 0x40 MLOAD DUP1 SWAP2 SUB SWAP1 RETURN JUMPDEST CALLVALUE DUP1 ISZERO PUSH2 0x18A JUMPI PUSH0 DUP1 REVERT JUMPDEST POP PUSH2 0x1A5 PUSH1 0x4 DUP1 CALLDATASIZE SUB DUP2 ADD SWAP1 PUSH2 0x1A0 SWAP2 SWAP1 PUSH2 0x131A JUMP JUMPDEST PUSH2 0x744 JUMP JUMPDEST PUSH1 0x40 MLOAD PUSH2 0x1B2 SWAP2 SWAP1 PUSH2 0x13B8 JUMP JUMPDEST PUSH1 0x40 MLOAD DUP1 SWAP2 SUB SWAP1 RETURN JUMPDEST CALLVALUE DUP1 ISZERO PUSH2 0x1C6 JUMPI PUSH0 DUP1 REVERT JUMPDEST POP PUSH2 0x1CF PUSH2 0x761 JUMP JUMPDEST PUSH1 0x40 MLOAD PUSH2 0x1DC SWAP2 SWAP1 PUSH2 0x162E JUMP JUMPDEST PUSH1 0x40 MLOAD DUP1 SWAP2 SUB SWAP1 RETURN JUMPDEST PUSH2 0x1FF PUSH1 0x4 DUP1 CALLDATASIZE SUB DUP2 ADD SWAP1 PUSH2 0x1FA SWAP2 SWAP1 PUSH2 0xDBE JUMP JUMPDEST PUSH2 0x9C4 JUMP JUMPDEST STOP JUMPDEST CALLVALUE DUP1 ISZERO PUSH2 0x20C JUMPI PUSH0 DUP1 REVERT JUMPDEST POP PUSH2 0x227 PUSH1 0x4 DUP1 CALLDATASIZE SUB DUP2 ADD SWAP1 PUSH2 0x222 SWAP2 SWAP1 PUSH2 0x131A JUMP JUMPDEST PUSH2 0xB7C JUMP JUMPDEST PUSH1 0x40 MLOAD PUSH2 0x235 SWAP3 SWAP2 SWAP1 PUSH2 0x164E JUMP JUMPDEST PUSH1 0x40 MLOAD DUP1 SWAP2 SUB SWAP1 RETURN JUMPDEST PUSH1 0x2 DUP2 DUP2 SLOAD DUP2 LT PUSH2 0x24D JUMPI PUSH0 DUP1 REVERT JUMPDEST SWAP1 PUSH0 MSTORE PUSH1 0x20 PUSH0 KECCAK256 SWAP1 PUSH1 0x2 MUL ADD PUSH0 SWAP2 POP SWAP1 POP DUP1 PUSH0 ADD PUSH0 SWAP1 SLOAD SWAP1 PUSH2 0x100 EXP SWAP1 DIV PUSH20 0xFFFFFFFFFFFFFFFFFFFFFFFFFFFFFFFFFFFFFFFF AND SWAP1 DUP1 PUSH1 0x1 ADD DUP1 SLOAD PUSH2 0x291 SWAP1 PUSH2 0x16B0 JUMP JUMPDEST DUP1 PUSH1 0x1F ADD PUSH1 0x20 DUP1 SWAP2 DIV MUL PUSH1 0x20 ADD PUSH1 0x40 MLOAD SWAP1 DUP2 ADD PUSH1 0x40 MSTORE DUP1 SWAP3 SWAP2 SWAP1 DUP2 DUP2 MSTORE PUSH1 0x20 ADD DUP3 DUP1 SLOAD PUSH2 0x2BD SWAP1 PUSH2 0x16B0 JUMP JUMPDEST DUP1 ISZERO PUSH2 0x308 JUMPI DUP1 PUSH1 0x1F LT PUSH2 0x2DF JUMPI PUSH2 0x100 DUP1 DUP4 SLOAD DIV MUL DUP4 MSTORE SWAP2 PUSH1 0x20 ADD SWAP2 PUSH2 0x308 JUMP JUMPDEST DUP3 ADD SWAP2 SWAP1 PUSH0 MSTORE PUSH1 0x20 PUSH0 KECCAK256 SWAP1 JUMPDEST DUP2 SLOAD DUP2 MSTORE SWAP1 PUSH1 0x1 ADD SWAP1 PUSH1 0x20 ADD DUP1 DUP4 GT PUSH2 0x2EB JUMPI DUP3 SWAP1 SUB PUSH1 0x1F AND DUP3 ADD SWAP2 JUMPDEST POP POP POP POP POP SWAP1 POP DUP3 JUMP JUMPDEST PUSH1 0x2 DUP1 DUP2 GT ISZERO PUSH2 0x325 JUMPI PUSH2 0x324 PUSH2 0x1345 JUMP JUMPDEST JUMPDEST PUSH1 0x3 PUSH0 CALLER PUSH20 0xFFFFFFFFFFFFFFFFFFFFFFFFFFFFFFFFFFFFFFFF AND PUSH20 0xFFFFFFFFFFFFFFFFFFFFFFFFFFFFFFFFFFFFFFFF AND DUP2 MSTORE PUSH1 0x20 ADD SWAP1 DUP2 MSTORE PUSH1 0x20 ADD PUSH0 KECCAK256 PUSH0 SWAP1 SLOAD SWAP1 PUSH2 0x100 EXP SWAP1 DIV PUSH1 0xFF AND PUSH1 0x2 DUP2 GT ISZERO PUSH2 0x381 JUMPI PUSH2 0x380 PUSH2 0x1345 JUMP JUMPDEST JUMPDEST EQ PUSH2 0x38A JUMPI PUSH0 DUP1 REVERT JUMPDEST PUSH0 PUSH1 0x40 MLOAD DUP1 PUSH1 0xA0 ADD PUSH1 0x40 MSTORE DUP1 DUP8 DUP2 MSTORE PUSH1 0x20 ADD DUP7 DUP2 MSTORE PUSH1 0x20 ADD DUP6 DUP2 MSTORE PUSH1 0x20 ADD DUP5 DUP2 MSTORE PUSH1 0x20 ADD DUP4 DUP2 MSTORE POP SWAP1 POP PUSH1 0x1 DUP2 SWAP1 DUP1 PUSH1 0x1 DUP2 SLOAD ADD DUP1 DUP3 SSTORE DUP1 SWAP2 POP POP PUSH1 0x1 SWAP1 SUB SWAP1 PUSH0 MSTORE PUSH1 0x20 PUSH0 KECCAK256 SWAP1 PUSH1 0x5 MUL ADD PUSH0 SWAP1 SWAP2 SWAP1 SWAP2 SWAP1 SWAP2 POP PUSH0 DUP3 ADD MLOAD DUP2 PUSH0 ADD SWAP1 DUP2 PUSH2 0x3F0 SWAP2 SWAP1 PUSH2 0x187D JUMP JUMPDEST POP PUSH1 0x20 DUP3 ADD MLOAD DUP2 PUSH1 0x1 ADD SWAP1 DUP2 PUSH2 0x406 SWAP2 SWAP1 PUSH2 0x187D JUMP JUMPDEST POP PUSH1 0x40 DUP3 ADD MLOAD DUP2 PUSH1 0x2 ADD SWAP1 DUP1 MLOAD SWAP1 PUSH1 0x20 ADD SWAP1 PUSH2 0x423 SWAP3 SWAP2 SWAP1 PUSH2 0xCA8 JUMP JUMPDEST POP PUSH1 0x60 DUP3 ADD MLOAD DUP2 PUSH1 0x3 ADD SSTORE PUSH1 0x80 DUP3 ADD MLOAD DUP2 PUSH1 0x4 ADD SSTORE POP POP POP POP POP POP POP POP JUMP JUMPDEST PUSH1 0x1 PUSH1 0x2 DUP2 GT ISZERO PUSH2 0x456 JUMPI PUSH2 0x455 PUSH2 0x1345 JUMP JUMPDEST JUMPDEST PUSH1 0x3 PUSH0 CALLER PUSH20 0xFFFFFFFFFFFFFFFFFFFFFFFFFFFFFFFFFFFFFFFF AND PUSH20 0xFFFFFFFFFFFFFFFFFFFFFFFFFFFFFFFFFFFFFFFF AND DUP2 MSTORE PUSH1 0x20 ADD SWAP1 DUP2 MSTORE PUSH1 0x20 ADD PUSH0 KECCAK256 PUSH0 SWAP1 SLOAD SWAP1 PUSH2 0x100 EXP SWAP1 DIV PUSH1 0xFF AND PUSH1 0x2 DUP2 GT ISZERO PUSH2 0x4B2 JUMPI PUSH2 0x4B1 PUSH2 0x1345 JUMP JUMPDEST JUMPDEST SUB PUSH2 0x4F2 JUMPI PUSH1 0x40 MLOAD PUSH32 0x8C379A000000000000000000000000000000000000000000000000000000000 DUP2 MSTORE PUSH1 0x4 ADD PUSH2 0x4E9 SWAP1 PUSH2 0x1996 JUMP JUMPDEST PUSH1 0x40 MLOAD DUP1 SWAP2 SUB SWAP1 REVERT JUMPDEST PUSH1 0x1 PUSH1 0x3 PUSH0 CALLER PUSH20 0xFFFFFFFFFFFFFFFFFFFFFFFFFFFFFFFFFFFFFFFF AND PUSH20 0xFFFFFFFFFFFFFFFFFFFFFFFFFFFFFFFFFFFFFFFF AND DUP2 MSTORE PUSH1 0x20 ADD SWAP1 DUP2 MSTORE PUSH1 0x20 ADD PUSH0 KECCAK256 PUSH0 PUSH2 0x100 EXP DUP2 SLOAD DUP2 PUSH1 0xFF MUL NOT AND SWAP1 DUP4 PUSH1 0x2 DUP2 GT ISZERO PUSH2 0x552 JUMPI PUSH2 0x551 PUSH2 0x1345 JUMP JUMPDEST JUMPDEST MUL OR SWAP1 SSTORE POP PUSH1 0x40 MLOAD DUP1 PUSH1 0x40 ADD PUSH1 0x40 MSTORE DUP1 DUP4 DUP2 MSTORE PUSH1 0x20 ADD DUP3 DUP2 MSTORE POP PUSH1 0x4 PUSH0 CALLER PUSH20 0xFFFFFFFFFFFFFFFFFFFFFFFFFFFFFFFFFFFFFFFF AND PUSH20 0xFFFFFFFFFFFFFFFFFFFFFFFFFFFFFFFFFFFFFFFF AND DUP2 MSTORE PUSH1 0x20 ADD SWAP1 DUP2 MSTORE PUSH1 0x20 ADD PUSH0 KECCAK256 PUSH0 DUP3 ADD MLOAD DUP2 PUSH0 ADD SWAP1 DUP2 PUSH2 0x5BC SWAP2 SWAP1 PUSH2 0x187D JUMP JUMPDEST POP PUSH1 0x20 DUP3 ADD MLOAD DUP2 PUSH1 0x1 ADD SWAP1 DUP2 PUSH2 0x5D2 SWAP2 SWAP1 PUSH2 0x187D JUMP JUMPDEST POP SWAP1 POP POP POP POP JUMP JUMPDEST PUSH1 0x1 DUP2 DUP2 SLOAD DUP2 LT PUSH2 0x5E9 JUMPI PUSH0 DUP1 REVERT JUMPDEST SWAP1 PUSH0 MSTORE PUSH1 0x20 PUSH0 KECCAK256 SWAP1 PUSH1 0x5 MUL ADD PUSH0 SWAP2 POP SWAP1 POP DUP1 PUSH0 ADD DUP1 SLOAD PUSH2 0x608 SWAP1 PUSH2 0x16B0 JUMP JUMPDEST DUP1 PUSH1 0x1F ADD PUSH1 0x20 DUP1 SWAP2 DIV MUL PUSH1 0x20 ADD PUSH1 0x40 MLOAD SWAP1 DUP2 ADD PUSH1 0x40 MSTORE DUP1 SWAP3 SWAP2 SWAP1 DUP2 DUP2 MSTORE PUSH1 0x20 ADD DUP3 DUP1 SLOAD PUSH2 0x634 SWAP1 PUSH2 0x16B0 JUMP JUMPDEST DUP1 ISZERO PUSH2 0x67F JUMPI DUP1 PUSH1 0x1F LT PUSH2 0x656 JUMPI PUSH2 0x100 DUP1 DUP4 SLOAD DIV MUL DUP4 MSTORE SWAP2 PUSH1 0x20 ADD SWAP2 PUSH2 0x67F JUMP JUMPDEST DUP3 ADD SWAP2 SWAP1 PUSH0 MSTORE PUSH1 0x20 PUSH0 KECCAK256 SWAP1 JUMPDEST DUP2 SLOAD DUP2 MSTORE SWAP1 PUSH1 0x1 ADD SWAP1 PUSH1 0x20 ADD DUP1 DUP4 GT PUSH2 0x662 JUMPI DUP3 SWAP1 SUB PUSH1 0x1F AND DUP3 ADD SWAP2 JUMPDEST POP POP POP POP POP SWAP1 DUP1 PUSH1 0x1 ADD DUP1 SLOAD PUSH2 0x694 SWAP1 PUSH2 0x16B0 JUMP JUMPDEST DUP1 PUSH1 0x1F ADD PUSH1 0x20 DUP1 SWAP2 DIV MUL PUSH1 0x20 ADD PUSH1 0x40 MLOAD SWAP1 DUP2 ADD PUSH1 0x40 MSTORE DUP1 SWAP3 SWAP2 SWAP1 DUP2 DUP2 MSTORE PUSH1 0x20 ADD DUP3 DUP1 SLOAD PUSH2 0x6C0 SWAP1 PUSH2 0x16B0 JUMP JUMPDEST DUP1 ISZERO PUSH2 0x70B JUMPI DUP1 PUSH1 0x1F LT PUSH2 0x6E2 JUMPI PUSH2 0x100 DUP1 DUP4 SLOAD DIV MUL DUP4 MSTORE SWAP2 PUSH1 0x20 ADD SWAP2 PUSH2 0x70B JUMP JUMPDEST DUP3 ADD SWAP2 SWAP1 PUSH0 MSTORE PUSH1 0x20 PUSH0 KECCAK256 SWAP1 JUMPDEST DUP2 SLOAD DUP2 MSTORE SWAP1 PUSH1 0x1 ADD SWAP1 PUSH1 0x20 ADD DUP1 DUP4 GT PUSH2 0x6EE JUMPI DUP3 SWAP1 SUB PUSH1 0x1F AND DUP3 ADD SWAP2 JUMPDEST POP POP POP POP POP SWAP1 DUP1 PUSH1 0x3 ADD SLOAD SWAP1 DUP1 PUSH1 0x4 ADD SLOAD SWAP1 POP DUP5 JUMP JUMPDEST PUSH0 DUP1 SLOAD SWAP1 PUSH2 0x100 EXP SWAP1 DIV PUSH20 0xFFFFFFFFFFFFFFFFFFFFFFFFFFFFFFFFFFFFFFFF AND DUP2 JUMP JUMPDEST PUSH1 0x3 PUSH1 0x20 MSTORE DUP1 PUSH0 MSTORE PUSH1 0x40 PUSH0 KECCAK256 PUSH0 SWAP2 POP SLOAD SWAP1 PUSH2 0x100 EXP SWAP1 DIV PUSH1 0xFF AND DUP2 JUMP JUMPDEST PUSH1 0x60 PUSH1 0x1 DUP1 SLOAD DUP1 PUSH1 0x20 MUL PUSH1 0x20 ADD PUSH1 0x40 MLOAD SWAP1 DUP2 ADD PUSH1 0x40 MSTORE DUP1 SWAP3 SWAP2 SWAP1 DUP2 DUP2 MSTORE PUSH1 0x20 ADD PUSH0 SWAP1 JUMPDEST DUP3 DUP3 LT ISZERO PUSH2 0x9BB JUMPI DUP4 DUP3 SWAP1 PUSH0 MSTORE PUSH1 0x20 PUSH0 KECCAK256 SWAP1 PUSH1 0x5 MUL ADD PUSH1 0x40 MLOAD DUP1 PUSH1 0xA0 ADD PUSH1 0x40 MSTORE SWAP1 DUP2 PUSH0 DUP3 ADD DUP1 SLOAD PUSH2 0x7B4 SWAP1 PUSH2 0x16B0 JUMP JUMPDEST DUP1 PUSH1 0x1F ADD PUSH1 0x20 DUP1 SWAP2 DIV MUL PUSH1 0x20 ADD PUSH1 0x40 MLOAD SWAP1 DUP2 ADD PUSH1 0x40 MSTORE DUP1 SWAP3 SWAP2 SWAP1 DUP2 DUP2 MSTORE PUSH1 0x20 ADD DUP3 DUP1 SLOAD PUSH2 0x7E0 SWAP1 PUSH2 0x16B0 JUMP JUMPDEST DUP1 ISZERO PUSH2 0x82B JUMPI DUP1 PUSH1 0x1F LT PUSH2 0x802 JUMPI PUSH2 0x100 DUP1 DUP4 SLOAD DIV MUL DUP4 MSTORE SWAP2 PUSH1 0x20 ADD SWAP2 PUSH2 0x82B JUMP JUMPDEST DUP3 ADD SWAP2 SWAP1 PUSH0 MSTORE PUSH1 0x20 PUSH0 KECCAK256 SWAP1 JUMPDEST DUP2 SLOAD DUP2 MSTORE SWAP1 PUSH1 0x1 ADD SWAP1 PUSH1 0x20 ADD DUP1 DUP4 GT PUSH2 0x80E JUMPI DUP3 SWAP1 SUB PUSH1 0x1F AND DUP3 ADD SWAP2 JUMPDEST POP POP POP POP POP DUP2 MSTORE PUSH1 0x20 ADD PUSH1 0x1 DUP3 ADD DUP1 SLOAD PUSH2 0x844 SWAP1 PUSH2 0x16B0 JUMP JUMPDEST DUP1 PUSH1 0x1F ADD PUSH1 0x20 DUP1 SWAP2 DIV MUL PUSH1 0x20 ADD PUSH1 0x40 MLOAD SWAP1 DUP2 ADD PUSH1 0x40 MSTORE DUP1 SWAP3 SWAP2 SWAP1 DUP2 DUP2 MSTORE PUSH1 0x20 ADD DUP3 DUP1 SLOAD PUSH2 0x870 SWAP1 PUSH2 0x16B0 JUMP JUMPDEST DUP1 ISZERO PUSH2 0x8BB JUMPI DUP1 PUSH1 0x1F LT PUSH2 0x892 JUMPI PUSH2 0x100 DUP1 DUP4 SLOAD DIV MUL DUP4 MSTORE SWAP2 PUSH1 0x20 ADD SWAP2 PUSH2 0x8BB JUMP JUMPDEST DUP3 ADD SWAP2 SWAP1 PUSH0 MSTORE PUSH1 0x20 PUSH0 KECCAK256 SWAP1 JUMPDEST DUP2 SLOAD DUP2 MSTORE SWAP1 PUSH1 0x1 ADD SWAP1 PUSH1 0x20 ADD DUP1 DUP4 GT PUSH2 0x89E JUMPI DUP3 SWAP1 SUB PUSH1 0x1F AND DUP3 ADD SWAP2 JUMPDEST POP POP POP POP POP DUP2 MSTORE PUSH1 0x20 ADD PUSH1 0x2 DUP3 ADD DUP1 SLOAD DUP1 PUSH1 0x20 MUL PUSH1 0x20 ADD PUSH1 0x40 MLOAD SWAP1 DUP2 ADD PUSH1 0x40 MSTORE DUP1 SWAP3 SWAP2 SWAP1 DUP2 DUP2 MSTORE PUSH1 0x20 ADD PUSH0 SWAP1 JUMPDEST DUP3 DUP3 LT ISZERO PUSH2 0x990 JUMPI DUP4 DUP3 SWAP1 PUSH0 MSTORE PUSH1 0x20 PUSH0 KECCAK256 ADD DUP1 SLOAD PUSH2 0x905 SWAP1 PUSH2 0x16B0 JUMP JUMPDEST DUP1 PUSH1 0x1F ADD PUSH1 0x20 DUP1 SWAP2 DIV MUL PUSH1 0x20 ADD PUSH1 0x40 MLOAD SWAP1 DUP2 ADD PUSH1 0x40 MSTORE DUP1 SWAP3 SWAP2 SWAP1 DUP2 DUP2 MSTORE PUSH1 0x20 ADD DUP3 DUP1 SLOAD PUSH2 0x931 SWAP1 PUSH2 0x16B0 JUMP JUMPDEST DUP1 ISZERO PUSH2 0x97C JUMPI DUP1 PUSH1 0x1F LT PUSH2 0x953 JUMPI PUSH2 0x100 DUP1 DUP4 SLOAD DIV MUL DUP4 MSTORE SWAP2 PUSH1 0x20 ADD SWAP2 PUSH2 0x97C JUMP JUMPDEST DUP3 ADD SWAP2 SWAP1 PUSH0 MSTORE PUSH1 0x20 PUSH0 KECCAK256 SWAP1 JUMPDEST DUP2 SLOAD DUP2 MSTORE SWAP1 PUSH1 0x1 ADD SWAP1 PUSH1 0x20 ADD DUP1 DUP4 GT PUSH2 0x95F JUMPI DUP3 SWAP1 SUB PUSH1 0x1F AND DUP3 ADD SWAP2 JUMPDEST POP POP POP POP POP DUP2 MSTORE PUSH1 0x20 ADD SWAP1 PUSH1 0x1 ADD SWAP1 PUSH2 0x8E8 JUMP JUMPDEST POP POP POP POP DUP2 MSTORE PUSH1 0x20 ADD PUSH1 0x3 DUP3 ADD SLOAD DUP2 MSTORE PUSH1 0x20 ADD PUSH1 0x4 DUP3 ADD SLOAD DUP2 MSTORE POP POP DUP2 MSTORE PUSH1 0x20 ADD SWAP1 PUSH1 0x1 ADD SWAP1 PUSH2 0x784 JUMP JUMPDEST POP POP POP POP SWAP1 POP SWAP1 JUMP JUMPDEST PUSH1 0x1 PUSH1 0x2 DUP2 GT ISZERO PUSH2 0x9D8 JUMPI PUSH2 0x9D7 PUSH2 0x1345 JUMP JUMPDEST JUMPDEST PUSH1 0x3 PUSH0 CALLER PUSH20 0xFFFFFFFFFFFFFFFFFFFFFFFFFFFFFFFFFFFFFFFF AND PUSH20 0xFFFFFFFFFFFFFFFFFFFFFFFFFFFFFFFFFFFFFFFF AND DUP2 MSTORE PUSH1 0x20 ADD SWAP1 DUP2 MSTORE PUSH1 0x20 ADD PUSH0 KECCAK256 PUSH0 SWAP1 SLOAD SWAP1 PUSH2 0x100 EXP SWAP1 DIV PUSH1 0xFF AND PUSH1 0x2 DUP2 GT ISZERO PUSH2 0xA34 JUMPI PUSH2 0xA33 PUSH2 0x1345 JUMP JUMPDEST JUMPDEST EQ PUSH2 0xA3D JUMPI PUSH0 DUP1 REVERT JUMPDEST PUSH1 0x1 DUP2 DUP2 SLOAD DUP2 LT PUSH2 0xA51 JUMPI PUSH2 0xA50 PUSH2 0x19B4 JUMP JUMPDEST JUMPDEST SWAP1 PUSH0 MSTORE PUSH1 0x20 PUSH0 KECCAK256 SWAP1 PUSH1 0x5 MUL ADD PUSH1 0x3 ADD SLOAD CALLVALUE EQ PUSH2 0xAA2 JUMPI PUSH1 0x40 MLOAD PUSH32 0x8C379A000000000000000000000000000000000000000000000000000000000 DUP2 MSTORE PUSH1 0x4 ADD PUSH2 0xA99 SWAP1 PUSH2 0x1A2B JUMP JUMPDEST PUSH1 0x40 MLOAD DUP1 SWAP2 SUB SWAP1 REVERT JUMPDEST PUSH0 PUSH1 0x40 MLOAD DUP1 PUSH1 0x40 ADD PUSH1 0x40 MSTORE DUP1 CALLER PUSH20 0xFFFFFFFFFFFFFFFFFFFFFFFFFFFFFFFFFFFFFFFF AND DUP2 MSTORE PUSH1 0x20 ADD PUSH1 0x1 DUP5 DUP2 SLOAD DUP2 LT PUSH2 0xADE JUMPI PUSH2 0xADD PUSH2 0x19B4 JUMP JUMPDEST JUMPDEST SWAP1 PUSH0 MSTORE PUSH1 0x20 PUSH0 KECCAK256 SWAP1 PUSH1 0x5 MUL ADD PUSH0 ADD DUP1 SLOAD PUSH2 0xAF7 SWAP1 PUSH2 0x16B0 JUMP JUMPDEST DUP1 PUSH1 0x1F ADD PUSH1 0x20 DUP1 SWAP2 DIV MUL PUSH1 0x20 ADD PUSH1 0x40 MLOAD SWAP1 DUP2 ADD PUSH1 0x40 MSTORE DUP1 SWAP3 SWAP2 SWAP1 DUP2 DUP2 MSTORE PUSH1 0x20 ADD DUP3 DUP1 SLOAD PUSH2 0xB23 SWAP1 PUSH2 0x16B0 JUMP JUMPDEST DUP1 ISZERO PUSH2 0xB6E JUMPI DUP1 PUSH1 0x1F LT PUSH2 0xB45 JUMPI PUSH2 0x100 DUP1 DUP4 SLOAD DIV MUL DUP4 MSTORE SWAP2 PUSH1 0x20 ADD SWAP2 PUSH2 0xB6E JUMP JUMPDEST DUP3 ADD SWAP2 SWAP1 PUSH0 MSTORE PUSH1 0x20 PUSH0 KECCAK256 SWAP1 JUMPDEST DUP2 SLOAD DUP2 MSTORE SWAP1 PUSH1 0x1 ADD SWAP1 PUSH1 0x20 ADD DUP1 DUP4 GT PUSH2 0xB51 JUMPI DUP3 SWAP1 SUB PUSH1 0x1F AND DUP3 ADD SWAP2 JUMPDEST POP POP POP POP POP DUP2 MSTORE POP SWAP1 POP POP POP JUMP JUMPDEST PUSH1 0x4 PUSH1 0x20 MSTORE DUP1 PUSH0 MSTORE PUSH1 0x40 PUSH0 KECCAK256 PUSH0 SWAP2 POP SWAP1 POP DUP1 PUSH0 ADD DUP1 SLOAD PUSH2 0xB9B SWAP1 PUSH2 0x16B0 JUMP JUMPDEST DUP1 PUSH1 0x1F ADD PUSH1 0x20 DUP1 SWAP2 DIV MUL PUSH1 0x20 ADD PUSH1 0x40 MLOAD SWAP1 DUP2 ADD PUSH1 0x40 MSTORE DUP1 SWAP3 SWAP2 SWAP1 DUP2 DUP2 MSTORE PUSH1 0x20 ADD DUP3 DUP1 SLOAD PUSH2 0xBC7 SWAP1 PUSH2 0x16B0 JUMP JUMPDEST DUP1 ISZERO PUSH2 0xC12 JUMPI DUP1 PUSH1 0x1F LT PUSH2 0xBE9 JUMPI PUSH2 0x100 DUP1 DUP4 SLOAD DIV MUL DUP4 MSTORE SWAP2 PUSH1 0x20 ADD SWAP2 PUSH2 0xC12 JUMP JUMPDEST DUP3 ADD SWAP2 SWAP1 PUSH0 MSTORE PUSH1 0x20 PUSH0 KECCAK256 SWAP1 JUMPDEST DUP2 SLOAD DUP2 MSTORE SWAP1 PUSH1 0x1 ADD SWAP1 PUSH1 0x20 ADD DUP1 DUP4 GT PUSH2 0xBF5 JUMPI DUP3 SWAP1 SUB PUSH1 0x1F AND DUP3 ADD SWAP2 JUMPDEST POP POP POP POP POP SWAP1 DUP1 PUSH1 0x1 ADD DUP1 SLOAD PUSH2 0xC27 SWAP1 PUSH2 0x16B0 JUMP JUMPDEST DUP1 PUSH1 0x1F ADD PUSH1 0x20 DUP1 SWAP2 DIV MUL PUSH1 0x20 ADD PUSH1 0x40 MLOAD SWAP1 DUP2 ADD PUSH1 0x40 MSTORE DUP1 SWAP3 SWAP2 SWAP1 DUP2 DUP2 MSTORE PUSH1 0x20 ADD DUP3 DUP1 SLOAD PUSH2 0xC53 SWAP1 PUSH2 0x16B0 JUMP JUMPDEST DUP1 ISZERO PUSH2 0xC9E JUMPI DUP1 PUSH1 0x1F LT PUSH2 0xC75 JUMPI PUSH2 0x100 DUP1 DUP4 SLOAD DIV MUL DUP4 MSTORE SWAP2 PUSH1 0x20 ADD SWAP2 PUSH2 0xC9E JUMP JUMPDEST DUP3 ADD SWAP2 SWAP1 PUSH0 MSTORE PUSH1 0x20 PUSH0 KECCAK256 SWAP1 JUMPDEST DUP2 SLOAD DUP2 MSTORE SWAP1 PUSH1 0x1 ADD SWAP1 PUSH1 0x20 ADD DUP1 DUP4 GT PUSH2 0xC81 JUMPI DUP3 SWAP1 SUB PUSH1 0x1F AND DUP3 ADD SWAP2 JUMPDEST POP POP POP POP POP SWAP1 POP DUP3 JUMP JUMPDEST DUP3 DUP1 SLOAD DUP3 DUP3 SSTORE SWAP1 PUSH0 MSTORE PUSH1 0x20 PUSH0 KECCAK256 SWAP1 DUP2 ADD SWAP3 DUP3 ISZERO PUSH2 0xCEE JUMPI SWAP2 PUSH1 0x20 MUL DUP3 ADD JUMPDEST DUP3 DUP2 GT ISZERO PUSH2 0xCED JUMPI DUP3 MLOAD DUP3 SWAP1 DUP2 PUSH2 0xCDD SWAP2 SWAP1 PUSH2 0x187D JUMP JUMPDEST POP SWAP2 PUSH1 0x20 ADD SWAP2 SWAP1 PUSH1 0x1 ADD SWAP1 PUSH2 0xCC6 JUMP JUMPDEST JUMPDEST POP SWAP1 POP PUSH2 0xCFB SWAP2 SWAP1 PUSH2 0xCFF JUMP JUMPDEST POP SWAP1 JUMP JUMPDEST JUMPDEST DUP1 DUP3 GT ISZERO PUSH2 0xD1E JUMPI PUSH0 DUP2 DUP2 PUSH2 0xD15 SWAP2 SWAP1 PUSH2 0xD22 JUMP JUMPDEST POP PUSH1 0x1 ADD PUSH2 0xD00 JUMP JUMPDEST POP SWAP1 JUMP JUMPDEST POP DUP1 SLOAD PUSH2 0xD2E SWAP1 PUSH2 0x16B0 JUMP JUMPDEST PUSH0 DUP3 SSTORE DUP1 PUSH1 0x1F LT PUSH2 0xD3F JUMPI POP PUSH2 0xD5C JUMP JUMPDEST PUSH1 0x1F ADD PUSH1 0x20 SWAP1 DIV SWAP1 PUSH0 MSTORE PUSH1 0x20 PUSH0 KECCAK256 SWAP1 DUP2 ADD SWAP1 PUSH2 0xD5B SWAP2 SWAP1 PUSH2 0xD5F JUMP JUMPDEST JUMPDEST POP JUMP JUMPDEST JUMPDEST DUP1 DUP3 GT ISZERO PUSH2 0xD76 JUMPI PUSH0 DUP2 PUSH0 SWAP1 SSTORE POP PUSH1 0x1 ADD PUSH2 0xD60 JUMP JUMPDEST POP SWAP1 JUMP JUMPDEST PUSH0 PUSH1 0x40 MLOAD SWAP1 POP SWAP1 JUMP JUMPDEST PUSH0 DUP1 REVERT JUMPDEST PUSH0 DUP1 REVERT JUMPDEST PUSH0 DUP2 SWAP1 POP SWAP2 SWAP1 POP JUMP JUMPDEST PUSH2 0xD9D DUP2 PUSH2 0xD8B JUMP JUMPDEST DUP2 EQ PUSH2 0xDA7 JUMPI PUSH0 DUP1 REVERT JUMPDEST POP JUMP JUMPDEST PUSH0 DUP2 CALLDATALOAD SWAP1 POP PUSH2 0xDB8 DUP2 PUSH2 0xD94 JUMP JUMPDEST SWAP3 SWAP2 POP POP JUMP JUMPDEST PUSH0 PUSH1 0x20 DUP3 DUP5 SUB SLT ISZERO PUSH2 0xDD3 JUMPI PUSH2 0xDD2 PUSH2 0xD83 JUMP JUMPDEST JUMPDEST PUSH0 PUSH2 0xDE0 DUP5 DUP3 DUP6 ADD PUSH2 0xDAA JUMP JUMPDEST SWAP2 POP POP SWAP3 SWAP2 POP POP JUMP JUMPDEST PUSH0 PUSH20 0xFFFFFFFFFFFFFFFFFFFFFFFFFFFFFFFFFFFFFFFF DUP3 AND SWAP1 POP SWAP2 SWAP1 POP JUMP JUMPDEST PUSH0 PUSH2 0xE12 DUP3 PUSH2 0xDE9 JUMP JUMPDEST SWAP1 POP SWAP2 SWAP1 POP JUMP JUMPDEST PUSH2 0xE22 DUP2 PUSH2 0xE08 JUMP JUMPDEST DUP3 MSTORE POP POP JUMP JUMPDEST PUSH0 DUP2 MLOAD SWAP1 POP SWAP2 SWAP1 POP JUMP JUMPDEST PUSH0 DUP3 DUP3 MSTORE PUSH1 0x20 DUP3 ADD SWAP1 POP SWAP3 SWAP2 POP POP JUMP JUMPDEST DUP3 DUP2 DUP4 MCOPY PUSH0 DUP4 DUP4 ADD MSTORE POP POP POP JUMP JUMPDEST PUSH0 PUSH1 0x1F NOT PUSH1 0x1F DUP4 ADD AND SWAP1 POP SWAP2 SWAP1 POP JUMP JUMPDEST PUSH0 PUSH2 0xE6A DUP3 PUSH2 0xE28 JUMP JUMPDEST PUSH2 0xE74 DUP2 DUP6 PUSH2 0xE32 JUMP JUMPDEST SWAP4 POP PUSH2 0xE84 DUP2 DUP6 PUSH1 0x20 DUP7 ADD PUSH2 0xE42 JUMP JUMPDEST PUSH2 0xE8D DUP2 PUSH2 0xE50 JUMP JUMPDEST DUP5 ADD SWAP2 POP POP SWAP3 SWAP2 POP POP JUMP JUMPDEST PUSH0 PUSH1 0x40 DUP3 ADD SWAP1 POP PUSH2 0xEAB PUSH0 DUP4 ADD DUP6 PUSH2 0xE19 JUMP JUMPDEST DUP2 DUP2 SUB PUSH1 0x20 DUP4 ADD MSTORE PUSH2 0xEBD DUP2 DUP5 PUSH2 0xE60 JUMP JUMPDEST SWAP1 POP SWAP4 SWAP3 POP POP POP JUMP JUMPDEST PUSH0 DUP1 REVERT JUMPDEST PUSH0 DUP1 REVERT JUMPDEST PUSH32 0x4E487B7100000000000000000000000000000000000000000000000000000000 PUSH0 MSTORE PUSH1 0x41 PUSH1 0x4 MSTORE PUSH1 0x24 PUSH0 REVERT JUMPDEST PUSH2 0xF04 DUP3 PUSH2 0xE50 JUMP JUMPDEST DUP2 ADD DUP2 DUP2 LT PUSH8 0xFFFFFFFFFFFFFFFF DUP3 GT OR ISZERO PUSH2 0xF23 JUMPI PUSH2 0xF22 PUSH2 0xECE JUMP JUMPDEST JUMPDEST DUP1 PUSH1 0x40 MSTORE POP POP POP JUMP JUMPDEST PUSH0 PUSH2 0xF35 PUSH2 0xD7A JUMP JUMPDEST SWAP1 POP PUSH2 0xF41 DUP3 DUP3 PUSH2 0xEFB JUMP JUMPDEST SWAP2 SWAP1 POP JUMP JUMPDEST PUSH0 PUSH8 0xFFFFFFFFFFFFFFFF DUP3 GT ISZERO PUSH2 0xF60 JUMPI PUSH2 0xF5F PUSH2 0xECE JUMP JUMPDEST JUMPDEST PUSH2 0xF69 DUP3 PUSH2 0xE50 JUMP JUMPDEST SWAP1 POP PUSH1 0x20 DUP2 ADD SWAP1 POP SWAP2 SWAP1 POP JUMP JUMPDEST DUP3 DUP2 DUP4 CALLDATACOPY PUSH0 DUP4 DUP4 ADD MSTORE POP POP POP JUMP JUMPDEST PUSH0 PUSH2 0xF96 PUSH2 0xF91 DUP5 PUSH2 0xF46 JUMP JUMPDEST PUSH2 0xF2C JUMP JUMPDEST SWAP1 POP DUP3 DUP2 MSTORE PUSH1 0x20 DUP2 ADD DUP5 DUP5 DUP5 ADD GT ISZERO PUSH2 0xFB2 JUMPI PUSH2 0xFB1 PUSH2 0xECA JUMP JUMPDEST JUMPDEST PUSH2 0xFBD DUP5 DUP3 DUP6 PUSH2 0xF76 JUMP JUMPDEST POP SWAP4 SWAP3 POP POP POP JUMP JUMPDEST PUSH0 DUP3 PUSH1 0x1F DUP4 ADD SLT PUSH2 0xFD9 JUMPI PUSH2 0xFD8 PUSH2 0xEC6 JUMP JUMPDEST JUMPDEST DUP2 CALLDATALOAD PUSH2 0xFE9 DUP5 DUP3 PUSH1 0x20 DUP7 ADD PUSH2 0xF84 JUMP JUMPDEST SWAP2 POP POP SWAP3 SWAP2 POP POP JUMP JUMPDEST PUSH0 PUSH8 0xFFFFFFFFFFFFFFFF DUP3 GT ISZERO PUSH2 0x100C JUMPI PUSH2 0x100B PUSH2 0xECE JUMP JUMPDEST JUMPDEST PUSH1 0x20 DUP3 MUL SWAP1 POP PUSH1 0x20 DUP2 ADD SWAP1 POP SWAP2 SWAP1 POP JUMP JUMPDEST PUSH0 DUP1 REVERT JUMPDEST PUSH0 PUSH2 0x1033 PUSH2 0x102E DUP5 PUSH2 0xFF2 JUMP JUMPDEST PUSH2 0xF2C JUMP JUMPDEST SWAP1 POP DUP1 DUP4 DUP3 MSTORE PUSH1 0x20 DUP3 ADD SWAP1 POP PUSH1 0x20 DUP5 MUL DUP4 ADD DUP6 DUP2 GT ISZERO PUSH2 0x1056 JUMPI PUSH2 0x1055 PUSH2 0x101D JUMP JUMPDEST JUMPDEST DUP4 JUMPDEST DUP2 DUP2 LT ISZERO PUSH2 0x109D JUMPI DUP1 CALLDATALOAD PUSH8 0xFFFFFFFFFFFFFFFF DUP2 GT ISZERO PUSH2 0x107B JUMPI PUSH2 0x107A PUSH2 0xEC6 JUMP JUMPDEST JUMPDEST DUP1 DUP7 ADD PUSH2 0x1088 DUP10 DUP3 PUSH2 0xFC5 JUMP JUMPDEST DUP6 MSTORE PUSH1 0x20 DUP6 ADD SWAP5 POP POP POP PUSH1 0x20 DUP2 ADD SWAP1 POP PUSH2 0x1058 JUMP JUMPDEST POP POP POP SWAP4 SWAP3 POP POP POP JUMP JUMPDEST PUSH0 DUP3 PUSH1 0x1F DUP4 ADD SLT PUSH2 0x10BB JUMPI PUSH2 0x10BA PUSH2 0xEC6 JUMP JUMPDEST JUMPDEST DUP2 CALLDATALOAD PUSH2 0x10CB DUP5 DUP3 PUSH1 0x20 DUP7 ADD PUSH2 0x1021 JUMP JUMPDEST SWAP2 POP POP SWAP3 SWAP2 POP POP JUMP JUMPDEST PUSH0 DUP2 SWAP1 POP SWAP2 SWAP1 POP JUMP JUMPDEST PUSH2 0x10E6 DUP2 PUSH2 0x10D4 JUMP JUMPDEST DUP2 EQ PUSH2 0x10F0 JUMPI PUSH0 DUP1 REVERT JUMPDEST POP JUMP JUMPDEST PUSH0 DUP2 CALLDATALOAD SWAP1 POP PUSH2 0x1101 DUP2 PUSH2 0x10DD JUMP JUMPDEST SWAP3 SWAP2 POP POP JUMP JUMPDEST PUSH0 DUP1 PUSH0 DUP1 PUSH0 PUSH1 0xA0 DUP7 DUP9 SUB SLT ISZERO PUSH2 0x1120 JUMPI PUSH2 0x111F PUSH2 0xD83 JUMP JUMPDEST JUMPDEST PUSH0 DUP7 ADD CALLDATALOAD PUSH8 0xFFFFFFFFFFFFFFFF DUP2 GT ISZERO PUSH2 0x113D JUMPI PUSH2 0x113C PUSH2 0xD87 JUMP JUMPDEST JUMPDEST PUSH2 0x1149 DUP9 DUP3 DUP10 ADD PUSH2 0xFC5 JUMP JUMPDEST SWAP6 POP POP PUSH1 0x20 DUP7 ADD CALLDATALOAD PUSH8 0xFFFFFFFFFFFFFFFF DUP2 GT ISZERO PUSH2 0x116A JUMPI PUSH2 0x1169 PUSH2 0xD87 JUMP JUMPDEST JUMPDEST PUSH2 0x1176 DUP9 DUP3 DUP10 ADD PUSH2 0xFC5 JUMP JUMPDEST SWAP5 POP POP PUSH1 0x40 DUP7 ADD CALLDATALOAD PUSH8 0xFFFFFFFFFFFFFFFF DUP2 GT ISZERO PUSH2 0x1197 JUMPI PUSH2 0x1196 PUSH2 0xD87 JUMP JUMPDEST JUMPDEST PUSH2 0x11A3 DUP9 DUP3 DUP10 ADD PUSH2 0x10A7 JUMP JUMPDEST SWAP4 POP POP PUSH1 0x60 PUSH2 0x11B4 DUP9 DUP3 DUP10 ADD PUSH2 0xDAA JUMP JUMPDEST SWAP3 POP POP PUSH1 0x80 PUSH2 0x11C5 DUP9 DUP3 DUP10 ADD PUSH2 0x10F3 JUMP JUMPDEST SWAP2 POP POP SWAP3 SWAP6 POP SWAP3 SWAP6 SWAP1 SWAP4 POP JUMP JUMPDEST PUSH0 DUP1 PUSH1 0x40 DUP4 DUP6 SUB SLT ISZERO PUSH2 0x11E8 JUMPI PUSH2 0x11E7 PUSH2 0xD83 JUMP JUMPDEST JUMPDEST PUSH0 DUP4 ADD CALLDATALOAD PUSH8 0xFFFFFFFFFFFFFFFF DUP2 GT ISZERO PUSH2 0x1205 JUMPI PUSH2 0x1204 PUSH2 0xD87 JUMP JUMPDEST JUMPDEST PUSH2 0x1211 DUP6 DUP3 DUP7 ADD PUSH2 0xFC5 JUMP JUMPDEST SWAP3 POP POP PUSH1 0x20 DUP4 ADD CALLDATALOAD PUSH8 0xFFFFFFFFFFFFFFFF DUP2 GT ISZERO PUSH2 0x1232 JUMPI PUSH2 0x1231 PUSH2 0xD87 JUMP JUMPDEST JUMPDEST PUSH2 0x123E DUP6 DUP3 DUP7 ADD PUSH2 0xFC5 JUMP JUMPDEST SWAP2 POP POP SWAP3 POP SWAP3 SWAP1 POP JUMP JUMPDEST PUSH2 0x1251 DUP2 PUSH2 0xD8B JUMP JUMPDEST DUP3 MSTORE POP POP JUMP JUMPDEST PUSH2 0x1260 DUP2 PUSH2 0x10D4 JUMP JUMPDEST DUP3 MSTORE POP POP JUMP JUMPDEST PUSH0 PUSH1 0x80 DUP3 ADD SWAP1 POP DUP2 DUP2 SUB PUSH0 DUP4 ADD MSTORE PUSH2 0x127E DUP2 DUP8 PUSH2 0xE60 JUMP JUMPDEST SWAP1 POP DUP2 DUP2 SUB PUSH1 0x20 DUP4 ADD MSTORE PUSH2 0x1292 DUP2 DUP7 PUSH2 0xE60 JUMP JUMPDEST SWAP1 POP PUSH2 0x12A1 PUSH1 0x40 DUP4 ADD DUP6 PUSH2 0x1248 JUMP JUMPDEST PUSH2 0x12AE PUSH1 0x60 DUP4 ADD DUP5 PUSH2 0x1257 JUMP JUMPDEST SWAP6 SWAP5 POP POP POP POP POP JUMP JUMPDEST PUSH0 PUSH2 0x12C1 DUP3 PUSH2 0xDE9 JUMP JUMPDEST SWAP1 POP SWAP2 SWAP1 POP JUMP JUMPDEST PUSH2 0x12D1 DUP2 PUSH2 0x12B7 JUMP JUMPDEST DUP3 MSTORE POP POP JUMP JUMPDEST PUSH0 PUSH1 0x20 DUP3 ADD SWAP1 POP PUSH2 0x12EA PUSH0 DUP4 ADD DUP5 PUSH2 0x12C8 JUMP JUMPDEST SWAP3 SWAP2 POP POP JUMP JUMPDEST PUSH2 0x12F9 DUP2 PUSH2 0xE08 JUMP JUMPDEST DUP2 EQ PUSH2 0x1303 JUMPI PUSH0 DUP1 REVERT JUMPDEST POP JUMP JUMPDEST PUSH0 DUP2 CALLDATALOAD SWAP1 POP PUSH2 0x1314 DUP2 PUSH2 0x12F0 JUMP JUMPDEST SWAP3 SWAP2 POP POP JUMP JUMPDEST PUSH0 PUSH1 0x20 DUP3 DUP5 SUB SLT ISZERO PUSH2 0x132F JUMPI PUSH2 0x132E PUSH2 0xD83 JUMP JUMPDEST JUMPDEST PUSH0 PUSH2 0x133C DUP5 DUP3 DUP6 ADD PUSH2 0x1306 JUMP JUMPDEST SWAP2 POP POP SWAP3 SWAP2 POP POP JUMP JUMPDEST PUSH32 0x4E487B7100000000000000000000000000000000000000000000000000000000 PUSH0 MSTORE PUSH1 0x21 PUSH1 0x4 MSTORE PUSH1 0x24 PUSH0 REVERT JUMPDEST PUSH1 0x3 DUP2 LT PUSH2 0x1383 JUMPI PUSH2 0x1382 PUSH2 0x1345 JUMP JUMPDEST JUMPDEST POP JUMP JUMPDEST PUSH0 DUP2 SWAP1 POP PUSH2 0x1393 DUP3 PUSH2 0x1372 JUMP JUMPDEST SWAP2 SWAP1 POP JUMP JUMPDEST PUSH0 PUSH2 0x13A2 DUP3 PUSH2 0x1386 JUMP JUMPDEST SWAP1 POP SWAP2 SWAP1 POP JUMP JUMPDEST PUSH2 0x13B2 DUP2 PUSH2 0x1398 JUMP JUMPDEST DUP3 MSTORE POP POP JUMP JUMPDEST PUSH0 PUSH1 0x20 DUP3 ADD SWAP1 POP PUSH2 0x13CB PUSH0 DUP4 ADD DUP5 PUSH2 0x13A9 JUMP JUMPDEST SWAP3 SWAP2 POP POP JUMP JUMPDEST PUSH0 DUP2 MLOAD SWAP1 POP SWAP2 SWAP1 POP JUMP JUMPDEST PUSH0 DUP3 DUP3 MSTORE PUSH1 0x20 DUP3 ADD SWAP1 POP SWAP3 SWAP2 POP POP JUMP JUMPDEST PUSH0 DUP2 SWAP1 POP PUSH1 0x20 DUP3 ADD SWAP1 POP SWAP2 SWAP1 POP JUMP JUMPDEST PUSH0 DUP3 DUP3 MSTORE PUSH1 0x20 DUP3 ADD SWAP1 POP SWAP3 SWAP2 POP POP JUMP JUMPDEST PUSH0 PUSH2 0x1414 DUP3 PUSH2 0xE28 JUMP JUMPDEST PUSH2 0x141E DUP2 DUP6 PUSH2 0x13FA JUMP JUMPDEST SWAP4 POP PUSH2 0x142E DUP2 DUP6 PUSH1 0x20 DUP7 ADD PUSH2 0xE42 JUMP JUMPDEST PUSH2 0x1437 DUP2 PUSH2 0xE50 JUMP JUMPDEST DUP5 ADD SWAP2 POP POP SWAP3 SWAP2 POP POP JUMP JUMPDEST PUSH0 DUP2 MLOAD SWAP1 POP SWAP2 SWAP1 POP JUMP JUMPDEST PUSH0 DUP3 DUP3 MSTORE PUSH1 0x20 DUP3 ADD SWAP1 POP SWAP3 SWAP2 POP POP JUMP JUMPDEST PUSH0 DUP2 SWAP1 POP PUSH1 0x20 DUP3 ADD SWAP1 POP SWAP2 SWAP1 POP JUMP JUMPDEST PUSH0 PUSH2 0x1476 DUP4 DUP4 PUSH2 0x140A JUMP JUMPDEST SWAP1 POP SWAP3 SWAP2 POP POP JUMP JUMPDEST PUSH0 PUSH1 0x20 DUP3 ADD SWAP1 POP SWAP2 SWAP1 POP JUMP JUMPDEST PUSH0 PUSH2 0x1494 DUP3 PUSH2 0x1442 JUMP JUMPDEST PUSH2 0x149E DUP2 DUP6 PUSH2 0x144C JUMP JUMPDEST SWAP4 POP DUP4 PUSH1 0x20 DUP3 MUL DUP6 ADD PUSH2 0x14B0 DUP6 PUSH2 0x145C JUMP JUMPDEST DUP1 PUSH0 JUMPDEST DUP6 DUP2 LT ISZERO PUSH2 0x14EB JUMPI DUP5 DUP5 SUB DUP10 MSTORE DUP2 MLOAD PUSH2 0x14CC DUP6 DUP3 PUSH2 0x146B JUMP JUMPDEST SWAP5 POP PUSH2 0x14D7 DUP4 PUSH2 0x147E JUMP JUMPDEST SWAP3 POP PUSH1 0x20 DUP11 ADD SWAP10 POP POP PUSH1 0x1 DUP2 ADD SWAP1 POP PUSH2 0x14B3 JUMP JUMPDEST POP DUP3 SWAP8 POP DUP8 SWAP6 POP POP POP POP POP POP SWAP3 SWAP2 POP POP JUMP JUMPDEST PUSH2 0x1506 DUP2 PUSH2 0xD8B JUMP JUMPDEST DUP3 MSTORE POP POP JUMP JUMPDEST PUSH2 0x1515 DUP2 PUSH2 0x10D4 JUMP JUMPDEST DUP3 MSTORE POP POP JUMP JUMPDEST PUSH0 PUSH1 0xA0 DUP4 ADD PUSH0 DUP4 ADD MLOAD DUP5 DUP3 SUB PUSH0 DUP7 ADD MSTORE PUSH2 0x1535 DUP3 DUP3 PUSH2 0x140A JUMP JUMPDEST SWAP2 POP POP PUSH1 0x20 DUP4 ADD MLOAD DUP5 DUP3 SUB PUSH1 0x20 DUP7 ADD MSTORE PUSH2 0x154F DUP3 DUP3 PUSH2 0x140A JUMP JUMPDEST SWAP2 POP POP PUSH1 0x40 DUP4 ADD MLOAD DUP5 DUP3 SUB PUSH1 0x40 DUP7 ADD MSTORE PUSH2 0x1569 DUP3 DUP3 PUSH2 0x148A JUMP JUMPDEST SWAP2 POP POP PUSH1 0x60 DUP4 ADD MLOAD PUSH2 0x157E PUSH1 0x60 DUP7 ADD DUP3 PUSH2 0x14FD JUMP JUMPDEST POP PUSH1 0x80 DUP4 ADD MLOAD PUSH2 0x1591 PUSH1 0x80 DUP7 ADD DUP3 PUSH2 0x150C JUMP JUMPDEST POP DUP1 SWAP2 POP POP SWAP3 SWAP2 POP POP JUMP JUMPDEST PUSH0 PUSH2 0x15A7 DUP4 DUP4 PUSH2 0x151B JUMP JUMPDEST SWAP1 POP SWAP3 SWAP2 POP POP JUMP JUMPDEST PUSH0 PUSH1 0x20 DUP3 ADD SWAP1 POP SWAP2 SWAP1 POP JUMP JUMPDEST PUSH0 PUSH2 0x15C5 DUP3 PUSH2 0x13D1 JUMP JUMPDEST PUSH2 0x15CF DUP2 DUP6 PUSH2 0x13DB JUMP JUMPDEST SWAP4 POP DUP4 PUSH1 0x20 DUP3 MUL DUP6 ADD PUSH2 0x15E1 DUP6 PUSH2 0x13EB JUMP JUMPDEST DUP1 PUSH0 JUMPDEST DUP6 DUP2 LT ISZERO PUSH2 0x161C JUMPI DUP5 DUP5 SUB DUP10 MSTORE DUP2 MLOAD PUSH2 0x15FD DUP6 DUP3 PUSH2 0x159C JUMP JUMPDEST SWAP5 POP PUSH2 0x1608 DUP4 PUSH2 0x15AF JUMP JUMPDEST SWAP3 POP PUSH1 0x20 DUP11 ADD SWAP10 POP POP PUSH1 0x1 DUP2 ADD SWAP1 POP PUSH2 0x15E4 JUMP JUMPDEST POP DUP3 SWAP8 POP DUP8 SWAP6 POP POP POP POP POP POP SWAP3 SWAP2 POP POP JUMP JUMPDEST PUSH0 PUSH1 0x20 DUP3 ADD SWAP1 POP DUP2 DUP2 SUB PUSH0 DUP4 ADD MSTORE PUSH2 0x1646 DUP2 DUP5 PUSH2 0x15BB JUMP JUMPDEST SWAP1 POP SWAP3 SWAP2 POP POP JUMP JUMPDEST PUSH0 PUSH1 0x40 DUP3 ADD SWAP1 POP DUP2 DUP2 SUB PUSH0 DUP4 ADD MSTORE PUSH2 0x1666 DUP2 DUP6 PUSH2 0xE60 JUMP JUMPDEST SWAP1 POP DUP2 DUP2 SUB PUSH1 0x20 DUP4 ADD MSTORE PUSH2 0x167A DUP2 DUP5 PUSH2 0xE60 JUMP JUMPDEST SWAP1 POP SWAP4 SWAP3 POP POP POP JUMP JUMPDEST PUSH32 0x4E487B7100000000000000000000000000000000000000000000000000000000 PUSH0 MSTORE PUSH1 0x22 PUSH1 0x4 MSTORE PUSH1 0x24 PUSH0 REVERT JUMPDEST PUSH0 PUSH1 0x2 DUP3 DIV SWAP1 POP PUSH1 0x1 DUP3 AND DUP1 PUSH2 0x16C7 JUMPI PUSH1 0x7F DUP3 AND SWAP2 POP JUMPDEST PUSH1 0x20 DUP3 LT DUP2 SUB PUSH2 0x16DA JUMPI PUSH2 0x16D9 PUSH2 0x1683 JUMP JUMPDEST JUMPDEST POP SWAP2 SWAP1 POP JUMP JUMPDEST PUSH0 DUP2 SWAP1 POP DUP2 PUSH0 MSTORE PUSH1 0x20 PUSH0 KECCAK256 SWAP1 POP SWAP2 SWAP1 POP JUMP JUMPDEST PUSH0 PUSH1 0x20 PUSH1 0x1F DUP4 ADD DIV SWAP1 POP SWAP2 SWAP1 POP JUMP JUMPDEST PUSH0 DUP3 DUP3 SHL SWAP1 POP SWAP3 SWAP2 POP POP JUMP JUMPDEST PUSH0 PUSH1 0x8 DUP4 MUL PUSH2 0x173C PUSH32 0xFFFFFFFFFFFFFFFFFFFFFFFFFFFFFFFFFFFFFFFFFFFFFFFFFFFFFFFFFFFFFFFF DUP3 PUSH2 0x1701 JUMP JUMPDEST PUSH2 0x1746 DUP7 DUP4 PUSH2 0x1701 JUMP JUMPDEST SWAP6 POP DUP1 NOT DUP5 AND SWAP4 POP DUP1 DUP7 AND DUP5 OR SWAP3 POP POP POP SWAP4 SWAP3 POP POP POP JUMP JUMPDEST PUSH0 DUP2 SWAP1 POP SWAP2 SWAP1 POP JUMP JUMPDEST PUSH0 PUSH2 0x1781 PUSH2 0x177C PUSH2 0x1777 DUP5 PUSH2 0xD8B JUMP JUMPDEST PUSH2 0x175E JUMP JUMPDEST PUSH2 0xD8B JUMP JUMPDEST SWAP1 POP SWAP2 SWAP1 POP JUMP JUMPDEST PUSH0 DUP2 SWAP1 POP SWAP2 SWAP1 POP JUMP JUMPDEST PUSH2 0x179A DUP4 PUSH2 0x1767 JUMP JUMPDEST PUSH2 0x17AE PUSH2 0x17A6 DUP3 PUSH2 0x1788 JUMP JUMPDEST DUP5 DUP5 SLOAD PUSH2 0x170D JUMP JUMPDEST DUP3 SSTORE POP POP POP POP JUMP JUMPDEST PUSH0 SWAP1 JUMP JUMPDEST PUSH2 0x17C2 PUSH2 0x17B6 JUMP JUMPDEST PUSH2 0x17CD DUP2 DUP5 DUP5 PUSH2 0x1791 JUMP JUMPDEST POP POP POP JUMP JUMPDEST JUMPDEST DUP2 DUP2 LT ISZERO PUSH2 0x17F0 JUMPI PUSH2 0x17E5 PUSH0 DUP3 PUSH2 0x17BA JUMP JUMPDEST PUSH1 0x1 DUP2 ADD SWAP1 POP PUSH2 0x17D3 JUMP JUMPDEST POP POP JUMP JUMPDEST PUSH1 0x1F DUP3 GT ISZERO PUSH2 0x1835 JUMPI PUSH2 0x1806 DUP2 PUSH2 0x16E0 JUMP JUMPDEST PUSH2 0x180F DUP5 PUSH2 0x16F2 JUMP JUMPDEST DUP2 ADD PUSH1 0x20 DUP6 LT ISZERO PUSH2 0x181E JUMPI DUP2 SWAP1 POP JUMPDEST PUSH2 0x1832 PUSH2 0x182A DUP6 PUSH2 0x16F2 JUMP JUMPDEST DUP4 ADD DUP3 PUSH2 0x17D2 JUMP JUMPDEST POP POP JUMPDEST POP POP POP JUMP JUMPDEST PUSH0 DUP3 DUP3 SHR SWAP1 POP SWAP3 SWAP2 POP POP JUMP JUMPDEST PUSH0 PUSH2 0x1855 PUSH0 NOT DUP5 PUSH1 0x8 MUL PUSH2 0x183A JUMP JUMPDEST NOT DUP1 DUP4 AND SWAP2 POP POP SWAP3 SWAP2 POP POP JUMP JUMPDEST PUSH0 PUSH2 0x186D DUP4 DUP4 PUSH2 0x1846 JUMP JUMPDEST SWAP2 POP DUP3 PUSH1 0x2 MUL DUP3 OR SWAP1 POP SWAP3 SWAP2 POP POP JUMP JUMPDEST PUSH2 0x1886 DUP3 PUSH2 0xE28 JUMP JUMPDEST PUSH8 0xFFFFFFFFFFFFFFFF DUP2 GT ISZERO PUSH2 0x189F JUMPI PUSH2 0x189E PUSH2 0xECE JUMP JUMPDEST JUMPDEST PUSH2 0x18A9 DUP3 SLOAD PUSH2 0x16B0 JUMP JUMPDEST PUSH2 0x18B4 DUP3 DUP3 DUP6 PUSH2 0x17F4 JUMP JUMPDEST PUSH0 PUSH1 0x20 SWAP1 POP PUSH1 0x1F DUP4 GT PUSH1 0x1 DUP2 EQ PUSH2 0x18E5 JUMPI PUSH0 DUP5 ISZERO PUSH2 0x18D3 JUMPI DUP3 DUP8 ADD MLOAD SWAP1 POP JUMPDEST PUSH2 0x18DD DUP6 DUP3 PUSH2 0x1862 JUMP JUMPDEST DUP7 SSTORE POP PUSH2 0x1944 JUMP JUMPDEST PUSH1 0x1F NOT DUP5 AND PUSH2 0x18F3 DUP7 PUSH2 0x16E0 JUMP JUMPDEST PUSH0 JUMPDEST DUP3 DUP2 LT ISZERO PUSH2 0x191A JUMPI DUP5 DUP10 ADD MLOAD DUP3 SSTORE PUSH1 0x1 DUP3 ADD SWAP2 POP PUSH1 0x20 DUP6 ADD SWAP5 POP PUSH1 0x20 DUP2 ADD SWAP1 POP PUSH2 0x18F5 JUMP JUMPDEST DUP7 DUP4 LT ISZERO PUSH2 0x1937 JUMPI DUP5 DUP10 ADD MLOAD PUSH2 0x1933 PUSH1 0x1F DUP10 AND DUP3 PUSH2 0x1846 JUMP JUMPDEST DUP4 SSTORE POP JUMPDEST PUSH1 0x1 PUSH1 0x2 DUP9 MUL ADD DUP9 SSTORE POP POP POP JUMPDEST POP POP POP POP POP POP JUMP JUMPDEST PUSH32 0x596F75277265207573657220616C726565616479000000000000000000000000 PUSH0 DUP3 ADD MSTORE POP JUMP JUMPDEST PUSH0 PUSH2 0x1980 PUSH1 0x14 DUP4 PUSH2 0xE32 JUMP JUMPDEST SWAP2 POP PUSH2 0x198B DUP3 PUSH2 0x194C JUMP JUMPDEST PUSH1 0x20 DUP3 ADD SWAP1 POP SWAP2 SWAP1 POP JUMP JUMPDEST PUSH0 PUSH1 0x20 DUP3 ADD SWAP1 POP DUP2 DUP2 SUB PUSH0 DUP4 ADD MSTORE PUSH2 0x19AD DUP2 PUSH2 0x1974 JUMP JUMPDEST SWAP1 POP SWAP2 SWAP1 POP JUMP JUMPDEST PUSH32 0x4E487B7100000000000000000000000000000000000000000000000000000000 PUSH0 MSTORE PUSH1 0x32 PUSH1 0x4 MSTORE PUSH1 0x24 PUSH0 REVERT JUMPDEST PUSH32 0x4E6F206D6F6E6579000000000000000000000000000000000000000000000000 PUSH0 DUP3 ADD MSTORE POP JUMP JUMPDEST PUSH0 PUSH2 0x1A15 PUSH1 0x8 DUP4 PUSH2 0xE32 JUMP JUMPDEST SWAP2 POP PUSH2 0x1A20 DUP3 PUSH2 0x19E1 JUMP JUMPDEST PUSH1 0x20 DUP3 ADD SWAP1 POP SWAP2 SWAP1 POP JUMP JUMPDEST PUSH0 PUSH1 0x20 DUP3 ADD SWAP1 POP DUP2 DUP2 SUB PUSH0 DUP4 ADD MSTORE PUSH2 0x1A42 DUP2 PUSH2 0x1A09 JUMP JUMPDEST SWAP1 POP SWAP2 SWAP1 POP JUMP INVALID LOG2 PUSH5 0x6970667358 0x22 SLT KECCAK256 0xE1 SWAP15 BALANCE SIGNEXTEND 0xFB 0xE SWAP13 PUSH20 0x52CDB3B3D55ED61126A7D10C23FB754A522C0EA3 0xD4 0xA7 PUSH8 0x5364736F6C634300 ADDMOD BYTE STOP CALLER "
				},
				"gasEstimates": {
					"creation": {
						"codeDepositCost": "1356600",
						"executionCost": "52194",
						"totalCost": "1408794"
					},
					"external": {
						"AddPizzaToProducts(string,string,string[],uint256,int256)": "infinite",
						"BuyPizzas(uint256)": "infinite",
						"GetPizzas()": "infinite",
						"Registration(string,string)": "infinite",
						"owner()": "2505",
						"pizzas(uint256)": "infinite",
						"receipts(uint256)": "infinite",
						"roles(address)": "2943",
						"users(address)": "infinite"
					}
				},
				"methodIdentifiers": {
					"AddPizzaToProducts(string,string,string[],uint256,int256)": "17c7dbbf",
					"BuyPizzas(uint256)": "a79a241d",
					"GetPizzas()": "a112939e",
					"Registration(string,string)": "2e8ce9f2",
					"owner()": "8da5cb5b",
					"pizzas(uint256)": "6b67a1b2",
					"receipts(uint256)": "0f7ee1ec",
					"roles(address)": "99374642",
					"users(address)": "a87430ba"
				}
			},
			"storageLayout": {
				"storage": [
					{
						"astId": 3,
						"contract": "contracts/PizzaSmartContract.sol:PizzaSmartContract",
						"label": "owner",
						"offset": 0,
						"slot": "0",
						"type": "t_address_payable"
					},
					{
						"astId": 87,
						"contract": "contracts/PizzaSmartContract.sol:PizzaSmartContract",
						"label": "pizzas",
						"offset": 0,
						"slot": "1",
						"type": "t_array(t_struct(Pizza)83_storage)dyn_storage"
					},
					{
						"astId": 96,
						"contract": "contracts/PizzaSmartContract.sol:PizzaSmartContract",
						"label": "receipts",
						"offset": 0,
						"slot": "2",
						"type": "t_array(t_struct(Receipt)92_storage)dyn_storage"
					},
					{
						"astId": 101,
						"contract": "contracts/PizzaSmartContract.sol:PizzaSmartContract",
						"label": "roles",
						"offset": 0,
						"slot": "3",
						"type": "t_mapping(t_address,t_enum(Roles)26)"
					},
					{
						"astId": 106,
						"contract": "contracts/PizzaSmartContract.sol:PizzaSmartContract",
						"label": "users",
						"offset": 0,
						"slot": "4",
						"type": "t_mapping(t_address,t_struct(User)31_storage)"
					}
				],
				"types": {
					"t_address": {
						"encoding": "inplace",
						"label": "address",
						"numberOfBytes": "20"
					},
					"t_address_payable": {
						"encoding": "inplace",
						"label": "address payable",
						"numberOfBytes": "20"
					},
					"t_array(t_string_storage)dyn_storage": {
						"base": "t_string_storage",
						"encoding": "dynamic_array",
						"label": "string[]",
						"numberOfBytes": "32"
					},
					"t_array(t_struct(Pizza)83_storage)dyn_storage": {
						"base": "t_struct(Pizza)83_storage",
						"encoding": "dynamic_array",
						"label": "struct PizzaSmartContract.Pizza[]",
						"numberOfBytes": "32"
					},
					"t_array(t_struct(Receipt)92_storage)dyn_storage": {
						"base": "t_struct(Receipt)92_storage",
						"encoding": "dynamic_array",
						"label": "struct PizzaSmartContract.Receipt[]",
						"numberOfBytes": "32"
					},
					"t_enum(Roles)26": {
						"encoding": "inplace",
						"label": "enum PizzaSmartContract.Roles",
						"numberOfBytes": "1"
					},
					"t_int256": {
						"encoding": "inplace",
						"label": "int256",
						"numberOfBytes": "32"
					},
					"t_mapping(t_address,t_enum(Roles)26)": {
						"encoding": "mapping",
						"key": "t_address",
						"label": "mapping(address => enum PizzaSmartContract.Roles)",
						"numberOfBytes": "32",
						"value": "t_enum(Roles)26"
					},
					"t_mapping(t_address,t_struct(User)31_storage)": {
						"encoding": "mapping",
						"key": "t_address",
						"label": "mapping(address => struct PizzaSmartContract.User)",
						"numberOfBytes": "32",
						"value": "t_struct(User)31_storage"
					},
					"t_string_storage": {
						"encoding": "bytes",
						"label": "string",
						"numberOfBytes": "32"
					},
					"t_struct(Pizza)83_storage": {
						"encoding": "inplace",
						"label": "struct PizzaSmartContract.Pizza",
						"members": [
							{
								"astId": 73,
								"contract": "contracts/PizzaSmartContract.sol:PizzaSmartContract",
								"label": "Name",
								"offset": 0,
								"slot": "0",
								"type": "t_string_storage"
							},
							{
								"astId": 75,
								"contract": "contracts/PizzaSmartContract.sol:PizzaSmartContract",
								"label": "Description",
								"offset": 0,
								"slot": "1",
								"type": "t_string_storage"
							},
							{
								"astId": 78,
								"contract": "contracts/PizzaSmartContract.sol:PizzaSmartContract",
								"label": "Ingredients",
								"offset": 0,
								"slot": "2",
								"type": "t_array(t_string_storage)dyn_storage"
							},
							{
								"astId": 80,
								"contract": "contracts/PizzaSmartContract.sol:PizzaSmartContract",
								"label": "Price",
								"offset": 0,
								"slot": "3",
								"type": "t_uint256"
							},
							{
								"astId": 82,
								"contract": "contracts/PizzaSmartContract.sol:PizzaSmartContract",
								"label": "Rating",
								"offset": 0,
								"slot": "4",
								"type": "t_int256"
							}
						],
						"numberOfBytes": "160"
					},
					"t_struct(Receipt)92_storage": {
						"encoding": "inplace",
						"label": "struct PizzaSmartContract.Receipt",
						"members": [
							{
								"astId": 89,
								"contract": "contracts/PizzaSmartContract.sol:PizzaSmartContract",
								"label": "buyer",
								"offset": 0,
								"slot": "0",
								"type": "t_address"
							},
							{
								"astId": 91,
								"contract": "contracts/PizzaSmartContract.sol:PizzaSmartContract",
								"label": "buyedPizzaName",
								"offset": 0,
								"slot": "1",
								"type": "t_string_storage"
							}
						],
						"numberOfBytes": "64"
					},
					"t_struct(User)31_storage": {
						"encoding": "inplace",
						"label": "struct PizzaSmartContract.User",
						"members": [
							{
								"astId": 28,
								"contract": "contracts/PizzaSmartContract.sol:PizzaSmartContract",
								"label": "Name",
								"offset": 0,
								"slot": "0",
								"type": "t_string_storage"
							},
							{
								"astId": 30,
								"contract": "contracts/PizzaSmartContract.sol:PizzaSmartContract",
								"label": "Password",
								"offset": 0,
								"slot": "1",
								"type": "t_string_storage"
							}
						],
						"numberOfBytes": "64"
					},
					"t_uint256": {
						"encoding": "inplace",
						"label": "uint256",
						"numberOfBytes": "32"
					}
				}
			},
			"userdoc": {
				"kind": "user",
				"methods": {},
				"version": 1
			}
		}
	}
}